{
  "contractName": "CryptoSpatialCoordinate",
  "abi": [
    {
      "constant": true,
      "inputs": [],
      "name": "owner",
      "outputs": [
        {
          "name": "",
          "type": "address"
        }
      ],
      "payable": false,
      "stateMutability": "view",
      "type": "function"
    },
    {
      "inputs": [],
      "payable": false,
      "stateMutability": "nonpayable",
      "type": "constructor"
    },
    {
      "payable": false,
      "stateMutability": "nonpayable",
      "type": "fallback"
    },
    {
      "anonymous": false,
      "inputs": [
        {
          "indexed": false,
          "name": "cscIndex",
          "type": "bytes32"
        },
        {
          "indexed": false,
          "name": "geoHash",
          "type": "bytes15"
        },
        {
          "indexed": false,
          "name": "owner",
          "type": "address"
        }
      ],
      "name": "LogCSCIndexedEntityAdded",
      "type": "event"
    },
    {
      "anonymous": false,
      "inputs": [
        {
          "indexed": false,
          "name": "sender",
          "type": "address"
        },
        {
          "indexed": false,
          "name": "value",
          "type": "uint256"
        }
      ],
      "name": "Deposit",
      "type": "event"
    },
    {
      "constant": false,
      "inputs": [
        {
          "name": "_geoHash",
          "type": "bytes15"
        }
      ],
      "name": "addCSCIndexedEntity",
      "outputs": [
        {
          "name": "cscIndex",
          "type": "bytes32"
        }
      ],
      "payable": false,
      "stateMutability": "nonpayable",
      "type": "function"
    },
    {
      "constant": true,
      "inputs": [
        {
          "name": "_owner",
          "type": "address"
        },
        {
          "name": "_geoHash",
          "type": "bytes15"
        },
        {
          "name": "_cscIndex",
          "type": "bytes32"
        }
      ],
      "name": "isValidCSCIndex",
      "outputs": [
        {
          "name": "",
          "type": "bool"
        }
      ],
      "payable": false,
      "stateMutability": "pure",
      "type": "function"
    },
    {
      "constant": true,
      "inputs": [
        {
          "name": "_geoHash",
          "type": "bytes15"
        },
        {
          "name": "_cscIndex",
          "type": "bytes32"
        }
      ],
      "name": "isMyCSCIndex",
      "outputs": [
        {
          "name": "",
          "type": "bool"
        }
      ],
      "payable": false,
      "stateMutability": "view",
      "type": "function"
    }
  ],
  "bytecode": "0x608060405234801561001057600080fd5b50336000806101000a81548173ffffffffffffffffffffffffffffffffffffffff021916908373ffffffffffffffffffffffffffffffffffffffff16021790555061042b806100606000396000f3fe608060405234801561001057600080fd5b506004361061004c5760003560e01c80631a0420131461009d5780633ee796251461010157806385f82407146101855780638da5cb5b146101db575b6040517f08c379a00000000000000000000000000000000000000000000000000000000081526004018080602001828103825260298152602001806103d76029913960400191505060405180910390fd5b6100e7600480360360408110156100b357600080fd5b81019080803570ffffffffffffffffffffffffffffffffff1916906020019092919080359060200190929190505050610225565b604051808215151515815260200191505060405180910390f35b61016b6004803603606081101561011757600080fd5b81019080803573ffffffffffffffffffffffffffffffffffffffff169060200190929190803570ffffffffffffffffffffffffffffffffff191690602001909291908035906020019092919050505061023b565b604051808215151515815260200191505060405180910390f35b6101c56004803603602081101561019b57600080fd5b81019080803570ffffffffffffffffffffffffffffffffff19169060200190929190505050610252565b6040518082815260200191505060405180910390f35b6101e3610321565b604051808273ffffffffffffffffffffffffffffffffffffffff1673ffffffffffffffffffffffffffffffffffffffff16815260200191505060405180910390f35b60006102313384610346565b8214905092915050565b60006102478484610346565b821490509392505050565b600061025e3383610346565b90507fb59e8a98658f85fe6223b59f974b1a61635c82f55eea463ad76615c68a4955eb81836000809054906101000a900473ffffffffffffffffffffffffffffffffffffffff16604051808481526020018370ffffffffffffffffffffffffffffffffff191670ffffffffffffffffffffffffffffffffff191681526020018273ffffffffffffffffffffffffffffffffffffffff1673ffffffffffffffffffffffffffffffffffffffff168152602001935050505060405180910390a1919050565b6000809054906101000a900473ffffffffffffffffffffffffffffffffffffffff1681565b60008282604051602001808373ffffffffffffffffffffffffffffffffffffffff1673ffffffffffffffffffffffffffffffffffffffff1660601b81526014018270ffffffffffffffffffffffffffffffffff191670ffffffffffffffffffffffffffffffffff19168152600f01925050506040516020818303038152906040528051906020012090509291505056fe7468697320636f6e74726163742073686f756c64206e65766572206861766520612062616c616e6365a165627a7a723058202c1bf02cd6bf0e598b1f8edf8f10c8a4d2e5d0bfeeae0bcded32b76bee553b670029",
  "source": "/**\n * @title CryptoSpatialCoordinate\n * @dev standard Crypto Spatial Coordinate library\n * @notice This contract implement the Crypto Spatial Coordinate\n *  as described by the FOAM protocole\n * Requirements:\n * - ....\n *\n*/\n\npragma solidity ^0.5.0;\n\ncontract CryptoSpatialCoordinate {\n    //\n    // State variables\n    //\n    address public owner;\n\n    struct CSCIndex {\n    address owner;\n    bytes15 geoHash;\n    bytes32 cscIndex;\n    }\n\n    //\n    // Events - publicize actions to external listeners\n    //\n    event LogCSCIndexedEntityAdded(bytes32 cscIndex, bytes15 geoHash, address owner);\n    event Deposit(address sender, uint value);\n    //\n    // Functions\n    //\n\n    /// @notice constuctor\n    constructor () public {\n      owner = msg.sender;\n    }\n\n    /// @notice addCSCIndexedEntity\n    /// @param _geoHash geoHash of the geospatialy referenced entity\n    function addCSCIndexedEntity(bytes15 _geoHash)\n    public returns (bytes32 cscIndex) {\n      // TODO Check validity of external input\n      cscIndex = calcCSCIndex (msg.sender, _geoHash);\n      emit LogCSCIndexedEntityAdded(cscIndex, _geoHash, owner);\n    }\n\n    /**\n    * @dev calculate the CSC Index using ...\n    * @notice calcCSCIndex\n    * @param _owner the owner of the CSC\n    * @param _geoHash the geoHash of the geospatialy referenced entity\n    */\n    function calcCSCIndex (address _owner, bytes15 _geoHash)\n    internal pure\n    returns (bytes32) {\n      return keccak256(abi.encodePacked(_owner, _geoHash));\n    }\n\n    /// @notice isCSCIndex\n    /// @param  _owner the owner of the entity\n    /// @param  _geoHash geoHash of the geospatialy referenced entity\n    /// @param  _cscIndex the CSC Index\n    function isValidCSCIndex(address _owner, bytes15 _geoHash, bytes32 _cscIndex)\n    public pure returns (bool) {\n      return (_cscIndex == calcCSCIndex (_owner, _geoHash));\n    }\n\n    /// @notice isMyCSCIndex\n    /// @param  _geoHash geoHash of the geospatialy referenced entity\n    /// @param  _cscIndex the CSC Index\n    function isMyCSCIndex(bytes15 _geoHash, bytes32 _cscIndex)\n    public view returns (bool) {\n      return (_cscIndex == calcCSCIndex (msg.sender, _geoHash));\n    }\n\n      function () external {\n      revert(\"this contract should never have a balance\");\n    }\n\n}\n",
  "sourcePath": "/home/ali/EthProjects/onchain-land-administration/solidity/contracts/CryptoSpatialCoordinate.sol",
  "compiler": {
    "name": "solc",
    "version": "0.5.8+commit.23d335f2.Emscripten.clang"
  },
  "schemaVersion": "3.0.16",
  "updatedAt": "2019-10-18T22:53:45.092Z",
  "devdoc": {
    "methods": {
      "addCSCIndexedEntity(bytes15)": {
        "params": {
          "_geoHash": "geoHash of the geospatialy referenced entity"
        }
      },
      "isMyCSCIndex(bytes15,bytes32)": {
        "params": {
          "_cscIndex": "the CSC Index",
          "_geoHash": "geoHash of the geospatialy referenced entity"
        }
      },
      "isValidCSCIndex(address,bytes15,bytes32)": {
        "params": {
          "_cscIndex": "the CSC Index",
          "_geoHash": "geoHash of the geospatialy referenced entity",
          "_owner": "the owner of the entity"
        }
      }
    }
  },
  "userdoc": {
    "methods": {
      "addCSCIndexedEntity(bytes15)": {
        "notice": "addCSCIndexedEntity"
      },
      "constructor": "constuctor",
      "isMyCSCIndex(bytes15,bytes32)": {
        "notice": "isMyCSCIndex"
      },
      "isValidCSCIndex(address,bytes15,bytes32)": {
        "notice": "isCSCIndex"
      }
    }
  }
}