{
  "contractName": "CSFeatureRegistry",
  "abi": [
    {
      "constant": true,
      "inputs": [],
      "name": "srs",
      "outputs": [
        {
          "name": "",
          "type": "string"
        }
      ],
      "payable": false,
      "stateMutability": "view",
      "type": "function"
    },
    {
      "constant": true,
      "inputs": [],
      "name": "name",
      "outputs": [
        {
          "name": "",
          "type": "string"
        }
      ],
      "payable": false,
      "stateMutability": "view",
      "type": "function"
    },
    {
      "constant": false,
      "inputs": [],
      "name": "unpause",
      "outputs": [],
      "payable": false,
      "stateMutability": "nonpayable",
      "type": "function"
    },
    {
      "constant": true,
      "inputs": [
        {
          "name": "account",
          "type": "address"
        }
      ],
      "name": "isPauser",
      "outputs": [
        {
          "name": "",
          "type": "bool"
        }
      ],
      "payable": false,
      "stateMutability": "view",
      "type": "function"
    },
    {
      "constant": true,
      "inputs": [],
      "name": "paused",
      "outputs": [
        {
          "name": "",
          "type": "bool"
        }
      ],
      "payable": false,
      "stateMutability": "view",
      "type": "function"
    },
    {
      "constant": false,
      "inputs": [],
      "name": "renouncePauser",
      "outputs": [],
      "payable": false,
      "stateMutability": "nonpayable",
      "type": "function"
    },
    {
      "constant": false,
      "inputs": [],
      "name": "renounceOwnership",
      "outputs": [],
      "payable": false,
      "stateMutability": "nonpayable",
      "type": "function"
    },
    {
      "constant": true,
      "inputs": [],
      "name": "h3Resolution",
      "outputs": [
        {
          "name": "",
          "type": "uint256"
        }
      ],
      "payable": false,
      "stateMutability": "view",
      "type": "function"
    },
    {
      "constant": false,
      "inputs": [
        {
          "name": "account",
          "type": "address"
        }
      ],
      "name": "addPauser",
      "outputs": [],
      "payable": false,
      "stateMutability": "nonpayable",
      "type": "function"
    },
    {
      "constant": false,
      "inputs": [],
      "name": "pause",
      "outputs": [],
      "payable": false,
      "stateMutability": "nonpayable",
      "type": "function"
    },
    {
      "constant": true,
      "inputs": [],
      "name": "owner",
      "outputs": [
        {
          "name": "",
          "type": "address"
        }
      ],
      "payable": false,
      "stateMutability": "view",
      "type": "function"
    },
    {
      "constant": true,
      "inputs": [],
      "name": "isOwner",
      "outputs": [
        {
          "name": "",
          "type": "bool"
        }
      ],
      "payable": false,
      "stateMutability": "view",
      "type": "function"
    },
    {
      "constant": false,
      "inputs": [
        {
          "name": "newOwner",
          "type": "address"
        }
      ],
      "name": "transferOwnership",
      "outputs": [],
      "payable": false,
      "stateMutability": "nonpayable",
      "type": "function"
    },
    {
      "inputs": [
        {
          "name": "_name",
          "type": "string"
        },
        {
          "name": "_h3Resolution",
          "type": "uint256"
        },
        {
          "name": "_srs",
          "type": "string"
        }
      ],
      "payable": false,
      "stateMutability": "nonpayable",
      "type": "constructor"
    },
    {
      "payable": false,
      "stateMutability": "nonpayable",
      "type": "fallback"
    },
    {
      "anonymous": false,
      "inputs": [
        {
          "indexed": false,
          "name": "name",
          "type": "string"
        },
        {
          "indexed": true,
          "name": "csc",
          "type": "bytes32"
        },
        {
          "indexed": true,
          "name": "dggsIndex",
          "type": "bytes15"
        },
        {
          "indexed": false,
          "name": "wkbHash",
          "type": "bytes32"
        },
        {
          "indexed": false,
          "name": "owner",
          "type": "address"
        }
      ],
      "name": "LogNewFeatureAdded",
      "type": "event"
    },
    {
      "anonymous": false,
      "inputs": [
        {
          "indexed": false,
          "name": "name",
          "type": "string"
        },
        {
          "indexed": true,
          "name": "csc",
          "type": "bytes32"
        },
        {
          "indexed": true,
          "name": "dggsIndex",
          "type": "bytes15"
        },
        {
          "indexed": false,
          "name": "killer",
          "type": "address"
        }
      ],
      "name": "LogFeatureRemoved",
      "type": "event"
    },
    {
      "anonymous": false,
      "inputs": [
        {
          "indexed": true,
          "name": "previousOwner",
          "type": "address"
        },
        {
          "indexed": true,
          "name": "newOwner",
          "type": "address"
        }
      ],
      "name": "OwnershipTransferred",
      "type": "event"
    },
    {
      "anonymous": false,
      "inputs": [
        {
          "indexed": false,
          "name": "account",
          "type": "address"
        }
      ],
      "name": "Paused",
      "type": "event"
    },
    {
      "anonymous": false,
      "inputs": [
        {
          "indexed": false,
          "name": "account",
          "type": "address"
        }
      ],
      "name": "Unpaused",
      "type": "event"
    },
    {
      "anonymous": false,
      "inputs": [
        {
          "indexed": true,
          "name": "account",
          "type": "address"
        }
      ],
      "name": "PauserAdded",
      "type": "event"
    },
    {
      "anonymous": false,
      "inputs": [
        {
          "indexed": true,
          "name": "account",
          "type": "address"
        }
      ],
      "name": "PauserRemoved",
      "type": "event"
    },
    {
      "constant": true,
      "inputs": [],
      "name": "getFeatureCount",
      "outputs": [
        {
          "name": "",
          "type": "uint256"
        }
      ],
      "payable": false,
      "stateMutability": "view",
      "type": "function"
    },
    {
      "constant": true,
      "inputs": [
        {
          "name": "csc",
          "type": "bytes32"
        }
      ],
      "name": "getFeature",
      "outputs": [
        {
          "name": "",
          "type": "address"
        }
      ],
      "payable": false,
      "stateMutability": "view",
      "type": "function"
    },
    {
      "constant": true,
      "inputs": [
        {
          "name": "_dggsIndex",
          "type": "bytes15"
        }
      ],
      "name": "dggsIndexExist",
      "outputs": [
        {
          "name": "",
          "type": "bool"
        }
      ],
      "payable": false,
      "stateMutability": "view",
      "type": "function"
    },
    {
      "constant": true,
      "inputs": [
        {
          "name": "_dggsIndex",
          "type": "bytes15"
        }
      ],
      "name": "dggsIndexOwner",
      "outputs": [
        {
          "name": "",
          "type": "address"
        }
      ],
      "payable": false,
      "stateMutability": "view",
      "type": "function"
    },
    {
      "constant": false,
      "inputs": [
        {
          "name": "csc",
          "type": "bytes32"
        }
      ],
      "name": "removeFeature",
      "outputs": [],
      "payable": false,
      "stateMutability": "nonpayable",
      "type": "function"
    }
  ],
  "bytecode": "0x608060405260006005553480156200001657600080fd5b506040516200212238038062002122833981018060405260608110156200003c57600080fd5b8101908080516401000000008111156200005557600080fd5b828101905060208101848111156200006c57600080fd5b81518560018202830111640100000000821117156200008a57600080fd5b5050929190602001805190602001909291908051640100000000811115620000b157600080fd5b82810190506020810184811115620000c857600080fd5b8151856001820283011164010000000082111715620000e657600080fd5b50509291905050506200010e620001026200035c60201b60201c565b6200036460201b60201c565b6000600160006101000a81548160ff021916908315150217905550620001396200035c60201b60201c565b6001806101000a81548173ffffffffffffffffffffffffffffffffffffffff021916908373ffffffffffffffffffffffffffffffffffffffff1602179055506001809054906101000a900473ffffffffffffffffffffffffffffffffffffffff1673ffffffffffffffffffffffffffffffffffffffff16600073ffffffffffffffffffffffffffffffffffffffff167f8be0079c531659141344cd1fd0a4f28419497f9722a3daafe3b4186f6b6457e060405160405180910390a360008210158015620002065750601082105b6200025d576040517f08c379a000000000000000000000000000000000000000000000000000000000815260040180806020018281038252603c815260200180620020c4603c913960400191505060405180910390fd5b600060f81b836000815181106200027057fe5b602001015160f81c60f81b7effffffffffffffffffffffffffffffffffffffffffffffffffffffffffffff1916141562000312576040517f08c379a000000000000000000000000000000000000000000000000000000000815260040180806020018281038252600a8152602001807f456d707479206e616d650000000000000000000000000000000000000000000081525060200191505060405180910390fd5b8160028190555082600390805190602001906200033192919062000589565b5080600490805190602001906200034a92919062000589565b50600060058190555050505062000638565b600033905090565b6200037f816000620003c560201b620018641790919060201c565b8073ffffffffffffffffffffffffffffffffffffffff167f6719d08c1888103bea251a4ed56406bd0c3e69723c8a1686e017e7bbe159b6f860405160405180910390a250565b620003d78282620004a960201b60201c565b156200044b576040517f08c379a000000000000000000000000000000000000000000000000000000000815260040180806020018281038252601f8152602001807f526f6c65733a206163636f756e7420616c72656164792068617320726f6c650081525060200191505060405180910390fd5b60018260000160008373ffffffffffffffffffffffffffffffffffffffff1673ffffffffffffffffffffffffffffffffffffffff16815260200190815260200160002060006101000a81548160ff0219169083151502179055505050565b60008073ffffffffffffffffffffffffffffffffffffffff168273ffffffffffffffffffffffffffffffffffffffff16141562000532576040517f08c379a0000000000000000000000000000000000000000000000000000000008152600401808060200182810382526022815260200180620021006022913960400191505060405180910390fd5b8260000160008373ffffffffffffffffffffffffffffffffffffffff1673ffffffffffffffffffffffffffffffffffffffff16815260200190815260200160002060009054906101000a900460ff16905092915050565b828054600181600116156101000203166002900490600052602060002090601f016020900481019282601f10620005cc57805160ff1916838001178555620005fd565b82800160010185558215620005fd579182015b82811115620005fc578251825591602001919060010190620005df565b5b5090506200060c919062000610565b5090565b6200063591905b808211156200063157600081600090555060010162000617565b5090565b90565b611a7c80620006486000396000f3fe608060405234801561001057600080fd5b50600436106101165760003560e01c8063715018a6116100a25780638b12dbaa116100715780638b12dbaa1461041b5780638da5cb5b146104895780638f32d59b146104d3578063abafb898146104f5578063f2fde38b1461057757610116565b8063715018a6146103a55780637e9c00fc146103af57806382dc1ec4146103cd5780638456cb591461041157610116565b806346fbf68e116100e957806346fbf68e146102a55780635c975abb146103015780636106f192146103235780636dde6a4f146103415780636ef8d66d1461039b57610116565b8063032295561461016757806306fdde03146101ea5780633d3995761461026d5780633f4ba83a1461029b575b6040517f08c379a00000000000000000000000000000000000000000000000000000000081526004018080602001828103825260298152602001806119bc6029913960400191505060405180910390fd5b61016f6105bb565b6040518080602001828103825283818151815260200191508051906020019080838360005b838110156101af578082015181840152602081019050610194565b50505050905090810190601f1680156101dc5780820380516001836020036101000a031916815260200191505b509250505060405180910390f35b6101f2610659565b6040518080602001828103825283818151815260200191508051906020019080838360005b83811015610232578082015181840152602081019050610217565b50505050905090810190601f16801561025f5780820380516001836020036101000a031916815260200191505b509250505060405180910390f35b6102996004803603602081101561028357600080fd5b81019080803590602001909291905050506106f7565b005b6102a3610c20565b005b6102e7600480360360208110156102bb57600080fd5b81019080803573ffffffffffffffffffffffffffffffffffffffff169060200190929190505050610d8e565b604051808215151515815260200191505060405180910390f35b610309610dab565b604051808215151515815260200191505060405180910390f35b61032b610dc2565b6040518082815260200191505060405180910390f35b6103816004803603602081101561035757600080fd5b81019080803570ffffffffffffffffffffffffffffffffff19169060200190929190505050610dcc565b604051808215151515815260200191505060405180910390f35b6103a3610e25565b005b6103ad610e37565b005b6103b7610f70565b6040518082815260200191505060405180910390f35b61040f600480360360208110156103e357600080fd5b81019080803573ffffffffffffffffffffffffffffffffffffffff169060200190929190505050610f76565b005b610419610fe7565b005b6104476004803603602081101561043157600080fd5b8101908080359060200190929190505050611155565b604051808273ffffffffffffffffffffffffffffffffffffffff1673ffffffffffffffffffffffffffffffffffffffff16815260200191505060405180910390f35b61049161124d565b604051808273ffffffffffffffffffffffffffffffffffffffff1673ffffffffffffffffffffffffffffffffffffffff16815260200191505060405180910390f35b6104db611276565b604051808215151515815260200191505060405180910390f35b6105356004803603602081101561050b57600080fd5b81019080803570ffffffffffffffffffffffffffffffffff191690602001909291905050506112d4565b604051808273ffffffffffffffffffffffffffffffffffffffff1673ffffffffffffffffffffffffffffffffffffffff16815260200191505060405180910390f35b6105b96004803603602081101561058d57600080fd5b81019080803573ffffffffffffffffffffffffffffffffffffffff169060200190929190505050611339565b005b60048054600181600116156101000203166002900480601f0160208091040260200160405190810160405280929190818152602001828054600181600116156101000203166002900480156106515780601f1061062657610100808354040283529160200191610651565b820191906000526020600020905b81548152906001019060200180831161063457829003601f168201915b505050505081565b60038054600181600116156101000203166002900480601f0160208091040260200160405190810160405280929190818152602001828054600181600116156101000203166002900480156106ef5780601f106106c4576101008083540402835291602001916106ef565b820191906000526020600020905b8154815290600101906020018083116106d257829003601f168201915b505050505081565b80600073ffffffffffffffffffffffffffffffffffffffff166006600083815260200190815260200160002060009054906101000a900473ffffffffffffffffffffffffffffffffffffffff1673ffffffffffffffffffffffffffffffffffffffff1614156107b1576040517f08c379a00000000000000000000000000000000000000000000000000000000081526004018080602001828103825260268152602001806119966026913960400191505060405180910390fd5b6107b9610dab565b1561082c576040517f08c379a00000000000000000000000000000000000000000000000000000000081526004018080602001828103825260128152602001807f436f6e747261637420697320706175736564000000000000000000000000000081525060200191505060405180910390fd5b600061083783611155565b90508073ffffffffffffffffffffffffffffffffffffffff166324d7806c336040518263ffffffff1660e01b8152600401808273ffffffffffffffffffffffffffffffffffffffff1673ffffffffffffffffffffffffffffffffffffffff16815260200191505060206040518083038186803b1580156108b657600080fd5b505afa1580156108ca573d6000803e3d6000fd5b505050506040513d60208110156108e057600080fd5b8101908080519060200190929190505050610946576040517f08c379a0000000000000000000000000000000000000000000000000000000008152600401808060200182810382526029815260200180611a066029913960400191505060405180910390fd5b60008173ffffffffffffffffffffffffffffffffffffffff1663572982f56040518163ffffffff1660e01b815260040160206040518083038186803b15801561098e57600080fd5b505afa1580156109a2573d6000803e3d6000fd5b505050506040513d60208110156109b857600080fd5b810190808051906020019092919050505090506000600760008370ffffffffffffffffffffffffffffffffff191670ffffffffffffffffffffffffffffffffff1916815260200190815260200160002060006101000a81548160ff0219169083151502179055506000600860008370ffffffffffffffffffffffffffffffffff191670ffffffffffffffffffffffffffffffffff1916815260200190815260200160002060006101000a81548173ffffffffffffffffffffffffffffffffffffffff021916908373ffffffffffffffffffffffffffffffffffffffff160217905550610ab060016005546113bf90919063ffffffff16565b6005819055508070ffffffffffffffffffffffffffffffffff1916847f9cb70ff2a2081c021be0a9904a5fd42d4bf1e0102e76dec7d2ece79cd0e30b1560033360405180806020018373ffffffffffffffffffffffffffffffffffffffff1673ffffffffffffffffffffffffffffffffffffffff168152602001828103825284818154600181600116156101000203166002900481526020019150805460018160011615610100020316600290048015610bab5780601f10610b8057610100808354040283529160200191610bab565b820191906000526020600020905b815481529060010190602001808311610b8e57829003601f168201915b5050935050505060405180910390a38173ffffffffffffffffffffffffffffffffffffffff166341c0e1b56040518163ffffffff1660e01b8152600401600060405180830381600087803b158015610c0257600080fd5b505af1158015610c16573d6000803e3d6000fd5b5050505050505050565b610c30610c2b611409565b610d8e565b610c85576040517f08c379a00000000000000000000000000000000000000000000000000000000081526004018080602001828103825260308152602001806119406030913960400191505060405180910390fd5b600160009054906101000a900460ff16610d07576040517f08c379a00000000000000000000000000000000000000000000000000000000081526004018080602001828103825260148152602001807f5061757361626c653a206e6f742070617573656400000000000000000000000081525060200191505060405180910390fd5b6000600160006101000a81548160ff0219169083151502179055507f5db9ee0a495bf2e6ff9c91a7834c1ba4fdd244a5e8aa4e537bd38aeae4b073aa610d4b611409565b604051808273ffffffffffffffffffffffffffffffffffffffff1673ffffffffffffffffffffffffffffffffffffffff16815260200191505060405180910390a1565b6000610da482600061141190919063ffffffff16565b9050919050565b6000600160009054906101000a900460ff16905090565b6000600554905090565b600060011515600760008470ffffffffffffffffffffffffffffffffff191670ffffffffffffffffffffffffffffffffff1916815260200190815260200160002060009054906101000a900460ff161515149050919050565b610e35610e30611409565b6114ef565b565b610e3f611276565b610eb1576040517f08c379a00000000000000000000000000000000000000000000000000000000081526004018080602001828103825260208152602001807f4f776e61626c653a2063616c6c6572206973206e6f7420746865206f776e657281525060200191505060405180910390fd5b600073ffffffffffffffffffffffffffffffffffffffff166001809054906101000a900473ffffffffffffffffffffffffffffffffffffffff1673ffffffffffffffffffffffffffffffffffffffff167f8be0079c531659141344cd1fd0a4f28419497f9722a3daafe3b4186f6b6457e060405160405180910390a360006001806101000a81548173ffffffffffffffffffffffffffffffffffffffff021916908373ffffffffffffffffffffffffffffffffffffffff160217905550565b60025481565b610f86610f81611409565b610d8e565b610fdb576040517f08c379a00000000000000000000000000000000000000000000000000000000081526004018080602001828103825260308152602001806119406030913960400191505060405180910390fd5b610fe481611549565b50565b610ff7610ff2611409565b610d8e565b61104c576040517f08c379a00000000000000000000000000000000000000000000000000000000081526004018080602001828103825260308152602001806119406030913960400191505060405180910390fd5b600160009054906101000a900460ff16156110cf576040517f08c379a00000000000000000000000000000000000000000000000000000000081526004018080602001828103825260108152602001807f5061757361626c653a207061757365640000000000000000000000000000000081525060200191505060405180910390fd5b60018060006101000a81548160ff0219169083151502179055507f62e78cea01bee320cd4e420270b5ea74000d11b0c9f74754ebdbfc544b05a258611112611409565b604051808273ffffffffffffffffffffffffffffffffffffffff1673ffffffffffffffffffffffffffffffffffffffff16815260200191505060405180910390a1565b600081600073ffffffffffffffffffffffffffffffffffffffff166006600083815260200190815260200160002060009054906101000a900473ffffffffffffffffffffffffffffffffffffffff1673ffffffffffffffffffffffffffffffffffffffff161415611211576040517f08c379a00000000000000000000000000000000000000000000000000000000081526004018080602001828103825260268152602001806119966026913960400191505060405180910390fd5b6006600084815260200190815260200160002060009054906101000a900473ffffffffffffffffffffffffffffffffffffffff16915050919050565b60006001809054906101000a900473ffffffffffffffffffffffffffffffffffffffff16905090565b60006001809054906101000a900473ffffffffffffffffffffffffffffffffffffffff1673ffffffffffffffffffffffffffffffffffffffff166112b8611409565b73ffffffffffffffffffffffffffffffffffffffff1614905090565b6000600860008370ffffffffffffffffffffffffffffffffff191670ffffffffffffffffffffffffffffffffff1916815260200190815260200160002060009054906101000a900473ffffffffffffffffffffffffffffffffffffffff169050919050565b611341611276565b6113b3576040517f08c379a00000000000000000000000000000000000000000000000000000000081526004018080602001828103825260208152602001807f4f776e61626c653a2063616c6c6572206973206e6f7420746865206f776e657281525060200191505060405180910390fd5b6113bc816115a3565b50565b600061140183836040518060400160405280601e81526020017f536166654d6174683a207375627472616374696f6e206f766572666c6f7700008152506116e7565b905092915050565b600033905090565b60008073ffffffffffffffffffffffffffffffffffffffff168273ffffffffffffffffffffffffffffffffffffffff161415611498576040517f08c379a0000000000000000000000000000000000000000000000000000000008152600401808060200182810382526022815260200180611a2f6022913960400191505060405180910390fd5b8260000160008373ffffffffffffffffffffffffffffffffffffffff1673ffffffffffffffffffffffffffffffffffffffff16815260200190815260200160002060009054906101000a900460ff16905092915050565b6115038160006117a790919063ffffffff16565b8073ffffffffffffffffffffffffffffffffffffffff167fcd265ebaf09df2871cc7bd4133404a235ba12eff2041bb89d9c714a2621c7c7e60405160405180910390a250565b61155d81600061186490919063ffffffff16565b8073ffffffffffffffffffffffffffffffffffffffff167f6719d08c1888103bea251a4ed56406bd0c3e69723c8a1686e017e7bbe159b6f860405160405180910390a250565b600073ffffffffffffffffffffffffffffffffffffffff168173ffffffffffffffffffffffffffffffffffffffff161415611629576040517f08c379a00000000000000000000000000000000000000000000000000000000081526004018080602001828103825260268152602001806119706026913960400191505060405180910390fd5b8073ffffffffffffffffffffffffffffffffffffffff166001809054906101000a900473ffffffffffffffffffffffffffffffffffffffff1673ffffffffffffffffffffffffffffffffffffffff167f8be0079c531659141344cd1fd0a4f28419497f9722a3daafe3b4186f6b6457e060405160405180910390a3806001806101000a81548173ffffffffffffffffffffffffffffffffffffffff021916908373ffffffffffffffffffffffffffffffffffffffff16021790555050565b6000838311158290611794576040517f08c379a00000000000000000000000000000000000000000000000000000000081526004018080602001828103825283818151815260200191508051906020019080838360005b8381101561175957808201518184015260208101905061173e565b50505050905090810190601f1680156117865780820380516001836020036101000a031916815260200191505b509250505060405180910390fd5b5060008385039050809150509392505050565b6117b18282611411565b611806576040517f08c379a00000000000000000000000000000000000000000000000000000000081526004018080602001828103825260218152602001806119e56021913960400191505060405180910390fd5b60008260000160008373ffffffffffffffffffffffffffffffffffffffff1673ffffffffffffffffffffffffffffffffffffffff16815260200190815260200160002060006101000a81548160ff0219169083151502179055505050565b61186e8282611411565b156118e1576040517f08c379a000000000000000000000000000000000000000000000000000000000815260040180806020018281038252601f8152602001807f526f6c65733a206163636f756e7420616c72656164792068617320726f6c650081525060200191505060405180910390fd5b60018260000160008373ffffffffffffffffffffffffffffffffffffffff1673ffffffffffffffffffffffffffffffffffffffff16815260200190815260200160002060006101000a81548160ff021916908315150217905550505056fe506175736572526f6c653a2063616c6c657220646f6573206e6f742068617665207468652050617573657220726f6c654f776e61626c653a206e6577206f776e657220697320746865207a65726f20616464726573734665617475726520646f6573206e6f7420657869737420696e207468652072656769737472797468697320636f6e74726163742073686f756c64206e65766572206861766520612062616c616e6365526f6c65733a206163636f756e7420646f6573206e6f74206861766520726f6c6553656e646572206e6f7420616c6c6f77656420746f2072656d6f766520746869732066656174757265526f6c65733a206163636f756e7420697320746865207a65726f2061646472657373a165627a7a723058207776b991ba62889f836669664b59f2363c650dc2e8f86807695d4fea417a8fa300294833205265736f6c7574696f6e206d757374206265205f68335265736f6c7574696f6e203e3d30202626205f68335265736f6c7574696f6e203c3136526f6c65733a206163636f756e7420697320746865207a65726f2061646472657373",
  "source": "/**\n * @title Crypto-Spatial Feature Registry\n * @author BENAHMED DAHO Ali\n * @notice an abstract contract that implement a Geospatial Features Registry\n * @dev ...\n *\n*/\n\npragma solidity ^0.5.0;\n\nimport './CSFeatureInterface.sol';\nimport './CSFeature.sol';\nimport './CSGeometryLib.sol';\n\nimport '@openzeppelin/contracts/lifecycle/Pausable.sol';\nimport '@openzeppelin/contracts/ownership/Ownable.sol';\nimport '@openzeppelin/contracts/math/SafeMath.sol';\n\ncontract CSFeatureRegistry is Pausable, Ownable {\n\n  // Use safe math for featureCount;\n  using SafeMath for uint256;\n\n  //\n  // State variables\n  //\n  uint public h3Resolution; // H3 resolution (H3 is a compliant DGGS library)\n  string public name;       // display name of the registry\n  string public srs;        // Spatial Reference System\n  uint256 internal featuresCount = 0; // Counter of the added features\n\n  mapping(bytes32 => address) internal features;  // Mapping CSC => Features contract address\n  mapping(bytes15 => bool) internal addedIndexes; // Mapping to keep trace of added indexes\n  mapping(bytes15 => address) internal indexOwner;// Mapping to keep trace of DGGS indexes owners\n\n  //\n  // Events - publicize actions to external listeners\n  //\n  event LogNewFeatureAdded(string name, bytes32 indexed csc, bytes15 indexed dggsIndex, bytes32 wkbHash, address owner);\n  event LogFeatureRemoved(string name, bytes32 indexed csc, bytes15 indexed dggsIndex, address killer);\n\n  //\n  // Functions\n  //\n\n  /// @notice constuctor\n  constructor (string memory _name, uint _h3Resolution, string memory _srs) public {\n    require((_h3Resolution >= 0 && _h3Resolution < 16), \"H3 Resolution must be _h3Resolution >=0 && _h3Resolution <16\");\n    require(bytes(_name)[0] != 0, \"Empty name\");\n\n    h3Resolution = _h3Resolution;\n    name = _name;\n    srs = _srs;\n    featuresCount = 0;\n  }\n\n  /**\n  * @notice addFeature\n  * @param dggsIndex dggsIndex of the feature\n  * @param wkbHash Well Known Binary Hash\n  * @return the Crypto-Spatial Coordinate (CSC) of the feature\n  */\n\n  modifier addFeature(bytes15 dggsIndex, bytes32 wkbHash, address _sender)\n   {\n    require(!paused(), \"Contract is paused\");\n    require(dggsIndex.length != 0, \"Empty dggsIndex\");\n    require(addedIndexes[dggsIndex] == false, \"DGGS Index already exist\");\n    require(wkbHash.length != 0, \"Empty wkbHash\");\n\n    _;\n\n    addedIndexes[dggsIndex] = true;\n    indexOwner[dggsIndex] = _sender;\n    bytes32 csc = CSGeometryLib.computeCSCIndex(_sender, dggsIndex); // TODO chek for gas overburn\n    emit LogNewFeatureAdded(name, csc, dggsIndex, wkbHash, _sender);\n    featuresCount = featuresCount.add(1); // TODO chek for gas overburn\n  }\n\n  /**\n   * @dev check if the feature already exist in the registry\n   */\n  modifier featureExist(bytes32 csc) {\n    require (features[csc] != address(0), \"Feature does not exist in the registry\");\n    _;\n  }\n\n /**\n  * @notice getFeatureCount\n  * @return the count of the features added to the registry\n  */\n  function getFeatureCount() public view returns (uint256) {\n    return featuresCount;\n  }\n\n  /**\n  * @notice getFeature\n  * @param csc the feature CSC\n  * @return the address of the feature deployed contract\n  */\n  function getFeature(bytes32 csc) public view featureExist(csc) returns (address){\n    return  features[csc];\n  }\n\n /**\n  * @dev dggsIndexExist : check if dggs allready exit in the registry\n  * @param _dggsIndex the index to check\n  */\n\n  function dggsIndexExist(bytes15 _dggsIndex) public view returns (bool) {\n    return ((addedIndexes[_dggsIndex] == true));\n  }\n\n /**\n  * @dev dggsIndexOwner : return the address of the dggsIndex Owner\n  * @param _dggsIndex the index to fetch\n  */\n\n  function dggsIndexOwner(bytes15 _dggsIndex) public view returns (address) {\n    return (indexOwner[_dggsIndex]);\n  }\n\n  /**\n   * @dev remove permanently the feature from the registry\n   */\n  function removeFeature(bytes32 csc) external featureExist(csc) {\n    require(!paused(), \"Contract is paused\");\n    CSFeatureInterface feature = CSFeatureInterface(getFeature(csc));\n    // TODO require msg.sender == feature.owner() and remove onlyOwner() modifier\n    require(feature.isAdmin(msg.sender), \"Sender not allowed to remove this feature\");\n\n    bytes15 dggsIndex = feature.getFeatureDGGSIndex();\n    addedIndexes[dggsIndex] = false;\n    indexOwner[dggsIndex] = address(0);\n    featuresCount = featuresCount.sub(1); // TODO chek for gas overburn\n    emit LogFeatureRemoved(name, csc, dggsIndex, msg.sender);\n    feature.kill();\n  }\n\n\n  /**\n  * @notice callback function\n  */\n\n  function () external {\n    revert(\"this contract should never have a balance\");\n  }\n}\n",
  "sourcePath": "/home/ali/EthProjects/onchain-land-administration/solidity/contracts/geospatial/CSFeatureRegistry.sol",
  "compiler": {
    "name": "solc",
    "version": "0.5.8+commit.23d335f2.Emscripten.clang"
  },
  "schemaVersion": "3.0.16",
  "updatedAt": "2019-11-29T20:33:43.148Z",
  "devdoc": {
    "methods": {
      "dggsIndexExist(bytes15)": {
        "details": "dggsIndexExist : check if dggs allready exit in the registry",
        "params": {
          "_dggsIndex": "the index to check"
        }
      },
      "dggsIndexOwner(bytes15)": {
        "details": "dggsIndexOwner : return the address of the dggsIndex Owner",
        "params": {
          "_dggsIndex": "the index to fetch"
        }
      },
      "getFeature(bytes32)": {
        "params": {
          "csc": "the feature CSC"
        },
        "return": "the address of the feature deployed contract"
      },
      "getFeatureCount()": {
        "return": "the count of the features added to the registry"
      },
      "isOwner()": {
        "details": "Returns true if the caller is the current owner."
      },
      "owner()": {
        "details": "Returns the address of the current owner."
      },
      "pause()": {
        "details": "Called by a pauser to pause, triggers stopped state."
      },
      "paused()": {
        "details": "Returns true if the contract is paused, and false otherwise."
      },
      "removeFeature(bytes32)": {
        "details": "remove permanently the feature from the registry"
      },
      "renounceOwnership()": {
        "details": "Leaves the contract without owner. It will not be possible to call `onlyOwner` functions anymore. Can only be called by the current owner.     * NOTE: Renouncing ownership will leave the contract without an owner, thereby removing any functionality that is only available to the owner."
      },
      "transferOwnership(address)": {
        "details": "Transfers ownership of the contract to a new account (`newOwner`). Can only be called by the current owner."
      },
      "unpause()": {
        "details": "Called by a pauser to unpause, returns to normal state."
      }
    }
  },
  "userdoc": {
    "methods": {
      "constructor": "constuctor",
      "getFeature(bytes32)": {
        "notice": "getFeature"
      },
      "getFeatureCount()": {
        "notice": "getFeatureCount"
      }
    }
  }
}