{
  "contractName": "CSFeatureRegistry",
  "abi": [
    {
      "constant": true,
      "inputs": [],
      "name": "srs",
      "outputs": [
        {
          "name": "",
          "type": "string"
        }
      ],
      "payable": false,
      "stateMutability": "view",
      "type": "function"
    },
    {
      "constant": true,
      "inputs": [],
      "name": "name",
      "outputs": [
        {
          "name": "",
          "type": "string"
        }
      ],
      "payable": false,
      "stateMutability": "view",
      "type": "function"
    },
    {
      "constant": true,
      "inputs": [],
      "name": "h3Resolution",
      "outputs": [
        {
          "name": "",
          "type": "uint256"
        }
      ],
      "payable": false,
      "stateMutability": "view",
      "type": "function"
    },
    {
      "inputs": [
        {
          "name": "_h3Resolution",
          "type": "uint256"
        },
        {
          "name": "_name",
          "type": "string"
        },
        {
          "name": "_srs",
          "type": "string"
        }
      ],
      "payable": false,
      "stateMutability": "nonpayable",
      "type": "constructor"
    },
    {
      "payable": false,
      "stateMutability": "nonpayable",
      "type": "fallback"
    },
    {
      "anonymous": false,
      "inputs": [
        {
          "indexed": false,
          "name": "name",
          "type": "string"
        },
        {
          "indexed": false,
          "name": "dggsIndex",
          "type": "bytes15"
        },
        {
          "indexed": false,
          "name": "csc",
          "type": "bytes32"
        },
        {
          "indexed": false,
          "name": "owner",
          "type": "address"
        }
      ],
      "name": "LogNewFeatureAdded",
      "type": "event"
    }
  ],
  "bytecode": "0x608060405234801561001057600080fd5b506040516106723803806106728339810180604052606081101561003357600080fd5b8101908080519060200190929190805164010000000081111561005557600080fd5b8281019050602081018481111561006b57600080fd5b815185600182028301116401000000008211171561008857600080fd5b505092919060200180516401000000008111156100a457600080fd5b828101905060208101848111156100ba57600080fd5b81518560018202830111640100000000821117156100d757600080fd5b5050929190505050600083101580156100f05750601083105b610145576040517f08c379a000000000000000000000000000000000000000000000000000000000815260040180806020018281038252603c815260200180610636603c913960400191505060405180910390fd5b600060f81b8260008151811061015757fe5b602001015160f81c60f81b7effffffffffffffffffffffffffffffffffffffffffffffffffffffffffffff191614156101f8576040517f08c379a000000000000000000000000000000000000000000000000000000000815260040180806020018281038252600a8152602001807f456d707479206e616d650000000000000000000000000000000000000000000081525060200191505060405180910390fd5b826000819055508160019080519060200190610215929190610235565b50806002908051906020019061022c929190610235565b505050506102da565b828054600181600116156101000203166002900490600052602060002090601f016020900481019282601f1061027657805160ff19168380011785556102a4565b828001600101855582156102a4579182015b828111156102a3578251825591602001919060010190610288565b5b5090506102b191906102b5565b5090565b6102d791905b808211156102d35760008160009055506001016102bb565b5090565b90565b61034d806102e96000396000f3fe608060405234801561001057600080fd5b50600436106100415760003560e01c8063032295561461009257806306fdde03146101155780637e9c00fc14610198575b6040517f08c379a00000000000000000000000000000000000000000000000000000000081526004018080602001828103825260298152602001806102f96029913960400191505060405180910390fd5b61009a6101b6565b6040518080602001828103825283818151815260200191508051906020019080838360005b838110156100da5780820151818401526020810190506100bf565b50505050905090810190601f1680156101075780820380516001836020036101000a031916815260200191505b509250505060405180910390f35b61011d610254565b6040518080602001828103825283818151815260200191508051906020019080838360005b8381101561015d578082015181840152602081019050610142565b50505050905090810190601f16801561018a5780820380516001836020036101000a031916815260200191505b509250505060405180910390f35b6101a06102f2565b6040518082815260200191505060405180910390f35b60028054600181600116156101000203166002900480601f01602080910402602001604051908101604052809291908181526020018280546001816001161561010002031660029004801561024c5780601f106102215761010080835404028352916020019161024c565b820191906000526020600020905b81548152906001019060200180831161022f57829003601f168201915b505050505081565b60018054600181600116156101000203166002900480601f0160208091040260200160405190810160405280929190818152602001828054600181600116156101000203166002900480156102ea5780601f106102bf576101008083540402835291602001916102ea565b820191906000526020600020905b8154815290600101906020018083116102cd57829003601f168201915b505050505081565b6000548156fe7468697320636f6e74726163742073686f756c64206e65766572206861766520612062616c616e6365a165627a7a72305820abe37033310b25e29d8502a04ef93a6173463e85421476547bed6656acdc5ae400294833205265736f6c7574696f6e206d757374206265205f68335265736f6c7574696f6e203e3d30202626205f68335265736f6c7574696f6e203c3136",
  "source": "/**\n * @title Crypto-Spatial Feature Registry\n * @author BENAHMED DAHO Ali\n * @notice an abstract contract that implement a Geospatial Features Registry\n * @dev ...\n *\n*/\n\npragma solidity ^0.5.0;\n\nimport './CSFeature.sol';\nimport './CSGeometryLib.sol';\n\ncontract CSFeatureRegistry {\n  //\n  // State variables\n  //\n  uint public h3Resolution; // H3 resolution (H3 is a compliant DGGS library)\n  string public name;       // display name of the registry\n  string public srs;       // Spatial Reference System\n\n  // mapping(bytes32 => CSFeature) features; // Mapping CSC => Features\n\n  //\n  // Events - publicize actions to external listeners\n  //\n  event LogNewFeatureAdded(string name, bytes15 dggsIndex, bytes32 csc, address owner);\n\n  //\n  // Functions\n  //\n\n  /// @notice constuctor\n  constructor (uint _h3Resolution, string memory _name, string memory _srs) public {\n    require((_h3Resolution >= 0 && _h3Resolution < 16), \"H3 Resolution must be _h3Resolution >=0 && _h3Resolution <16\");\n    require(bytes(_name)[0] != 0, \"Empty name\");\n\n    h3Resolution = _h3Resolution;\n    name = _name;\n    srs = _srs;\n  }\n\n  /**\n  * @notice addFeature\n  * @param dggsIndex dggsIndex of the feature\n  * @param wkbHash Well Known Binary Hash\n  * @return the Crypto-Spatial Coordinate (CSC) of the feature\n  */\n  modifier addFeature(bytes15 dggsIndex,bytes32 wkbHash)\n   {\n    require(dggsIndex.length != 0, \"Empty dggsIndex\");\n    require(wkbHash.length != 0, \"Empty wkbHash\");\n    bytes32 csc = CSGeometryLib.computeCSCIndex(msg.sender, dggsIndex);\n\n    // features[csc] = new CSFeature(dggsIndex,wkbHash, h3Resolution);\n\n    _;\n\n    emit LogNewFeatureAdded(name, dggsIndex, csc, msg.sender);\n  }\n\n\n  /**\n  * @notice callback function\n  */\n\n  function () external {\n    revert(\"this contract should never have a balance\");\n  }\n}\n",
  "sourcePath": "/home/ali/EthProjects/onchain-land-administration/solidity/contracts/geospatial/CSFeatureRegistry.sol",
  "compiler": {
    "name": "solc",
    "version": "0.5.8+commit.23d335f2.Emscripten.clang"
  },
  "schemaVersion": "3.0.16",
  "updatedAt": "2019-10-27T23:24:14.478Z",
  "devdoc": {
    "methods": {}
  },
  "userdoc": {
    "methods": {
      "constructor": "constuctor"
    }
  }
}