{
  "contractName": "CSFeatureRegistry",
  "abi": [
    {
      "constant": true,
      "inputs": [],
      "name": "srs",
      "outputs": [
        {
          "name": "",
          "type": "string"
        }
      ],
      "payable": false,
      "stateMutability": "view",
      "type": "function"
    },
    {
      "constant": true,
      "inputs": [],
      "name": "name",
      "outputs": [
        {
          "name": "",
          "type": "string"
        }
      ],
      "payable": false,
      "stateMutability": "view",
      "type": "function"
    },
    {
      "constant": false,
      "inputs": [],
      "name": "unpause",
      "outputs": [],
      "payable": false,
      "stateMutability": "nonpayable",
      "type": "function"
    },
    {
      "constant": true,
      "inputs": [
        {
          "name": "account",
          "type": "address"
        }
      ],
      "name": "isPauser",
      "outputs": [
        {
          "name": "",
          "type": "bool"
        }
      ],
      "payable": false,
      "stateMutability": "view",
      "type": "function"
    },
    {
      "constant": true,
      "inputs": [],
      "name": "paused",
      "outputs": [
        {
          "name": "",
          "type": "bool"
        }
      ],
      "payable": false,
      "stateMutability": "view",
      "type": "function"
    },
    {
      "constant": false,
      "inputs": [],
      "name": "renouncePauser",
      "outputs": [],
      "payable": false,
      "stateMutability": "nonpayable",
      "type": "function"
    },
    {
      "constant": true,
      "inputs": [],
      "name": "h3Resolution",
      "outputs": [
        {
          "name": "",
          "type": "uint256"
        }
      ],
      "payable": false,
      "stateMutability": "view",
      "type": "function"
    },
    {
      "constant": false,
      "inputs": [
        {
          "name": "account",
          "type": "address"
        }
      ],
      "name": "addPauser",
      "outputs": [],
      "payable": false,
      "stateMutability": "nonpayable",
      "type": "function"
    },
    {
      "constant": false,
      "inputs": [],
      "name": "pause",
      "outputs": [],
      "payable": false,
      "stateMutability": "nonpayable",
      "type": "function"
    },
    {
      "inputs": [
        {
          "name": "_name",
          "type": "string"
        },
        {
          "name": "_h3Resolution",
          "type": "uint256"
        },
        {
          "name": "_srs",
          "type": "string"
        }
      ],
      "payable": false,
      "stateMutability": "nonpayable",
      "type": "constructor"
    },
    {
      "payable": false,
      "stateMutability": "nonpayable",
      "type": "fallback"
    },
    {
      "anonymous": false,
      "inputs": [
        {
          "indexed": false,
          "name": "name",
          "type": "string"
        },
        {
          "indexed": false,
          "name": "csc",
          "type": "bytes32"
        },
        {
          "indexed": false,
          "name": "dggsIndex",
          "type": "bytes15"
        },
        {
          "indexed": false,
          "name": "wkbHash",
          "type": "bytes32"
        },
        {
          "indexed": false,
          "name": "owner",
          "type": "address"
        }
      ],
      "name": "LogNewFeatureAdded",
      "type": "event"
    },
    {
      "anonymous": false,
      "inputs": [
        {
          "indexed": false,
          "name": "account",
          "type": "address"
        }
      ],
      "name": "Paused",
      "type": "event"
    },
    {
      "anonymous": false,
      "inputs": [
        {
          "indexed": false,
          "name": "account",
          "type": "address"
        }
      ],
      "name": "Unpaused",
      "type": "event"
    },
    {
      "anonymous": false,
      "inputs": [
        {
          "indexed": true,
          "name": "account",
          "type": "address"
        }
      ],
      "name": "PauserAdded",
      "type": "event"
    },
    {
      "anonymous": false,
      "inputs": [
        {
          "indexed": true,
          "name": "account",
          "type": "address"
        }
      ],
      "name": "PauserRemoved",
      "type": "event"
    },
    {
      "constant": true,
      "inputs": [],
      "name": "getFeatureCount",
      "outputs": [
        {
          "name": "",
          "type": "uint256"
        }
      ],
      "payable": false,
      "stateMutability": "view",
      "type": "function"
    },
    {
      "constant": true,
      "inputs": [
        {
          "name": "csc",
          "type": "bytes32"
        }
      ],
      "name": "getFeature",
      "outputs": [
        {
          "name": "",
          "type": "address"
        }
      ],
      "payable": false,
      "stateMutability": "view",
      "type": "function"
    },
    {
      "constant": true,
      "inputs": [
        {
          "name": "_dggsIndex",
          "type": "bytes15"
        }
      ],
      "name": "dggsIndexExist",
      "outputs": [
        {
          "name": "",
          "type": "bool"
        }
      ],
      "payable": false,
      "stateMutability": "view",
      "type": "function"
    },
    {
      "constant": true,
      "inputs": [
        {
          "name": "_dggsIndex",
          "type": "bytes15"
        }
      ],
      "name": "dggsIndexOwner",
      "outputs": [
        {
          "name": "",
          "type": "address"
        }
      ],
      "payable": false,
      "stateMutability": "view",
      "type": "function"
    }
  ],
  "bytecode": "0x608060405260006005553480156200001657600080fd5b506040516200151938038062001519833981018060405260608110156200003c57600080fd5b8101908080516401000000008111156200005557600080fd5b828101905060208101848111156200006c57600080fd5b81518560018202830111640100000000821117156200008a57600080fd5b5050929190602001805190602001909291908051640100000000811115620000b157600080fd5b82810190506020810184811115620000c857600080fd5b8151856001820283011164010000000082111715620000e657600080fd5b50509291905050506200010e620001026200029160201b60201c565b6200029960201b60201c565b6000600160006101000a81548160ff021916908315150217905550600082101580156200013b5750601082105b62000192576040517f08c379a000000000000000000000000000000000000000000000000000000000815260040180806020018281038252603c815260200180620014bb603c913960400191505060405180910390fd5b600060f81b83600081518110620001a557fe5b602001015160f81c60f81b7effffffffffffffffffffffffffffffffffffffffffffffffffffffffffffff1916141562000247576040517f08c379a000000000000000000000000000000000000000000000000000000000815260040180806020018281038252600a8152602001807f456d707479206e616d650000000000000000000000000000000000000000000081525060200191505060405180910390fd5b81600281905550826003908051906020019062000266929190620004be565b5080600490805190602001906200027f929190620004be565b5060006005819055505050506200056d565b600033905090565b620002b4816000620002fa60201b62000d751790919060201c565b8073ffffffffffffffffffffffffffffffffffffffff167f6719d08c1888103bea251a4ed56406bd0c3e69723c8a1686e017e7bbe159b6f860405160405180910390a250565b6200030c8282620003de60201b60201c565b1562000380576040517f08c379a000000000000000000000000000000000000000000000000000000000815260040180806020018281038252601f8152602001807f526f6c65733a206163636f756e7420616c72656164792068617320726f6c650081525060200191505060405180910390fd5b60018260000160008373ffffffffffffffffffffffffffffffffffffffff1673ffffffffffffffffffffffffffffffffffffffff16815260200190815260200160002060006101000a81548160ff0219169083151502179055505050565b60008073ffffffffffffffffffffffffffffffffffffffff168273ffffffffffffffffffffffffffffffffffffffff16141562000467576040517f08c379a0000000000000000000000000000000000000000000000000000000008152600401808060200182810382526022815260200180620014f76022913960400191505060405180910390fd5b8260000160008373ffffffffffffffffffffffffffffffffffffffff1673ffffffffffffffffffffffffffffffffffffffff16815260200190815260200160002060009054906101000a900460ff16905092915050565b828054600181600116156101000203166002900490600052602060002090601f016020900481019282601f106200050157805160ff191683800117855562000532565b8280016001018555821562000532579182015b828111156200053157825182559160200191906001019062000514565b5b50905062000541919062000545565b5090565b6200056a91905b80821115620005665760008160009055506001016200054c565b5090565b90565b610f3e806200057d6000396000f3fe608060405234801561001057600080fd5b50600436106100cf5760003560e01c80636dde6a4f1161008c57806382dc1ec41161006657806382dc1ec41461034e5780638456cb59146103925780638b12dbaa1461039c578063abafb8981461040a576100cf565b80636dde6a4f146102cc5780636ef8d66d146103265780637e9c00fc14610330576100cf565b8063032295561461012057806306fdde03146101a35780633f4ba83a1461022657806346fbf68e146102305780635c975abb1461028c5780636106f192146102ae575b6040517f08c379a0000000000000000000000000000000000000000000000000000000008152600401808060200182810382526029815260200180610ea76029913960400191505060405180910390fd5b61012861048c565b6040518080602001828103825283818151815260200191508051906020019080838360005b8381101561016857808201518184015260208101905061014d565b50505050905090810190601f1680156101955780820380516001836020036101000a031916815260200191505b509250505060405180910390f35b6101ab61052a565b6040518080602001828103825283818151815260200191508051906020019080838360005b838110156101eb5780820151818401526020810190506101d0565b50505050905090810190601f1680156102185780820380516001836020036101000a031916815260200191505b509250505060405180910390f35b61022e6105c8565b005b6102726004803603602081101561024657600080fd5b81019080803573ffffffffffffffffffffffffffffffffffffffff169060200190929190505050610736565b604051808215151515815260200191505060405180910390f35b610294610753565b604051808215151515815260200191505060405180910390f35b6102b661076a565b6040518082815260200191505060405180910390f35b61030c600480360360208110156102e257600080fd5b81019080803570ffffffffffffffffffffffffffffffffff19169060200190929190505050610774565b604051808215151515815260200191505060405180910390f35b61032e6107cd565b005b6103386107df565b6040518082815260200191505060405180910390f35b6103906004803603602081101561036457600080fd5b81019080803573ffffffffffffffffffffffffffffffffffffffff1690602001909291905050506107e5565b005b61039a610856565b005b6103c8600480360360208110156103b257600080fd5b81019080803590602001909291905050506109c4565b604051808273ffffffffffffffffffffffffffffffffffffffff1673ffffffffffffffffffffffffffffffffffffffff16815260200191505060405180910390f35b61044a6004803603602081101561042057600080fd5b81019080803570ffffffffffffffffffffffffffffffffff19169060200190929190505050610ab9565b604051808273ffffffffffffffffffffffffffffffffffffffff1673ffffffffffffffffffffffffffffffffffffffff16815260200191505060405180910390f35b60048054600181600116156101000203166002900480601f0160208091040260200160405190810160405280929190818152602001828054600181600116156101000203166002900480156105225780601f106104f757610100808354040283529160200191610522565b820191906000526020600020905b81548152906001019060200180831161050557829003601f168201915b505050505081565b60038054600181600116156101000203166002900480601f0160208091040260200160405190810160405280929190818152602001828054600181600116156101000203166002900480156105c05780601f10610595576101008083540402835291602001916105c0565b820191906000526020600020905b8154815290600101906020018083116105a357829003601f168201915b505050505081565b6105d86105d3610b1e565b610736565b61062d576040517f08c379a0000000000000000000000000000000000000000000000000000000008152600401808060200182810382526030815260200180610e516030913960400191505060405180910390fd5b600160009054906101000a900460ff166106af576040517f08c379a00000000000000000000000000000000000000000000000000000000081526004018080602001828103825260148152602001807f5061757361626c653a206e6f742070617573656400000000000000000000000081525060200191505060405180910390fd5b6000600160006101000a81548160ff0219169083151502179055507f5db9ee0a495bf2e6ff9c91a7834c1ba4fdd244a5e8aa4e537bd38aeae4b073aa6106f3610b1e565b604051808273ffffffffffffffffffffffffffffffffffffffff1673ffffffffffffffffffffffffffffffffffffffff16815260200191505060405180910390a1565b600061074c826000610b2690919063ffffffff16565b9050919050565b6000600160009054906101000a900460ff16905090565b6000600554905090565b600060011515600760008470ffffffffffffffffffffffffffffffffff191670ffffffffffffffffffffffffffffffffff1916815260200190815260200160002060009054906101000a900460ff161515149050919050565b6107dd6107d8610b1e565b610c04565b565b60025481565b6107f56107f0610b1e565b610736565b61084a576040517f08c379a0000000000000000000000000000000000000000000000000000000008152600401808060200182810382526030815260200180610e516030913960400191505060405180910390fd5b61085381610c5e565b50565b610866610861610b1e565b610736565b6108bb576040517f08c379a0000000000000000000000000000000000000000000000000000000008152600401808060200182810382526030815260200180610e516030913960400191505060405180910390fd5b600160009054906101000a900460ff161561093e576040517f08c379a00000000000000000000000000000000000000000000000000000000081526004018080602001828103825260108152602001807f5061757361626c653a207061757365640000000000000000000000000000000081525060200191505060405180910390fd5b60018060006101000a81548160ff0219169083151502179055507f62e78cea01bee320cd4e420270b5ea74000d11b0c9f74754ebdbfc544b05a258610981610b1e565b604051808273ffffffffffffffffffffffffffffffffffffffff1673ffffffffffffffffffffffffffffffffffffffff16815260200191505060405180910390a1565b60008073ffffffffffffffffffffffffffffffffffffffff166006600084815260200190815260200160002060009054906101000a900473ffffffffffffffffffffffffffffffffffffffff1673ffffffffffffffffffffffffffffffffffffffff161415610a7e576040517f08c379a0000000000000000000000000000000000000000000000000000000008152600401808060200182810382526026815260200180610e816026913960400191505060405180910390fd5b6006600083815260200190815260200160002060009054906101000a900473ffffffffffffffffffffffffffffffffffffffff169050919050565b6000600860008370ffffffffffffffffffffffffffffffffff191670ffffffffffffffffffffffffffffffffff1916815260200190815260200160002060009054906101000a900473ffffffffffffffffffffffffffffffffffffffff169050919050565b600033905090565b60008073ffffffffffffffffffffffffffffffffffffffff168273ffffffffffffffffffffffffffffffffffffffff161415610bad576040517f08c379a0000000000000000000000000000000000000000000000000000000008152600401808060200182810382526022815260200180610ef16022913960400191505060405180910390fd5b8260000160008373ffffffffffffffffffffffffffffffffffffffff1673ffffffffffffffffffffffffffffffffffffffff16815260200190815260200160002060009054906101000a900460ff16905092915050565b610c18816000610cb890919063ffffffff16565b8073ffffffffffffffffffffffffffffffffffffffff167fcd265ebaf09df2871cc7bd4133404a235ba12eff2041bb89d9c714a2621c7c7e60405160405180910390a250565b610c72816000610d7590919063ffffffff16565b8073ffffffffffffffffffffffffffffffffffffffff167f6719d08c1888103bea251a4ed56406bd0c3e69723c8a1686e017e7bbe159b6f860405160405180910390a250565b610cc28282610b26565b610d17576040517f08c379a0000000000000000000000000000000000000000000000000000000008152600401808060200182810382526021815260200180610ed06021913960400191505060405180910390fd5b60008260000160008373ffffffffffffffffffffffffffffffffffffffff1673ffffffffffffffffffffffffffffffffffffffff16815260200190815260200160002060006101000a81548160ff0219169083151502179055505050565b610d7f8282610b26565b15610df2576040517f08c379a000000000000000000000000000000000000000000000000000000000815260040180806020018281038252601f8152602001807f526f6c65733a206163636f756e7420616c72656164792068617320726f6c650081525060200191505060405180910390fd5b60018260000160008373ffffffffffffffffffffffffffffffffffffffff1673ffffffffffffffffffffffffffffffffffffffff16815260200190815260200160002060006101000a81548160ff021916908315150217905550505056fe506175736572526f6c653a2063616c6c657220646f6573206e6f742068617665207468652050617573657220726f6c654665617475726520646f6573206e6f7420657869737420696e207468652072656769737472797468697320636f6e74726163742073686f756c64206e65766572206861766520612062616c616e6365526f6c65733a206163636f756e7420646f6573206e6f74206861766520726f6c65526f6c65733a206163636f756e7420697320746865207a65726f2061646472657373a165627a7a72305820cee356e6bc086e25b3fa3834658b425a4109677f7962d3db09a848cafcf24c0c00294833205265736f6c7574696f6e206d757374206265205f68335265736f6c7574696f6e203e3d30202626205f68335265736f6c7574696f6e203c3136526f6c65733a206163636f756e7420697320746865207a65726f2061646472657373",
  "source": "/**\n * @title Crypto-Spatial Feature Registry\n * @author BENAHMED DAHO Ali\n * @notice an abstract contract that implement a Geospatial Features Registry\n * @dev ...\n *\n*/\n\npragma solidity ^0.5.0;\n\nimport './CSFeatureInterface.sol';\nimport './CSFeature.sol';\nimport './CSGeometryLib.sol';\n\nimport '@openzeppelin/contracts/lifecycle/Pausable.sol';\nimport '@openzeppelin/contracts/math/SafeMath.sol';\n\ncontract CSFeatureRegistry is Pausable {\n\n  // Use safe math for featureCount;\n  using SafeMath for uint256;\n\n  //\n  // State variables\n  //\n  uint public h3Resolution; // H3 resolution (H3 is a compliant DGGS library)\n  string public name;       // display name of the registry\n  string public srs;        // Spatial Reference System\n  uint256 featuresCount = 0; // Counter of the added features\n\n  mapping(bytes32 => address) internal features;  // Mapping CSC => Features contract address\n  mapping(bytes15 => bool) internal addedIndexes; // Mapping to keep trace of added indexes\n  mapping(bytes15 => address) internal indexOwner;// Mapping to keep trace of DGGS indexes owners\n\n  //\n  // Events - publicize actions to external listeners\n  //\n  event LogNewFeatureAdded(string name, bytes32 csc, bytes15 dggsIndex, bytes32 wkbHash, address owner);\n\n  //\n  // Functions\n  //\n\n  /// @notice constuctor\n  constructor (string memory _name, uint _h3Resolution, string memory _srs) public {\n    require((_h3Resolution >= 0 && _h3Resolution < 16), \"H3 Resolution must be _h3Resolution >=0 && _h3Resolution <16\");\n    require(bytes(_name)[0] != 0, \"Empty name\");\n\n    h3Resolution = _h3Resolution;\n    name = _name;\n    srs = _srs;\n    featuresCount = 0;\n  }\n\n  /**\n  * @notice addFeature\n  * @param dggsIndex dggsIndex of the feature\n  * @param wkbHash Well Known Binary Hash\n  * @return the Crypto-Spatial Coordinate (CSC) of the feature\n  */\n\n  modifier addFeature(bytes15 dggsIndex, bytes32 wkbHash, address _sender)\n   {\n    require(!paused(), \"Contract is paused\");\n    require(dggsIndex.length != 0, \"Empty dggsIndex\");\n    require(addedIndexes[dggsIndex] == false, \"DGGS Index already exist\");\n    require(wkbHash.length != 0, \"Empty wkbHash\");\n\n    _;\n\n    addedIndexes[dggsIndex] = true;\n    indexOwner[dggsIndex] = _sender;\n    bytes32 csc = CSGeometryLib.computeCSCIndex(_sender, dggsIndex); // TODO chek for gas overburn\n    emit LogNewFeatureAdded(name, csc, dggsIndex, wkbHash, _sender);\n    featuresCount = featuresCount.add(1); // TODO chek for gas overburn\n  }\n\n /**\n  * @notice getFeatureCount\n  * @return the count of the features added to the registry\n  */\n  function getFeatureCount() public view returns (uint256) {\n    return featuresCount;\n  }\n\n  /**\n  * @notice getFeature\n  * @param csc the feature CSC\n  * @return the address of the feature deployed contract\n  */\n  function getFeature(bytes32 csc) public view returns (address){\n    require (features[csc] != address(0), \"Feature does not exist in the registry\");\n    return  features[csc];\n  }\n\n /**\n  * @dev dggsIndexExist : check if dggs allready exit in the registry\n  * @param _dggsIndex the index to check\n  */\n  \n  function dggsIndexExist(bytes15 _dggsIndex) public view returns (bool) {\n    return ((addedIndexes[_dggsIndex] == true));\n  // mapping(bytes15 => address) internal indexOwner)\n  }\n\n /**\n  * @dev dggsIndexOwner : return the address of the dggsIndex Owner\n  * @param _dggsIndex the index to fetch\n  */\n  \n  function dggsIndexOwner(bytes15 _dggsIndex) public view returns (address) {\n    return (indexOwner[_dggsIndex]);\n  // mapping(bytes15 => address) internal indexOwner)\n  }\n\n  /**\n  * @notice callback function\n  */\n\n  function () external {\n    revert(\"this contract should never have a balance\");\n  }\n}\n",
  "sourcePath": "/home/ali/EthProjects/onchain-land-administration/solidity/contracts/geospatial/CSFeatureRegistry.sol",
  "compiler": {
    "name": "solc",
    "version": "0.5.8+commit.23d335f2.Emscripten.clang"
  },
  "schemaVersion": "3.0.16",
  "updatedAt": "2019-11-09T13:45:00.663Z",
  "devdoc": {
    "methods": {
      "dggsIndexExist(bytes15)": {
        "details": "dggsIndexExist : check if dggs allready exit in the registry",
        "params": {
          "_dggsIndex": "the index to check"
        }
      },
      "dggsIndexOwner(bytes15)": {
        "details": "dggsIndexOwner : return the address of the dggsIndex Owner",
        "params": {
          "_dggsIndex": "the index to fetch"
        }
      },
      "getFeature(bytes32)": {
        "params": {
          "csc": "the feature CSC"
        },
        "return": "the address of the feature deployed contract"
      },
      "getFeatureCount()": {
        "return": "the count of the features added to the registry"
      },
      "pause()": {
        "details": "Called by a pauser to pause, triggers stopped state."
      },
      "paused()": {
        "details": "Returns true if the contract is paused, and false otherwise."
      },
      "unpause()": {
        "details": "Called by a pauser to unpause, returns to normal state."
      }
    }
  },
  "userdoc": {
    "methods": {
      "constructor": "constuctor",
      "getFeature(bytes32)": {
        "notice": "getFeature"
      },
      "getFeatureCount()": {
        "notice": "getFeatureCount"
      }
    }
  }
}