{
  "contractName": "CSFeature",
  "abi": [
    {
      "constant": false,
      "inputs": [],
      "name": "renounceOwnership",
      "outputs": [],
      "payable": false,
      "stateMutability": "nonpayable",
      "type": "function"
    },
    {
      "constant": true,
      "inputs": [],
      "name": "owner",
      "outputs": [
        {
          "name": "",
          "type": "address"
        }
      ],
      "payable": false,
      "stateMutability": "view",
      "type": "function"
    },
    {
      "constant": true,
      "inputs": [],
      "name": "isOwner",
      "outputs": [
        {
          "name": "",
          "type": "bool"
        }
      ],
      "payable": false,
      "stateMutability": "view",
      "type": "function"
    },
    {
      "constant": false,
      "inputs": [
        {
          "name": "newOwner",
          "type": "address"
        }
      ],
      "name": "transferOwnership",
      "outputs": [],
      "payable": false,
      "stateMutability": "nonpayable",
      "type": "function"
    },
    {
      "inputs": [
        {
          "name": "_dggsIndex",
          "type": "bytes15"
        },
        {
          "name": "_wkbHash",
          "type": "bytes32"
        },
        {
          "name": "__owner",
          "type": "address"
        },
        {
          "name": "_h3Resolution",
          "type": "uint256"
        }
      ],
      "payable": false,
      "stateMutability": "nonpayable",
      "type": "constructor"
    },
    {
      "payable": false,
      "stateMutability": "nonpayable",
      "type": "fallback"
    },
    {
      "anonymous": false,
      "inputs": [
        {
          "indexed": true,
          "name": "csc",
          "type": "bytes32"
        },
        {
          "indexed": true,
          "name": "dggsIndex",
          "type": "bytes15"
        },
        {
          "indexed": false,
          "name": "wkbHash",
          "type": "bytes32"
        },
        {
          "indexed": true,
          "name": "owner",
          "type": "address"
        }
      ],
      "name": "LogFeatureCreated",
      "type": "event"
    },
    {
      "anonymous": false,
      "inputs": [
        {
          "indexed": true,
          "name": "csc",
          "type": "bytes32"
        },
        {
          "indexed": true,
          "name": "dggsIndex",
          "type": "bytes15"
        },
        {
          "indexed": false,
          "name": "wkbHash",
          "type": "bytes32"
        },
        {
          "indexed": true,
          "name": "owner",
          "type": "address"
        }
      ],
      "name": "LogFeatureKilled",
      "type": "event"
    },
    {
      "anonymous": false,
      "inputs": [
        {
          "indexed": true,
          "name": "previousOwner",
          "type": "address"
        },
        {
          "indexed": true,
          "name": "newOwner",
          "type": "address"
        }
      ],
      "name": "OwnershipTransferred",
      "type": "event"
    },
    {
      "constant": false,
      "inputs": [],
      "name": "getGeometryType",
      "outputs": [
        {
          "name": "",
          "type": "uint8"
        }
      ],
      "payable": false,
      "stateMutability": "nonpayable",
      "type": "function"
    },
    {
      "constant": true,
      "inputs": [],
      "name": "getFeatureCSC",
      "outputs": [
        {
          "name": "",
          "type": "bytes32"
        }
      ],
      "payable": false,
      "stateMutability": "view",
      "type": "function"
    },
    {
      "constant": true,
      "inputs": [],
      "name": "getFeatureDGGSIndex",
      "outputs": [
        {
          "name": "",
          "type": "bytes15"
        }
      ],
      "payable": false,
      "stateMutability": "view",
      "type": "function"
    },
    {
      "constant": true,
      "inputs": [],
      "name": "fetchFeature",
      "outputs": [
        {
          "name": "_csc",
          "type": "bytes32"
        },
        {
          "name": "_dggsIndex",
          "type": "bytes15"
        },
        {
          "name": "_wkbHash",
          "type": "bytes32"
        },
        {
          "name": "__owner",
          "type": "address"
        },
        {
          "name": "_h3Resolution",
          "type": "uint256"
        },
        {
          "name": "_geomteryType",
          "type": "uint8"
        }
      ],
      "payable": false,
      "stateMutability": "view",
      "type": "function"
    },
    {
      "constant": false,
      "inputs": [
        {
          "name": "_wkbHash",
          "type": "bytes32"
        }
      ],
      "name": "setWkbHash",
      "outputs": [
        {
          "name": "_wkbHashValue",
          "type": "bytes32"
        }
      ],
      "payable": false,
      "stateMutability": "nonpayable",
      "type": "function"
    },
    {
      "constant": true,
      "inputs": [
        {
          "name": "_address",
          "type": "address"
        }
      ],
      "name": "isAdmin",
      "outputs": [
        {
          "name": "",
          "type": "bool"
        }
      ],
      "payable": false,
      "stateMutability": "view",
      "type": "function"
    },
    {
      "constant": false,
      "inputs": [],
      "name": "kill",
      "outputs": [],
      "payable": false,
      "stateMutability": "nonpayable",
      "type": "function"
    }
  ],
  "bytecode": "0x60806040523480156200001157600080fd5b50604051608080620015bc833981018060405260808110156200003357600080fd5b8101908080519060200190929190805190602001909291908051906020019092919080519060200190929190505050600062000074620004f960201b60201c565b9050806000806101000a81548173ffffffffffffffffffffffffffffffffffffffff021916908373ffffffffffffffffffffffffffffffffffffffff1602179055508073ffffffffffffffffffffffffffffffffffffffff16600073ffffffffffffffffffffffffffffffffffffffff167f8be0079c531659141344cd1fd0a4f28419497f9722a3daafe3b4186f6b6457e060405160405180910390a35060008110158015620001245750601081105b6200017b576040517f08c379a000000000000000000000000000000000000000000000000000000000815260040180806020018281038252603c8152602001806200155e603c913960400191505060405180910390fd5b600060f81b846000600f81106200018e57fe5b1a60f81b7effffffffffffffffffffffffffffffffffffffffffffffffffffffffffffff1916141562000229576040517f08c379a000000000000000000000000000000000000000000000000000000000815260040180806020018281038252600f8152602001807f456d7074792064676773496e646578000000000000000000000000000000000081525060200191505060405180910390fd5b600060f81b836000602081106200023c57fe5b1a60f81b7effffffffffffffffffffffffffffffffffffffffffffffffffffffffffffff19161415620002d7576040517f08c379a000000000000000000000000000000000000000000000000000000000815260040180806020018281038252600d8152602001807f456d70747920776b62486173680000000000000000000000000000000000000081525060200191505060405180910390fd5b620002e8826200050160201b60201c565b620003038260066200059860201b62000a541790919060201c565b6200031e3360066200059860201b62000a541790919060201c565b8260028190555083600360006101000a8154816effffffffffffffffffffffffffffff021916908360881c02179055506000600560006101000a81548160ff021916908360028111156200036e57fe5b02179055508060048190555073__CSGeometryLib_________________________637834a61283866040518363ffffffff1660e01b8152600401808373ffffffffffffffffffffffffffffffffffffffff1673ffffffffffffffffffffffffffffffffffffffff1681526020018270ffffffffffffffffffffffffffffffffff191670ffffffffffffffffffffffffffffffffff191681526020019250505060206040518083038186803b1580156200042657600080fd5b505af41580156200043b573d6000803e3d6000fd5b505050506040513d60208110156200045257600080fd5b8101908080519060200190929190505050600181905550620004796200067c60201b60201c565b73ffffffffffffffffffffffffffffffffffffffff16600360009054906101000a900460881b70ffffffffffffffffffffffffffffffffff19166001547f025eef9175b0635cefa846add44300456401183653e2b56e06ff204282d087d96002546040518082815260200191505060405180910390a45050505062000931565b600033905090565b62000511620006a560201b60201c565b62000584576040517f08c379a00000000000000000000000000000000000000000000000000000000081526004018080602001828103825260208152602001807f4f776e61626c653a2063616c6c6572206973206e6f7420746865206f776e657281525060200191505060405180910390fd5b62000595816200070b60201b60201c565b50565b620005aa82826200085160201b60201c565b156200061e576040517f08c379a000000000000000000000000000000000000000000000000000000000815260040180806020018281038252601f8152602001807f526f6c65733a206163636f756e7420616c72656164792068617320726f6c650081525060200191505060405180910390fd5b60018260000160008373ffffffffffffffffffffffffffffffffffffffff1673ffffffffffffffffffffffffffffffffffffffff16815260200190815260200160002060006101000a81548160ff0219169083151502179055505050565b60008060009054906101000a900473ffffffffffffffffffffffffffffffffffffffff16905090565b60008060009054906101000a900473ffffffffffffffffffffffffffffffffffffffff1673ffffffffffffffffffffffffffffffffffffffff16620006ef620004f960201b60201c565b73ffffffffffffffffffffffffffffffffffffffff1614905090565b600073ffffffffffffffffffffffffffffffffffffffff168173ffffffffffffffffffffffffffffffffffffffff16141562000793576040517f08c379a0000000000000000000000000000000000000000000000000000000008152600401808060200182810382526026815260200180620015386026913960400191505060405180910390fd5b8073ffffffffffffffffffffffffffffffffffffffff166000809054906101000a900473ffffffffffffffffffffffffffffffffffffffff1673ffffffffffffffffffffffffffffffffffffffff167f8be0079c531659141344cd1fd0a4f28419497f9722a3daafe3b4186f6b6457e060405160405180910390a3806000806101000a81548173ffffffffffffffffffffffffffffffffffffffff021916908373ffffffffffffffffffffffffffffffffffffffff16021790555050565b60008073ffffffffffffffffffffffffffffffffffffffff168273ffffffffffffffffffffffffffffffffffffffff161415620008da576040517f08c379a00000000000000000000000000000000000000000000000000000000081526004018080602001828103825260228152602001806200159a6022913960400191505060405180910390fd5b8260000160008373ffffffffffffffffffffffffffffffffffffffff1673ffffffffffffffffffffffffffffffffffffffff16815260200190815260200160002060009054906101000a900460ff16905092915050565b610bf780620009416000396000f3fe608060405234801561001057600080fd5b50600436106100a95760003560e01c8063572982f511610071578063572982f514610271578063715018a6146102b75780638da5cb5b146102c15780638f32d59b1461030b578063b85a0edd1461032d578063f2fde38b1461034b576100a9565b80631383e2ad146100fa57806317e178091461019d57806324d7806c146101c95780632befd03c1461022557806341c0e1b514610267575b6040517f08c379a0000000000000000000000000000000000000000000000000000000008152600401808060200182810382526029815260200180610b816029913960400191505060405180910390fd5b61010261038f565b604051808781526020018670ffffffffffffffffffffffffffffffffff191670ffffffffffffffffffffffffffffffffff191681526020018581526020018473ffffffffffffffffffffffffffffffffffffffff1673ffffffffffffffffffffffffffffffffffffffff16815260200183815260200182600281111561018457fe5b60ff168152602001965050505050505060405180910390f35b6101a56103dd565b604051808260028111156101b557fe5b60ff16815260200191505060405180910390f35b61020b600480360360208110156101df57600080fd5b81019080803573ffffffffffffffffffffffffffffffffffffffff1690602001909291905050506103f4565b604051808215151515815260200191505060405180910390f35b6102516004803603602081101561023b57600080fd5b8101908080359060200190929190505050610411565b6040518082815260200191505060405180910390f35b61026f610539565b005b6102796105c3565b604051808270ffffffffffffffffffffffffffffffffff191670ffffffffffffffffffffffffffffffffff1916815260200191505060405180910390f35b6102bf6105da565b005b6102c9610713565b604051808273ffffffffffffffffffffffffffffffffffffffff1673ffffffffffffffffffffffffffffffffffffffff16815260200191505060405180910390f35b61031361073c565b604051808215151515815260200191505060405180910390f35b61033561079a565b6040518082815260200191505060405180910390f35b61038d6004803603602081101561036157600080fd5b81019080803573ffffffffffffffffffffffffffffffffffffffff1690602001909291905050506107a4565b005b600080600080600080600154600360009054906101000a900460881b6002546103b6610713565b600454600560009054906101000a900460ff16955095509550955095509550909192939495565b6000600560009054906101000a900460ff16905090565b600061040a82600661082a90919063ffffffff16565b9050919050565b60003361042881600661082a90919063ffffffff16565b61047d576040517f08c379a000000000000000000000000000000000000000000000000000000000815260040180806020018281038252602b815260200180610b56602b913960400191505060405180910390fd5b600060f81b8360006020811061048f57fe5b1a60f81b7effffffffffffffffffffffffffffffffffffffffffffffffffffffffffffff19161415610529576040517f08c379a000000000000000000000000000000000000000000000000000000000815260040180806020018281038252600d8152602001807f456d70747920776b62486173680000000000000000000000000000000000000081525060200191505060405180910390fd5b8260028190555082915050919050565b3361054e81600661082a90919063ffffffff16565b6105a3576040517f08c379a000000000000000000000000000000000000000000000000000000000815260040180806020018281038252602b815260200180610b56602b913960400191505060405180910390fd5b6105ab610713565b73ffffffffffffffffffffffffffffffffffffffff16ff5b6000600360009054906101000a900460881b905090565b6105e261073c565b610654576040517f08c379a00000000000000000000000000000000000000000000000000000000081526004018080602001828103825260208152602001807f4f776e61626c653a2063616c6c6572206973206e6f7420746865206f776e657281525060200191505060405180910390fd5b600073ffffffffffffffffffffffffffffffffffffffff166000809054906101000a900473ffffffffffffffffffffffffffffffffffffffff1673ffffffffffffffffffffffffffffffffffffffff167f8be0079c531659141344cd1fd0a4f28419497f9722a3daafe3b4186f6b6457e060405160405180910390a360008060006101000a81548173ffffffffffffffffffffffffffffffffffffffff021916908373ffffffffffffffffffffffffffffffffffffffff160217905550565b60008060009054906101000a900473ffffffffffffffffffffffffffffffffffffffff16905090565b60008060009054906101000a900473ffffffffffffffffffffffffffffffffffffffff1673ffffffffffffffffffffffffffffffffffffffff1661077e610908565b73ffffffffffffffffffffffffffffffffffffffff1614905090565b6000600154905090565b6107ac61073c565b61081e576040517f08c379a00000000000000000000000000000000000000000000000000000000081526004018080602001828103825260208152602001807f4f776e61626c653a2063616c6c6572206973206e6f7420746865206f776e657281525060200191505060405180910390fd5b61082781610910565b50565b60008073ffffffffffffffffffffffffffffffffffffffff168273ffffffffffffffffffffffffffffffffffffffff1614156108b1576040517f08c379a0000000000000000000000000000000000000000000000000000000008152600401808060200182810382526022815260200180610baa6022913960400191505060405180910390fd5b8260000160008373ffffffffffffffffffffffffffffffffffffffff1673ffffffffffffffffffffffffffffffffffffffff16815260200190815260200160002060009054906101000a900460ff16905092915050565b600033905090565b600073ffffffffffffffffffffffffffffffffffffffff168173ffffffffffffffffffffffffffffffffffffffff161415610996576040517f08c379a0000000000000000000000000000000000000000000000000000000008152600401808060200182810382526026815260200180610b306026913960400191505060405180910390fd5b8073ffffffffffffffffffffffffffffffffffffffff166000809054906101000a900473ffffffffffffffffffffffffffffffffffffffff1673ffffffffffffffffffffffffffffffffffffffff167f8be0079c531659141344cd1fd0a4f28419497f9722a3daafe3b4186f6b6457e060405160405180910390a3806000806101000a81548173ffffffffffffffffffffffffffffffffffffffff021916908373ffffffffffffffffffffffffffffffffffffffff16021790555050565b610a5e828261082a565b15610ad1576040517f08c379a000000000000000000000000000000000000000000000000000000000815260040180806020018281038252601f8152602001807f526f6c65733a206163636f756e7420616c72656164792068617320726f6c650081525060200191505060405180910390fd5b60018260000160008373ffffffffffffffffffffffffffffffffffffffff1673ffffffffffffffffffffffffffffffffffffffff16815260200190815260200160002060006101000a81548160ff021916908315150217905550505056fe4f776e61626c653a206e6577206f776e657220697320746865207a65726f206164647265737343616c6c657220686176656e27742061646d696e7320726967687473206f6e2074686520666561747572657468697320636f6e74726163742073686f756c64206e65766572206861766520612062616c616e6365526f6c65733a206163636f756e7420697320746865207a65726f2061646472657373a165627a7a7230582087b0a18f9dfb4be4eac3be885125855cb0cda7fdee8d761784f9d352cabdc7e900294f776e61626c653a206e6577206f776e657220697320746865207a65726f20616464726573734833205265736f6c7574696f6e206d757374206265205f68335265736f6c7574696f6e203e3d30202626205f68335265736f6c7574696f6e203c3136526f6c65733a206163636f756e7420697320746865207a65726f2061646472657373",
  "source": "/**\n * @title CryptoSpatialFeature\n * @author BENAHMED DAHO Ali\n * @notice an abstract contract that implement a Spatial Feature Geometry\n * on the etherurm blockchain\n *\n * @dev GM_Primitive (ISO 19107)\n *\n * TODO :\n *  - make this contract Ownable\n *\n*/\n\npragma solidity ^0.5.0;\n\n\nimport './CSGeometryLib.sol';\nimport './CSFeatureInterface.sol';\nimport '@openzeppelin/contracts/access/Roles.sol';\nimport '@openzeppelin/contracts/ownership/Ownable.sol';\n\ncontract CSFeature is CSFeatureInterface, Ownable {\n\n    //\n    // State variables\n    //\n\n    bytes32 internal csc;         // Crypto-Spatial Coordinate\n    bytes32 internal wkbHash;     // Well Known Binary Hash\n    bytes15 internal dggsIndex;   // DGGS (Disrcete Global Geodetic System) index\n    uint internal h3Resolution;   // H3 resolution (H3 is a compliant DGGS library)\n    CSGeometryLib.CSGeometryType internal geomteryType; // geometry type\n\n    // adding access control\n    using Roles for Roles.Role;\n\n    Roles.Role private _admins;\n\n  //\n  // Events - publicize actions to external listeners\n  //\n    event LogFeatureCreated(bytes32 indexed csc, bytes15 indexed dggsIndex, bytes32 wkbHash, address indexed owner);\n    event LogFeatureKilled(bytes32 indexed csc, bytes15 indexed dggsIndex, bytes32 wkbHash, address indexed owner);\n\n    //\n    // Modifiers\n    //\n\n    modifier onlyAdmins(address _address) {\n      require(_admins.has(_address),\"Caller haven't admins rights on the feature\");\n      _;\n    }\n\n    //\n    // Functions\n    //\n\n    /**\n    * @notice constuctor\n    * @dev initialize state variables\n    *\n    */\n    constructor (bytes15 _dggsIndex, bytes32 _wkbHash, address __owner, uint _h3Resolution) public Ownable() {\n      require((_h3Resolution >= 0 && _h3Resolution < 16), \"H3 Resolution must be _h3Resolution >=0 && _h3Resolution <16\");\n      require(_dggsIndex[0] != 0, \"Empty dggsIndex\");\n      require(_wkbHash[0] != 0, \"Empty wkbHash\");\n\n      transferOwnership(__owner);\n      _admins.add(__owner);\n      _admins.add(msg.sender);\n      wkbHash = _wkbHash;\n      dggsIndex = _dggsIndex;\n      geomteryType = CSGeometryLib.CSGeometryType.GM_POINT;\n      h3Resolution = _h3Resolution;\n      csc = CSGeometryLib.computeCSCIndex(__owner, _dggsIndex);\n      emit LogFeatureCreated(csc, dggsIndex, wkbHash, owner());\n    }\n\n  /**\n   * @dev getGeometryType\n   */\n  function getGeometryType() external returns (CSGeometryLib.CSGeometryType) {\n    return geomteryType;\n  }\n\n  /**\n   */\n  function getFeatureCSC() external view returns (bytes32) {\n      return (csc);\n    }\n\n  /**\n   */\n  function getFeatureDGGSIndex() external view returns (bytes15) {\n      return (dggsIndex);\n    }\n\n  /**\n   * @dev returns all the values of the feature\n   */\n  function fetchFeature() external view\n      returns (bytes32 _csc, bytes15 _dggsIndex, bytes32 _wkbHash, address __owner, uint _h3Resolution,\n                CSGeometryLib.CSGeometryType _geomteryType) {\n      return (csc,dggsIndex, wkbHash, owner(), h3Resolution, geomteryType);\n\n    }\n  /**\n   * @dev update the Well Known Binary Hash of the feature\n   */\n  function setWkbHash(bytes32 _wkbHash) external\n              onlyAdmins(msg.sender)\n              returns (bytes32 _wkbHashValue) {\n\n    require(_wkbHash[0] != 0, \"Empty wkbHash\");\n    wkbHash = _wkbHash;\n    return _wkbHash;\n  }\n  /**\n   * @dev isAdmin : check if the addres is an admin of this feature\n   *\n   */\n  function isAdmin(address _address) external view returns (bool) {\n    return _admins.has(_address);\n  }\n\n  /**\n   * @dev remove permanently the feature from the blockchain\n   * TODO cross check with Registry removeFeature\n   */\n\n  function kill() external onlyAdmins(msg.sender) {\n      selfdestruct(address(uint160(owner()))); // cast owner to address payable\n      // TODO check if state variables values stay accessible after selfdestruct\n      emit LogFeatureKilled(csc, dggsIndex, wkbHash, owner());\n    }\n\n  /**\n   * @dev callback function\n   */\n  function () external {\n      revert(\"this contract should never have a balance\");\n    }\n\n}\n",
  "sourcePath": "/home/ali/projects-eth/decentralized-land-admin/solidity/contracts/geospatial/CSFeature.sol",
  "compiler": {
    "name": "solc",
    "version": "0.5.8+commit.23d335f2.Emscripten.clang"
  },
  "schemaVersion": "3.0.16",
  "updatedAt": "2020-05-01T00:05:32.894Z",
  "devdoc": {
    "methods": {
      "constructor": {
        "details": "initialize state variables    "
      },
      "fetchFeature()": {
        "details": "returns all the values of the feature"
      },
      "getGeometryType()": {
        "details": "getGeometryType"
      },
      "isAdmin(address)": {
        "details": "isAdmin : check if the addres is an admin of this feature   "
      },
      "isOwner()": {
        "details": "Returns true if the caller is the current owner."
      },
      "kill()": {
        "details": "remove permanently the feature from the blockchain TODO cross check with Registry removeFeature"
      },
      "owner()": {
        "details": "Returns the address of the current owner."
      },
      "renounceOwnership()": {
        "details": "Leaves the contract without owner. It will not be possible to call `onlyOwner` functions anymore. Can only be called by the current owner.     * NOTE: Renouncing ownership will leave the contract without an owner, thereby removing any functionality that is only available to the owner."
      },
      "setWkbHash(bytes32)": {
        "details": "update the Well Known Binary Hash of the feature"
      },
      "transferOwnership(address)": {
        "details": "Transfers ownership of the contract to a new account (`newOwner`). Can only be called by the current owner."
      }
    }
  },
  "userdoc": {
    "methods": {
      "constructor": "constuctor"
    }
  }
}