{
  "contractName": "CSFeatureRegistry",
  "abi": [
    {
      "constant": true,
      "inputs": [],
      "name": "srs",
      "outputs": [
        {
          "name": "",
          "type": "string"
        }
      ],
      "payable": false,
      "stateMutability": "view",
      "type": "function"
    },
    {
      "constant": true,
      "inputs": [],
      "name": "name",
      "outputs": [
        {
          "name": "",
          "type": "string"
        }
      ],
      "payable": false,
      "stateMutability": "view",
      "type": "function"
    },
    {
      "constant": false,
      "inputs": [],
      "name": "unpause",
      "outputs": [],
      "payable": false,
      "stateMutability": "nonpayable",
      "type": "function"
    },
    {
      "constant": true,
      "inputs": [
        {
          "name": "account",
          "type": "address"
        }
      ],
      "name": "isPauser",
      "outputs": [
        {
          "name": "",
          "type": "bool"
        }
      ],
      "payable": false,
      "stateMutability": "view",
      "type": "function"
    },
    {
      "constant": true,
      "inputs": [],
      "name": "paused",
      "outputs": [
        {
          "name": "",
          "type": "bool"
        }
      ],
      "payable": false,
      "stateMutability": "view",
      "type": "function"
    },
    {
      "constant": false,
      "inputs": [],
      "name": "renouncePauser",
      "outputs": [],
      "payable": false,
      "stateMutability": "nonpayable",
      "type": "function"
    },
    {
      "constant": true,
      "inputs": [],
      "name": "h3Resolution",
      "outputs": [
        {
          "name": "",
          "type": "uint256"
        }
      ],
      "payable": false,
      "stateMutability": "view",
      "type": "function"
    },
    {
      "constant": false,
      "inputs": [
        {
          "name": "account",
          "type": "address"
        }
      ],
      "name": "addPauser",
      "outputs": [],
      "payable": false,
      "stateMutability": "nonpayable",
      "type": "function"
    },
    {
      "constant": false,
      "inputs": [],
      "name": "pause",
      "outputs": [],
      "payable": false,
      "stateMutability": "nonpayable",
      "type": "function"
    },
    {
      "inputs": [
        {
          "name": "_name",
          "type": "string"
        },
        {
          "name": "_h3Resolution",
          "type": "uint256"
        },
        {
          "name": "_srs",
          "type": "string"
        }
      ],
      "payable": false,
      "stateMutability": "nonpayable",
      "type": "constructor"
    },
    {
      "payable": false,
      "stateMutability": "nonpayable",
      "type": "fallback"
    },
    {
      "anonymous": false,
      "inputs": [
        {
          "indexed": false,
          "name": "name",
          "type": "string"
        },
        {
          "indexed": false,
          "name": "csc",
          "type": "bytes32"
        },
        {
          "indexed": false,
          "name": "dggsIndex",
          "type": "bytes15"
        },
        {
          "indexed": false,
          "name": "wkbHash",
          "type": "bytes32"
        },
        {
          "indexed": false,
          "name": "owner",
          "type": "address"
        }
      ],
      "name": "LogNewFeatureAdded",
      "type": "event"
    },
    {
      "anonymous": false,
      "inputs": [
        {
          "indexed": false,
          "name": "account",
          "type": "address"
        }
      ],
      "name": "Paused",
      "type": "event"
    },
    {
      "anonymous": false,
      "inputs": [
        {
          "indexed": false,
          "name": "account",
          "type": "address"
        }
      ],
      "name": "Unpaused",
      "type": "event"
    },
    {
      "anonymous": false,
      "inputs": [
        {
          "indexed": true,
          "name": "account",
          "type": "address"
        }
      ],
      "name": "PauserAdded",
      "type": "event"
    },
    {
      "anonymous": false,
      "inputs": [
        {
          "indexed": true,
          "name": "account",
          "type": "address"
        }
      ],
      "name": "PauserRemoved",
      "type": "event"
    },
    {
      "constant": true,
      "inputs": [],
      "name": "getFeatureCount",
      "outputs": [
        {
          "name": "",
          "type": "uint256"
        }
      ],
      "payable": false,
      "stateMutability": "view",
      "type": "function"
    },
    {
      "constant": true,
      "inputs": [
        {
          "name": "csc",
          "type": "bytes32"
        }
      ],
      "name": "getFeature",
      "outputs": [
        {
          "name": "",
          "type": "address"
        }
      ],
      "payable": false,
      "stateMutability": "view",
      "type": "function"
    }
  ],
  "bytecode": "0x608060405260006005553480156200001657600080fd5b506040516200135938038062001359833981018060405260608110156200003c57600080fd5b8101908080516401000000008111156200005557600080fd5b828101905060208101848111156200006c57600080fd5b81518560018202830111640100000000821117156200008a57600080fd5b5050929190602001805190602001909291908051640100000000811115620000b157600080fd5b82810190506020810184811115620000c857600080fd5b8151856001820283011164010000000082111715620000e657600080fd5b50509291905050506200010e620001026200029160201b60201c565b6200029960201b60201c565b6000600160006101000a81548160ff021916908315150217905550600082101580156200013b5750601082105b62000192576040517f08c379a000000000000000000000000000000000000000000000000000000000815260040180806020018281038252603c815260200180620012fb603c913960400191505060405180910390fd5b600060f81b83600081518110620001a557fe5b602001015160f81c60f81b7effffffffffffffffffffffffffffffffffffffffffffffffffffffffffffff1916141562000247576040517f08c379a000000000000000000000000000000000000000000000000000000000815260040180806020018281038252600a8152602001807f456d707479206e616d650000000000000000000000000000000000000000000081525060200191505060405180910390fd5b81600281905550826003908051906020019062000266929190620004be565b5080600490805190602001906200027f929190620004be565b5060006005819055505050506200056d565b600033905090565b620002b4816000620002fa60201b62000bb51790919060201c565b8073ffffffffffffffffffffffffffffffffffffffff167f6719d08c1888103bea251a4ed56406bd0c3e69723c8a1686e017e7bbe159b6f860405160405180910390a250565b6200030c8282620003de60201b60201c565b1562000380576040517f08c379a000000000000000000000000000000000000000000000000000000000815260040180806020018281038252601f8152602001807f526f6c65733a206163636f756e7420616c72656164792068617320726f6c650081525060200191505060405180910390fd5b60018260000160008373ffffffffffffffffffffffffffffffffffffffff1673ffffffffffffffffffffffffffffffffffffffff16815260200190815260200160002060006101000a81548160ff0219169083151502179055505050565b60008073ffffffffffffffffffffffffffffffffffffffff168273ffffffffffffffffffffffffffffffffffffffff16141562000467576040517f08c379a0000000000000000000000000000000000000000000000000000000008152600401808060200182810382526022815260200180620013376022913960400191505060405180910390fd5b8260000160008373ffffffffffffffffffffffffffffffffffffffff1673ffffffffffffffffffffffffffffffffffffffff16815260200190815260200160002060009054906101000a900460ff16905092915050565b828054600181600116156101000203166002900490600052602060002090601f016020900481019282601f106200050157805160ff191683800117855562000532565b8280016001018555821562000532579182015b828111156200053157825182559160200191906001019062000514565b5b50905062000541919062000545565b5090565b6200056a91905b80821115620005665760008160009055506001016200054c565b5090565b90565b610d7e806200057d6000396000f3fe608060405234801561001057600080fd5b50600436106100a95760003560e01c80636106f192116100715780636106f192146102885780636ef8d66d146102a65780637e9c00fc146102b057806382dc1ec4146102ce5780638456cb59146103125780638b12dbaa1461031c576100a9565b806303229556146100fa57806306fdde031461017d5780633f4ba83a1461020057806346fbf68e1461020a5780635c975abb14610266575b6040517f08c379a0000000000000000000000000000000000000000000000000000000008152600401808060200182810382526029815260200180610ce76029913960400191505060405180910390fd5b61010261038a565b6040518080602001828103825283818151815260200191508051906020019080838360005b83811015610142578082015181840152602081019050610127565b50505050905090810190601f16801561016f5780820380516001836020036101000a031916815260200191505b509250505060405180910390f35b610185610428565b6040518080602001828103825283818151815260200191508051906020019080838360005b838110156101c55780820151818401526020810190506101aa565b50505050905090810190601f1680156101f25780820380516001836020036101000a031916815260200191505b509250505060405180910390f35b6102086104c6565b005b61024c6004803603602081101561022057600080fd5b81019080803573ffffffffffffffffffffffffffffffffffffffff169060200190929190505050610634565b604051808215151515815260200191505060405180910390f35b61026e610651565b604051808215151515815260200191505060405180910390f35b610290610668565b6040518082815260200191505060405180910390f35b6102ae610672565b005b6102b8610684565b6040518082815260200191505060405180910390f35b610310600480360360208110156102e457600080fd5b81019080803573ffffffffffffffffffffffffffffffffffffffff16906020019092919050505061068a565b005b61031a6106fb565b005b6103486004803603602081101561033257600080fd5b8101908080359060200190929190505050610869565b604051808273ffffffffffffffffffffffffffffffffffffffff1673ffffffffffffffffffffffffffffffffffffffff16815260200191505060405180910390f35b60048054600181600116156101000203166002900480601f0160208091040260200160405190810160405280929190818152602001828054600181600116156101000203166002900480156104205780601f106103f557610100808354040283529160200191610420565b820191906000526020600020905b81548152906001019060200180831161040357829003601f168201915b505050505081565b60038054600181600116156101000203166002900480601f0160208091040260200160405190810160405280929190818152602001828054600181600116156101000203166002900480156104be5780601f10610493576101008083540402835291602001916104be565b820191906000526020600020905b8154815290600101906020018083116104a157829003601f168201915b505050505081565b6104d66104d161095e565b610634565b61052b576040517f08c379a0000000000000000000000000000000000000000000000000000000008152600401808060200182810382526030815260200180610c916030913960400191505060405180910390fd5b600160009054906101000a900460ff166105ad576040517f08c379a00000000000000000000000000000000000000000000000000000000081526004018080602001828103825260148152602001807f5061757361626c653a206e6f742070617573656400000000000000000000000081525060200191505060405180910390fd5b6000600160006101000a81548160ff0219169083151502179055507f5db9ee0a495bf2e6ff9c91a7834c1ba4fdd244a5e8aa4e537bd38aeae4b073aa6105f161095e565b604051808273ffffffffffffffffffffffffffffffffffffffff1673ffffffffffffffffffffffffffffffffffffffff16815260200191505060405180910390a1565b600061064a82600061096690919063ffffffff16565b9050919050565b6000600160009054906101000a900460ff16905090565b6000600554905090565b61068261067d61095e565b610a44565b565b60025481565b61069a61069561095e565b610634565b6106ef576040517f08c379a0000000000000000000000000000000000000000000000000000000008152600401808060200182810382526030815260200180610c916030913960400191505060405180910390fd5b6106f881610a9e565b50565b61070b61070661095e565b610634565b610760576040517f08c379a0000000000000000000000000000000000000000000000000000000008152600401808060200182810382526030815260200180610c916030913960400191505060405180910390fd5b600160009054906101000a900460ff16156107e3576040517f08c379a00000000000000000000000000000000000000000000000000000000081526004018080602001828103825260108152602001807f5061757361626c653a207061757365640000000000000000000000000000000081525060200191505060405180910390fd5b60018060006101000a81548160ff0219169083151502179055507f62e78cea01bee320cd4e420270b5ea74000d11b0c9f74754ebdbfc544b05a25861082661095e565b604051808273ffffffffffffffffffffffffffffffffffffffff1673ffffffffffffffffffffffffffffffffffffffff16815260200191505060405180910390a1565b60008073ffffffffffffffffffffffffffffffffffffffff166006600084815260200190815260200160002060009054906101000a900473ffffffffffffffffffffffffffffffffffffffff1673ffffffffffffffffffffffffffffffffffffffff161415610923576040517f08c379a0000000000000000000000000000000000000000000000000000000008152600401808060200182810382526026815260200180610cc16026913960400191505060405180910390fd5b6006600083815260200190815260200160002060009054906101000a900473ffffffffffffffffffffffffffffffffffffffff169050919050565b600033905090565b60008073ffffffffffffffffffffffffffffffffffffffff168273ffffffffffffffffffffffffffffffffffffffff1614156109ed576040517f08c379a0000000000000000000000000000000000000000000000000000000008152600401808060200182810382526022815260200180610d316022913960400191505060405180910390fd5b8260000160008373ffffffffffffffffffffffffffffffffffffffff1673ffffffffffffffffffffffffffffffffffffffff16815260200190815260200160002060009054906101000a900460ff16905092915050565b610a58816000610af890919063ffffffff16565b8073ffffffffffffffffffffffffffffffffffffffff167fcd265ebaf09df2871cc7bd4133404a235ba12eff2041bb89d9c714a2621c7c7e60405160405180910390a250565b610ab2816000610bb590919063ffffffff16565b8073ffffffffffffffffffffffffffffffffffffffff167f6719d08c1888103bea251a4ed56406bd0c3e69723c8a1686e017e7bbe159b6f860405160405180910390a250565b610b028282610966565b610b57576040517f08c379a0000000000000000000000000000000000000000000000000000000008152600401808060200182810382526021815260200180610d106021913960400191505060405180910390fd5b60008260000160008373ffffffffffffffffffffffffffffffffffffffff1673ffffffffffffffffffffffffffffffffffffffff16815260200190815260200160002060006101000a81548160ff0219169083151502179055505050565b610bbf8282610966565b15610c32576040517f08c379a000000000000000000000000000000000000000000000000000000000815260040180806020018281038252601f8152602001807f526f6c65733a206163636f756e7420616c72656164792068617320726f6c650081525060200191505060405180910390fd5b60018260000160008373ffffffffffffffffffffffffffffffffffffffff1673ffffffffffffffffffffffffffffffffffffffff16815260200190815260200160002060006101000a81548160ff021916908315150217905550505056fe506175736572526f6c653a2063616c6c657220646f6573206e6f742068617665207468652050617573657220726f6c654665617475726520646f6573206e6f7420657869737420696e207468652072656769737472797468697320636f6e74726163742073686f756c64206e65766572206861766520612062616c616e6365526f6c65733a206163636f756e7420646f6573206e6f74206861766520726f6c65526f6c65733a206163636f756e7420697320746865207a65726f2061646472657373a165627a7a723058203d44ef550ac9da382477d9ac7de1e4cdba298fc91d5759210b8b91fd6bb8c3fb00294833205265736f6c7574696f6e206d757374206265205f68335265736f6c7574696f6e203e3d30202626205f68335265736f6c7574696f6e203c3136526f6c65733a206163636f756e7420697320746865207a65726f2061646472657373",
  "source": "/**\n * @title Crypto-Spatial Feature Registry\n * @author BENAHMED DAHO Ali\n * @notice an abstract contract that implement a Geospatial Features Registry\n * @dev ...\n *\n*/\n\npragma solidity ^0.5.0;\n\nimport './CSFeatureInterface.sol';\nimport './CSFeature.sol';\nimport './CSGeometryLib.sol';\n\nimport '@openzeppelin/contracts/lifecycle/Pausable.sol';\nimport '@openzeppelin/contracts/math/SafeMath.sol';\n\ncontract CSFeatureRegistry is Pausable {\n\n  // Use safe math for featureCount;\n  using SafeMath for uint256;\n\n  //\n  // State variables\n  //\n  uint public h3Resolution; // H3 resolution (H3 is a compliant DGGS library)\n  string public name;       // display name of the registry\n  string public srs;        // Spatial Reference System\n  uint256 featuresCount = 0; // Counter of the added features\n\n  mapping(bytes32 => address) internal features; // Mapping CSC => Features contract address\n\n  //\n  // Events - publicize actions to external listeners\n  //\n  event LogNewFeatureAdded(string name, bytes32 csc, bytes15 dggsIndex, bytes32 wkbHash, address owner);\n\n  //\n  // Functions\n  //\n\n  /// @notice constuctor\n  constructor (string memory _name, uint _h3Resolution, string memory _srs) public {\n    require((_h3Resolution >= 0 && _h3Resolution < 16), \"H3 Resolution must be _h3Resolution >=0 && _h3Resolution <16\");\n    require(bytes(_name)[0] != 0, \"Empty name\");\n\n    h3Resolution = _h3Resolution;\n    name = _name;\n    srs = _srs;\n    featuresCount = 0;\n  }\n\n  /**\n  * @notice addFeature\n  * @param dggsIndex dggsIndex of the feature\n  * @param wkbHash Well Known Binary Hash\n  * @return the Crypto-Spatial Coordinate (CSC) of the feature\n  */\n\n  modifier addFeature(bytes15 dggsIndex, bytes32 wkbHash, address _sender)\n   {\n    require(!paused(), \"Contract is paused\");\n    require(dggsIndex.length != 0, \"Empty dggsIndex\");\n    require(wkbHash.length != 0, \"Empty wkbHash\");\n\n    _;\n\n    bytes32 csc = CSGeometryLib.computeCSCIndex(_sender, dggsIndex); // TODO chek for gas overburn\n    emit LogNewFeatureAdded(name, csc, dggsIndex, wkbHash, _sender);\n    featuresCount = featuresCount.add(1); // TODO chek for gas overburn\n  }\n\n /**\n  * @notice getFeatureCount\n  * @return the count of the features added to the registry\n  */\n  function getFeatureCount() public view returns (uint256) {\n    return featuresCount;\n  }\n\n  /**\n  * @notice getFeature\n  * @param csc the feature CSC\n  * @return the address of the feature deployed contract\n  */\n  function getFeature(bytes32 csc) public view returns (address){\n    require (features[csc] != address(0), \"Feature does not exist in the registry\");\n    return  features[csc];\n  }\n\n  /**\n  * @notice callback function\n  */\n\n  function () external {\n    revert(\"this contract should never have a balance\");\n  }\n}\n",
  "sourcePath": "/home/ali/EthProjects/onchain-land-administration/solidity/contracts/geospatial/CSFeatureRegistry.sol",
  "compiler": {
    "name": "solc",
    "version": "0.5.8+commit.23d335f2.Emscripten.clang"
  },
  "schemaVersion": "3.0.16",
  "updatedAt": "2019-11-08T13:37:51.497Z",
  "devdoc": {
    "methods": {
      "getFeature(bytes32)": {
        "params": {
          "csc": "the feature CSC"
        },
        "return": "the address of the feature deployed contract"
      },
      "getFeatureCount()": {
        "return": "the count of the features added to the registry"
      },
      "pause()": {
        "details": "Called by a pauser to pause, triggers stopped state."
      },
      "paused()": {
        "details": "Returns true if the contract is paused, and false otherwise."
      },
      "unpause()": {
        "details": "Called by a pauser to unpause, returns to normal state."
      }
    }
  },
  "userdoc": {
    "methods": {
      "constructor": "constuctor",
      "getFeature(bytes32)": {
        "notice": "getFeature"
      },
      "getFeatureCount()": {
        "notice": "getFeatureCount"
      }
    }
  }
}