{
  "contractName": "CSFeature",
  "abi": [
    {
      "constant": true,
      "inputs": [],
      "name": "h3Resolution",
      "outputs": [
        {
          "name": "",
          "type": "uint256"
        }
      ],
      "payable": false,
      "stateMutability": "view",
      "type": "function"
    },
    {
      "constant": true,
      "inputs": [],
      "name": "owner",
      "outputs": [
        {
          "name": "",
          "type": "address"
        }
      ],
      "payable": false,
      "stateMutability": "view",
      "type": "function"
    },
    {
      "constant": true,
      "inputs": [],
      "name": "csc",
      "outputs": [
        {
          "name": "",
          "type": "bytes32"
        }
      ],
      "payable": false,
      "stateMutability": "view",
      "type": "function"
    },
    {
      "constant": true,
      "inputs": [],
      "name": "dggsIndex",
      "outputs": [
        {
          "name": "",
          "type": "bytes15"
        }
      ],
      "payable": false,
      "stateMutability": "view",
      "type": "function"
    },
    {
      "constant": true,
      "inputs": [],
      "name": "wkbHash",
      "outputs": [
        {
          "name": "",
          "type": "bytes32"
        }
      ],
      "payable": false,
      "stateMutability": "view",
      "type": "function"
    },
    {
      "inputs": [
        {
          "name": "_dggsIndex",
          "type": "bytes15"
        },
        {
          "name": "_wkbHash",
          "type": "bytes32"
        },
        {
          "name": "__owner",
          "type": "address"
        },
        {
          "name": "_h3Resolution",
          "type": "uint256"
        }
      ],
      "payable": false,
      "stateMutability": "nonpayable",
      "type": "constructor"
    },
    {
      "payable": false,
      "stateMutability": "nonpayable",
      "type": "fallback"
    },
    {
      "constant": false,
      "inputs": [],
      "name": "getGeometryType",
      "outputs": [
        {
          "name": "",
          "type": "uint8"
        }
      ],
      "payable": false,
      "stateMutability": "nonpayable",
      "type": "function"
    }
  ],
  "bytecode": "0x608060405234801561001057600080fd5b506040516080806106248339810180604052608081101561003057600080fd5b8101908080519060200190929190805190602001909291908051906020019092919080519060200190929190505050600081101580156100705750601081105b6100c5576040517f08c379a000000000000000000000000000000000000000000000000000000000815260040180806020018281038252603c8152602001806105e8603c913960400191505060405180910390fd5b6000600360009054906101000a905050600f60ff16141561014e576040517f08c379a000000000000000000000000000000000000000000000000000000000815260040180806020018281038252600f8152602001807f456d7074792064676773496e646578000000000000000000000000000000000081525060200191505060405180910390fd5b6000602060ff1614156101c9576040517f08c379a000000000000000000000000000000000000000000000000000000000815260040180806020018281038252600d8152602001807f456d70747920776b62486173680000000000000000000000000000000000000081525060200191505060405180910390fd5b6000829050806000806101000a81548173ffffffffffffffffffffffffffffffffffffffff021916908373ffffffffffffffffffffffffffffffffffffffff1602179055508360028190555084600360006101000a8154816effffffffffffffffffffffffffffff021916908360881c02179055506000600560006101000a81548160ff0219169083600281111561025d57fe5b02179055508160048190555073__CSGeometryLib_________________________637834a61282876040518363ffffffff1660e01b8152600401808373ffffffffffffffffffffffffffffffffffffffff1673ffffffffffffffffffffffffffffffffffffffff1681526020018270ffffffffffffffffffffffffffffffffff191670ffffffffffffffffffffffffffffffffff191681526020019250505060206040518083038186803b15801561031457600080fd5b505af4158015610328573d6000803e3d6000fd5b505050506040513d602081101561033e57600080fd5b8101908080519060200190929190505050600181905550505050505061027f806103696000396000f3fe608060405234801561001057600080fd5b50600436106100625760003560e01c806317e17809146100b35780637e9c00fc146100df5780638da5cb5b146100fd578063d55c3ca314610147578063df1ed5e814610165578063ecd9fa4a146101ab575b6040517f08c379a000000000000000000000000000000000000000000000000000000000815260040180806020018281038252602981526020018061022b6029913960400191505060405180910390fd5b6100bb6101c9565b604051808260028111156100cb57fe5b60ff16815260200191505060405180910390f35b6100e76101e0565b6040518082815260200191505060405180910390f35b6101056101e6565b604051808273ffffffffffffffffffffffffffffffffffffffff1673ffffffffffffffffffffffffffffffffffffffff16815260200191505060405180910390f35b61014f61020b565b6040518082815260200191505060405180910390f35b61016d610211565b604051808270ffffffffffffffffffffffffffffffffff191670ffffffffffffffffffffffffffffffffff1916815260200191505060405180910390f35b6101b3610224565b6040518082815260200191505060405180910390f35b6000600560009054906101000a900460ff16905090565b60045481565b6000809054906101000a900473ffffffffffffffffffffffffffffffffffffffff1681565b60015481565b600360009054906101000a900460881b81565b6002548156fe7468697320636f6e74726163742073686f756c64206e65766572206861766520612062616c616e6365a165627a7a72305820602fbd9cf1cc23da6656352054021c98c34758cbc8790d52d9659f76e963ae1400294833205265736f6c7574696f6e206d757374206265205f68335265736f6c7574696f6e203e3d30202626205f68335265736f6c7574696f6e203c3136",
  "source": "/**\n * @title CryptoSpatialFeature\n * @author BENAHMED DAHO Ali\n * @notice an abstract contract that implement a Spatial Feature Geometry\n * on the etherurm blockchain\n *\n * @dev GM_Primitive (ISO 19107)\n *\n * TODO :\n *  - make this contract Ownable\n *\n*/\n\npragma solidity ^0.5.0;\n\n\nimport './CSGeometryLib.sol';\nimport './CSFeatureInterface.sol';\n\ncontract CSFeature is CSFeatureInterface {\n\n    //\n    // State variables\n    //\n\n    address public owner;       // owner\n    bytes32 public csc;         // Crypto-Spatial Coordinate\n    bytes32 public wkbHash;     // Well Known Binary Hash\n    bytes15 public dggsIndex;   // DGGS (Disrcete Global Geodetic System) index\n    uint public h3Resolution;   // H3 resolution (H3 is a compliant DGGS library)\n    CSGeometryLib.CSGeometryType internal geomteryType; // geometry type\n\n    //\n    // Functions\n    //\n\n    /**\n    * @notice constuctor\n    * @dev initialize state variables\n    *\n    */\n    constructor (bytes15 _dggsIndex, bytes32 _wkbHash, address __owner, uint _h3Resolution) public {\n      require((_h3Resolution >= 0 && _h3Resolution < 16), \"H3 Resolution must be _h3Resolution >=0 && _h3Resolution <16\");\n      require(dggsIndex.length != 0, \"Empty dggsIndex\");\n      require(_wkbHash.length != 0, \"Empty wkbHash\");\n      address _owner = __owner; // TODO change after inheriting from Ownable\n      owner = _owner;\n      wkbHash = _wkbHash;\n      dggsIndex = _dggsIndex;\n      geomteryType = CSGeometryLib.CSGeometryType.GM_POINT;\n      h3Resolution = _h3Resolution;\n      csc = CSGeometryLib.computeCSCIndex(_owner, _dggsIndex);\n    }\n\n  /**\n   * @dev getGeometryType\n   */\n  function getGeometryType() external returns (CSGeometryLib.CSGeometryType) {\n    return geomteryType;\n  }\n  function () external {\n      revert(\"this contract should never have a balance\");\n    }\n\n}\n",
  "sourcePath": "/home/ali/EthProjects/onchain-land-administration/solidity/contracts/geospatial/CSFeature.sol",
  "compiler": {
    "name": "solc",
    "version": "0.5.8+commit.23d335f2.Emscripten.clang"
  },
  "schemaVersion": "3.0.16",
  "updatedAt": "2019-11-05T19:40:12.986Z",
  "devdoc": {
    "methods": {
      "constructor": {
        "details": "initialize state variables    "
      },
      "getGeometryType()": {
        "details": "getGeometryType"
      }
    }
  },
  "userdoc": {
    "methods": {
      "constructor": "constuctor"
    }
  }
}