{
  "contractName": "CSFeatureRegistry",
  "abi": [
    {
      "constant": true,
      "inputs": [],
      "name": "srs",
      "outputs": [
        {
          "name": "",
          "type": "string"
        }
      ],
      "payable": false,
      "stateMutability": "view",
      "type": "function"
    },
    {
      "constant": true,
      "inputs": [],
      "name": "name",
      "outputs": [
        {
          "name": "",
          "type": "string"
        }
      ],
      "payable": false,
      "stateMutability": "view",
      "type": "function"
    },
    {
      "constant": true,
      "inputs": [],
      "name": "h3Resolution",
      "outputs": [
        {
          "name": "",
          "type": "uint256"
        }
      ],
      "payable": false,
      "stateMutability": "view",
      "type": "function"
    },
    {
      "inputs": [
        {
          "name": "_name",
          "type": "string"
        },
        {
          "name": "_h3Resolution",
          "type": "uint256"
        },
        {
          "name": "_srs",
          "type": "string"
        }
      ],
      "payable": false,
      "stateMutability": "nonpayable",
      "type": "constructor"
    },
    {
      "payable": false,
      "stateMutability": "nonpayable",
      "type": "fallback"
    },
    {
      "anonymous": false,
      "inputs": [
        {
          "indexed": false,
          "name": "name",
          "type": "string"
        },
        {
          "indexed": false,
          "name": "csc",
          "type": "bytes32"
        },
        {
          "indexed": false,
          "name": "dggsIndex",
          "type": "bytes15"
        },
        {
          "indexed": false,
          "name": "wkbHash",
          "type": "bytes32"
        },
        {
          "indexed": false,
          "name": "owner",
          "type": "address"
        }
      ],
      "name": "LogNewFeatureAdded",
      "type": "event"
    },
    {
      "constant": true,
      "inputs": [],
      "name": "getFeatureCount",
      "outputs": [
        {
          "name": "",
          "type": "uint256"
        }
      ],
      "payable": false,
      "stateMutability": "view",
      "type": "function"
    },
    {
      "constant": true,
      "inputs": [
        {
          "name": "csc",
          "type": "bytes32"
        }
      ],
      "name": "getFeature",
      "outputs": [
        {
          "name": "",
          "type": "address"
        }
      ],
      "payable": false,
      "stateMutability": "view",
      "type": "function"
    }
  ],
  "bytecode": "0x6080604052600060035534801561001557600080fd5b506040516108463803806108468339810180604052606081101561003857600080fd5b81019080805164010000000081111561005057600080fd5b8281019050602081018481111561006657600080fd5b815185600182028301116401000000008211171561008357600080fd5b50509291906020018051906020019092919080516401000000008111156100a957600080fd5b828101905060208101848111156100bf57600080fd5b81518560018202830111640100000000821117156100dc57600080fd5b5050929190505050600082101580156100f55750601082105b61014a576040517f08c379a000000000000000000000000000000000000000000000000000000000815260040180806020018281038252603c81526020018061080a603c913960400191505060405180910390fd5b600060f81b8360008151811061015c57fe5b602001015160f81c60f81b7effffffffffffffffffffffffffffffffffffffffffffffffffffffffffffff191614156101fd576040517f08c379a000000000000000000000000000000000000000000000000000000000815260040180806020018281038252600a8152602001807f456d707479206e616d650000000000000000000000000000000000000000000081525060200191505060405180910390fd5b81600081905550826001908051906020019061021a929190610242565b508060029080519060200190610231929190610242565b5060006003819055505050506102e7565b828054600181600116156101000203166002900490600052602060002090601f016020900481019282601f1061028357805160ff19168380011785556102b1565b828001600101855582156102b1579182015b828111156102b0578251825591602001919060010190610295565b5b5090506102be91906102c2565b5090565b6102e491905b808211156102e05760008160009055506001016102c8565b5090565b90565b610514806102f66000396000f3fe608060405234801561001057600080fd5b50600436106100575760003560e01c806303229556146100a857806306fdde031461012b5780636106f192146101ae5780637e9c00fc146101cc5780638b12dbaa146101ea575b6040517f08c379a00000000000000000000000000000000000000000000000000000000081526004018080602001828103825260298152602001806104c06029913960400191505060405180910390fd5b6100b0610258565b6040518080602001828103825283818151815260200191508051906020019080838360005b838110156100f05780820151818401526020810190506100d5565b50505050905090810190601f16801561011d5780820380516001836020036101000a031916815260200191505b509250505060405180910390f35b6101336102f6565b6040518080602001828103825283818151815260200191508051906020019080838360005b83811015610173578082015181840152602081019050610158565b50505050905090810190601f1680156101a05780820380516001836020036101000a031916815260200191505b509250505060405180910390f35b6101b6610394565b6040518082815260200191505060405180910390f35b6101d461039e565b6040518082815260200191505060405180910390f35b6102166004803603602081101561020057600080fd5b81019080803590602001909291905050506103a4565b604051808273ffffffffffffffffffffffffffffffffffffffff1673ffffffffffffffffffffffffffffffffffffffff16815260200191505060405180910390f35b60028054600181600116156101000203166002900480601f0160208091040260200160405190810160405280929190818152602001828054600181600116156101000203166002900480156102ee5780601f106102c3576101008083540402835291602001916102ee565b820191906000526020600020905b8154815290600101906020018083116102d157829003601f168201915b505050505081565b60018054600181600116156101000203166002900480601f01602080910402602001604051908101604052809291908181526020018280546001816001161561010002031660029004801561038c5780601f106103615761010080835404028352916020019161038c565b820191906000526020600020905b81548152906001019060200180831161036f57829003601f168201915b505050505081565b6000600354905090565b60005481565b60008073ffffffffffffffffffffffffffffffffffffffff166004600084815260200190815260200160002060009054906101000a900473ffffffffffffffffffffffffffffffffffffffff1673ffffffffffffffffffffffffffffffffffffffff16141561045e576040517f08c379a000000000000000000000000000000000000000000000000000000000815260040180806020018281038252602681526020018061049a6026913960400191505060405180910390fd5b6004600083815260200190815260200160002060009054906101000a900473ffffffffffffffffffffffffffffffffffffffff16905091905056fe4665617475726520646f6573206e6f7420657869737420696e207468652072656769737472797468697320636f6e74726163742073686f756c64206e65766572206861766520612062616c616e6365a165627a7a723058206b513e1811f94677fbbc244406f37dbf709b9e24d73d49946a32f59d85c12c3d00294833205265736f6c7574696f6e206d757374206265205f68335265736f6c7574696f6e203e3d30202626205f68335265736f6c7574696f6e203c3136",
  "source": "/**\n * @title Crypto-Spatial Feature Registry\n * @author BENAHMED DAHO Ali\n * @notice an abstract contract that implement a Geospatial Features Registry\n * @dev ...\n *\n*/\n\npragma solidity ^0.5.0;\n\nimport './CSFeatureInterface.sol';\nimport './CSFeature.sol';\nimport './CSGeometryLib.sol';\n\ncontract CSFeatureRegistry {\n  //\n  // State variables\n  //\n  uint public h3Resolution; // H3 resolution (H3 is a compliant DGGS library)\n  string public name;       // display name of the registry\n  string public srs;        // Spatial Reference System\n  uint256 featuresCount = 0; // Counter of the added features\n\n\n  mapping(bytes32 => address) internal features; // Mapping CSC => Features contract address\n\n  //\n  // Events - publicize actions to external listeners\n  //\n  event LogNewFeatureAdded(string name, bytes32 csc, bytes15 dggsIndex, bytes32 wkbHash, address owner);\n\n  //\n  // Functions\n  //\n\n  /// @notice constuctor\n  constructor (string memory _name, uint _h3Resolution, string memory _srs) public {\n    require((_h3Resolution >= 0 && _h3Resolution < 16), \"H3 Resolution must be _h3Resolution >=0 && _h3Resolution <16\");\n    require(bytes(_name)[0] != 0, \"Empty name\");\n\n    h3Resolution = _h3Resolution;\n    name = _name;\n    srs = _srs;\n    featuresCount = 0;\n  }\n\n  /**\n  * @notice addFeature\n  * @param dggsIndex dggsIndex of the feature\n  * @param wkbHash Well Known Binary Hash\n  * @return the Crypto-Spatial Coordinate (CSC) of the feature\n  */\n  modifier addFeature(bytes15 dggsIndex, bytes32 wkbHash, address _sender)\n   {\n    require(dggsIndex.length != 0, \"Empty dggsIndex\");\n    require(wkbHash.length != 0, \"Empty wkbHash\");\n\n    _;\n\n    bytes32 csc = CSGeometryLib.computeCSCIndex(_sender, dggsIndex);\n    emit LogNewFeatureAdded(name, csc, dggsIndex, wkbHash, _sender);\n    featuresCount += 1; // TODO use SafeMath\n  }\n\n  // modifier addFeature(bytes15 dggsIndex,bytes32 wkbHash)\n  //  {\n  //   require(dggsIndex.length != 0, \"Empty dggsIndex\");\n  //   require(wkbHash.length != 0, \"Empty wkbHash\");\n  //   bytes32 csc = CSGeometryLib.computeCSCIndex(msg.sender, dggsIndex);\n  //   faturesCount += 1; // TODO use SafeMath\n  //   emit LogNewFeatureAdded(name, dggsIndex, csc, msg.sender);\n  //    _;\n  // }\n\n /**\n  * @notice getFeatureCount\n  * @return the count of the features added to the registry\n  */\n  function getFeatureCount() public view returns (uint256) {\n    return featuresCount;\n  }\n\n  /**\n  * @notice getFeature\n  * @param csc the feature CSC\n  * @return the address of the feature deployed contract\n  */\n  function getFeature(bytes32 csc) public view returns (address){\n    require (features[csc] != address(0), \"Feature does not exist in the registry\");\n    return  features[csc];\n  }\n\n  /**\n  * @notice callback function\n  */\n\n  function () external {\n    revert(\"this contract should never have a balance\");\n  }\n}\n",
  "sourcePath": "/home/ali/EthProjects/onchain-land-administration/solidity/contracts/geospatial/CSFeatureRegistry.sol",
  "compiler": {
    "name": "solc",
    "version": "0.5.8+commit.23d335f2.Emscripten.clang"
  },
  "schemaVersion": "3.0.16",
  "updatedAt": "2019-11-05T21:31:33.761Z",
  "devdoc": {
    "methods": {
      "getFeature(bytes32)": {
        "params": {
          "csc": "the feature CSC"
        },
        "return": "the address of the feature deployed contract"
      },
      "getFeatureCount()": {
        "return": "the count of the features added to the registry"
      }
    }
  },
  "userdoc": {
    "methods": {
      "constructor": "constuctor",
      "getFeature(bytes32)": {
        "notice": "getFeature"
      },
      "getFeatureCount()": {
        "notice": "getFeatureCount"
      }
    }
  }
}