{
  "contractName": "CSGeometryLib",
  "abi": [
    {
      "constant": true,
      "inputs": [
        {
          "name": "owner",
          "type": "address"
        },
        {
          "name": "dggsIndex",
          "type": "bytes15"
        }
      ],
      "name": "computeCSCIndex",
      "outputs": [
        {
          "name": "",
          "type": "bytes32"
        }
      ],
      "payable": false,
      "stateMutability": "pure",
      "type": "function"
    }
  ],
  "bytecode": "0x6102ba610026600b82828239805160001a60731461001957fe5b30600052607381538281f3fe73000000000000000000000000000000000000000030146080604052600436106100355760003560e01c80637834a6121461003a575b600080fd5b61009a6004803603604081101561005057600080fd5b81019080803573ffffffffffffffffffffffffffffffffffffffff169060200190929190803570ffffffffffffffffffffffffffffffffff191690602001909291905050506100b0565b6040518082815260200191505060405180910390f35b60008073ffffffffffffffffffffffffffffffffffffffff168373ffffffffffffffffffffffffffffffffffffffff161415610154576040517f08c379a000000000000000000000000000000000000000000000000000000000815260040180806020018281038252600d8152602001807f456d70747920616464726573730000000000000000000000000000000000000081525060200191505060405180910390fd5b600060f81b826000600f811061016657fe5b1a60f81b7effffffffffffffffffffffffffffffffffffffffffffffffffffffffffffff19161415610200576040517f08c379a000000000000000000000000000000000000000000000000000000000815260040180806020018281038252600f8152602001807f456d7074792064676773496e646578000000000000000000000000000000000081525060200191505060405180910390fd5b8282604051602001808373ffffffffffffffffffffffffffffffffffffffff1673ffffffffffffffffffffffffffffffffffffffff1660601b81526014018270ffffffffffffffffffffffffffffffffff191670ffffffffffffffffffffffffffffffffff19168152600f01925050506040516020818303038152906040528051906020012090509291505056fea165627a7a7230582074584db0a81e43046951645c56456afd20eb28455cf0df8cc1466a749b7da53b0029",
  "source": "/**\n * @title Crypto-Spatial Geometry Library\n * @author BENAHMED DAHO Ali\n * @notice a library that implement main utilities for the Geospatial Features Geometry type\n * @dev ....\n *\n *\n*/\n\n\npragma solidity ^0.5.0;\n\nlibrary CSGeometryLib {\n  /**\n  * @notice enumeration defining the Crypto-Spatial Geometry Types\n  *  inspired from OGC simple feature acces\n  */\n\n  enum CSGeometryType {\n    GM_POINT,\n    GM_CURVE,\n    GM_SURFACE\n  }\n\n  /**\n  * @notice computeCSCIndex function\n  * @dev calculate the Crypto-Spatial Coordinate (CSC) of the spatial feature\n  * @param owner a record holding the owner of the CSC\n  * @param dggsIndex the H3 index of the spatial feature\n  * @return the Crypto-Spatial Coordinate (CSC) of the spatial feature\n  */\n  function computeCSCIndex (address owner, bytes15 dggsIndex)\n  external pure returns (bytes32) {\n    require(owner != address(0), \"Empty address\");\n    require(dggsIndex[0] != 0, \"Empty dggsIndex\");\n    return keccak256(abi.encodePacked(owner, dggsIndex));\n  }\n\n}\n",
  "sourcePath": "/home/ali/EthProjects/onchain-land-administration/solidity/contracts/geospatial/CSGeometryLib.sol",
  "compiler": {
    "name": "solc",
    "version": "0.5.8+commit.23d335f2.Emscripten.clang"
  },
  "schemaVersion": "3.0.16",
  "updatedAt": "2019-12-10T18:32:34.819Z",
  "devdoc": {
    "methods": {
      "computeCSCIndex(address,bytes15)": {
        "details": "calculate the Crypto-Spatial Coordinate (CSC) of the spatial feature",
        "params": {
          "dggsIndex": "the H3 index of the spatial feature",
          "owner": "a record holding the owner of the CSC"
        },
        "return": "the Crypto-Spatial Coordinate (CSC) of the spatial feature"
      }
    }
  },
  "userdoc": {
    "methods": {
      "computeCSCIndex(address,bytes15)": {
        "notice": "computeCSCIndex function"
      }
    }
  }
}