{
  "contractName": "CSParcelRegistry",
  "abi": [
    {
      "constant": true,
      "inputs": [],
      "name": "srs",
      "outputs": [
        {
          "name": "",
          "type": "string"
        }
      ],
      "payable": false,
      "stateMutability": "view",
      "type": "function"
    },
    {
      "constant": true,
      "inputs": [],
      "name": "name",
      "outputs": [
        {
          "name": "",
          "type": "string"
        }
      ],
      "payable": false,
      "stateMutability": "view",
      "type": "function"
    },
    {
      "constant": true,
      "inputs": [],
      "name": "h3Resolution",
      "outputs": [
        {
          "name": "",
          "type": "uint256"
        }
      ],
      "payable": false,
      "stateMutability": "view",
      "type": "function"
    },
    {
      "inputs": [
        {
          "name": "_h3Resolution",
          "type": "uint256"
        },
        {
          "name": "_name",
          "type": "string"
        },
        {
          "name": "_srs",
          "type": "string"
        }
      ],
      "payable": false,
      "stateMutability": "nonpayable",
      "type": "constructor"
    },
    {
      "payable": false,
      "stateMutability": "nonpayable",
      "type": "fallback"
    },
    {
      "anonymous": false,
      "inputs": [
        {
          "indexed": false,
          "name": "name",
          "type": "string"
        },
        {
          "indexed": false,
          "name": "dggsIndex",
          "type": "bytes15"
        },
        {
          "indexed": false,
          "name": "csc",
          "type": "bytes32"
        },
        {
          "indexed": false,
          "name": "owner",
          "type": "address"
        }
      ],
      "name": "LogNewFeatureAdded",
      "type": "event"
    },
    {
      "constant": false,
      "inputs": [
        {
          "name": "dggsIndex",
          "type": "bytes15"
        },
        {
          "name": "wkbHash",
          "type": "bytes32"
        }
      ],
      "name": "claimParcel",
      "outputs": [
        {
          "name": "csc",
          "type": "bytes32"
        }
      ],
      "payable": false,
      "stateMutability": "nonpayable",
      "type": "function"
    },
    {
      "constant": true,
      "inputs": [
        {
          "name": "csc",
          "type": "bytes32"
        }
      ],
      "name": "getFeature",
      "outputs": [
        {
          "name": "",
          "type": "address"
        }
      ],
      "payable": false,
      "stateMutability": "view",
      "type": "function"
    }
  ],
  "bytecode": "0x608060405234801561001057600080fd5b506040516200111c3803806200111c8339810180604052606081101561003557600080fd5b8101908080519060200190929190805164010000000081111561005757600080fd5b8281019050602081018481111561006d57600080fd5b815185600182028301116401000000008211171561008a57600080fd5b505092919060200180516401000000008111156100a657600080fd5b828101905060208101848111156100bc57600080fd5b81518560018202830111640100000000821117156100d957600080fd5b5050929190505050828282600083101580156100f55750601083105b61014b576040517f08c379a000000000000000000000000000000000000000000000000000000000815260040180806020018281038252603c815260200180620010e0603c913960400191505060405180910390fd5b600060f81b8260008151811061015d57fe5b602001015160f81c60f81b7effffffffffffffffffffffffffffffffffffffffffffffffffffffffffffff191614156101fe576040517f08c379a000000000000000000000000000000000000000000000000000000000815260040180806020018281038252600a8152602001807f456d707479206e616d650000000000000000000000000000000000000000000081525060200191505060405180910390fd5b82600081905550816001908051906020019061021b92919061028a565b50806002908051906020019061023292919061028a565b505050506040518060400160405280600f81526020017f50617263656c20526567697374727900000000000000000000000000000000008152506001908051906020019061028192919061028a565b5050505061032f565b828054600181600116156101000203166002900490600052602060002090601f016020900481019282601f106102cb57805160ff19168380011785556102f9565b828001600101855582156102f9579182015b828111156102f85782518255916020019190600101906102dd565b5b509050610306919061030a565b5090565b61032c91905b80821115610328576000816000905550600101610310565b5090565b90565b610da1806200033f6000396000f3fe608060405234801561001057600080fd5b50600436106100575760003560e01c806303229556146100a857806306fdde031461012b57806370e68b25146101ae5780637e9c00fc1461020e5780638b12dbaa1461022c575b6040517f08c379a0000000000000000000000000000000000000000000000000000000008152600401808060200182810382526029815260200180610d4d6029913960400191505060405180910390fd5b6100b061029a565b6040518080602001828103825283818151815260200191508051906020019080838360005b838110156100f05780820151818401526020810190506100d5565b50505050905090810190601f16801561011d5780820380516001836020036101000a031916815260200191505b509250505060405180910390f35b610133610338565b6040518080602001828103825283818151815260200191508051906020019080838360005b83811015610173578082015181840152602081019050610158565b50505050905090810190601f1680156101a05780820380516001836020036101000a031916815260200191505b509250505060405180910390f35b6101f8600480360360408110156101c457600080fd5b81019080803570ffffffffffffffffffffffffffffffffff19169060200190929190803590602001909291905050506103d6565b6040518082815260200191505060405180910390f35b6102166107ab565b6040518082815260200191505060405180910390f35b6102586004803603602081101561024257600080fd5b81019080803590602001909291905050506107b1565b604051808273ffffffffffffffffffffffffffffffffffffffff1673ffffffffffffffffffffffffffffffffffffffff16815260200191505060405180910390f35b60028054600181600116156101000203166002900480601f0160208091040260200160405190810160405280929190818152602001828054600181600116156101000203166002900480156103305780601f1061030557610100808354040283529160200191610330565b820191906000526020600020905b81548152906001019060200180831161031357829003601f168201915b505050505081565b60018054600181600116156101000203166002900480601f0160208091040260200160405190810160405280929190818152602001828054600181600116156101000203166002900480156103ce5780601f106103a3576101008083540402835291602001916103ce565b820191906000526020600020905b8154815290600101906020018083116103b157829003601f168201915b505050505081565b600082826000600f60ff161415610455576040517f08c379a000000000000000000000000000000000000000000000000000000000815260040180806020018281038252600f8152602001807f456d7074792064676773496e646578000000000000000000000000000000000081525060200191505060405180910390fd5b6000602060ff1614156104d0576040517f08c379a000000000000000000000000000000000000000000000000000000000815260040180806020018281038252600d8152602001807f456d70747920776b62486173680000000000000000000000000000000000000081525060200191505060405180910390fd5b600073__CSGeometryLib_________________________637834a61233856040518363ffffffff1660e01b8152600401808373ffffffffffffffffffffffffffffffffffffffff1673ffffffffffffffffffffffffffffffffffffffff1681526020018270ffffffffffffffffffffffffffffffffff191670ffffffffffffffffffffffffffffffffff191681526020019250505060206040518083038186803b15801561057d57600080fd5b505af4158015610591573d6000803e3d6000fd5b505050506040513d60208110156105a757600080fd5b8101908080519060200190929190505050905082826000546040516105cb906107ee565b808470ffffffffffffffffffffffffffffffffff191670ffffffffffffffffffffffffffffffffff191681526020018381526020018281526020019350505050604051809103906000f080158015610627573d6000803e3d6000fd5b506003600083815260200190815260200160002060006101000a81548173ffffffffffffffffffffffffffffffffffffffff021916908373ffffffffffffffffffffffffffffffffffffffff1602179055507fa5cf6dbd2290a757b4596c73c307c2c5c84e2098e1d8d6e089b7c0a3144d3b8b600184833360405180806020018570ffffffffffffffffffffffffffffffffff191670ffffffffffffffffffffffffffffffffff191681526020018481526020018373ffffffffffffffffffffffffffffffffffffffff1673ffffffffffffffffffffffffffffffffffffffff16815260200182810382528681815460018160011615610100020316600290048152602001915080546001816001161561010002031660029004801561078e5780601f106107635761010080835404028352916020019161078e565b820191906000526020600020905b81548152906001019060200180831161077157829003601f168201915b50509550505050505060405180910390a183935050505092915050565b60005481565b60006003600083815260200190815260200160002060009054906101000a900473ffffffffffffffffffffffffffffffffffffffff169050919050565b610551806107fc8339019056fe608060405234801561001057600080fd5b506040516060806105518339810180604052606081101561003057600080fd5b81019080805190602001909291908051906020019092919080519060200190929190505050600081101580156100665750601081105b6100bb576040517f08c379a000000000000000000000000000000000000000000000000000000000815260040180806020018281038252603c815260200180610515603c913960400191505060405180910390fd5b6000600360009054906101000a905050600f60ff161415610144576040517f08c379a000000000000000000000000000000000000000000000000000000000815260040180806020018281038252600f8152602001807f456d7074792064676773496e646578000000000000000000000000000000000081525060200191505060405180910390fd5b6000602060ff1614156101bf576040517f08c379a000000000000000000000000000000000000000000000000000000000815260040180806020018281038252600d8152602001807f456d70747920776b62486173680000000000000000000000000000000000000081525060200191505060405180910390fd5b6000339050806000806101000a81548173ffffffffffffffffffffffffffffffffffffffff021916908373ffffffffffffffffffffffffffffffffffffffff1602179055508260028190555083600360006101000a8154816effffffffffffffffffffffffffffff021916908360881c02179055506000600560006101000a81548160ff0219169083600281111561025357fe5b02179055508160048190555073__CSGeometryLib_________________________637834a61282866040518363ffffffff1660e01b8152600401808373ffffffffffffffffffffffffffffffffffffffff1673ffffffffffffffffffffffffffffffffffffffff1681526020018270ffffffffffffffffffffffffffffffffff191670ffffffffffffffffffffffffffffffffff191681526020019250505060206040518083038186803b15801561030a57600080fd5b505af415801561031e573d6000803e3d6000fd5b505050506040513d602081101561033457600080fd5b8101908080519060200190929190505050600181905550505050506101b78061035e6000396000f3fe608060405234801561001057600080fd5b506004361061004c5760003560e01c80637e9c00fc1461009d578063d55c3ca3146100bb578063df1ed5e8146100d9578063ecd9fa4a1461011f575b6040517f08c379a00000000000000000000000000000000000000000000000000000000081526004018080602001828103825260298152602001806101636029913960400191505060405180910390fd5b6100a561013d565b6040518082815260200191505060405180910390f35b6100c3610143565b6040518082815260200191505060405180910390f35b6100e1610149565b604051808270ffffffffffffffffffffffffffffffffff191670ffffffffffffffffffffffffffffffffff1916815260200191505060405180910390f35b61012761015c565b6040518082815260200191505060405180910390f35b60045481565b60015481565b600360009054906101000a900460881b81565b6002548156fe7468697320636f6e74726163742073686f756c64206e65766572206861766520612062616c616e6365a165627a7a72305820cc323dab5ae8c266dbb277506846fa7dc98e846f04d7d0ffef6c27179173dbfd00294833205265736f6c7574696f6e206d757374206265205f68335265736f6c7574696f6e203e3d30202626205f68335265736f6c7574696f6e203c31367468697320636f6e74726163742073686f756c64206e65766572206861766520612062616c616e6365a165627a7a723058208e17180322c766bd22880f834ac445f98dc99fe69cbdc385e72c31c4c146e2ed00294833205265736f6c7574696f6e206d757374206265205f68335265736f6c7574696f6e203e3d30202626205f68335265736f6c7574696f6e203c3136",
  "source": "/**\n * @title Crypto-Spatial Parcels Registry\n * @author BENAHMED DAHO Ali\n * @notice an abstract contract that implement a Parcels Registry\n * @dev ...\n *\n*/\n\npragma solidity ^0.5.0;\n\nimport './LAParcel.sol';\nimport './geospatial/CSFeatureRegistry.sol';\n\ncontract CSParcelRegistry is CSFeatureRegistry {\n  //\n  // State variables\n  //\n\n  //\n  // Events - publicize actions to external listeners\n  //\n\n  //\n  // Functions\n  //\n\n  /// @notice constuctor\n  constructor (uint _h3Resolution, string memory _name, string memory _srs) public\n  CSFeatureRegistry(_h3Resolution,_name,_srs) {\n    name = \"Parcel Registry\";\n  }\n\n  /**\n  * @notice addFeature\n  * @param dggsIndex dggsIndex of the feature\n  * @param wkbHash Well Known Binary Hash\n  * @return the Crypto-Spatial Coordinate (CSC) of the feature\n  */\n  function claimParcel(bytes15 dggsIndex,bytes32 wkbHash)\n  public addFeature( dggsIndex, wkbHash)\n  returns (bytes32 csc) {\n    // features[csc]\n    return csc;  \n  }\n\n  /**\n  * @notice getFeature\n  */\n  function getFeature(bytes32 csc) public view returns (CSFeature){\n    return features[csc];\n  }\n\n\n  /**\n  * @notice callback function\n  */\n\nfunction () external {\n    revert(\"this contract should never have a balance\");\n  }\n\n}\n",
  "sourcePath": "/home/ali/EthProjects/onchain-land-administration/solidity/contracts/LAParcelRegistry.sol",
  "compiler": {
    "name": "solc",
    "version": "0.5.8+commit.23d335f2.Emscripten.clang"
  },
  "schemaVersion": "3.0.16",
  "updatedAt": "2019-10-27T22:59:19.192Z",
  "devdoc": {
    "methods": {
      "claimParcel(bytes15,bytes32)": {
        "params": {
          "dggsIndex": "dggsIndex of the feature",
          "wkbHash": "Well Known Binary Hash"
        },
        "return": "the Crypto-Spatial Coordinate (CSC) of the feature"
      }
    }
  },
  "userdoc": {
    "methods": {
      "claimParcel(bytes15,bytes32)": {
        "notice": "addFeature"
      },
      "constructor": "constuctor",
      "getFeature(bytes32)": {
        "notice": "getFeature"
      }
    }
  }
}