{
  "contractName": "CSSurface",
  "abi": [
    {
      "constant": true,
      "inputs": [],
      "name": "h3Resolution",
      "outputs": [
        {
          "name": "",
          "type": "uint256"
        }
      ],
      "payable": false,
      "stateMutability": "view",
      "type": "function"
    },
    {
      "constant": true,
      "inputs": [],
      "name": "csc",
      "outputs": [
        {
          "name": "",
          "type": "bytes32"
        }
      ],
      "payable": false,
      "stateMutability": "view",
      "type": "function"
    },
    {
      "constant": true,
      "inputs": [],
      "name": "dggsIndex",
      "outputs": [
        {
          "name": "",
          "type": "bytes15"
        }
      ],
      "payable": false,
      "stateMutability": "view",
      "type": "function"
    },
    {
      "constant": true,
      "inputs": [],
      "name": "wkbHash",
      "outputs": [
        {
          "name": "",
          "type": "bytes32"
        }
      ],
      "payable": false,
      "stateMutability": "view",
      "type": "function"
    },
    {
      "inputs": [
        {
          "name": "_dggsIndex",
          "type": "bytes15"
        },
        {
          "name": "_wkbHash",
          "type": "bytes32"
        },
        {
          "name": "_h3Resolution",
          "type": "uint256"
        }
      ],
      "payable": false,
      "stateMutability": "nonpayable",
      "type": "constructor"
    },
    {
      "payable": false,
      "stateMutability": "nonpayable",
      "type": "fallback"
    }
  ],
  "bytecode": "0x608060405234801561001057600080fd5b5060405160608061057b8339810180604052606081101561003057600080fd5b81019080805190602001909291908051906020019092919080519060200190929190505050828282600081101580156100695750601081105b6100be576040517f08c379a000000000000000000000000000000000000000000000000000000000815260040180806020018281038252603c81526020018061053f603c913960400191505060405180910390fd5b6000600360009054906101000a905050600f60ff161415610147576040517f08c379a000000000000000000000000000000000000000000000000000000000815260040180806020018281038252600f8152602001807f456d7074792064676773496e646578000000000000000000000000000000000081525060200191505060405180910390fd5b6000602060ff1614156101c2576040517f08c379a000000000000000000000000000000000000000000000000000000000815260040180806020018281038252600d8152602001807f456d70747920776b62486173680000000000000000000000000000000000000081525060200191505060405180910390fd5b6000339050806000806101000a81548173ffffffffffffffffffffffffffffffffffffffff021916908373ffffffffffffffffffffffffffffffffffffffff1602179055508260028190555083600360006101000a8154816effffffffffffffffffffffffffffff021916908360881c02179055506000600560006101000a81548160ff0219169083600281111561025657fe5b02179055508160048190555073__CSGeometryLib_________________________637834a61282866040518363ffffffff1660e01b8152600401808373ffffffffffffffffffffffffffffffffffffffff1673ffffffffffffffffffffffffffffffffffffffff1681526020018270ffffffffffffffffffffffffffffffffff191670ffffffffffffffffffffffffffffffffff191681526020019250505060206040518083038186803b15801561030d57600080fd5b505af4158015610321573d6000803e3d6000fd5b505050506040513d602081101561033757600080fd5b8101908080519060200190929190505050600181905550505050506002600560006101000a81548160ff0219169083600281111561037157fe5b02179055505050506101b7806103886000396000f3fe608060405234801561001057600080fd5b506004361061004c5760003560e01c80637e9c00fc1461009d578063d55c3ca3146100bb578063df1ed5e8146100d9578063ecd9fa4a1461011f575b6040517f08c379a00000000000000000000000000000000000000000000000000000000081526004018080602001828103825260298152602001806101636029913960400191505060405180910390fd5b6100a561013d565b6040518082815260200191505060405180910390f35b6100c3610143565b6040518082815260200191505060405180910390f35b6100e1610149565b604051808270ffffffffffffffffffffffffffffffffff191670ffffffffffffffffffffffffffffffffff1916815260200191505060405180910390f35b61012761015c565b6040518082815260200191505060405180910390f35b60045481565b60015481565b600360009054906101000a900460881b81565b6002548156fe7468697320636f6e74726163742073686f756c64206e65766572206861766520612062616c616e6365a165627a7a72305820a9a0e0fd3ffb8a4f5c5ce6a3bf4ac44d25279c162d554757c7ca97062af44db500294833205265736f6c7574696f6e206d757374206265205f68335265736f6c7574696f6e203e3d30202626205f68335265736f6c7574696f6e203c3136",
  "source": "/**\n * @title CryptoSpatialSurface\n * @author BENAHMED DAHO Ali\n * @notice an abstract contract that implement a Spatial Surface Feature (Polygon)\n * on the etherurm blockchain\n *\n * @dev GM_CURVE (ISO 19107)\n *\n*/\n\npragma solidity ^0.5.0;\n\n\nimport './CSGeometryLib.sol';\nimport './CSFeature.sol';\n\ncontract CSSurface is CSFeature {\n\n    //\n    // State variables\n    //\n\n\n    //\n    // Functions\n    //\n\n    /**\n    * @notice constuctor\n    * @dev initialize state variables\n    *\n    */\n    constructor (bytes15 _dggsIndex, bytes32 _wkbHash, uint _h3Resolution) public\n    CSFeature(_dggsIndex, _wkbHash, _h3Resolution){\n         geomteryType = CSGeometryLib.CSGeometryType.GM_SURFACE;\n    }\n\n}\n",
  "sourcePath": "/home/ali/EthProjects/onchain-land-administration/solidity/contracts/geospatial/CSSurface.sol",
  "compiler": {
    "name": "solc",
    "version": "0.5.8+commit.23d335f2.Emscripten.clang"
  },
  "schemaVersion": "3.0.16",
  "updatedAt": "2019-11-02T21:17:02.747Z",
  "devdoc": {
    "methods": {
      "constructor": {
        "details": "initialize state variables    "
      }
    }
  },
  "userdoc": {
    "methods": {
      "constructor": "constuctor"
    }
  }
}