{
  "contractName": "CSSurface",
  "abi": [
    {
      "constant": true,
      "inputs": [],
      "name": "fetchFeature",
      "outputs": [
        {
          "name": "_csc",
          "type": "bytes32"
        },
        {
          "name": "_dggsIndex",
          "type": "bytes15"
        },
        {
          "name": "_wkbHash",
          "type": "bytes32"
        },
        {
          "name": "__owner",
          "type": "address"
        },
        {
          "name": "_h3Resolution",
          "type": "uint256"
        },
        {
          "name": "_geomteryType",
          "type": "uint8"
        }
      ],
      "payable": false,
      "stateMutability": "view",
      "type": "function"
    },
    {
      "constant": false,
      "inputs": [],
      "name": "getGeometryType",
      "outputs": [
        {
          "name": "",
          "type": "uint8"
        }
      ],
      "payable": false,
      "stateMutability": "nonpayable",
      "type": "function"
    },
    {
      "constant": true,
      "inputs": [
        {
          "name": "_address",
          "type": "address"
        }
      ],
      "name": "isAdmin",
      "outputs": [
        {
          "name": "",
          "type": "bool"
        }
      ],
      "payable": false,
      "stateMutability": "view",
      "type": "function"
    },
    {
      "constant": false,
      "inputs": [
        {
          "name": "_wkbHash",
          "type": "bytes32"
        }
      ],
      "name": "setWkbHash",
      "outputs": [
        {
          "name": "_wkbHashValue",
          "type": "bytes32"
        }
      ],
      "payable": false,
      "stateMutability": "nonpayable",
      "type": "function"
    },
    {
      "constant": false,
      "inputs": [],
      "name": "kill",
      "outputs": [],
      "payable": false,
      "stateMutability": "nonpayable",
      "type": "function"
    },
    {
      "constant": true,
      "inputs": [],
      "name": "getFeatureDGGSIndex",
      "outputs": [
        {
          "name": "",
          "type": "bytes15"
        }
      ],
      "payable": false,
      "stateMutability": "view",
      "type": "function"
    },
    {
      "constant": false,
      "inputs": [],
      "name": "renounceOwnership",
      "outputs": [],
      "payable": false,
      "stateMutability": "nonpayable",
      "type": "function"
    },
    {
      "constant": true,
      "inputs": [],
      "name": "owner",
      "outputs": [
        {
          "name": "",
          "type": "address"
        }
      ],
      "payable": false,
      "stateMutability": "view",
      "type": "function"
    },
    {
      "constant": true,
      "inputs": [],
      "name": "isOwner",
      "outputs": [
        {
          "name": "",
          "type": "bool"
        }
      ],
      "payable": false,
      "stateMutability": "view",
      "type": "function"
    },
    {
      "constant": true,
      "inputs": [],
      "name": "getFeatureCSC",
      "outputs": [
        {
          "name": "",
          "type": "bytes32"
        }
      ],
      "payable": false,
      "stateMutability": "view",
      "type": "function"
    },
    {
      "constant": false,
      "inputs": [
        {
          "name": "newOwner",
          "type": "address"
        }
      ],
      "name": "transferOwnership",
      "outputs": [],
      "payable": false,
      "stateMutability": "nonpayable",
      "type": "function"
    },
    {
      "inputs": [
        {
          "name": "_dggsIndex",
          "type": "bytes15"
        },
        {
          "name": "_wkbHash",
          "type": "bytes32"
        },
        {
          "name": "_owner",
          "type": "address"
        },
        {
          "name": "_h3Resolution",
          "type": "uint256"
        }
      ],
      "payable": false,
      "stateMutability": "nonpayable",
      "type": "constructor"
    },
    {
      "payable": false,
      "stateMutability": "nonpayable",
      "type": "fallback"
    },
    {
      "anonymous": false,
      "inputs": [
        {
          "indexed": true,
          "name": "csc",
          "type": "bytes32"
        },
        {
          "indexed": true,
          "name": "dggsIndex",
          "type": "bytes15"
        },
        {
          "indexed": false,
          "name": "wkbHash",
          "type": "bytes32"
        },
        {
          "indexed": true,
          "name": "owner",
          "type": "address"
        }
      ],
      "name": "LogFeatureCreated",
      "type": "event"
    },
    {
      "anonymous": false,
      "inputs": [
        {
          "indexed": true,
          "name": "csc",
          "type": "bytes32"
        },
        {
          "indexed": true,
          "name": "dggsIndex",
          "type": "bytes15"
        },
        {
          "indexed": false,
          "name": "wkbHash",
          "type": "bytes32"
        },
        {
          "indexed": true,
          "name": "owner",
          "type": "address"
        }
      ],
      "name": "LogFeatureKilled",
      "type": "event"
    },
    {
      "anonymous": false,
      "inputs": [
        {
          "indexed": true,
          "name": "previousOwner",
          "type": "address"
        },
        {
          "indexed": true,
          "name": "newOwner",
          "type": "address"
        }
      ],
      "name": "OwnershipTransferred",
      "type": "event"
    }
  ],
  "bytecode": "0x60806040523480156200001157600080fd5b506040516080806200157d833981018060405260808110156200003357600080fd5b81019080805190602001909291908051906020019092919080519060200190929190805190602001909291905050508383838362000076620004eb60201b60201c565b6000806101000a81548173ffffffffffffffffffffffffffffffffffffffff021916908373ffffffffffffffffffffffffffffffffffffffff1602179055506000809054906101000a900473ffffffffffffffffffffffffffffffffffffffff1673ffffffffffffffffffffffffffffffffffffffff16600073ffffffffffffffffffffffffffffffffffffffff167f8be0079c531659141344cd1fd0a4f28419497f9722a3daafe3b4186f6b6457e060405160405180910390a360008110158015620001435750601081105b6200019a576040517f08c379a000000000000000000000000000000000000000000000000000000000815260040180806020018281038252603c8152602001806200151f603c913960400191505060405180910390fd5b6000600360009054906101000a905050600f60ff16141562000224576040517f08c379a000000000000000000000000000000000000000000000000000000000815260040180806020018281038252600f8152602001807f456d7074792064676773496e646578000000000000000000000000000000000081525060200191505060405180910390fd5b6000602060ff161415620002a0576040517f08c379a000000000000000000000000000000000000000000000000000000000815260040180806020018281038252600d8152602001807f456d70747920776b62486173680000000000000000000000000000000000000081525060200191505060405180910390fd5b620002b182620004f360201b60201c565b620002cc8260066200058a60201b62000a231790919060201c565b620002e73360066200058a60201b62000a231790919060201c565b8260028190555083600360006101000a8154816effffffffffffffffffffffffffffff021916908360881c02179055506000600560006101000a81548160ff021916908360028111156200033757fe5b02179055508060048190555073__CSGeometryLib_________________________637834a61283866040518363ffffffff1660e01b8152600401808373ffffffffffffffffffffffffffffffffffffffff1673ffffffffffffffffffffffffffffffffffffffff1681526020018270ffffffffffffffffffffffffffffffffff191670ffffffffffffffffffffffffffffffffff191681526020019250505060206040518083038186803b158015620003ef57600080fd5b505af415801562000404573d6000803e3d6000fd5b505050506040513d60208110156200041b57600080fd5b8101908080519060200190929190505050600181905550620004426200066e60201b60201c565b73ffffffffffffffffffffffffffffffffffffffff16600360009054906101000a900460881b70ffffffffffffffffffffffffffffffffff19166001547f025eef9175b0635cefa846add44300456401183653e2b56e06ff204282d087d96002546040518082815260200191505060405180910390a4505050506002600560006101000a81548160ff02191690836002811115620004dc57fe5b02179055505050505062000923565b600033905090565b620005036200069760201b60201c565b62000576576040517f08c379a00000000000000000000000000000000000000000000000000000000081526004018080602001828103825260208152602001807f4f776e61626c653a2063616c6c6572206973206e6f7420746865206f776e657281525060200191505060405180910390fd5b6200058781620006fd60201b60201c565b50565b6200059c82826200084360201b60201c565b1562000610576040517f08c379a000000000000000000000000000000000000000000000000000000000815260040180806020018281038252601f8152602001807f526f6c65733a206163636f756e7420616c72656164792068617320726f6c650081525060200191505060405180910390fd5b60018260000160008373ffffffffffffffffffffffffffffffffffffffff1673ffffffffffffffffffffffffffffffffffffffff16815260200190815260200160002060006101000a81548160ff0219169083151502179055505050565b60008060009054906101000a900473ffffffffffffffffffffffffffffffffffffffff16905090565b60008060009054906101000a900473ffffffffffffffffffffffffffffffffffffffff1673ffffffffffffffffffffffffffffffffffffffff16620006e1620004eb60201b60201c565b73ffffffffffffffffffffffffffffffffffffffff1614905090565b600073ffffffffffffffffffffffffffffffffffffffff168173ffffffffffffffffffffffffffffffffffffffff16141562000785576040517f08c379a0000000000000000000000000000000000000000000000000000000008152600401808060200182810382526026815260200180620014f96026913960400191505060405180910390fd5b8073ffffffffffffffffffffffffffffffffffffffff166000809054906101000a900473ffffffffffffffffffffffffffffffffffffffff1673ffffffffffffffffffffffffffffffffffffffff167f8be0079c531659141344cd1fd0a4f28419497f9722a3daafe3b4186f6b6457e060405160405180910390a3806000806101000a81548173ffffffffffffffffffffffffffffffffffffffff021916908373ffffffffffffffffffffffffffffffffffffffff16021790555050565b60008073ffffffffffffffffffffffffffffffffffffffff168273ffffffffffffffffffffffffffffffffffffffff161415620008cc576040517f08c379a00000000000000000000000000000000000000000000000000000000081526004018080602001828103825260228152602001806200155b6022913960400191505060405180910390fd5b8260000160008373ffffffffffffffffffffffffffffffffffffffff1673ffffffffffffffffffffffffffffffffffffffff16815260200190815260200160002060009054906101000a900460ff16905092915050565b610bc680620009336000396000f3fe608060405234801561001057600080fd5b50600436106100a95760003560e01c8063572982f511610071578063572982f514610271578063715018a6146102b75780638da5cb5b146102c15780638f32d59b1461030b578063b85a0edd1461032d578063f2fde38b1461034b576100a9565b80631383e2ad146100fa57806317e178091461019d57806324d7806c146101c95780632befd03c1461022557806341c0e1b514610267575b6040517f08c379a0000000000000000000000000000000000000000000000000000000008152600401808060200182810382526029815260200180610b506029913960400191505060405180910390fd5b61010261038f565b604051808781526020018670ffffffffffffffffffffffffffffffffff191670ffffffffffffffffffffffffffffffffff191681526020018581526020018473ffffffffffffffffffffffffffffffffffffffff1673ffffffffffffffffffffffffffffffffffffffff16815260200183815260200182600281111561018457fe5b60ff168152602001965050505050505060405180910390f35b6101a56103dd565b604051808260028111156101b557fe5b60ff16815260200191505060405180910390f35b61020b600480360360208110156101df57600080fd5b81019080803573ffffffffffffffffffffffffffffffffffffffff1690602001909291905050506103f4565b604051808215151515815260200191505060405180910390f35b6102516004803603602081101561023b57600080fd5b8101908080359060200190929190505050610411565b6040518082815260200191505060405180910390f35b61026f610508565b005b610279610592565b604051808270ffffffffffffffffffffffffffffffffff191670ffffffffffffffffffffffffffffffffff1916815260200191505060405180910390f35b6102bf6105a9565b005b6102c96106e2565b604051808273ffffffffffffffffffffffffffffffffffffffff1673ffffffffffffffffffffffffffffffffffffffff16815260200191505060405180910390f35b61031361070b565b604051808215151515815260200191505060405180910390f35b610335610769565b6040518082815260200191505060405180910390f35b61038d6004803603602081101561036157600080fd5b81019080803573ffffffffffffffffffffffffffffffffffffffff169060200190929190505050610773565b005b600080600080600080600154600360009054906101000a900460881b6002546103b66106e2565b600454600560009054906101000a900460ff16955095509550955095509550909192939495565b6000600560009054906101000a900460ff16905090565b600061040a8260066107f990919063ffffffff16565b9050919050565b6000336104288160066107f990919063ffffffff16565b61047d576040517f08c379a000000000000000000000000000000000000000000000000000000000815260040180806020018281038252602b815260200180610b25602b913960400191505060405180910390fd5b6000602060ff1614156104f8576040517f08c379a000000000000000000000000000000000000000000000000000000000815260040180806020018281038252600d8152602001807f456d70747920776b62486173680000000000000000000000000000000000000081525060200191505060405180910390fd5b8260028190555082915050919050565b3361051d8160066107f990919063ffffffff16565b610572576040517f08c379a000000000000000000000000000000000000000000000000000000000815260040180806020018281038252602b815260200180610b25602b913960400191505060405180910390fd5b61057a6106e2565b73ffffffffffffffffffffffffffffffffffffffff16ff5b6000600360009054906101000a900460881b905090565b6105b161070b565b610623576040517f08c379a00000000000000000000000000000000000000000000000000000000081526004018080602001828103825260208152602001807f4f776e61626c653a2063616c6c6572206973206e6f7420746865206f776e657281525060200191505060405180910390fd5b600073ffffffffffffffffffffffffffffffffffffffff166000809054906101000a900473ffffffffffffffffffffffffffffffffffffffff1673ffffffffffffffffffffffffffffffffffffffff167f8be0079c531659141344cd1fd0a4f28419497f9722a3daafe3b4186f6b6457e060405160405180910390a360008060006101000a81548173ffffffffffffffffffffffffffffffffffffffff021916908373ffffffffffffffffffffffffffffffffffffffff160217905550565b60008060009054906101000a900473ffffffffffffffffffffffffffffffffffffffff16905090565b60008060009054906101000a900473ffffffffffffffffffffffffffffffffffffffff1673ffffffffffffffffffffffffffffffffffffffff1661074d6108d7565b73ffffffffffffffffffffffffffffffffffffffff1614905090565b6000600154905090565b61077b61070b565b6107ed576040517f08c379a00000000000000000000000000000000000000000000000000000000081526004018080602001828103825260208152602001807f4f776e61626c653a2063616c6c6572206973206e6f7420746865206f776e657281525060200191505060405180910390fd5b6107f6816108df565b50565b60008073ffffffffffffffffffffffffffffffffffffffff168273ffffffffffffffffffffffffffffffffffffffff161415610880576040517f08c379a0000000000000000000000000000000000000000000000000000000008152600401808060200182810382526022815260200180610b796022913960400191505060405180910390fd5b8260000160008373ffffffffffffffffffffffffffffffffffffffff1673ffffffffffffffffffffffffffffffffffffffff16815260200190815260200160002060009054906101000a900460ff16905092915050565b600033905090565b600073ffffffffffffffffffffffffffffffffffffffff168173ffffffffffffffffffffffffffffffffffffffff161415610965576040517f08c379a0000000000000000000000000000000000000000000000000000000008152600401808060200182810382526026815260200180610aff6026913960400191505060405180910390fd5b8073ffffffffffffffffffffffffffffffffffffffff166000809054906101000a900473ffffffffffffffffffffffffffffffffffffffff1673ffffffffffffffffffffffffffffffffffffffff167f8be0079c531659141344cd1fd0a4f28419497f9722a3daafe3b4186f6b6457e060405160405180910390a3806000806101000a81548173ffffffffffffffffffffffffffffffffffffffff021916908373ffffffffffffffffffffffffffffffffffffffff16021790555050565b610a2d82826107f9565b15610aa0576040517f08c379a000000000000000000000000000000000000000000000000000000000815260040180806020018281038252601f8152602001807f526f6c65733a206163636f756e7420616c72656164792068617320726f6c650081525060200191505060405180910390fd5b60018260000160008373ffffffffffffffffffffffffffffffffffffffff1673ffffffffffffffffffffffffffffffffffffffff16815260200190815260200160002060006101000a81548160ff021916908315150217905550505056fe4f776e61626c653a206e6577206f776e657220697320746865207a65726f206164647265737343616c6c657220686176656e27742061646d696e7320726967687473206f6e2074686520666561747572657468697320636f6e74726163742073686f756c64206e65766572206861766520612062616c616e6365526f6c65733a206163636f756e7420697320746865207a65726f2061646472657373a165627a7a72305820fda64adca96153bd4c3f6b3ca45de8e0f9493bb39a1d228e943f113ef850297500294f776e61626c653a206e6577206f776e657220697320746865207a65726f20616464726573734833205265736f6c7574696f6e206d757374206265205f68335265736f6c7574696f6e203e3d30202626205f68335265736f6c7574696f6e203c3136526f6c65733a206163636f756e7420697320746865207a65726f2061646472657373",
  "source": "/**\n * @title CryptoSpatialSurface\n * @author BENAHMED DAHO Ali\n * @notice an abstract contract that implement a Spatial Surface Feature (Polygon)\n * on the etherurm blockchain\n *\n * @dev GM_CURVE (ISO 19107)\n *\n*/\n\npragma solidity ^0.5.0;\n\n\nimport './CSGeometryLib.sol';\nimport './CSFeature.sol';\n\ncontract CSSurface is CSFeature {\n\n    //\n    // State variables\n    //\n\n\n    //\n    // Functions\n    //\n\n    /**\n    * @notice constuctor\n    * @dev initialize state variables\n    *\n    */\n    constructor (bytes15 _dggsIndex, bytes32 _wkbHash, address _owner, uint _h3Resolution) public\n    CSFeature(_dggsIndex, _wkbHash,  _owner, _h3Resolution){\n         geomteryType = CSGeometryLib.CSGeometryType.GM_SURFACE;\n    }\n\n}\n",
  "sourcePath": "/home/ali/EthProjects/onchain-land-administration/solidity/contracts/geospatial/CSSurface.sol",
  "compiler": {
    "name": "solc",
    "version": "0.5.8+commit.23d335f2.Emscripten.clang"
  },
  "schemaVersion": "3.0.16",
  "updatedAt": "2019-11-17T20:06:43.716Z",
  "devdoc": {
    "methods": {
      "constructor": {
        "details": "initialize state variables    "
      },
      "fetchFeature()": {
        "details": "returns all the values of the feature"
      },
      "getGeometryType()": {
        "details": "getGeometryType"
      },
      "isAdmin(address)": {
        "details": "isAdmin : check if the addres is an admin of this feature   "
      },
      "isOwner()": {
        "details": "Returns true if the caller is the current owner."
      },
      "kill()": {
        "details": "remove permanently the feature from the blockchain TODO cross check with Registry removeFeature"
      },
      "owner()": {
        "details": "Returns the address of the current owner."
      },
      "renounceOwnership()": {
        "details": "Leaves the contract without owner. It will not be possible to call `onlyOwner` functions anymore. Can only be called by the current owner.     * NOTE: Renouncing ownership will leave the contract without an owner, thereby removing any functionality that is only available to the owner."
      },
      "setWkbHash(bytes32)": {
        "details": "update the Well Known Binary Hash of the feature"
      },
      "transferOwnership(address)": {
        "details": "Transfers ownership of the contract to a new account (`newOwner`). Can only be called by the current owner."
      }
    }
  },
  "userdoc": {
    "methods": {
      "constructor": "constuctor"
    }
  }
}