{
  "contractName": "LAParcelRegistry",
  "abi": [
    {
      "constant": true,
      "inputs": [],
      "name": "srs",
      "outputs": [
        {
          "name": "",
          "type": "string"
        }
      ],
      "payable": false,
      "stateMutability": "view",
      "type": "function"
    },
    {
      "constant": true,
      "inputs": [],
      "name": "name",
      "outputs": [
        {
          "name": "",
          "type": "string"
        }
      ],
      "payable": false,
      "stateMutability": "view",
      "type": "function"
    },
    {
      "constant": false,
      "inputs": [
        {
          "name": "csc",
          "type": "bytes32"
        }
      ],
      "name": "removeFeature",
      "outputs": [],
      "payable": false,
      "stateMutability": "nonpayable",
      "type": "function"
    },
    {
      "constant": false,
      "inputs": [],
      "name": "unpause",
      "outputs": [],
      "payable": false,
      "stateMutability": "nonpayable",
      "type": "function"
    },
    {
      "constant": true,
      "inputs": [
        {
          "name": "account",
          "type": "address"
        }
      ],
      "name": "isPauser",
      "outputs": [
        {
          "name": "",
          "type": "bool"
        }
      ],
      "payable": false,
      "stateMutability": "view",
      "type": "function"
    },
    {
      "constant": true,
      "inputs": [],
      "name": "paused",
      "outputs": [
        {
          "name": "",
          "type": "bool"
        }
      ],
      "payable": false,
      "stateMutability": "view",
      "type": "function"
    },
    {
      "constant": true,
      "inputs": [],
      "name": "getFeatureCount",
      "outputs": [
        {
          "name": "",
          "type": "uint256"
        }
      ],
      "payable": false,
      "stateMutability": "view",
      "type": "function"
    },
    {
      "constant": true,
      "inputs": [
        {
          "name": "_dggsIndex",
          "type": "bytes15"
        }
      ],
      "name": "dggsIndexExist",
      "outputs": [
        {
          "name": "",
          "type": "bool"
        }
      ],
      "payable": false,
      "stateMutability": "view",
      "type": "function"
    },
    {
      "constant": false,
      "inputs": [],
      "name": "renouncePauser",
      "outputs": [],
      "payable": false,
      "stateMutability": "nonpayable",
      "type": "function"
    },
    {
      "constant": false,
      "inputs": [],
      "name": "renounceOwnership",
      "outputs": [],
      "payable": false,
      "stateMutability": "nonpayable",
      "type": "function"
    },
    {
      "constant": true,
      "inputs": [],
      "name": "h3Resolution",
      "outputs": [
        {
          "name": "",
          "type": "uint256"
        }
      ],
      "payable": false,
      "stateMutability": "view",
      "type": "function"
    },
    {
      "constant": false,
      "inputs": [
        {
          "name": "account",
          "type": "address"
        }
      ],
      "name": "addPauser",
      "outputs": [],
      "payable": false,
      "stateMutability": "nonpayable",
      "type": "function"
    },
    {
      "constant": false,
      "inputs": [],
      "name": "pause",
      "outputs": [],
      "payable": false,
      "stateMutability": "nonpayable",
      "type": "function"
    },
    {
      "constant": true,
      "inputs": [
        {
          "name": "csc",
          "type": "bytes32"
        }
      ],
      "name": "getFeature",
      "outputs": [
        {
          "name": "",
          "type": "address"
        }
      ],
      "payable": false,
      "stateMutability": "view",
      "type": "function"
    },
    {
      "constant": true,
      "inputs": [],
      "name": "owner",
      "outputs": [
        {
          "name": "",
          "type": "address"
        }
      ],
      "payable": false,
      "stateMutability": "view",
      "type": "function"
    },
    {
      "constant": true,
      "inputs": [],
      "name": "isOwner",
      "outputs": [
        {
          "name": "",
          "type": "bool"
        }
      ],
      "payable": false,
      "stateMutability": "view",
      "type": "function"
    },
    {
      "constant": true,
      "inputs": [
        {
          "name": "_dggsIndex",
          "type": "bytes15"
        }
      ],
      "name": "dggsIndexOwner",
      "outputs": [
        {
          "name": "",
          "type": "address"
        }
      ],
      "payable": false,
      "stateMutability": "view",
      "type": "function"
    },
    {
      "constant": false,
      "inputs": [
        {
          "name": "newOwner",
          "type": "address"
        }
      ],
      "name": "transferOwnership",
      "outputs": [],
      "payable": false,
      "stateMutability": "nonpayable",
      "type": "function"
    },
    {
      "inputs": [
        {
          "name": "_name",
          "type": "string"
        },
        {
          "name": "_h3Resolution",
          "type": "uint256"
        },
        {
          "name": "_srs",
          "type": "string"
        }
      ],
      "payable": false,
      "stateMutability": "nonpayable",
      "type": "constructor"
    },
    {
      "payable": false,
      "stateMutability": "nonpayable",
      "type": "fallback"
    },
    {
      "anonymous": false,
      "inputs": [
        {
          "indexed": true,
          "name": "csc",
          "type": "bytes32"
        },
        {
          "indexed": true,
          "name": "dggsIndex",
          "type": "bytes15"
        },
        {
          "indexed": false,
          "name": "wkbHash",
          "type": "bytes32"
        },
        {
          "indexed": false,
          "name": "addr",
          "type": "string"
        },
        {
          "indexed": false,
          "name": "lbl",
          "type": "string"
        },
        {
          "indexed": false,
          "name": "area",
          "type": "uint256"
        },
        {
          "indexed": true,
          "name": "parcelType",
          "type": "string"
        }
      ],
      "name": "LogParcelClaimed",
      "type": "event"
    },
    {
      "anonymous": false,
      "inputs": [
        {
          "indexed": true,
          "name": "name",
          "type": "string"
        },
        {
          "indexed": true,
          "name": "csc",
          "type": "bytes32"
        },
        {
          "indexed": true,
          "name": "dggsIndex",
          "type": "bytes15"
        },
        {
          "indexed": false,
          "name": "wkbHash",
          "type": "bytes32"
        },
        {
          "indexed": false,
          "name": "owner",
          "type": "address"
        }
      ],
      "name": "LogNewFeatureAdded",
      "type": "event"
    },
    {
      "anonymous": false,
      "inputs": [
        {
          "indexed": true,
          "name": "name",
          "type": "string"
        },
        {
          "indexed": true,
          "name": "csc",
          "type": "bytes32"
        },
        {
          "indexed": true,
          "name": "dggsIndex",
          "type": "bytes15"
        },
        {
          "indexed": false,
          "name": "killer",
          "type": "address"
        }
      ],
      "name": "LogFeatureRemoved",
      "type": "event"
    },
    {
      "anonymous": false,
      "inputs": [
        {
          "indexed": true,
          "name": "previousOwner",
          "type": "address"
        },
        {
          "indexed": true,
          "name": "newOwner",
          "type": "address"
        }
      ],
      "name": "OwnershipTransferred",
      "type": "event"
    },
    {
      "anonymous": false,
      "inputs": [
        {
          "indexed": false,
          "name": "account",
          "type": "address"
        }
      ],
      "name": "Paused",
      "type": "event"
    },
    {
      "anonymous": false,
      "inputs": [
        {
          "indexed": false,
          "name": "account",
          "type": "address"
        }
      ],
      "name": "Unpaused",
      "type": "event"
    },
    {
      "anonymous": false,
      "inputs": [
        {
          "indexed": true,
          "name": "account",
          "type": "address"
        }
      ],
      "name": "PauserAdded",
      "type": "event"
    },
    {
      "anonymous": false,
      "inputs": [
        {
          "indexed": true,
          "name": "account",
          "type": "address"
        }
      ],
      "name": "PauserRemoved",
      "type": "event"
    },
    {
      "constant": false,
      "inputs": [
        {
          "name": "dggsIndex",
          "type": "bytes15"
        },
        {
          "name": "wkbHash",
          "type": "bytes32"
        },
        {
          "name": "addr",
          "type": "string"
        },
        {
          "name": "lbl",
          "type": "string"
        },
        {
          "name": "area",
          "type": "uint256"
        },
        {
          "name": "parcelType",
          "type": "string"
        }
      ],
      "name": "claimParcel",
      "outputs": [
        {
          "name": "",
          "type": "bytes32"
        }
      ],
      "payable": false,
      "stateMutability": "nonpayable",
      "type": "function"
    }
  ],
  "bytecode": "0x608060405260006005553480156200001657600080fd5b5060405162004ae538038062004ae5833981018060405260608110156200003c57600080fd5b8101908080516401000000008111156200005557600080fd5b828101905060208101848111156200006c57600080fd5b81518560018202830111640100000000821117156200008a57600080fd5b5050929190602001805190602001909291908051640100000000811115620000b157600080fd5b82810190506020810184811115620000c857600080fd5b8151856001820283011164010000000082111715620000e657600080fd5b50509291905050508282826200011162000105620003b060201b60201c565b620003b860201b60201c565b6000600160006101000a81548160ff0219169083151502179055506200013c620003b060201b60201c565b6001806101000a81548173ffffffffffffffffffffffffffffffffffffffff021916908373ffffffffffffffffffffffffffffffffffffffff1602179055506001809054906101000a900473ffffffffffffffffffffffffffffffffffffffff1673ffffffffffffffffffffffffffffffffffffffff16600073ffffffffffffffffffffffffffffffffffffffff167f8be0079c531659141344cd1fd0a4f28419497f9722a3daafe3b4186f6b6457e060405160405180910390a360008210158015620002095750601082105b62000260576040517f08c379a000000000000000000000000000000000000000000000000000000000815260040180806020018281038252603c81526020018062004a87603c913960400191505060405180910390fd5b600060f81b836000815181106200027357fe5b602001015160f81c60f81b7effffffffffffffffffffffffffffffffffffffffffffffffffffffffffffff1916141562000315576040517f08c379a000000000000000000000000000000000000000000000000000000000815260040180806020018281038252600a8152602001807f456d707479206e616d650000000000000000000000000000000000000000000081525060200191505060405180910390fd5b81600281905550826003908051906020019062000334929190620005dd565b5080600490805190602001906200034d929190620005dd565b5060006005819055505050506040518060400160405280600f81526020017f50617263656c205265676973747279000000000000000000000000000000000081525060039080519060200190620003a6929190620005dd565b505050506200068c565b600033905090565b620003d38160006200041960201b620025091790919060201c565b8073ffffffffffffffffffffffffffffffffffffffff167f6719d08c1888103bea251a4ed56406bd0c3e69723c8a1686e017e7bbe159b6f860405160405180910390a250565b6200042b8282620004fd60201b60201c565b156200049f576040517f08c379a000000000000000000000000000000000000000000000000000000000815260040180806020018281038252601f8152602001807f526f6c65733a206163636f756e7420616c72656164792068617320726f6c650081525060200191505060405180910390fd5b60018260000160008373ffffffffffffffffffffffffffffffffffffffff1673ffffffffffffffffffffffffffffffffffffffff16815260200190815260200160002060006101000a81548160ff0219169083151502179055505050565b60008073ffffffffffffffffffffffffffffffffffffffff168273ffffffffffffffffffffffffffffffffffffffff16141562000586576040517f08c379a000000000000000000000000000000000000000000000000000000000815260040180806020018281038252602281526020018062004ac36022913960400191505060405180910390fd5b8260000160008373ffffffffffffffffffffffffffffffffffffffff1673ffffffffffffffffffffffffffffffffffffffff16815260200190815260200160002060009054906101000a900460ff16905092915050565b828054600181600116156101000203166002900490600052602060002090601f016020900481019282601f106200062057805160ff191683800117855562000651565b8280016001018555821562000651579182015b828111156200065057825182559160200191906001019062000633565b5b50905062000660919062000664565b5090565b6200068991905b80821115620006855760008160009055506001016200066b565b5090565b90565b6143eb806200069c6000396000f3fe60806040523480156200001157600080fd5b50600436106200013c5760003560e01c80636ef8d66d11620000bd5780638b12dbaa116200007b5780638b12dbaa14620006a15780638da5cb5b14620007125780638f32d59b146200075e578063abafb8981462000782578063f2fde38b1462000807576200013c565b80636ef8d66d1462000616578063715018a614620006225780637e9c00fc146200062e57806382dc1ec4146200064e5780638456cb591462000695576200013c565b806346fbf68e116200010b57806346fbf68e14620002db5780634772874f146200033a5780635c975abb14620005755780636106f19214620005995780636dde6a4f14620005b9576200013c565b806303229556146200018e57806306fdde0314620002165780633d399576146200029e5780633f4ba83a14620002cf575b6040517f08c379a0000000000000000000000000000000000000000000000000000000008152600401808060200182810382526029815260200180620043546029913960400191505060405180910390fd5b620001986200084e565b6040518080602001828103825283818151815260200191508051906020019080838360005b83811015620001da578082015181840152602081019050620001bd565b50505050905090810190601f168015620002085780820380516001836020036101000a031916815260200191505b509250505060405180910390f35b62000220620008f0565b6040518080602001828103825283818151815260200191508051906020019080838360005b838110156200026257808201518184015260208101905062000245565b50505050905090810190601f168015620002905780820380516001836020036101000a031916815260200191505b509250505060405180910390f35b620002cd60048036036020811015620002b657600080fd5b810190808035906020019092919050505062000992565b005b620002d962000ce1565b005b6200032060048036036020811015620002f357600080fd5b81019080803573ffffffffffffffffffffffffffffffffffffffff16906020019092919050505062000e58565b604051808215151515815260200191505060405180910390f35b6200055f600480360360c08110156200035257600080fd5b81019080803570ffffffffffffffffffffffffffffffffff1916906020019092919080359060200190929190803590602001906401000000008111156200039857600080fd5b820183602082011115620003ab57600080fd5b80359060200191846001830284011164010000000083111715620003ce57600080fd5b91908080601f016020809104026020016040519081016040528093929190818152602001838380828437600081840152601f19601f820116905080830192505050505050509192919290803590602001906401000000008111156200043257600080fd5b8201836020820111156200044557600080fd5b803590602001918460018302840111640100000000831117156200046857600080fd5b91908080601f016020809104026020016040519081016040528093929190818152602001838380828437600081840152601f19601f8201169050808301925050505050505091929192908035906020019092919080359060200190640100000000811115620004d657600080fd5b820183602082011115620004e957600080fd5b803590602001918460018302840111640100000000831117156200050c57600080fd5b91908080601f016020809104026020016040519081016040528093929190818152602001838380828437600081840152601f19601f82011690508083019250505050505050919291929050505062000e77565b6040518082815260200191505060405180910390f35b6200057f62001997565b604051808215151515815260200191505060405180910390f35b620005a3620019ae565b6040518082815260200191505060405180910390f35b620005fc60048036036020811015620005d157600080fd5b81019080803570ffffffffffffffffffffffffffffffffff19169060200190929190505050620019b8565b604051808215151515815260200191505060405180910390f35b6200062062001a11565b005b6200062c62001a27565b005b6200063862001b63565b6040518082815260200191505060405180910390f35b62000693600480360360208110156200066657600080fd5b81019080803573ffffffffffffffffffffffffffffffffffffffff16906020019092919050505062001b69565b005b6200069f62001be2565b005b620006d060048036036020811015620006b957600080fd5b810190808035906020019092919050505062001d59565b604051808273ffffffffffffffffffffffffffffffffffffffff1673ffffffffffffffffffffffffffffffffffffffff16815260200191505060405180910390f35b6200071c62001e50565b604051808273ffffffffffffffffffffffffffffffffffffffff1673ffffffffffffffffffffffffffffffffffffffff16815260200191505060405180910390f35b6200076862001e79565b604051808215151515815260200191505060405180910390f35b620007c5600480360360208110156200079a57600080fd5b81019080803570ffffffffffffffffffffffffffffffffff1916906020019092919050505062001ed9565b604051808273ffffffffffffffffffffffffffffffffffffffff1673ffffffffffffffffffffffffffffffffffffffff16815260200191505060405180910390f35b6200084c600480360360208110156200081f57600080fd5b81019080803573ffffffffffffffffffffffffffffffffffffffff16906020019092919050505062001f3e565b005b60048054600181600116156101000203166002900480601f016020809104026020016040519081016040528092919081815260200182805460018160011615610100020316600290048015620008e85780601f10620008bc57610100808354040283529160200191620008e8565b820191906000526020600020905b815481529060010190602001808311620008ca57829003601f168201915b505050505081565b60038054600181600116156101000203166002900480601f0160208091040260200160405190810160405280929190818152602001828054600181600116156101000203166002900480156200098a5780601f106200095e576101008083540402835291602001916200098a565b820191906000526020600020905b8154815290600101906020018083116200096c57829003601f168201915b505050505081565b6200099c62001e79565b62000a0f576040517f08c379a00000000000000000000000000000000000000000000000000000000081526004018080602001828103825260208152602001807f4f776e61626c653a2063616c6c6572206973206e6f7420746865206f776e657281525060200191505060405180910390fd5b600062000a1c8262001d59565b905060008173ffffffffffffffffffffffffffffffffffffffff1663572982f56040518163ffffffff1660e01b815260040160206040518083038186803b15801562000a6757600080fd5b505afa15801562000a7c573d6000803e3d6000fd5b505050506040513d602081101562000a9357600080fd5b810190808051906020019092919050505090506000600760008370ffffffffffffffffffffffffffffffffff191670ffffffffffffffffffffffffffffffffff1916815260200190815260200160002060006101000a81548160ff0219169083151502179055506000600860008370ffffffffffffffffffffffffffffffffff191670ffffffffffffffffffffffffffffffffff1916815260200190815260200160002060006101000a81548173ffffffffffffffffffffffffffffffffffffffff021916908373ffffffffffffffffffffffffffffffffffffffff16021790555062000b8d600160055462001fc990919063ffffffff16565b6005819055508173ffffffffffffffffffffffffffffffffffffffff166341c0e1b56040518163ffffffff1660e01b8152600401600060405180830381600087803b15801562000bdc57600080fd5b505af115801562000bf1573d6000803e3d6000fd5b505050508070ffffffffffffffffffffffffffffffffff1916836003604051808280546001816001161561010002031660029004801562000c6c5780601f1062000c4957610100808354040283529182019162000c6c565b820191906000526020600020905b81548152906001019060200180831162000c57575b505091505060405180910390207f9cb70ff2a2081c021be0a9904a5fd42d4bf1e0102e76dec7d2ece79cd0e30b1533604051808273ffffffffffffffffffffffffffffffffffffffff1673ffffffffffffffffffffffffffffffffffffffff16815260200191505060405180910390a4505050565b62000cf562000cef62002015565b62000e58565b62000d4c576040517f08c379a0000000000000000000000000000000000000000000000000000000008152600401808060200182810382526030815260200180620042d86030913960400191505060405180910390fd5b600160009054906101000a900460ff1662000dcf576040517f08c379a00000000000000000000000000000000000000000000000000000000081526004018080602001828103825260148152602001807f5061757361626c653a206e6f742070617573656400000000000000000000000081525060200191505060405180910390fd5b6000600160006101000a81548160ff0219169083151502179055507f5db9ee0a495bf2e6ff9c91a7834c1ba4fdd244a5e8aa4e537bd38aeae4b073aa62000e1562002015565b604051808273ffffffffffffffffffffffffffffffffffffffff1673ffffffffffffffffffffffffffffffffffffffff16815260200191505060405180910390a1565b600062000e708260006200201d90919063ffffffff16565b9050919050565b600086863362000e8662001997565b1562000efa576040517f08c379a00000000000000000000000000000000000000000000000000000000081526004018080602001828103825260128152602001807f436f6e747261637420697320706175736564000000000000000000000000000081525060200191505060405180910390fd5b6000600f60ff16141562000f76576040517f08c379a000000000000000000000000000000000000000000000000000000000815260040180806020018281038252600f8152602001807f456d7074792064676773496e646578000000000000000000000000000000000081525060200191505060405180910390fd5b60001515600760008570ffffffffffffffffffffffffffffffffff191670ffffffffffffffffffffffffffffffffff1916815260200190815260200160002060009054906101000a900460ff1615151462001039576040517f08c379a00000000000000000000000000000000000000000000000000000000081526004018080602001828103825260188152602001807f4447475320496e64657820616c7265616479206578697374000000000000000081525060200191505060405180910390fd5b6000602060ff161415620010b5576040517f08c379a000000000000000000000000000000000000000000000000000000000815260040180806020018281038252600d8152602001807f456d70747920776b62486173680000000000000000000000000000000000000081525060200191505060405180910390fd5b60008a8a33600254604051620010cb90620025e7565b808570ffffffffffffffffffffffffffffffffff191670ffffffffffffffffffffffffffffffffff191681526020018481526020018373ffffffffffffffffffffffffffffffffffffffff1673ffffffffffffffffffffffffffffffffffffffff168152602001828152602001945050505050604051809103906000f0801580156200115b573d6000803e3d6000fd5b50905060008173ffffffffffffffffffffffffffffffffffffffff1663b85a0edd6040518163ffffffff1660e01b815260040160206040518083038186803b158015620011a757600080fd5b505afa158015620011bc573d6000803e3d6000fd5b505050506040513d6020811015620011d357600080fd5b810190808051906020019092919050505090508173ffffffffffffffffffffffffffffffffffffffff166325f1ceaf8b6040518263ffffffff1660e01b81526004018080602001828103825283818151815260200191508051906020019080838360005b838110156200125457808201518184015260208101905062001237565b50505050905090810190601f168015620012825780820380516001836020036101000a031916815260200191505b5092505050600060405180830381600087803b158015620012a257600080fd5b505af1158015620012b7573d6000803e3d6000fd5b505050508173ffffffffffffffffffffffffffffffffffffffff1663bf5309698a6040518263ffffffff1660e01b81526004018080602001828103825283818151815260200191508051906020019080838360005b83811015620013295780820151818401526020810190506200130c565b50505050905090810190601f168015620013575780820380516001836020036101000a031916815260200191505b5092505050600060405180830381600087803b1580156200137757600080fd5b505af11580156200138c573d6000803e3d6000fd5b505050508173ffffffffffffffffffffffffffffffffffffffff1663cf50e603896040518263ffffffff1660e01b815260040180828152602001915050600060405180830381600087803b158015620013e457600080fd5b505af1158015620013f9573d6000803e3d6000fd5b505050508173ffffffffffffffffffffffffffffffffffffffff1663487a178c886040518263ffffffff1660e01b81526004018080602001828103825283818151815260200191508051906020019080838360005b838110156200146b5780820151818401526020810190506200144e565b50505050905090810190601f168015620014995780820380516001836020036101000a031916815260200191505b5092505050600060405180830381600087803b158015620014b957600080fd5b505af1158015620014ce573d6000803e3d6000fd5b50505050816006600083815260200190815260200160002060006101000a81548173ffffffffffffffffffffffffffffffffffffffff021916908373ffffffffffffffffffffffffffffffffffffffff160217905550866040518082805190602001908083835b602083106200155a578051825260208201915060208101905060208303925062001535565b6001836020036101000a03801982511681845116808217855250505050505090500191505060405180910390208c70ffffffffffffffffffffffffffffffffff1916827fb31cbfa5ae8fae71189d6ee9cf873185373cf8143beac0aab2234736c3a2dca98e8e8e8e604051808581526020018060200180602001848152602001838103835286818151815260200191508051906020019080838360005b8381101562001614578082015181840152602081019050620015f7565b50505050905090810190601f168015620016425780820380516001836020036101000a031916815260200191505b50838103825285818151815260200191508051906020019080838360005b838110156200167d57808201518184015260208101905062001660565b50505050905090810190601f168015620016ab5780820380516001836020036101000a031916815260200191505b50965050505050505060405180910390a480955050506001600760008570ffffffffffffffffffffffffffffffffff191670ffffffffffffffffffffffffffffffffff1916815260200190815260200160002060006101000a81548160ff02191690831515021790555080600860008570ffffffffffffffffffffffffffffffffff191670ffffffffffffffffffffffffffffffffff1916815260200190815260200160002060006101000a81548173ffffffffffffffffffffffffffffffffffffffff021916908373ffffffffffffffffffffffffffffffffffffffff160217905550600073__CSGeometryLib_________________________637834a61283866040518363ffffffff1660e01b8152600401808373ffffffffffffffffffffffffffffffffffffffff1673ffffffffffffffffffffffffffffffffffffffff1681526020018270ffffffffffffffffffffffffffffffffff191670ffffffffffffffffffffffffffffffffff191681526020019250505060206040518083038186803b1580156200183d57600080fd5b505af415801562001852573d6000803e3d6000fd5b505050506040513d60208110156200186957600080fd5b810190808051906020019092919050505090508370ffffffffffffffffffffffffffffffffff19168160036040518082805460018160011615610100020316600290048015620018f35780601f10620018d0576101008083540402835291820191620018f3565b820191906000526020600020905b815481529060010190602001808311620018de575b505091505060405180910390207f6025eef7c116bf3ac54c6c1b14f3dc851d6931e5d65aa525cd2bfe9078b28f3d8686604051808381526020018273ffffffffffffffffffffffffffffffffffffffff1673ffffffffffffffffffffffffffffffffffffffff1681526020019250505060405180910390a4620019836001600554620020fd90919063ffffffff16565b600581905550505050509695505050505050565b6000600160009054906101000a900460ff16905090565b6000600554905090565b600060011515600760008470ffffffffffffffffffffffffffffffffff191670ffffffffffffffffffffffffffffffffff1916815260200190815260200160002060009054906101000a900460ff161515149050919050565b62001a2562001a1f62002015565b62002186565b565b62001a3162001e79565b62001aa4576040517f08c379a00000000000000000000000000000000000000000000000000000000081526004018080602001828103825260208152602001807f4f776e61626c653a2063616c6c6572206973206e6f7420746865206f776e657281525060200191505060405180910390fd5b600073ffffffffffffffffffffffffffffffffffffffff166001809054906101000a900473ffffffffffffffffffffffffffffffffffffffff1673ffffffffffffffffffffffffffffffffffffffff167f8be0079c531659141344cd1fd0a4f28419497f9722a3daafe3b4186f6b6457e060405160405180910390a360006001806101000a81548173ffffffffffffffffffffffffffffffffffffffff021916908373ffffffffffffffffffffffffffffffffffffffff160217905550565b60025481565b62001b7d62001b7762002015565b62000e58565b62001bd4576040517f08c379a0000000000000000000000000000000000000000000000000000000008152600401808060200182810382526030815260200180620042d86030913960400191505060405180910390fd5b62001bdf81620021e2565b50565b62001bf662001bf062002015565b62000e58565b62001c4d576040517f08c379a0000000000000000000000000000000000000000000000000000000008152600401808060200182810382526030815260200180620042d86030913960400191505060405180910390fd5b600160009054906101000a900460ff161562001cd1576040517f08c379a00000000000000000000000000000000000000000000000000000000081526004018080602001828103825260108152602001807f5061757361626c653a207061757365640000000000000000000000000000000081525060200191505060405180910390fd5b60018060006101000a81548160ff0219169083151502179055507f62e78cea01bee320cd4e420270b5ea74000d11b0c9f74754ebdbfc544b05a25862001d1662002015565b604051808273ffffffffffffffffffffffffffffffffffffffff1673ffffffffffffffffffffffffffffffffffffffff16815260200191505060405180910390a1565b60008073ffffffffffffffffffffffffffffffffffffffff166006600084815260200190815260200160002060009054906101000a900473ffffffffffffffffffffffffffffffffffffffff1673ffffffffffffffffffffffffffffffffffffffff16141562001e15576040517f08c379a00000000000000000000000000000000000000000000000000000000081526004018080602001828103825260268152602001806200432e6026913960400191505060405180910390fd5b6006600083815260200190815260200160002060009054906101000a900473ffffffffffffffffffffffffffffffffffffffff169050919050565b60006001809054906101000a900473ffffffffffffffffffffffffffffffffffffffff16905090565b60006001809054906101000a900473ffffffffffffffffffffffffffffffffffffffff1673ffffffffffffffffffffffffffffffffffffffff1662001ebd62002015565b73ffffffffffffffffffffffffffffffffffffffff1614905090565b6000600860008370ffffffffffffffffffffffffffffffffff191670ffffffffffffffffffffffffffffffffff1916815260200190815260200160002060009054906101000a900473ffffffffffffffffffffffffffffffffffffffff169050919050565b62001f4862001e79565b62001fbb576040517f08c379a00000000000000000000000000000000000000000000000000000000081526004018080602001828103825260208152602001807f4f776e61626c653a2063616c6c6572206973206e6f7420746865206f776e657281525060200191505060405180910390fd5b62001fc6816200223e565b50565b60006200200d83836040518060400160405280601e81526020017f536166654d6174683a207375627472616374696f6e206f766572666c6f77000081525062002384565b905092915050565b600033905090565b60008073ffffffffffffffffffffffffffffffffffffffff168273ffffffffffffffffffffffffffffffffffffffff161415620020a6576040517f08c379a00000000000000000000000000000000000000000000000000000000081526004018080602001828103825260228152602001806200439e6022913960400191505060405180910390fd5b8260000160008373ffffffffffffffffffffffffffffffffffffffff1673ffffffffffffffffffffffffffffffffffffffff16815260200190815260200160002060009054906101000a900460ff16905092915050565b6000808284019050838110156200217c576040517f08c379a000000000000000000000000000000000000000000000000000000000815260040180806020018281038252601b8152602001807f536166654d6174683a206164646974696f6e206f766572666c6f77000000000081525060200191505060405180910390fd5b8091505092915050565b6200219c8160006200244890919063ffffffff16565b8073ffffffffffffffffffffffffffffffffffffffff167fcd265ebaf09df2871cc7bd4133404a235ba12eff2041bb89d9c714a2621c7c7e60405160405180910390a250565b620021f88160006200250990919063ffffffff16565b8073ffffffffffffffffffffffffffffffffffffffff167f6719d08c1888103bea251a4ed56406bd0c3e69723c8a1686e017e7bbe159b6f860405160405180910390a250565b600073ffffffffffffffffffffffffffffffffffffffff168173ffffffffffffffffffffffffffffffffffffffff161415620022c6576040517f08c379a0000000000000000000000000000000000000000000000000000000008152600401808060200182810382526026815260200180620043086026913960400191505060405180910390fd5b8073ffffffffffffffffffffffffffffffffffffffff166001809054906101000a900473ffffffffffffffffffffffffffffffffffffffff1673ffffffffffffffffffffffffffffffffffffffff167f8be0079c531659141344cd1fd0a4f28419497f9722a3daafe3b4186f6b6457e060405160405180910390a3806001806101000a81548173ffffffffffffffffffffffffffffffffffffffff021916908373ffffffffffffffffffffffffffffffffffffffff16021790555050565b600083831115829062002435576040517f08c379a00000000000000000000000000000000000000000000000000000000081526004018080602001828103825283818151815260200191508051906020019080838360005b83811015620023f9578082015181840152602081019050620023dc565b50505050905090810190601f168015620024275780820380516001836020036101000a031916815260200191505b509250505060405180910390fd5b5060008385039050809150509392505050565b6200245482826200201d565b620024ab576040517f08c379a00000000000000000000000000000000000000000000000000000000081526004018080602001828103825260218152602001806200437d6021913960400191505060405180910390fd5b60008260000160008373ffffffffffffffffffffffffffffffffffffffff1673ffffffffffffffffffffffffffffffffffffffff16815260200190815260200160002060006101000a81548160ff0219169083151502179055505050565b6200251582826200201d565b1562002589576040517f08c379a000000000000000000000000000000000000000000000000000000000815260040180806020018281038252601f8152602001807f526f6c65733a206163636f756e7420616c72656164792068617320726f6c650081525060200191505060405180910390fd5b60018260000160008373ffffffffffffffffffffffffffffffffffffffff1673ffffffffffffffffffffffffffffffffffffffff16815260200190815260200160002060006101000a81548160ff0219169083151502179055505050565b611ce280620025f68339019056fe60806040523480156200001157600080fd5b5060405160808062001ce2833981018060405260808110156200003357600080fd5b810190808051906020019092919080519060200190929190805190602001909291908051906020019092919050505083838383838383836200007a620004f360201b60201c565b6000806101000a81548173ffffffffffffffffffffffffffffffffffffffff021916908373ffffffffffffffffffffffffffffffffffffffff1602179055506000809054906101000a900473ffffffffffffffffffffffffffffffffffffffff1673ffffffffffffffffffffffffffffffffffffffff16600073ffffffffffffffffffffffffffffffffffffffff167f8be0079c531659141344cd1fd0a4f28419497f9722a3daafe3b4186f6b6457e060405160405180910390a360008110158015620001475750601081105b6200019e576040517f08c379a000000000000000000000000000000000000000000000000000000000815260040180806020018281038252603c81526020018062001c84603c913960400191505060405180910390fd5b6000600360009054906101000a905050600f60ff16141562000228576040517f08c379a000000000000000000000000000000000000000000000000000000000815260040180806020018281038252600f8152602001807f456d7074792064676773496e646578000000000000000000000000000000000081525060200191505060405180910390fd5b6000602060ff161415620002a4576040517f08c379a000000000000000000000000000000000000000000000000000000000815260040180806020018281038252600d8152602001807f456d70747920776b62486173680000000000000000000000000000000000000081525060200191505060405180910390fd5b620002b582620004fb60201b60201c565b620002d08260066200059260201b620011801790919060201c565b620002eb3360066200059260201b620011801790919060201c565b8260028190555083600360006101000a8154816effffffffffffffffffffffffffffff021916908360881c02179055506000600560006101000a81548160ff021916908360028111156200033b57fe5b02179055508060048190555073__CSGeometryLib_________________________637834a61283866040518363ffffffff1660e01b8152600401808373ffffffffffffffffffffffffffffffffffffffff1673ffffffffffffffffffffffffffffffffffffffff1681526020018270ffffffffffffffffffffffffffffffffff191670ffffffffffffffffffffffffffffffffff191681526020019250505060206040518083038186803b158015620003f357600080fd5b505af415801562000408573d6000803e3d6000fd5b505050506040513d60208110156200041f57600080fd5b8101908080519060200190929190505050600181905550620004466200067660201b60201c565b73ffffffffffffffffffffffffffffffffffffffff16600360009054906101000a900460881b70ffffffffffffffffffffffffffffffffff19166001547f025eef9175b0635cefa846add44300456401183653e2b56e06ff204282d087d96002546040518082815260200191505060405180910390a4505050506002600560006101000a81548160ff02191690836002811115620004e057fe5b021790555050505050505050506200092b565b600033905090565b6200050b6200069f60201b60201c565b6200057e576040517f08c379a00000000000000000000000000000000000000000000000000000000081526004018080602001828103825260208152602001807f4f776e61626c653a2063616c6c6572206973206e6f7420746865206f776e657281525060200191505060405180910390fd5b6200058f816200070560201b60201c565b50565b620005a482826200084b60201b60201c565b1562000618576040517f08c379a000000000000000000000000000000000000000000000000000000000815260040180806020018281038252601f8152602001807f526f6c65733a206163636f756e7420616c72656164792068617320726f6c650081525060200191505060405180910390fd5b60018260000160008373ffffffffffffffffffffffffffffffffffffffff1673ffffffffffffffffffffffffffffffffffffffff16815260200190815260200160002060006101000a81548160ff0219169083151502179055505050565b60008060009054906101000a900473ffffffffffffffffffffffffffffffffffffffff16905090565b60008060009054906101000a900473ffffffffffffffffffffffffffffffffffffffff1673ffffffffffffffffffffffffffffffffffffffff16620006e9620004f360201b60201c565b73ffffffffffffffffffffffffffffffffffffffff1614905090565b600073ffffffffffffffffffffffffffffffffffffffff168173ffffffffffffffffffffffffffffffffffffffff1614156200078d576040517f08c379a000000000000000000000000000000000000000000000000000000000815260040180806020018281038252602681526020018062001c5e6026913960400191505060405180910390fd5b8073ffffffffffffffffffffffffffffffffffffffff166000809054906101000a900473ffffffffffffffffffffffffffffffffffffffff1673ffffffffffffffffffffffffffffffffffffffff167f8be0079c531659141344cd1fd0a4f28419497f9722a3daafe3b4186f6b6457e060405160405180910390a3806000806101000a81548173ffffffffffffffffffffffffffffffffffffffff021916908373ffffffffffffffffffffffffffffffffffffffff16021790555050565b60008073ffffffffffffffffffffffffffffffffffffffff168273ffffffffffffffffffffffffffffffffffffffff161415620008d4576040517f08c379a000000000000000000000000000000000000000000000000000000000815260040180806020018281038252602281526020018062001cc06022913960400191505060405180910390fd5b8260000160008373ffffffffffffffffffffffffffffffffffffffff1673ffffffffffffffffffffffffffffffffffffffff16815260200190815260200160002060009054906101000a900460ff16905092915050565b611323806200093b6000396000f3fe608060405234801561001057600080fd5b50600436106100f55760003560e01c8063572982f511610097578063b85a0edd11610066578063b85a0edd14610571578063bf5309691461058f578063cf50e60314610608578063f2fde38b14610636576100f5565b8063572982f5146104b5578063715018a6146104fb5780638da5cb5b146105055780638f32d59b1461054f576100f5565b806325f1ceaf116100d357806325f1ceaf146103775780632befd03c146103f057806341c0e1b514610432578063487a178c1461043c576100f5565b806306ab28bf146101465780631383e2ad146102a857806317e178091461034b575b6040517f08c379a00000000000000000000000000000000000000000000000000000000081526004018080602001828103825260298152602001806112ad6029913960400191505060405180910390fd5b61014e61067a565b60405180806020018060200185815260200180602001848103845288818151815260200191508051906020019080838360005b8381101561019c578082015181840152602081019050610181565b50505050905090810190601f1680156101c95780820380516001836020036101000a031916815260200191505b50848103835287818151815260200191508051906020019080838360005b838110156102025780820151818401526020810190506101e7565b50505050905090810190601f16801561022f5780820380516001836020036101000a031916815260200191505b50848103825285818151815260200191508051906020019080838360005b8381101561026857808201518184015260208101905061024d565b50505050905090810190601f1680156102955780820380516001836020036101000a031916815260200191505b5097505050505050505060405180910390f35b6102b061086c565b604051808781526020018670ffffffffffffffffffffffffffffffffff191670ffffffffffffffffffffffffffffffffff191681526020018581526020018473ffffffffffffffffffffffffffffffffffffffff1673ffffffffffffffffffffffffffffffffffffffff16815260200183815260200182600281111561033257fe5b60ff168152602001965050505050505060405180910390f35b6103536108ba565b6040518082600281111561036357fe5b60ff16815260200191505060405180910390f35b6103ee6004803603602081101561038d57600080fd5b81019080803590602001906401000000008111156103aa57600080fd5b8201836020820111156103bc57600080fd5b803590602001918460018302840111640100000000831117156103de57600080fd5b90919293919293905050506108d1565b005b61041c6004803603602081101561040657600080fd5b8101908080359060200190929190505050610952565b6040518082815260200191505060405180910390f35b61043a610a49565b005b6104b36004803603602081101561045257600080fd5b810190808035906020019064010000000081111561046f57600080fd5b82018360208201111561048157600080fd5b803590602001918460018302840111640100000000831117156104a357600080fd5b9091929391929390505050610ad3565b005b6104bd610b54565b604051808270ffffffffffffffffffffffffffffffffff191670ffffffffffffffffffffffffffffffffff1916815260200191505060405180910390f35b610503610b6b565b005b61050d610ca4565b604051808273ffffffffffffffffffffffffffffffffffffffff1673ffffffffffffffffffffffffffffffffffffffff16815260200191505060405180910390f35b610557610ccd565b604051808215151515815260200191505060405180910390f35b610579610d2b565b6040518082815260200191505060405180910390f35b610606600480360360208110156105a557600080fd5b81019080803590602001906401000000008111156105c257600080fd5b8201836020820111156105d457600080fd5b803590602001918460018302840111640100000000831117156105f657600080fd5b9091929391929390505050610d35565b005b6106346004803603602081101561061e57600080fd5b8101908080359060200190929190505050610db6565b005b6106786004803603602081101561064c57600080fd5b81019080803573ffffffffffffffffffffffffffffffffffffffff169060200190929190505050610e2b565b005b6060806000606060076008600954600a838054600181600116156101000203166002900480601f01602080910402602001604051908101604052809291908181526020018280546001816001161561010002031660029004801561071f5780601f106106f45761010080835404028352916020019161071f565b820191906000526020600020905b81548152906001019060200180831161070257829003601f168201915b50505050509350828054600181600116156101000203166002900480601f0160208091040260200160405190810160405280929190818152602001828054600181600116156101000203166002900480156107bb5780601f10610790576101008083540402835291602001916107bb565b820191906000526020600020905b81548152906001019060200180831161079e57829003601f168201915b50505050509250808054600181600116156101000203166002900480601f0160208091040260200160405190810160405280929190818152602001828054600181600116156101000203166002900480156108575780601f1061082c57610100808354040283529160200191610857565b820191906000526020600020905b81548152906001019060200180831161083a57829003601f168201915b50505050509050935093509350935090919293565b600080600080600080600154600360009054906101000a900460881b600254610893610ca4565b600454600560009054906101000a900460ff16955095509550955095509550909192939495565b6000600560009054906101000a900460ff16905090565b336108e6816006610eb190919063ffffffff16565b61093b576040517f08c379a000000000000000000000000000000000000000000000000000000000815260040180806020018281038252602b815260200180611282602b913960400191505060405180910390fd5b82826007919061094c9291906110db565b50505050565b600033610969816006610eb190919063ffffffff16565b6109be576040517f08c379a000000000000000000000000000000000000000000000000000000000815260040180806020018281038252602b815260200180611282602b913960400191505060405180910390fd5b6000602060ff161415610a39576040517f08c379a000000000000000000000000000000000000000000000000000000000815260040180806020018281038252600d8152602001807f456d70747920776b62486173680000000000000000000000000000000000000081525060200191505060405180910390fd5b8260028190555082915050919050565b33610a5e816006610eb190919063ffffffff16565b610ab3576040517f08c379a000000000000000000000000000000000000000000000000000000000815260040180806020018281038252602b815260200180611282602b913960400191505060405180910390fd5b610abb610ca4565b73ffffffffffffffffffffffffffffffffffffffff16ff5b33610ae8816006610eb190919063ffffffff16565b610b3d576040517f08c379a000000000000000000000000000000000000000000000000000000000815260040180806020018281038252602b815260200180611282602b913960400191505060405180910390fd5b8282600a9190610b4e9291906110db565b50505050565b6000600360009054906101000a900460881b905090565b610b73610ccd565b610be5576040517f08c379a00000000000000000000000000000000000000000000000000000000081526004018080602001828103825260208152602001807f4f776e61626c653a2063616c6c6572206973206e6f7420746865206f776e657281525060200191505060405180910390fd5b600073ffffffffffffffffffffffffffffffffffffffff166000809054906101000a900473ffffffffffffffffffffffffffffffffffffffff1673ffffffffffffffffffffffffffffffffffffffff167f8be0079c531659141344cd1fd0a4f28419497f9722a3daafe3b4186f6b6457e060405160405180910390a360008060006101000a81548173ffffffffffffffffffffffffffffffffffffffff021916908373ffffffffffffffffffffffffffffffffffffffff160217905550565b60008060009054906101000a900473ffffffffffffffffffffffffffffffffffffffff16905090565b60008060009054906101000a900473ffffffffffffffffffffffffffffffffffffffff1673ffffffffffffffffffffffffffffffffffffffff16610d0f610f8f565b73ffffffffffffffffffffffffffffffffffffffff1614905090565b6000600154905090565b33610d4a816006610eb190919063ffffffff16565b610d9f576040517f08c379a000000000000000000000000000000000000000000000000000000000815260040180806020018281038252602b815260200180611282602b913960400191505060405180910390fd5b828260089190610db09291906110db565b50505050565b33610dcb816006610eb190919063ffffffff16565b610e20576040517f08c379a000000000000000000000000000000000000000000000000000000000815260040180806020018281038252602b815260200180611282602b913960400191505060405180910390fd5b816009819055505050565b610e33610ccd565b610ea5576040517f08c379a00000000000000000000000000000000000000000000000000000000081526004018080602001828103825260208152602001807f4f776e61626c653a2063616c6c6572206973206e6f7420746865206f776e657281525060200191505060405180910390fd5b610eae81610f97565b50565b60008073ffffffffffffffffffffffffffffffffffffffff168273ffffffffffffffffffffffffffffffffffffffff161415610f38576040517f08c379a00000000000000000000000000000000000000000000000000000000081526004018080602001828103825260228152602001806112d66022913960400191505060405180910390fd5b8260000160008373ffffffffffffffffffffffffffffffffffffffff1673ffffffffffffffffffffffffffffffffffffffff16815260200190815260200160002060009054906101000a900460ff16905092915050565b600033905090565b600073ffffffffffffffffffffffffffffffffffffffff168173ffffffffffffffffffffffffffffffffffffffff16141561101d576040517f08c379a000000000000000000000000000000000000000000000000000000000815260040180806020018281038252602681526020018061125c6026913960400191505060405180910390fd5b8073ffffffffffffffffffffffffffffffffffffffff166000809054906101000a900473ffffffffffffffffffffffffffffffffffffffff1673ffffffffffffffffffffffffffffffffffffffff167f8be0079c531659141344cd1fd0a4f28419497f9722a3daafe3b4186f6b6457e060405160405180910390a3806000806101000a81548173ffffffffffffffffffffffffffffffffffffffff021916908373ffffffffffffffffffffffffffffffffffffffff16021790555050565b828054600181600116156101000203166002900490600052602060002090601f016020900481019282601f1061111c57803560ff191683800117855561114a565b8280016001018555821561114a579182015b8281111561114957823582559160200191906001019061112e565b5b509050611157919061115b565b5090565b61117d91905b80821115611179576000816000905550600101611161565b5090565b90565b61118a8282610eb1565b156111fd576040517f08c379a000000000000000000000000000000000000000000000000000000000815260040180806020018281038252601f8152602001807f526f6c65733a206163636f756e7420616c72656164792068617320726f6c650081525060200191505060405180910390fd5b60018260000160008373ffffffffffffffffffffffffffffffffffffffff1673ffffffffffffffffffffffffffffffffffffffff16815260200190815260200160002060006101000a81548160ff021916908315150217905550505056fe4f776e61626c653a206e6577206f776e657220697320746865207a65726f206164647265737343616c6c657220686176656e27742061646d696e7320726967687473206f6e2074686520666561747572657468697320636f6e74726163742073686f756c64206e65766572206861766520612062616c616e6365526f6c65733a206163636f756e7420697320746865207a65726f2061646472657373a165627a7a7230582010c98fe8dd267a814919041e48e033af841d3c7e905962f5616e78af0016da5700294f776e61626c653a206e6577206f776e657220697320746865207a65726f20616464726573734833205265736f6c7574696f6e206d757374206265205f68335265736f6c7574696f6e203e3d30202626205f68335265736f6c7574696f6e203c3136526f6c65733a206163636f756e7420697320746865207a65726f2061646472657373506175736572526f6c653a2063616c6c657220646f6573206e6f742068617665207468652050617573657220726f6c654f776e61626c653a206e6577206f776e657220697320746865207a65726f20616464726573734665617475726520646f6573206e6f7420657869737420696e207468652072656769737472797468697320636f6e74726163742073686f756c64206e65766572206861766520612062616c616e6365526f6c65733a206163636f756e7420646f6573206e6f74206861766520726f6c65526f6c65733a206163636f756e7420697320746865207a65726f2061646472657373a165627a7a7230582009e9939e17454ad8166a234656f105c89fe7bb0e34cc4130ce736644e6ab9aa700294833205265736f6c7574696f6e206d757374206265205f68335265736f6c7574696f6e203e3d30202626205f68335265736f6c7574696f6e203c3136526f6c65733a206163636f756e7420697320746865207a65726f2061646472657373",
  "source": "/**\n * @title Crypto-Spatial Parcels Registry\n * @author BENAHMED DAHO Ali\n * @notice an abstract contract that implement a Parcels Registry\n * @dev ...\n *\n*/\n\npragma solidity ^0.5.0;\n\nimport './LAParcel.sol';\nimport './geospatial/CSFeatureRegistry.sol';\n\ncontract LAParcelRegistry is CSFeatureRegistry {\n  //\n  // State variables\n  //\n\n  // mapping(bytes32 => LAParcel) parcels; // Mapping CSC => Parcels\n\n  //\n  // Events - publicize actions to external listeners\n  //\n\n  event LogParcelClaimed(bytes32 indexed csc, bytes15 indexed dggsIndex, bytes32 wkbHash,\n                          string addr, string lbl, uint area, string indexed parcelType);\n\n  //\n  // Functions\n  //\n\n  /// @notice constuctor\n  constructor (string memory _name, uint _h3Resolution, string memory _srs) public\n  CSFeatureRegistry(_name,_h3Resolution,_srs) {\n    name = \"Parcel Registry\";\n  }\n\n  /**\n  * @notice addFeature modifier\n  * @param dggsIndex dggsIndex of the feature\n  * @param wkbHash Well Known Binary Hash\n  * @param addr External Address ID\n  * @param lbl Parcel label\n  * @param area Parcel Area\n  * @return the Crypto-Spatial Coordinate (CSC) of the feature\n  */\n  function claimParcel(bytes15 dggsIndex,\n                       bytes32 wkbHash,\n                       string memory addr,\n                       string memory lbl,\n                       uint area,\n                       string memory parcelType)\n  public addFeature( dggsIndex, wkbHash, msg.sender)\n  returns (bytes32) {\n\n    // TODO check inputs\n\n    LAParcel parcel = new LAParcel(dggsIndex,wkbHash, msg.sender, h3Resolution);\n    bytes32 csc = parcel.getFeatureCSC();\n    parcel.setExtAddressId(addr);\n    parcel.setLabel(lbl);\n    parcel.setArea(area);\n    parcel.setParcelType(parcelType);\n    features[csc] = address(parcel);\n    emit LogParcelClaimed(csc, dggsIndex, wkbHash, addr, lbl, area, parcelType);\n    return csc;\n  }\n}\n",
  "sourcePath": "/home/ali/EthProjects/onchain-land-administration/solidity/contracts/LAParcelRegistry.sol",
  "compiler": {
    "name": "solc",
    "version": "0.5.8+commit.23d335f2.Emscripten.clang"
  },
  "schemaVersion": "3.0.16",
  "updatedAt": "2019-11-09T17:03:43.105Z",
  "devdoc": {
    "methods": {
      "claimParcel(bytes15,bytes32,string,string,uint256,string)": {
        "params": {
          "addr": "External Address ID",
          "area": "Parcel Area",
          "dggsIndex": "dggsIndex of the feature",
          "lbl": "Parcel label",
          "wkbHash": "Well Known Binary Hash"
        },
        "return": "the Crypto-Spatial Coordinate (CSC) of the feature"
      },
      "dggsIndexExist(bytes15)": {
        "details": "dggsIndexExist : check if dggs allready exit in the registry",
        "params": {
          "_dggsIndex": "the index to check"
        }
      },
      "dggsIndexOwner(bytes15)": {
        "details": "dggsIndexOwner : return the address of the dggsIndex Owner",
        "params": {
          "_dggsIndex": "the index to fetch"
        }
      },
      "getFeature(bytes32)": {
        "params": {
          "csc": "the feature CSC"
        },
        "return": "the address of the feature deployed contract"
      },
      "getFeatureCount()": {
        "return": "the count of the features added to the registry"
      },
      "isOwner()": {
        "details": "Returns true if the caller is the current owner."
      },
      "owner()": {
        "details": "Returns the address of the current owner."
      },
      "pause()": {
        "details": "Called by a pauser to pause, triggers stopped state."
      },
      "paused()": {
        "details": "Returns true if the contract is paused, and false otherwise."
      },
      "removeFeature(bytes32)": {
        "details": "remove permanently the feature from the registry"
      },
      "renounceOwnership()": {
        "details": "Leaves the contract without owner. It will not be possible to call `onlyOwner` functions anymore. Can only be called by the current owner.     * NOTE: Renouncing ownership will leave the contract without an owner, thereby removing any functionality that is only available to the owner."
      },
      "transferOwnership(address)": {
        "details": "Transfers ownership of the contract to a new account (`newOwner`). Can only be called by the current owner."
      },
      "unpause()": {
        "details": "Called by a pauser to unpause, returns to normal state."
      }
    }
  },
  "userdoc": {
    "methods": {
      "claimParcel(bytes15,bytes32,string,string,uint256,string)": {
        "notice": "addFeature modifier"
      },
      "constructor": "constuctor",
      "getFeature(bytes32)": {
        "notice": "getFeature"
      },
      "getFeatureCount()": {
        "notice": "getFeatureCount"
      }
    }
  }
}