{
  "contractName": "LAParcel",
  "abi": [
    {
      "constant": true,
      "inputs": [],
      "name": "fetchFeature",
      "outputs": [
        {
          "name": "_csc",
          "type": "bytes32"
        },
        {
          "name": "_dggsIndex",
          "type": "bytes15"
        },
        {
          "name": "_wkbHash",
          "type": "bytes32"
        },
        {
          "name": "__owner",
          "type": "address"
        },
        {
          "name": "_h3Resolution",
          "type": "uint256"
        },
        {
          "name": "_geomteryType",
          "type": "uint8"
        }
      ],
      "payable": false,
      "stateMutability": "view",
      "type": "function"
    },
    {
      "constant": false,
      "inputs": [],
      "name": "getGeometryType",
      "outputs": [
        {
          "name": "",
          "type": "uint8"
        }
      ],
      "payable": false,
      "stateMutability": "nonpayable",
      "type": "function"
    },
    {
      "constant": true,
      "inputs": [
        {
          "name": "_address",
          "type": "address"
        }
      ],
      "name": "isAdmin",
      "outputs": [
        {
          "name": "",
          "type": "bool"
        }
      ],
      "payable": false,
      "stateMutability": "view",
      "type": "function"
    },
    {
      "constant": false,
      "inputs": [
        {
          "name": "_wkbHash",
          "type": "bytes32"
        }
      ],
      "name": "setWkbHash",
      "outputs": [
        {
          "name": "_wkbHashValue",
          "type": "bytes32"
        }
      ],
      "payable": false,
      "stateMutability": "nonpayable",
      "type": "function"
    },
    {
      "constant": false,
      "inputs": [],
      "name": "kill",
      "outputs": [],
      "payable": false,
      "stateMutability": "nonpayable",
      "type": "function"
    },
    {
      "constant": true,
      "inputs": [],
      "name": "getFeatureDGGSIndex",
      "outputs": [
        {
          "name": "",
          "type": "bytes15"
        }
      ],
      "payable": false,
      "stateMutability": "view",
      "type": "function"
    },
    {
      "constant": false,
      "inputs": [],
      "name": "renounceOwnership",
      "outputs": [],
      "payable": false,
      "stateMutability": "nonpayable",
      "type": "function"
    },
    {
      "constant": true,
      "inputs": [],
      "name": "owner",
      "outputs": [
        {
          "name": "",
          "type": "address"
        }
      ],
      "payable": false,
      "stateMutability": "view",
      "type": "function"
    },
    {
      "constant": true,
      "inputs": [],
      "name": "isOwner",
      "outputs": [
        {
          "name": "",
          "type": "bool"
        }
      ],
      "payable": false,
      "stateMutability": "view",
      "type": "function"
    },
    {
      "constant": true,
      "inputs": [],
      "name": "getFeatureCSC",
      "outputs": [
        {
          "name": "",
          "type": "bytes32"
        }
      ],
      "payable": false,
      "stateMutability": "view",
      "type": "function"
    },
    {
      "constant": false,
      "inputs": [
        {
          "name": "newOwner",
          "type": "address"
        }
      ],
      "name": "transferOwnership",
      "outputs": [],
      "payable": false,
      "stateMutability": "nonpayable",
      "type": "function"
    },
    {
      "inputs": [
        {
          "name": "_dggsIndex",
          "type": "bytes15"
        },
        {
          "name": "_wkbHash",
          "type": "bytes32"
        },
        {
          "name": "_owner",
          "type": "address"
        },
        {
          "name": "_h3Resolution",
          "type": "uint256"
        }
      ],
      "payable": false,
      "stateMutability": "nonpayable",
      "type": "constructor"
    },
    {
      "payable": false,
      "stateMutability": "nonpayable",
      "type": "fallback"
    },
    {
      "anonymous": false,
      "inputs": [
        {
          "indexed": true,
          "name": "csc",
          "type": "bytes32"
        },
        {
          "indexed": true,
          "name": "dggsIndex",
          "type": "bytes15"
        },
        {
          "indexed": false,
          "name": "wkbHash",
          "type": "bytes32"
        },
        {
          "indexed": true,
          "name": "owner",
          "type": "address"
        }
      ],
      "name": "LogFeatureCreated",
      "type": "event"
    },
    {
      "anonymous": false,
      "inputs": [
        {
          "indexed": true,
          "name": "csc",
          "type": "bytes32"
        },
        {
          "indexed": true,
          "name": "dggsIndex",
          "type": "bytes15"
        },
        {
          "indexed": false,
          "name": "wkbHash",
          "type": "bytes32"
        },
        {
          "indexed": true,
          "name": "owner",
          "type": "address"
        }
      ],
      "name": "LogFeatureKilled",
      "type": "event"
    },
    {
      "anonymous": false,
      "inputs": [
        {
          "indexed": true,
          "name": "previousOwner",
          "type": "address"
        },
        {
          "indexed": true,
          "name": "newOwner",
          "type": "address"
        }
      ],
      "name": "OwnershipTransferred",
      "type": "event"
    },
    {
      "constant": false,
      "inputs": [
        {
          "name": "_label",
          "type": "string"
        },
        {
          "name": "_extAddr",
          "type": "string"
        },
        {
          "name": "_landUseCode",
          "type": "string"
        },
        {
          "name": "_area",
          "type": "uint256"
        },
        {
          "name": "_cadastralType",
          "type": "uint8"
        }
      ],
      "name": "setParcelValues",
      "outputs": [],
      "payable": false,
      "stateMutability": "nonpayable",
      "type": "function"
    },
    {
      "constant": false,
      "inputs": [
        {
          "name": "_extAddr",
          "type": "string"
        }
      ],
      "name": "setExtAddress",
      "outputs": [],
      "payable": false,
      "stateMutability": "nonpayable",
      "type": "function"
    },
    {
      "constant": false,
      "inputs": [
        {
          "name": "_label",
          "type": "string"
        }
      ],
      "name": "setLabel",
      "outputs": [],
      "payable": false,
      "stateMutability": "nonpayable",
      "type": "function"
    },
    {
      "constant": false,
      "inputs": [
        {
          "name": "_area",
          "type": "uint256"
        }
      ],
      "name": "setArea",
      "outputs": [],
      "payable": false,
      "stateMutability": "nonpayable",
      "type": "function"
    },
    {
      "constant": false,
      "inputs": [
        {
          "name": "_landUseCode",
          "type": "string"
        }
      ],
      "name": "setLandUseCode",
      "outputs": [],
      "payable": false,
      "stateMutability": "nonpayable",
      "type": "function"
    },
    {
      "constant": false,
      "inputs": [
        {
          "name": "_cadastralType",
          "type": "uint8"
        }
      ],
      "name": "setCadastralTypeCode",
      "outputs": [],
      "payable": false,
      "stateMutability": "nonpayable",
      "type": "function"
    },
    {
      "constant": true,
      "inputs": [],
      "name": "fetchParcel",
      "outputs": [
        {
          "name": "",
          "type": "bytes32"
        },
        {
          "name": "",
          "type": "string"
        },
        {
          "name": "",
          "type": "string"
        },
        {
          "name": "",
          "type": "string"
        },
        {
          "name": "",
          "type": "uint256"
        },
        {
          "name": "",
          "type": "uint8"
        }
      ],
      "payable": false,
      "stateMutability": "view",
      "type": "function"
    }
  ],
  "bytecode": "0x60806040523480156200001157600080fd5b506040516080806200210c833981018060405260808110156200003357600080fd5b810190808051906020019092919080519060200190929190805190602001909291908051906020019092919050505083838383838383836200007a6200054960201b60201c565b6000806101000a81548173ffffffffffffffffffffffffffffffffffffffff021916908373ffffffffffffffffffffffffffffffffffffffff1602179055506000809054906101000a900473ffffffffffffffffffffffffffffffffffffffff1673ffffffffffffffffffffffffffffffffffffffff16600073ffffffffffffffffffffffffffffffffffffffff167f8be0079c531659141344cd1fd0a4f28419497f9722a3daafe3b4186f6b6457e060405160405180910390a360008110158015620001475750601081105b6200019e576040517f08c379a000000000000000000000000000000000000000000000000000000000815260040180806020018281038252603c815260200180620020ae603c913960400191505060405180910390fd5b600060f81b846000600f8110620001b157fe5b1a60f81b7effffffffffffffffffffffffffffffffffffffffffffffffffffffffffffff191614156200024c576040517f08c379a000000000000000000000000000000000000000000000000000000000815260040180806020018281038252600f8152602001807f456d7074792064676773496e646578000000000000000000000000000000000081525060200191505060405180910390fd5b600060f81b836000602081106200025f57fe5b1a60f81b7effffffffffffffffffffffffffffffffffffffffffffffffffffffffffffff19161415620002fa576040517f08c379a000000000000000000000000000000000000000000000000000000000815260040180806020018281038252600d8152602001807f456d70747920776b62486173680000000000000000000000000000000000000081525060200191505060405180910390fd5b6200030b826200055160201b60201c565b62000326826006620005e860201b620015541790919060201c565b62000341336006620005e860201b620015541790919060201c565b8260028190555083600360006101000a8154816effffffffffffffffffffffffffffff021916908360881c02179055506000600560006101000a81548160ff021916908360028111156200039157fe5b02179055508060048190555073__CSGeometryLib_________________________637834a61283866040518363ffffffff1660e01b8152600401808373ffffffffffffffffffffffffffffffffffffffff1673ffffffffffffffffffffffffffffffffffffffff1681526020018270ffffffffffffffffffffffffffffffffff191670ffffffffffffffffffffffffffffffffff191681526020019250505060206040518083038186803b1580156200044957600080fd5b505af41580156200045e573d6000803e3d6000fd5b505050506040513d60208110156200047557600080fd5b81019080805190602001909291905050506001819055506200049c620006cc60201b60201c565b73ffffffffffffffffffffffffffffffffffffffff16600360009054906101000a900460881b70ffffffffffffffffffffffffffffffffff19166001547f025eef9175b0635cefa846add44300456401183653e2b56e06ff204282d087d96002546040518082815260200191505060405180910390a4505050506002600560006101000a81548160ff021916908360028111156200053657fe5b0217905550505050505050505062000981565b600033905090565b62000561620006f560201b60201c565b620005d4576040517f08c379a00000000000000000000000000000000000000000000000000000000081526004018080602001828103825260208152602001807f4f776e61626c653a2063616c6c6572206973206e6f7420746865206f776e657281525060200191505060405180910390fd5b620005e5816200075b60201b60201c565b50565b620005fa8282620008a160201b60201c565b156200066e576040517f08c379a000000000000000000000000000000000000000000000000000000000815260040180806020018281038252601f8152602001807f526f6c65733a206163636f756e7420616c72656164792068617320726f6c650081525060200191505060405180910390fd5b60018260000160008373ffffffffffffffffffffffffffffffffffffffff1673ffffffffffffffffffffffffffffffffffffffff16815260200190815260200160002060006101000a81548160ff0219169083151502179055505050565b60008060009054906101000a900473ffffffffffffffffffffffffffffffffffffffff16905090565b60008060009054906101000a900473ffffffffffffffffffffffffffffffffffffffff1673ffffffffffffffffffffffffffffffffffffffff166200073f6200054960201b60201c565b73ffffffffffffffffffffffffffffffffffffffff1614905090565b600073ffffffffffffffffffffffffffffffffffffffff168173ffffffffffffffffffffffffffffffffffffffff161415620007e3576040517f08c379a0000000000000000000000000000000000000000000000000000000008152600401808060200182810382526026815260200180620020886026913960400191505060405180910390fd5b8073ffffffffffffffffffffffffffffffffffffffff166000809054906101000a900473ffffffffffffffffffffffffffffffffffffffff1673ffffffffffffffffffffffffffffffffffffffff167f8be0079c531659141344cd1fd0a4f28419497f9722a3daafe3b4186f6b6457e060405160405180910390a3806000806101000a81548173ffffffffffffffffffffffffffffffffffffffff021916908373ffffffffffffffffffffffffffffffffffffffff16021790555050565b60008073ffffffffffffffffffffffffffffffffffffffff168273ffffffffffffffffffffffffffffffffffffffff1614156200092a576040517f08c379a0000000000000000000000000000000000000000000000000000000008152600401808060200182810382526022815260200180620020ea6022913960400191505060405180910390fd5b8260000160008373ffffffffffffffffffffffffffffffffffffffff1673ffffffffffffffffffffffffffffffffffffffff16815260200190815260200160002060009054906101000a900460ff16905092915050565b6116f780620009916000396000f3fe608060405234801561001057600080fd5b50600436106101165760003560e01c8063572982f5116100a2578063b85a0edd11610071578063b85a0edd146106fc578063bf5309691461071a578063cf50e60314610793578063f2fde38b146107c1578063f8697beb1461080557610116565b8063572982f514610640578063715018a6146106865780638da5cb5b146106905780638f32d59b146106da57610116565b806317e17809116100e957806317e178091461053b57806324d7806c146105675780632befd03c146105c357806341c0e1b514610605578063526b8a731461060f57610116565b806303d29d901461016757806303d35400146102a157806306ab28bf1461031a5780631383e2ad14610498575b6040517f08c379a00000000000000000000000000000000000000000000000000000000081526004018080602001828103825260298152602001806116816029913960400191505060405180910390fd5b61029f600480360360a081101561017d57600080fd5b810190808035906020019064010000000081111561019a57600080fd5b8201836020820111156101ac57600080fd5b803590602001918460018302840111640100000000831117156101ce57600080fd5b9091929391929390803590602001906401000000008111156101ef57600080fd5b82018360208201111561020157600080fd5b8035906020019184600183028401116401000000008311171561022357600080fd5b90919293919293908035906020019064010000000081111561024457600080fd5b82018360208201111561025657600080fd5b8035906020019184600183028401116401000000008311171561027857600080fd5b909192939192939080359060200190929190803560ff16906020019092919050505061087e565b005b610318600480360360208110156102b757600080fd5b81019080803590602001906401000000008111156102d457600080fd5b8201836020820111156102e657600080fd5b8035906020019184600183028401116401000000008311171561030857600080fd5b9091929391929390505050610953565b005b6103226109d4565b6040518087815260200180602001806020018060200186815260200185600181111561034a57fe5b60ff168152602001848103845289818151815260200191508051906020019080838360005b8381101561038a57808201518184015260208101905061036f565b50505050905090810190601f1680156103b75780820380516001836020036101000a031916815260200191505b50848103835288818151815260200191508051906020019080838360005b838110156103f05780820151818401526020810190506103d5565b50505050905090810190601f16801561041d5780820380516001836020036101000a031916815260200191505b50848103825287818151815260200191508051906020019080838360005b8381101561045657808201518184015260208101905061043b565b50505050905090810190601f1680156104835780820380516001836020036101000a031916815260200191505b50995050505050505050505060405180910390f35b6104a0610be2565b604051808781526020018670ffffffffffffffffffffffffffffffffff191670ffffffffffffffffffffffffffffffffff191681526020018581526020018473ffffffffffffffffffffffffffffffffffffffff1673ffffffffffffffffffffffffffffffffffffffff16815260200183815260200182600281111561052257fe5b60ff168152602001965050505050505060405180910390f35b610543610c30565b6040518082600281111561055357fe5b60ff16815260200191505060405180910390f35b6105a96004803603602081101561057d57600080fd5b81019080803573ffffffffffffffffffffffffffffffffffffffff169060200190929190505050610c47565b604051808215151515815260200191505060405180910390f35b6105ef600480360360208110156105d957600080fd5b8101908080359060200190929190505050610c64565b6040518082815260200191505060405180910390f35b61060d610d8c565b005b61063e6004803603602081101561062557600080fd5b81019080803560ff169060200190929190505050610e16565b005b610648610ea7565b604051808270ffffffffffffffffffffffffffffffffff191670ffffffffffffffffffffffffffffffffff1916815260200191505060405180910390f35b61068e610ebe565b005b610698610ff7565b604051808273ffffffffffffffffffffffffffffffffffffffff1673ffffffffffffffffffffffffffffffffffffffff16815260200191505060405180910390f35b6106e2611020565b604051808215151515815260200191505060405180910390f35b61070461107e565b6040518082815260200191505060405180910390f35b6107916004803603602081101561073057600080fd5b810190808035906020019064010000000081111561074d57600080fd5b82018360208201111561075f57600080fd5b8035906020019184600183028401116401000000008311171561078157600080fd5b9091929391929390505050611088565b005b6107bf600480360360208110156107a957600080fd5b8101908080359060200190929190505050611109565b005b610803600480360360208110156107d757600080fd5b81019080803573ffffffffffffffffffffffffffffffffffffffff16906020019092919050505061117e565b005b61087c6004803603602081101561081b57600080fd5b810190808035906020019064010000000081111561083857600080fd5b82018360208201111561084a57600080fd5b8035906020019184600183028401116401000000008311171561086c57600080fd5b9091929391929390505050611204565b005b3361089381600661128590919063ffffffff16565b6108e8576040517f08c379a000000000000000000000000000000000000000000000000000000000815260040180806020018281038252602b815260200180611656602b913960400191505060405180910390fd5b8888600791906108f99291906114af565b5086866008919061090b9291906114af565b5084846009919061091d9291906114af565b5082600a8190555081600b60006101000a81548160ff0219169083600181111561094357fe5b0217905550505050505050505050565b3361096881600661128590919063ffffffff16565b6109bd576040517f08c379a000000000000000000000000000000000000000000000000000000000815260040180806020018281038252602b815260200180611656602b913960400191505060405180910390fd5b8282600991906109ce9291906114af565b50505050565b60006060806060600080600154600760086009600a54600b60009054906101000a900460ff16848054600181600116156101000203166002900480601f016020809104026020016040519081016040528092919081815260200182805460018160011615610100020316600290048015610a8f5780601f10610a6457610100808354040283529160200191610a8f565b820191906000526020600020905b815481529060010190602001808311610a7257829003601f168201915b50505050509450838054600181600116156101000203166002900480601f016020809104026020016040519081016040528092919081815260200182805460018160011615610100020316600290048015610b2b5780601f10610b0057610100808354040283529160200191610b2b565b820191906000526020600020905b815481529060010190602001808311610b0e57829003601f168201915b50505050509350828054600181600116156101000203166002900480601f016020809104026020016040519081016040528092919081815260200182805460018160011615610100020316600290048015610bc75780601f10610b9c57610100808354040283529160200191610bc7565b820191906000526020600020905b815481529060010190602001808311610baa57829003601f168201915b50505050509250955095509550955095509550909192939495565b600080600080600080600154600360009054906101000a900460881b600254610c09610ff7565b600454600560009054906101000a900460ff16955095509550955095509550909192939495565b6000600560009054906101000a900460ff16905090565b6000610c5d82600661128590919063ffffffff16565b9050919050565b600033610c7b81600661128590919063ffffffff16565b610cd0576040517f08c379a000000000000000000000000000000000000000000000000000000000815260040180806020018281038252602b815260200180611656602b913960400191505060405180910390fd5b600060f81b83600060208110610ce257fe5b1a60f81b7effffffffffffffffffffffffffffffffffffffffffffffffffffffffffffff19161415610d7c576040517f08c379a000000000000000000000000000000000000000000000000000000000815260040180806020018281038252600d8152602001807f456d70747920776b62486173680000000000000000000000000000000000000081525060200191505060405180910390fd5b8260028190555082915050919050565b33610da181600661128590919063ffffffff16565b610df6576040517f08c379a000000000000000000000000000000000000000000000000000000000815260040180806020018281038252602b815260200180611656602b913960400191505060405180910390fd5b610dfe610ff7565b73ffffffffffffffffffffffffffffffffffffffff16ff5b33610e2b81600661128590919063ffffffff16565b610e80576040517f08c379a000000000000000000000000000000000000000000000000000000000815260040180806020018281038252602b815260200180611656602b913960400191505060405180910390fd5b81600b60006101000a81548160ff02191690836001811115610e9e57fe5b02179055505050565b6000600360009054906101000a900460881b905090565b610ec6611020565b610f38576040517f08c379a00000000000000000000000000000000000000000000000000000000081526004018080602001828103825260208152602001807f4f776e61626c653a2063616c6c6572206973206e6f7420746865206f776e657281525060200191505060405180910390fd5b600073ffffffffffffffffffffffffffffffffffffffff166000809054906101000a900473ffffffffffffffffffffffffffffffffffffffff1673ffffffffffffffffffffffffffffffffffffffff167f8be0079c531659141344cd1fd0a4f28419497f9722a3daafe3b4186f6b6457e060405160405180910390a360008060006101000a81548173ffffffffffffffffffffffffffffffffffffffff021916908373ffffffffffffffffffffffffffffffffffffffff160217905550565b60008060009054906101000a900473ffffffffffffffffffffffffffffffffffffffff16905090565b60008060009054906101000a900473ffffffffffffffffffffffffffffffffffffffff1673ffffffffffffffffffffffffffffffffffffffff16611062611363565b73ffffffffffffffffffffffffffffffffffffffff1614905090565b6000600154905090565b3361109d81600661128590919063ffffffff16565b6110f2576040517f08c379a000000000000000000000000000000000000000000000000000000000815260040180806020018281038252602b815260200180611656602b913960400191505060405180910390fd5b8282600791906111039291906114af565b50505050565b3361111e81600661128590919063ffffffff16565b611173576040517f08c379a000000000000000000000000000000000000000000000000000000000815260040180806020018281038252602b815260200180611656602b913960400191505060405180910390fd5b81600a819055505050565b611186611020565b6111f8576040517f08c379a00000000000000000000000000000000000000000000000000000000081526004018080602001828103825260208152602001807f4f776e61626c653a2063616c6c6572206973206e6f7420746865206f776e657281525060200191505060405180910390fd5b6112018161136b565b50565b3361121981600661128590919063ffffffff16565b61126e576040517f08c379a000000000000000000000000000000000000000000000000000000000815260040180806020018281038252602b815260200180611656602b913960400191505060405180910390fd5b82826008919061127f9291906114af565b50505050565b60008073ffffffffffffffffffffffffffffffffffffffff168273ffffffffffffffffffffffffffffffffffffffff16141561130c576040517f08c379a00000000000000000000000000000000000000000000000000000000081526004018080602001828103825260228152602001806116aa6022913960400191505060405180910390fd5b8260000160008373ffffffffffffffffffffffffffffffffffffffff1673ffffffffffffffffffffffffffffffffffffffff16815260200190815260200160002060009054906101000a900460ff16905092915050565b600033905090565b600073ffffffffffffffffffffffffffffffffffffffff168173ffffffffffffffffffffffffffffffffffffffff1614156113f1576040517f08c379a00000000000000000000000000000000000000000000000000000000081526004018080602001828103825260268152602001806116306026913960400191505060405180910390fd5b8073ffffffffffffffffffffffffffffffffffffffff166000809054906101000a900473ffffffffffffffffffffffffffffffffffffffff1673ffffffffffffffffffffffffffffffffffffffff167f8be0079c531659141344cd1fd0a4f28419497f9722a3daafe3b4186f6b6457e060405160405180910390a3806000806101000a81548173ffffffffffffffffffffffffffffffffffffffff021916908373ffffffffffffffffffffffffffffffffffffffff16021790555050565b828054600181600116156101000203166002900490600052602060002090601f016020900481019282601f106114f057803560ff191683800117855561151e565b8280016001018555821561151e579182015b8281111561151d578235825591602001919060010190611502565b5b50905061152b919061152f565b5090565b61155191905b8082111561154d576000816000905550600101611535565b5090565b90565b61155e8282611285565b156115d1576040517f08c379a000000000000000000000000000000000000000000000000000000000815260040180806020018281038252601f8152602001807f526f6c65733a206163636f756e7420616c72656164792068617320726f6c650081525060200191505060405180910390fd5b60018260000160008373ffffffffffffffffffffffffffffffffffffffff1673ffffffffffffffffffffffffffffffffffffffff16815260200190815260200160002060006101000a81548160ff021916908315150217905550505056fe4f776e61626c653a206e6577206f776e657220697320746865207a65726f206164647265737343616c6c657220686176656e27742061646d696e7320726967687473206f6e2074686520666561747572657468697320636f6e74726163742073686f756c64206e65766572206861766520612062616c616e6365526f6c65733a206163636f756e7420697320746865207a65726f2061646472657373a165627a7a723058208e191921dd7f1148a7ea464e0d1423ee4d0f662e3775e40b087bb01f22befa9200294f776e61626c653a206e6577206f776e657220697320746865207a65726f20616464726573734833205265736f6c7574696f6e206d757374206265205f68335265736f6c7574696f6e203e3d30202626205f68335265736f6c7574696f6e203c3136526f6c65733a206163636f756e7420697320746865207a65726f2061646472657373",
  "source": "/**\n * @title Land Administration Parcel\n * @author BENAHMED DAHO Ali\n * @notice a Crypto-Spatial Features registry for land parcels\n * on the etherurm blockchain\n *\n * @dev LA_SPATIAL_UNIT (ISO 19152)\n *\n*/\n\npragma solidity ^0.5.0;\n\nimport './geospatial/CSSurface.sol';\n\ncontract LAParcel is CSSurface {\n\n    enum CadastralTypeCode { PARCEL, BUILDING }\n\n    //\n    // State variables\n    //\n\n    string internal label;        // Parcel label\n    string internal extAddress;   // Parcel external real world address\n    string internal landUseCode;  // may be : Residential, Commercial, Agricultural, Industrial, ...\n    uint internal area;           // Cadastral area of the parcel\n    CadastralTypeCode internal cadastralType;\n\n    //\n    // Functions\n    //\n\n    /**\n    * @notice constuctor\n    * @dev initialize state variables\n    */\n\n    constructor (bytes15 _dggsIndex, bytes32 _wkbHash, address _owner, uint _h3Resolution) public\n    CSSurface(_dggsIndex, _wkbHash, _owner, _h3Resolution){\n    }\n\n    /**\n     * @notice set extAddress state variable\n     * @param _extAddr the external address\n     * @param _label the label\n     * @param _area the area in meter square\n     * @param _landUseCode the land use code : Argricultural / Industrial /...\n     */\n\n     function setParcelValues(string calldata _label,\n                              string calldata _extAddr,\n                              string calldata _landUseCode,\n                              uint _area,\n                              CadastralTypeCode _cadastralType) external onlyAdmins(msg.sender) {\n        // TODO Check inputs\n         label = _label;\n         extAddress = _extAddr;\n         landUseCode = _landUseCode;\n         area = _area;\n         cadastralType = _cadastralType;\n     }\n\n    /**\n     * @notice set extAddress state variable\n     * @param _extAddr the external address\n     */\n\n     function setExtAddress(string calldata _extAddr) external onlyAdmins(msg.sender) {\n         extAddress = _extAddr;\n     }\n\n     /**\n     * @notice set label state variable\n     * @param _label the parcel label\n     */\n     \n     function setLabel(string calldata _label) external onlyAdmins(msg.sender) {\n         label = _label;\n     }\n\n     /**\n     * @notice set area state variable\n     * @param _area the area of the parcel\n     *\n     */\n     function setArea(uint _area) external onlyAdmins(msg.sender) {\n         area = _area;\n     }\n\n    /**\n     * @notice set setlandUseCode state variable\n     * @param _landUseCode the Parcel Type of the parcel\n     *\n     */\n     function setLandUseCode(string calldata _landUseCode) external onlyAdmins(msg.sender) {\n         landUseCode = _landUseCode;\n     }\n\n     /**\n      * @notice set setCadastralTypeCode state varibale\n      * @param _cadastralType the parcel cadastral type\n      *\n      */\n     function setCadastralTypeCode(CadastralTypeCode _cadastralType) external onlyAdmins(msg.sender) {\n         cadastralType = _cadastralType;\n     }\n\n     /**\n      * @dev returns all the state values of the Parcel\n      */\n     function fetchParcel() public view\n     returns (bytes32, string memory, string memory, string memory, uint, CadastralTypeCode) {\n         return (csc, label, extAddress, landUseCode, area, cadastralType);\n     }\n\n}\n",
  "sourcePath": "/home/ali/EthProjects/onchain-land-administration/solidity/contracts/LAParcel.sol",
  "compiler": {
    "name": "solc",
    "version": "0.5.8+commit.23d335f2.Emscripten.clang"
  },
  "schemaVersion": "3.0.16",
  "updatedAt": "2019-12-04T19:35:36.892Z",
  "devdoc": {
    "methods": {
      "constructor": {
        "details": "initialize state variables"
      },
      "fetchFeature()": {
        "details": "returns all the values of the feature"
      },
      "fetchParcel()": {
        "details": "returns all the state values of the Parcel"
      },
      "getGeometryType()": {
        "details": "getGeometryType"
      },
      "isAdmin(address)": {
        "details": "isAdmin : check if the addres is an admin of this feature   "
      },
      "isOwner()": {
        "details": "Returns true if the caller is the current owner."
      },
      "kill()": {
        "details": "remove permanently the feature from the blockchain TODO cross check with Registry removeFeature"
      },
      "owner()": {
        "details": "Returns the address of the current owner."
      },
      "renounceOwnership()": {
        "details": "Leaves the contract without owner. It will not be possible to call `onlyOwner` functions anymore. Can only be called by the current owner.     * NOTE: Renouncing ownership will leave the contract without an owner, thereby removing any functionality that is only available to the owner."
      },
      "setArea(uint256)": {
        "params": {
          "_area": "the area of the parcel     "
        }
      },
      "setCadastralTypeCode(uint8)": {
        "params": {
          "_cadastralType": "the parcel cadastral type      "
        }
      },
      "setExtAddress(string)": {
        "params": {
          "_extAddr": "the external address"
        }
      },
      "setLabel(string)": {
        "params": {
          "_label": "the parcel label"
        }
      },
      "setLandUseCode(string)": {
        "params": {
          "_landUseCode": "the Parcel Type of the parcel     "
        }
      },
      "setParcelValues(string,string,string,uint256,uint8)": {
        "params": {
          "_area": "the area in meter square",
          "_extAddr": "the external address",
          "_label": "the label",
          "_landUseCode": "the land use code : Argricultural / Industrial /..."
        }
      },
      "setWkbHash(bytes32)": {
        "details": "update the Well Known Binary Hash of the feature"
      },
      "transferOwnership(address)": {
        "details": "Transfers ownership of the contract to a new account (`newOwner`). Can only be called by the current owner."
      }
    }
  },
  "userdoc": {
    "methods": {
      "constructor": "constuctor",
      "setArea(uint256)": {
        "notice": "set area state variable"
      },
      "setCadastralTypeCode(uint8)": {
        "notice": "set setCadastralTypeCode state varibale"
      },
      "setExtAddress(string)": {
        "notice": "set extAddress state variable"
      },
      "setLabel(string)": {
        "notice": "set label state variable"
      },
      "setLandUseCode(string)": {
        "notice": "set setlandUseCode state variable"
      },
      "setParcelValues(string,string,string,uint256,uint8)": {
        "notice": "set extAddress state variable"
      }
    }
  }
}