{
  "contractName": "LAParcelRegistry",
  "abi": [
    {
      "constant": true,
      "inputs": [],
      "name": "srs",
      "outputs": [
        {
          "name": "",
          "type": "string"
        }
      ],
      "payable": false,
      "stateMutability": "view",
      "type": "function"
    },
    {
      "constant": true,
      "inputs": [],
      "name": "name",
      "outputs": [
        {
          "name": "",
          "type": "string"
        }
      ],
      "payable": false,
      "stateMutability": "view",
      "type": "function"
    },
    {
      "constant": true,
      "inputs": [],
      "name": "getFeatureCount",
      "outputs": [
        {
          "name": "",
          "type": "uint256"
        }
      ],
      "payable": false,
      "stateMutability": "view",
      "type": "function"
    },
    {
      "constant": true,
      "inputs": [],
      "name": "h3Resolution",
      "outputs": [
        {
          "name": "",
          "type": "uint256"
        }
      ],
      "payable": false,
      "stateMutability": "view",
      "type": "function"
    },
    {
      "constant": true,
      "inputs": [
        {
          "name": "csc",
          "type": "bytes32"
        }
      ],
      "name": "getFeature",
      "outputs": [
        {
          "name": "",
          "type": "address"
        }
      ],
      "payable": false,
      "stateMutability": "view",
      "type": "function"
    },
    {
      "inputs": [
        {
          "name": "_name",
          "type": "string"
        },
        {
          "name": "_h3Resolution",
          "type": "uint256"
        },
        {
          "name": "_srs",
          "type": "string"
        }
      ],
      "payable": false,
      "stateMutability": "nonpayable",
      "type": "constructor"
    },
    {
      "payable": false,
      "stateMutability": "nonpayable",
      "type": "fallback"
    },
    {
      "anonymous": false,
      "inputs": [
        {
          "indexed": false,
          "name": "csc",
          "type": "bytes32"
        },
        {
          "indexed": false,
          "name": "dggsIndex",
          "type": "bytes15"
        },
        {
          "indexed": false,
          "name": "wkbHash",
          "type": "bytes32"
        },
        {
          "indexed": false,
          "name": "addr",
          "type": "string"
        },
        {
          "indexed": false,
          "name": "lbl",
          "type": "string"
        },
        {
          "indexed": false,
          "name": "area",
          "type": "uint256"
        }
      ],
      "name": "LogParcelClaimed",
      "type": "event"
    },
    {
      "anonymous": false,
      "inputs": [
        {
          "indexed": false,
          "name": "name",
          "type": "string"
        },
        {
          "indexed": false,
          "name": "csc",
          "type": "bytes32"
        },
        {
          "indexed": false,
          "name": "dggsIndex",
          "type": "bytes15"
        },
        {
          "indexed": false,
          "name": "wkbHash",
          "type": "bytes32"
        },
        {
          "indexed": false,
          "name": "owner",
          "type": "address"
        }
      ],
      "name": "LogNewFeatureAdded",
      "type": "event"
    },
    {
      "constant": false,
      "inputs": [
        {
          "name": "dggsIndex",
          "type": "bytes15"
        },
        {
          "name": "wkbHash",
          "type": "bytes32"
        },
        {
          "name": "addr",
          "type": "string"
        },
        {
          "name": "lbl",
          "type": "string"
        },
        {
          "name": "area",
          "type": "uint256"
        }
      ],
      "name": "claimParcel",
      "outputs": [
        {
          "name": "",
          "type": "bytes32"
        }
      ],
      "payable": false,
      "stateMutability": "nonpayable",
      "type": "function"
    }
  ],
  "bytecode": "0x608060405260006003553480156200001657600080fd5b5060405162001e5e38038062001e5e833981018060405260608110156200003c57600080fd5b8101908080516401000000008111156200005557600080fd5b828101905060208101848111156200006c57600080fd5b81518560018202830111640100000000821117156200008a57600080fd5b5050929190602001805190602001909291908051640100000000811115620000b157600080fd5b82810190506020810184811115620000c857600080fd5b8151856001820283011164010000000082111715620000e657600080fd5b505092919050505082828260008210158015620001035750601082105b6200015a576040517f08c379a000000000000000000000000000000000000000000000000000000000815260040180806020018281038252603c81526020018062001e22603c913960400191505060405180910390fd5b600060f81b836000815181106200016d57fe5b602001015160f81c60f81b7effffffffffffffffffffffffffffffffffffffffffffffffffffffffffffff191614156200020f576040517f08c379a000000000000000000000000000000000000000000000000000000000815260040180806020018281038252600a8152602001807f456d707479206e616d650000000000000000000000000000000000000000000081525060200191505060405180910390fd5b8160008190555082600190805190602001906200022e929190620002aa565b50806002908051906020019062000247929190620002aa565b5060006003819055505050506040518060400160405280600f81526020017f50617263656c205265676973747279000000000000000000000000000000000081525060019080519060200190620002a0929190620002aa565b5050505062000359565b828054600181600116156101000203166002900490600052602060002090601f016020900481019282601f10620002ed57805160ff19168380011785556200031e565b828001600101855582156200031e579182015b828111156200031d57825182559160200191906001019062000300565b5b5090506200032d919062000331565b5090565b6200035691905b808211156200035257600081600090555060010162000338565b5090565b90565b611ab980620003696000396000f3fe60806040523480156200001157600080fd5b50600436106200006a5760003560e01c80630322955614620000bc57806306fdde0314620001445780636106f19214620001cc5780637e9c00fc14620001ec5780638b12dbaa146200020c578063c6b3d85d146200027d575b6040517f08c379a000000000000000000000000000000000000000000000000000000000815260040180806020018281038252602981526020018062001a656029913960400191505060405180910390fd5b620000c66200041e565b6040518080602001828103825283818151815260200191508051906020019080838360005b8381101562000108578082015181840152602081019050620000eb565b50505050905090810190601f168015620001365780820380516001836020036101000a031916815260200191505b509250505060405180910390f35b6200014e620004c0565b6040518080602001828103825283818151815260200191508051906020019080838360005b838110156200019057808201518184015260208101905062000173565b50505050905090810190601f168015620001be5780820380516001836020036101000a031916815260200191505b509250505060405180910390f35b620001d662000562565b6040518082815260200191505060405180910390f35b620001f66200056c565b6040518082815260200191505060405180910390f35b6200023b600480360360208110156200022457600080fd5b810190808035906020019092919050505062000572565b604051808273ffffffffffffffffffffffffffffffffffffffff1673ffffffffffffffffffffffffffffffffffffffff16815260200191505060405180910390f35b62000408600480360360a08110156200029557600080fd5b81019080803570ffffffffffffffffffffffffffffffffff191690602001909291908035906020019092919080359060200190640100000000811115620002db57600080fd5b820183602082011115620002ee57600080fd5b803590602001918460018302840111640100000000831117156200031157600080fd5b91908080601f016020809104026020016040519081016040528093929190818152602001838380828437600081840152601f19601f820116905080830192505050505050509192919290803590602001906401000000008111156200037557600080fd5b8201836020820111156200038857600080fd5b80359060200191846001830284011164010000000083111715620003ab57600080fd5b91908080601f016020809104026020016040519081016040528093929190818152602001838380828437600081840152601f19601f8201169050808301925050505050505091929192908035906020019092919050505062000669565b6040518082815260200191505060405180910390f35b60028054600181600116156101000203166002900480601f016020809104026020016040519081016040528092919081815260200182805460018160011615610100020316600290048015620004b85780601f106200048c57610100808354040283529160200191620004b8565b820191906000526020600020905b8154815290600101906020018083116200049a57829003601f168201915b505050505081565b60018054600181600116156101000203166002900480601f0160208091040260200160405190810160405280929190818152602001828054600181600116156101000203166002900480156200055a5780601f106200052e576101008083540402835291602001916200055a565b820191906000526020600020905b8154815290600101906020018083116200053c57829003601f168201915b505050505081565b6000600354905090565b60005481565b60008073ffffffffffffffffffffffffffffffffffffffff166004600084815260200190815260200160002060009054906101000a900473ffffffffffffffffffffffffffffffffffffffff1673ffffffffffffffffffffffffffffffffffffffff1614156200062e576040517f08c379a000000000000000000000000000000000000000000000000000000000815260040180806020018281038252602681526020018062001a3f6026913960400191505060405180910390fd5b6004600083815260200190815260200160002060009054906101000a900473ffffffffffffffffffffffffffffffffffffffff169050919050565b60008585336000600f60ff161415620006ea576040517f08c379a000000000000000000000000000000000000000000000000000000000815260040180806020018281038252600f8152602001807f456d7074792064676773496e646578000000000000000000000000000000000081525060200191505060405180910390fd5b6000602060ff16141562000766576040517f08c379a000000000000000000000000000000000000000000000000000000000815260040180806020018281038252600d8152602001807f456d70747920776b62486173680000000000000000000000000000000000000081525060200191505060405180910390fd5b60008989336000546040516200077c9062000e99565b808570ffffffffffffffffffffffffffffffffff191670ffffffffffffffffffffffffffffffffff191681526020018481526020018373ffffffffffffffffffffffffffffffffffffffff1673ffffffffffffffffffffffffffffffffffffffff168152602001828152602001945050505050604051809103906000f0801580156200080c573d6000803e3d6000fd5b50905060008173ffffffffffffffffffffffffffffffffffffffff1663d55c3ca36040518163ffffffff1660e01b815260040160206040518083038186803b1580156200085857600080fd5b505afa1580156200086d573d6000803e3d6000fd5b505050506040513d60208110156200088457600080fd5b810190808051906020019092919050505090508173ffffffffffffffffffffffffffffffffffffffff166325f1ceaf8a6040518263ffffffff1660e01b81526004018080602001828103825283818151815260200191508051906020019080838360005b8381101562000905578082015181840152602081019050620008e8565b50505050905090810190601f168015620009335780820380516001836020036101000a031916815260200191505b5092505050600060405180830381600087803b1580156200095357600080fd5b505af115801562000968573d6000803e3d6000fd5b505050508173ffffffffffffffffffffffffffffffffffffffff1663bf530969896040518263ffffffff1660e01b81526004018080602001828103825283818151815260200191508051906020019080838360005b83811015620009da578082015181840152602081019050620009bd565b50505050905090810190601f16801562000a085780820380516001836020036101000a031916815260200191505b5092505050600060405180830381600087803b15801562000a2857600080fd5b505af115801562000a3d573d6000803e3d6000fd5b505050508173ffffffffffffffffffffffffffffffffffffffff1663cf50e603886040518263ffffffff1660e01b815260040180828152602001915050600060405180830381600087803b15801562000a9557600080fd5b505af115801562000aaa573d6000803e3d6000fd5b50505050816004600083815260200190815260200160002060006101000a81548173ffffffffffffffffffffffffffffffffffffffff021916908373ffffffffffffffffffffffffffffffffffffffff1602179055507f33a75ef087887f7bb90af8da971f53a7d185238679bff5690b9d9c98c298911b818c8c8c8c8c604051808781526020018670ffffffffffffffffffffffffffffffffff191670ffffffffffffffffffffffffffffffffff191681526020018581526020018060200180602001848152602001838103835286818151815260200191508051906020019080838360005b8381101562000bad57808201518184015260208101905062000b90565b50505050905090810190601f16801562000bdb5780820380516001836020036101000a031916815260200191505b50838103825285818151815260200191508051906020019080838360005b8381101562000c1657808201518184015260208101905062000bf9565b50505050905090810190601f16801562000c445780820380516001836020036101000a031916815260200191505b509850505050505050505060405180910390a18095505050600073__CSGeometryLib_________________________637834a61283866040518363ffffffff1660e01b8152600401808373ffffffffffffffffffffffffffffffffffffffff1673ffffffffffffffffffffffffffffffffffffffff1681526020018270ffffffffffffffffffffffffffffffffff191670ffffffffffffffffffffffffffffffffff191681526020019250505060206040518083038186803b15801562000d0a57600080fd5b505af415801562000d1f573d6000803e3d6000fd5b505050506040513d602081101562000d3657600080fd5b810190808051906020019092919050505090507f6025eef7c116bf3ac54c6c1b14f3dc851d6931e5d65aa525cd2bfe9078b28f3d60018286868660405180806020018681526020018570ffffffffffffffffffffffffffffffffff191670ffffffffffffffffffffffffffffffffff191681526020018481526020018373ffffffffffffffffffffffffffffffffffffffff1673ffffffffffffffffffffffffffffffffffffffff16815260200182810382528781815460018160011615610100020316600290048152602001915080546001816001161561010002031660029004801562000e695780601f1062000e3d5761010080835404028352916020019162000e69565b820191906000526020600020905b81548152906001019060200180831162000e4b57829003601f168201915b5050965050505050505060405180910390a160016003600082825401925050819055505050505095945050505050565b610b978062000ea88339019056fe608060405234801561001057600080fd5b50604051608080610b978339810180604052608081101561003057600080fd5b81019080805190602001909291908051906020019092919080519060200190929190805190602001909291905050508383838383838383600081101580156100785750601081105b6100cd576040517f08c379a000000000000000000000000000000000000000000000000000000000815260040180806020018281038252603c815260200180610b5b603c913960400191505060405180910390fd5b6000600360009054906101000a905050600f60ff161415610156576040517f08c379a000000000000000000000000000000000000000000000000000000000815260040180806020018281038252600f8152602001807f456d7074792064676773496e646578000000000000000000000000000000000081525060200191505060405180910390fd5b6000602060ff1614156101d1576040517f08c379a000000000000000000000000000000000000000000000000000000000815260040180806020018281038252600d8152602001807f456d70747920776b62486173680000000000000000000000000000000000000081525060200191505060405180910390fd5b6000829050806000806101000a81548173ffffffffffffffffffffffffffffffffffffffff021916908373ffffffffffffffffffffffffffffffffffffffff1602179055508360028190555084600360006101000a8154816effffffffffffffffffffffffffffff021916908360881c02179055506000600560006101000a81548160ff0219169083600281111561026557fe5b02179055508160048190555073__CSGeometryLib_________________________637834a61282876040518363ffffffff1660e01b8152600401808373ffffffffffffffffffffffffffffffffffffffff1673ffffffffffffffffffffffffffffffffffffffff1681526020018270ffffffffffffffffffffffffffffffffff191670ffffffffffffffffffffffffffffffffff191681526020019250505060206040518083038186803b15801561031c57600080fd5b505af4158015610330573d6000803e3d6000fd5b505050506040513d602081101561034657600080fd5b810190808051906020019092919050505060018190555050505050506002600560006101000a81548160ff0219169083600281111561038157fe5b021790555050505050505050506107be8061039d6000396000f3fe608060405234801561001057600080fd5b50600436106100b45760003560e01c8063bf53096911610071578063bf530969146102f5578063cb4774c4146103b0578063cf50e60314610433578063d55c3ca314610461578063df1ed5e81461047f578063ecd9fa4a146104c5576100b4565b806317e178091461010557806325f1ceaf146101315780634d41892f146101ec5780637e9c00fc1461020a5780638cde46de146102285780638da5cb5b146102ab575b6040517f08c379a000000000000000000000000000000000000000000000000000000000815260040180806020018281038252602981526020018061076a6029913960400191505060405180910390fd5b61010d6104e3565b6040518082600281111561011d57fe5b60ff16815260200191505060405180910390f35b6101ea6004803603602081101561014757600080fd5b810190808035906020019064010000000081111561016457600080fd5b82018360208201111561017657600080fd5b8035906020019184600183028401116401000000008311171561019857600080fd5b91908080601f016020809104026020016040519081016040528093929190818152602001838380828437600081840152601f19601f8201169050808301925050505050505091929192905050506104fa565b005b6101f4610514565b6040518082815260200191505060405180910390f35b61021261051a565b6040518082815260200191505060405180910390f35b610230610520565b6040518080602001828103825283818151815260200191508051906020019080838360005b83811015610270578082015181840152602081019050610255565b50505050905090810190601f16801561029d5780820380516001836020036101000a031916815260200191505b509250505060405180910390f35b6102b36105be565b604051808273ffffffffffffffffffffffffffffffffffffffff1673ffffffffffffffffffffffffffffffffffffffff16815260200191505060405180910390f35b6103ae6004803603602081101561030b57600080fd5b810190808035906020019064010000000081111561032857600080fd5b82018360208201111561033a57600080fd5b8035906020019184600183028401116401000000008311171561035c57600080fd5b91908080601f016020809104026020016040519081016040528093929190818152602001838380828437600081840152601f19601f8201169050808301925050505050505091929192905050506105e3565b005b6103b86105fd565b6040518080602001828103825283818151815260200191508051906020019080838360005b838110156103f85780820151818401526020810190506103dd565b50505050905090810190601f1680156104255780820380516001836020036101000a031916815260200191505b509250505060405180910390f35b61045f6004803603602081101561044957600080fd5b810190808035906020019092919050505061069b565b005b6104696106a5565b6040518082815260200191505060405180910390f35b6104876106ab565b604051808270ffffffffffffffffffffffffffffffffff191670ffffffffffffffffffffffffffffffffff1916815260200191505060405180910390f35b6104cd6106be565b6040518082815260200191505060405180910390f35b6000600560009054906101000a900460ff16905090565b80600690805190602001906105109291906106c4565b5050565b60085481565b60045481565b60068054600181600116156101000203166002900480601f0160208091040260200160405190810160405280929190818152602001828054600181600116156101000203166002900480156105b65780601f1061058b576101008083540402835291602001916105b6565b820191906000526020600020905b81548152906001019060200180831161059957829003601f168201915b505050505081565b6000809054906101000a900473ffffffffffffffffffffffffffffffffffffffff1681565b80600790805190602001906105f99291906106c4565b5050565b60078054600181600116156101000203166002900480601f0160208091040260200160405190810160405280929190818152602001828054600181600116156101000203166002900480156106935780601f1061066857610100808354040283529160200191610693565b820191906000526020600020905b81548152906001019060200180831161067657829003601f168201915b505050505081565b8060088190555050565b60015481565b600360009054906101000a900460881b81565b60025481565b828054600181600116156101000203166002900490600052602060002090601f016020900481019282601f1061070557805160ff1916838001178555610733565b82800160010185558215610733579182015b82811115610732578251825591602001919060010190610717565b5b5090506107409190610744565b5090565b61076691905b8082111561076257600081600090555060010161074a565b5090565b9056fe7468697320636f6e74726163742073686f756c64206e65766572206861766520612062616c616e6365a165627a7a72305820dccb0adfd494a17f3cea5164fcd53b7edebf871a8da8e92db4626212f2960eaa00294833205265736f6c7574696f6e206d757374206265205f68335265736f6c7574696f6e203e3d30202626205f68335265736f6c7574696f6e203c31364665617475726520646f6573206e6f7420657869737420696e207468652072656769737472797468697320636f6e74726163742073686f756c64206e65766572206861766520612062616c616e6365a165627a7a7230582004c4f6d5296f63f0b304591839675a1623a127ba995b68f57af72f284a8df1ec00294833205265736f6c7574696f6e206d757374206265205f68335265736f6c7574696f6e203e3d30202626205f68335265736f6c7574696f6e203c3136",
  "source": "/**\n * @title Crypto-Spatial Parcels Registry\n * @author BENAHMED DAHO Ali\n * @notice an abstract contract that implement a Parcels Registry\n * @dev ...\n *\n*/\n\npragma solidity ^0.5.0;\n\nimport './LAParcel.sol';\nimport './geospatial/CSFeatureRegistry.sol';\n\ncontract LAParcelRegistry is CSFeatureRegistry {\n  //\n  // State variables\n  //\n\n  // mapping(bytes32 => LAParcel) parcels; // Mapping CSC => Parcels\n\n  //\n  // Events - publicize actions to external listeners\n  //\n\n  event LogParcelClaimed(bytes32 csc, bytes15 dggsIndex, bytes32 wkbHash, string addr, string lbl, uint area);\n\n  //\n  // Functions\n  //\n\n  /// @notice constuctor\n  constructor (string memory _name, uint _h3Resolution, string memory _srs) public\n  CSFeatureRegistry(_name,_h3Resolution,_srs) {\n    name = \"Parcel Registry\";\n  }\n\n  /**\n  * @notice addFeature modifier\n  * @param dggsIndex dggsIndex of the feature\n  * @param wkbHash Well Known Binary Hash\n  * @param addr External Address ID\n  * @param lbl Parcel label\n  * @param area Parcel Area\n  * @return the Crypto-Spatial Coordinate (CSC) of the feature\n  */\n  function claimParcel(bytes15 dggsIndex,\n                       bytes32 wkbHash,\n                       string memory addr,\n                       string memory lbl,\n                       uint area)\n  public addFeature( dggsIndex, wkbHash, msg.sender)\n  returns (bytes32) {\n\n    // TODO check inputs\n\n    LAParcel parcel = new LAParcel(dggsIndex,wkbHash, msg.sender, h3Resolution);\n    bytes32 csc = parcel.csc();\n    parcel.setExtAddressId(addr);\n    parcel.setLabel(lbl);\n    parcel.setArea(area);\n    features[csc] = address(parcel);\n    emit LogParcelClaimed(csc, dggsIndex, wkbHash, addr, lbl, area);\n    return csc;\n  }\n}\n",
  "sourcePath": "/home/ali/EthProjects/onchain-land-administration/solidity/contracts/LAParcelRegistry.sol",
  "compiler": {
    "name": "solc",
    "version": "0.5.8+commit.23d335f2.Emscripten.clang"
  },
  "schemaVersion": "3.0.16",
  "updatedAt": "2019-11-05T21:35:31.718Z",
  "devdoc": {
    "methods": {
      "claimParcel(bytes15,bytes32,string,string,uint256)": {
        "params": {
          "addr": "External Address ID",
          "area": "Parcel Area",
          "dggsIndex": "dggsIndex of the feature",
          "lbl": "Parcel label",
          "wkbHash": "Well Known Binary Hash"
        },
        "return": "the Crypto-Spatial Coordinate (CSC) of the feature"
      },
      "getFeature(bytes32)": {
        "params": {
          "csc": "the feature CSC"
        },
        "return": "the address of the feature deployed contract"
      },
      "getFeatureCount()": {
        "return": "the count of the features added to the registry"
      }
    }
  },
  "userdoc": {
    "methods": {
      "claimParcel(bytes15,bytes32,string,string,uint256)": {
        "notice": "addFeature modifier"
      },
      "constructor": "constuctor",
      "getFeature(bytes32)": {
        "notice": "getFeature"
      },
      "getFeatureCount()": {
        "notice": "getFeatureCount"
      }
    }
  }
}