{
  "contractName": "LAParcel",
  "abi": [
    {
      "constant": true,
      "inputs": [],
      "name": "fetchFeature",
      "outputs": [
        {
          "name": "_csc",
          "type": "bytes32"
        },
        {
          "name": "_dggsIndex",
          "type": "bytes15"
        },
        {
          "name": "_wkbHash",
          "type": "bytes32"
        },
        {
          "name": "__owner",
          "type": "address"
        },
        {
          "name": "_h3Resolution",
          "type": "uint256"
        },
        {
          "name": "_geomteryType",
          "type": "uint8"
        }
      ],
      "payable": false,
      "stateMutability": "view",
      "type": "function"
    },
    {
      "constant": false,
      "inputs": [],
      "name": "getGeometryType",
      "outputs": [
        {
          "name": "",
          "type": "uint8"
        }
      ],
      "payable": false,
      "stateMutability": "nonpayable",
      "type": "function"
    },
    {
      "constant": false,
      "inputs": [
        {
          "name": "_wkbHash",
          "type": "bytes32"
        }
      ],
      "name": "setWkbHash",
      "outputs": [
        {
          "name": "_wkbHashValue",
          "type": "bytes32"
        }
      ],
      "payable": false,
      "stateMutability": "nonpayable",
      "type": "function"
    },
    {
      "constant": false,
      "inputs": [],
      "name": "kill",
      "outputs": [],
      "payable": false,
      "stateMutability": "nonpayable",
      "type": "function"
    },
    {
      "constant": true,
      "inputs": [],
      "name": "getFeatureDGGSIndex",
      "outputs": [
        {
          "name": "",
          "type": "bytes15"
        }
      ],
      "payable": false,
      "stateMutability": "view",
      "type": "function"
    },
    {
      "constant": false,
      "inputs": [],
      "name": "renounceOwnership",
      "outputs": [],
      "payable": false,
      "stateMutability": "nonpayable",
      "type": "function"
    },
    {
      "constant": true,
      "inputs": [],
      "name": "owner",
      "outputs": [
        {
          "name": "",
          "type": "address"
        }
      ],
      "payable": false,
      "stateMutability": "view",
      "type": "function"
    },
    {
      "constant": true,
      "inputs": [],
      "name": "isOwner",
      "outputs": [
        {
          "name": "",
          "type": "bool"
        }
      ],
      "payable": false,
      "stateMutability": "view",
      "type": "function"
    },
    {
      "constant": true,
      "inputs": [],
      "name": "getFeatureCSC",
      "outputs": [
        {
          "name": "",
          "type": "bytes32"
        }
      ],
      "payable": false,
      "stateMutability": "view",
      "type": "function"
    },
    {
      "constant": false,
      "inputs": [
        {
          "name": "newOwner",
          "type": "address"
        }
      ],
      "name": "transferOwnership",
      "outputs": [],
      "payable": false,
      "stateMutability": "nonpayable",
      "type": "function"
    },
    {
      "inputs": [
        {
          "name": "_dggsIndex",
          "type": "bytes15"
        },
        {
          "name": "_wkbHash",
          "type": "bytes32"
        },
        {
          "name": "_owner",
          "type": "address"
        },
        {
          "name": "_h3Resolution",
          "type": "uint256"
        }
      ],
      "payable": false,
      "stateMutability": "nonpayable",
      "type": "constructor"
    },
    {
      "payable": false,
      "stateMutability": "nonpayable",
      "type": "fallback"
    },
    {
      "anonymous": false,
      "inputs": [
        {
          "indexed": true,
          "name": "csc",
          "type": "bytes32"
        },
        {
          "indexed": true,
          "name": "dggsIndex",
          "type": "bytes15"
        },
        {
          "indexed": false,
          "name": "wkbHash",
          "type": "bytes32"
        },
        {
          "indexed": true,
          "name": "owner",
          "type": "address"
        }
      ],
      "name": "LogFeatureCreated",
      "type": "event"
    },
    {
      "anonymous": false,
      "inputs": [
        {
          "indexed": true,
          "name": "csc",
          "type": "bytes32"
        },
        {
          "indexed": true,
          "name": "dggsIndex",
          "type": "bytes15"
        },
        {
          "indexed": false,
          "name": "wkbHash",
          "type": "bytes32"
        },
        {
          "indexed": true,
          "name": "owner",
          "type": "address"
        }
      ],
      "name": "LogFeatureKilled",
      "type": "event"
    },
    {
      "anonymous": false,
      "inputs": [
        {
          "indexed": true,
          "name": "previousOwner",
          "type": "address"
        },
        {
          "indexed": true,
          "name": "newOwner",
          "type": "address"
        }
      ],
      "name": "OwnershipTransferred",
      "type": "event"
    },
    {
      "constant": false,
      "inputs": [
        {
          "name": "_addrId",
          "type": "string"
        }
      ],
      "name": "setExtAddressId",
      "outputs": [],
      "payable": false,
      "stateMutability": "nonpayable",
      "type": "function"
    },
    {
      "constant": false,
      "inputs": [
        {
          "name": "_lbl",
          "type": "string"
        }
      ],
      "name": "setLabel",
      "outputs": [],
      "payable": false,
      "stateMutability": "nonpayable",
      "type": "function"
    },
    {
      "constant": false,
      "inputs": [
        {
          "name": "_area",
          "type": "uint256"
        }
      ],
      "name": "setArea",
      "outputs": [],
      "payable": false,
      "stateMutability": "nonpayable",
      "type": "function"
    },
    {
      "constant": false,
      "inputs": [
        {
          "name": "_parcelType",
          "type": "string"
        }
      ],
      "name": "setParcelType",
      "outputs": [],
      "payable": false,
      "stateMutability": "nonpayable",
      "type": "function"
    },
    {
      "constant": true,
      "inputs": [],
      "name": "fetchParcel",
      "outputs": [
        {
          "name": "",
          "type": "string"
        },
        {
          "name": "",
          "type": "string"
        },
        {
          "name": "",
          "type": "uint256"
        },
        {
          "name": "",
          "type": "string"
        }
      ],
      "payable": false,
      "stateMutability": "view",
      "type": "function"
    }
  ],
  "bytecode": "0x60806040523480156200001157600080fd5b5060405160808062001ce2833981018060405260808110156200003357600080fd5b810190808051906020019092919080519060200190929190805190602001909291908051906020019092919050505083838383838383836200007a620004f360201b60201c565b6000806101000a81548173ffffffffffffffffffffffffffffffffffffffff021916908373ffffffffffffffffffffffffffffffffffffffff1602179055506000809054906101000a900473ffffffffffffffffffffffffffffffffffffffff1673ffffffffffffffffffffffffffffffffffffffff16600073ffffffffffffffffffffffffffffffffffffffff167f8be0079c531659141344cd1fd0a4f28419497f9722a3daafe3b4186f6b6457e060405160405180910390a360008110158015620001475750601081105b6200019e576040517f08c379a000000000000000000000000000000000000000000000000000000000815260040180806020018281038252603c81526020018062001c84603c913960400191505060405180910390fd5b6000600360009054906101000a905050600f60ff16141562000228576040517f08c379a000000000000000000000000000000000000000000000000000000000815260040180806020018281038252600f8152602001807f456d7074792064676773496e646578000000000000000000000000000000000081525060200191505060405180910390fd5b6000602060ff161415620002a4576040517f08c379a000000000000000000000000000000000000000000000000000000000815260040180806020018281038252600d8152602001807f456d70747920776b62486173680000000000000000000000000000000000000081525060200191505060405180910390fd5b620002b582620004fb60201b60201c565b620002d08260066200059260201b620011801790919060201c565b620002eb3360066200059260201b620011801790919060201c565b8260028190555083600360006101000a8154816effffffffffffffffffffffffffffff021916908360881c02179055506000600560006101000a81548160ff021916908360028111156200033b57fe5b02179055508060048190555073__CSGeometryLib_________________________637834a61283866040518363ffffffff1660e01b8152600401808373ffffffffffffffffffffffffffffffffffffffff1673ffffffffffffffffffffffffffffffffffffffff1681526020018270ffffffffffffffffffffffffffffffffff191670ffffffffffffffffffffffffffffffffff191681526020019250505060206040518083038186803b158015620003f357600080fd5b505af415801562000408573d6000803e3d6000fd5b505050506040513d60208110156200041f57600080fd5b8101908080519060200190929190505050600181905550620004466200067660201b60201c565b73ffffffffffffffffffffffffffffffffffffffff16600360009054906101000a900460881b70ffffffffffffffffffffffffffffffffff19166001547f025eef9175b0635cefa846add44300456401183653e2b56e06ff204282d087d96002546040518082815260200191505060405180910390a4505050506002600560006101000a81548160ff02191690836002811115620004e057fe5b021790555050505050505050506200092b565b600033905090565b6200050b6200069f60201b60201c565b6200057e576040517f08c379a00000000000000000000000000000000000000000000000000000000081526004018080602001828103825260208152602001807f4f776e61626c653a2063616c6c6572206973206e6f7420746865206f776e657281525060200191505060405180910390fd5b6200058f816200070560201b60201c565b50565b620005a482826200084b60201b60201c565b1562000618576040517f08c379a000000000000000000000000000000000000000000000000000000000815260040180806020018281038252601f8152602001807f526f6c65733a206163636f756e7420616c72656164792068617320726f6c650081525060200191505060405180910390fd5b60018260000160008373ffffffffffffffffffffffffffffffffffffffff1673ffffffffffffffffffffffffffffffffffffffff16815260200190815260200160002060006101000a81548160ff0219169083151502179055505050565b60008060009054906101000a900473ffffffffffffffffffffffffffffffffffffffff16905090565b60008060009054906101000a900473ffffffffffffffffffffffffffffffffffffffff1673ffffffffffffffffffffffffffffffffffffffff16620006e9620004f360201b60201c565b73ffffffffffffffffffffffffffffffffffffffff1614905090565b600073ffffffffffffffffffffffffffffffffffffffff168173ffffffffffffffffffffffffffffffffffffffff1614156200078d576040517f08c379a000000000000000000000000000000000000000000000000000000000815260040180806020018281038252602681526020018062001c5e6026913960400191505060405180910390fd5b8073ffffffffffffffffffffffffffffffffffffffff166000809054906101000a900473ffffffffffffffffffffffffffffffffffffffff1673ffffffffffffffffffffffffffffffffffffffff167f8be0079c531659141344cd1fd0a4f28419497f9722a3daafe3b4186f6b6457e060405160405180910390a3806000806101000a81548173ffffffffffffffffffffffffffffffffffffffff021916908373ffffffffffffffffffffffffffffffffffffffff16021790555050565b60008073ffffffffffffffffffffffffffffffffffffffff168273ffffffffffffffffffffffffffffffffffffffff161415620008d4576040517f08c379a000000000000000000000000000000000000000000000000000000000815260040180806020018281038252602281526020018062001cc06022913960400191505060405180910390fd5b8260000160008373ffffffffffffffffffffffffffffffffffffffff1673ffffffffffffffffffffffffffffffffffffffff16815260200190815260200160002060009054906101000a900460ff16905092915050565b611323806200093b6000396000f3fe608060405234801561001057600080fd5b50600436106100f55760003560e01c8063572982f511610097578063b85a0edd11610066578063b85a0edd14610571578063bf5309691461058f578063cf50e60314610608578063f2fde38b14610636576100f5565b8063572982f5146104b5578063715018a6146104fb5780638da5cb5b146105055780638f32d59b1461054f576100f5565b806325f1ceaf116100d357806325f1ceaf146103775780632befd03c146103f057806341c0e1b514610432578063487a178c1461043c576100f5565b806306ab28bf146101465780631383e2ad146102a857806317e178091461034b575b6040517f08c379a00000000000000000000000000000000000000000000000000000000081526004018080602001828103825260298152602001806112ad6029913960400191505060405180910390fd5b61014e61067a565b60405180806020018060200185815260200180602001848103845288818151815260200191508051906020019080838360005b8381101561019c578082015181840152602081019050610181565b50505050905090810190601f1680156101c95780820380516001836020036101000a031916815260200191505b50848103835287818151815260200191508051906020019080838360005b838110156102025780820151818401526020810190506101e7565b50505050905090810190601f16801561022f5780820380516001836020036101000a031916815260200191505b50848103825285818151815260200191508051906020019080838360005b8381101561026857808201518184015260208101905061024d565b50505050905090810190601f1680156102955780820380516001836020036101000a031916815260200191505b5097505050505050505060405180910390f35b6102b061086c565b604051808781526020018670ffffffffffffffffffffffffffffffffff191670ffffffffffffffffffffffffffffffffff191681526020018581526020018473ffffffffffffffffffffffffffffffffffffffff1673ffffffffffffffffffffffffffffffffffffffff16815260200183815260200182600281111561033257fe5b60ff168152602001965050505050505060405180910390f35b6103536108ba565b6040518082600281111561036357fe5b60ff16815260200191505060405180910390f35b6103ee6004803603602081101561038d57600080fd5b81019080803590602001906401000000008111156103aa57600080fd5b8201836020820111156103bc57600080fd5b803590602001918460018302840111640100000000831117156103de57600080fd5b90919293919293905050506108d1565b005b61041c6004803603602081101561040657600080fd5b8101908080359060200190929190505050610952565b6040518082815260200191505060405180910390f35b61043a610a49565b005b6104b36004803603602081101561045257600080fd5b810190808035906020019064010000000081111561046f57600080fd5b82018360208201111561048157600080fd5b803590602001918460018302840111640100000000831117156104a357600080fd5b9091929391929390505050610ad3565b005b6104bd610b54565b604051808270ffffffffffffffffffffffffffffffffff191670ffffffffffffffffffffffffffffffffff1916815260200191505060405180910390f35b610503610b6b565b005b61050d610ca4565b604051808273ffffffffffffffffffffffffffffffffffffffff1673ffffffffffffffffffffffffffffffffffffffff16815260200191505060405180910390f35b610557610ccd565b604051808215151515815260200191505060405180910390f35b610579610d2b565b6040518082815260200191505060405180910390f35b610606600480360360208110156105a557600080fd5b81019080803590602001906401000000008111156105c257600080fd5b8201836020820111156105d457600080fd5b803590602001918460018302840111640100000000831117156105f657600080fd5b9091929391929390505050610d35565b005b6106346004803603602081101561061e57600080fd5b8101908080359060200190929190505050610db6565b005b6106786004803603602081101561064c57600080fd5b81019080803573ffffffffffffffffffffffffffffffffffffffff169060200190929190505050610e2b565b005b6060806000606060076008600954600a838054600181600116156101000203166002900480601f01602080910402602001604051908101604052809291908181526020018280546001816001161561010002031660029004801561071f5780601f106106f45761010080835404028352916020019161071f565b820191906000526020600020905b81548152906001019060200180831161070257829003601f168201915b50505050509350828054600181600116156101000203166002900480601f0160208091040260200160405190810160405280929190818152602001828054600181600116156101000203166002900480156107bb5780601f10610790576101008083540402835291602001916107bb565b820191906000526020600020905b81548152906001019060200180831161079e57829003601f168201915b50505050509250808054600181600116156101000203166002900480601f0160208091040260200160405190810160405280929190818152602001828054600181600116156101000203166002900480156108575780601f1061082c57610100808354040283529160200191610857565b820191906000526020600020905b81548152906001019060200180831161083a57829003601f168201915b50505050509050935093509350935090919293565b600080600080600080600154600360009054906101000a900460881b600254610893610ca4565b600454600560009054906101000a900460ff16955095509550955095509550909192939495565b6000600560009054906101000a900460ff16905090565b336108e6816006610eb190919063ffffffff16565b61093b576040517f08c379a000000000000000000000000000000000000000000000000000000000815260040180806020018281038252602b815260200180611282602b913960400191505060405180910390fd5b82826007919061094c9291906110db565b50505050565b600033610969816006610eb190919063ffffffff16565b6109be576040517f08c379a000000000000000000000000000000000000000000000000000000000815260040180806020018281038252602b815260200180611282602b913960400191505060405180910390fd5b6000602060ff161415610a39576040517f08c379a000000000000000000000000000000000000000000000000000000000815260040180806020018281038252600d8152602001807f456d70747920776b62486173680000000000000000000000000000000000000081525060200191505060405180910390fd5b8260028190555082915050919050565b33610a5e816006610eb190919063ffffffff16565b610ab3576040517f08c379a000000000000000000000000000000000000000000000000000000000815260040180806020018281038252602b815260200180611282602b913960400191505060405180910390fd5b610abb610ca4565b73ffffffffffffffffffffffffffffffffffffffff16ff5b33610ae8816006610eb190919063ffffffff16565b610b3d576040517f08c379a000000000000000000000000000000000000000000000000000000000815260040180806020018281038252602b815260200180611282602b913960400191505060405180910390fd5b8282600a9190610b4e9291906110db565b50505050565b6000600360009054906101000a900460881b905090565b610b73610ccd565b610be5576040517f08c379a00000000000000000000000000000000000000000000000000000000081526004018080602001828103825260208152602001807f4f776e61626c653a2063616c6c6572206973206e6f7420746865206f776e657281525060200191505060405180910390fd5b600073ffffffffffffffffffffffffffffffffffffffff166000809054906101000a900473ffffffffffffffffffffffffffffffffffffffff1673ffffffffffffffffffffffffffffffffffffffff167f8be0079c531659141344cd1fd0a4f28419497f9722a3daafe3b4186f6b6457e060405160405180910390a360008060006101000a81548173ffffffffffffffffffffffffffffffffffffffff021916908373ffffffffffffffffffffffffffffffffffffffff160217905550565b60008060009054906101000a900473ffffffffffffffffffffffffffffffffffffffff16905090565b60008060009054906101000a900473ffffffffffffffffffffffffffffffffffffffff1673ffffffffffffffffffffffffffffffffffffffff16610d0f610f8f565b73ffffffffffffffffffffffffffffffffffffffff1614905090565b6000600154905090565b33610d4a816006610eb190919063ffffffff16565b610d9f576040517f08c379a000000000000000000000000000000000000000000000000000000000815260040180806020018281038252602b815260200180611282602b913960400191505060405180910390fd5b828260089190610db09291906110db565b50505050565b33610dcb816006610eb190919063ffffffff16565b610e20576040517f08c379a000000000000000000000000000000000000000000000000000000000815260040180806020018281038252602b815260200180611282602b913960400191505060405180910390fd5b816009819055505050565b610e33610ccd565b610ea5576040517f08c379a00000000000000000000000000000000000000000000000000000000081526004018080602001828103825260208152602001807f4f776e61626c653a2063616c6c6572206973206e6f7420746865206f776e657281525060200191505060405180910390fd5b610eae81610f97565b50565b60008073ffffffffffffffffffffffffffffffffffffffff168273ffffffffffffffffffffffffffffffffffffffff161415610f38576040517f08c379a00000000000000000000000000000000000000000000000000000000081526004018080602001828103825260228152602001806112d66022913960400191505060405180910390fd5b8260000160008373ffffffffffffffffffffffffffffffffffffffff1673ffffffffffffffffffffffffffffffffffffffff16815260200190815260200160002060009054906101000a900460ff16905092915050565b600033905090565b600073ffffffffffffffffffffffffffffffffffffffff168173ffffffffffffffffffffffffffffffffffffffff16141561101d576040517f08c379a000000000000000000000000000000000000000000000000000000000815260040180806020018281038252602681526020018061125c6026913960400191505060405180910390fd5b8073ffffffffffffffffffffffffffffffffffffffff166000809054906101000a900473ffffffffffffffffffffffffffffffffffffffff1673ffffffffffffffffffffffffffffffffffffffff167f8be0079c531659141344cd1fd0a4f28419497f9722a3daafe3b4186f6b6457e060405160405180910390a3806000806101000a81548173ffffffffffffffffffffffffffffffffffffffff021916908373ffffffffffffffffffffffffffffffffffffffff16021790555050565b828054600181600116156101000203166002900490600052602060002090601f016020900481019282601f1061111c57803560ff191683800117855561114a565b8280016001018555821561114a579182015b8281111561114957823582559160200191906001019061112e565b5b509050611157919061115b565b5090565b61117d91905b80821115611179576000816000905550600101611161565b5090565b90565b61118a8282610eb1565b156111fd576040517f08c379a000000000000000000000000000000000000000000000000000000000815260040180806020018281038252601f8152602001807f526f6c65733a206163636f756e7420616c72656164792068617320726f6c650081525060200191505060405180910390fd5b60018260000160008373ffffffffffffffffffffffffffffffffffffffff1673ffffffffffffffffffffffffffffffffffffffff16815260200190815260200160002060006101000a81548160ff021916908315150217905550505056fe4f776e61626c653a206e6577206f776e657220697320746865207a65726f206164647265737343616c6c657220686176656e27742061646d696e7320726967687473206f6e2074686520666561747572657468697320636f6e74726163742073686f756c64206e65766572206861766520612062616c616e6365526f6c65733a206163636f756e7420697320746865207a65726f2061646472657373a165627a7a7230582010c98fe8dd267a814919041e48e033af841d3c7e905962f5616e78af0016da5700294f776e61626c653a206e6577206f776e657220697320746865207a65726f20616464726573734833205265736f6c7574696f6e206d757374206265205f68335265736f6c7574696f6e203e3d30202626205f68335265736f6c7574696f6e203c3136526f6c65733a206163636f756e7420697320746865207a65726f2061646472657373",
  "source": "/**\n * @title Land Administration Parcel\n * @author BENAHMED DAHO Ali\n * @notice a Crypto-Spatial Features registry for land parcels\n * on the etherurm blockchain\n *\n * @dev LA_SPATIAL_UNIT (ISO 19152)\n *\n*/\n\npragma solidity ^0.5.0;\n\nimport './geospatial/CSSurface.sol';\n\ncontract LAParcel is CSSurface {\n\n    //\n    // State variables\n    //\n\n    string internal extAddressId; // Parcel external real world address ID\n    string internal label;        // Parcel label\n    uint internal area;           // Cadastral area of the parcel\n    string internal parcelType;   // may be : Building, Agriculture, Industrial, ...\n\n    //\n    // Functions\n    //\n\n    /**\n    * @notice constuctor\n    * @dev initialize state variables\n    */\n\n    constructor (bytes15 _dggsIndex, bytes32 _wkbHash, address _owner, uint _h3Resolution) public\n    CSSurface(_dggsIndex, _wkbHash, _owner, _h3Resolution){\n    }\n\n    /**\n     * @notice set extAddressId state variable\n     * @param _addrId the external address ID\n     */\n\n     function setExtAddressId(string calldata _addrId) external onlyAdmins(msg.sender) { \n         extAddressId = _addrId;\n     }\n\n     /**\n     * @notice set label state variable\n     * @param _lbl the parcel label\n     */\n     \n     function setLabel(string calldata _lbl) external onlyAdmins(msg.sender) {\n         label = _lbl;\n     }\n\n     /**\n     * @notice set area state variable\n     * @param _area the area of the parcel\n     *\n     */\n     function setArea(uint _area) external onlyAdmins(msg.sender) { \n         area = _area;\n     }\n\n    /**\n     * @notice set setParcelType state variable\n     * @param _parcelType the Parcel Type of the parcel\n     *\n     */\n     function setParcelType(string calldata _parcelType) external onlyAdmins(msg.sender) {\n         parcelType = _parcelType;\n     }\n\n     /**\n      * @dev returns all the state values of the Parcel\n      */\n     function fetchParcel() public view\n     returns (string memory , string memory , uint , string memory ) {\n         return (extAddressId, label, area, parcelType);\n\n     }\n\n\n}\n",
  "sourcePath": "/home/ali/EthProjects/onchain-land-administration/solidity/contracts/LAParcel.sol",
  "compiler": {
    "name": "solc",
    "version": "0.5.8+commit.23d335f2.Emscripten.clang"
  },
  "schemaVersion": "3.0.16",
  "updatedAt": "2019-11-09T16:58:12.098Z",
  "devdoc": {
    "methods": {
      "constructor": {
        "details": "initialize state variables"
      },
      "fetchFeature()": {
        "details": "returns all the values of the feature"
      },
      "fetchParcel()": {
        "details": "returns all the state values of the Parcel"
      },
      "getGeometryType()": {
        "details": "getGeometryType"
      },
      "isOwner()": {
        "details": "Returns true if the caller is the current owner."
      },
      "kill()": {
        "details": "remove permanently the feature from the blockchain TODO cross check with Registry removeFeature"
      },
      "owner()": {
        "details": "Returns the address of the current owner."
      },
      "renounceOwnership()": {
        "details": "Leaves the contract without owner. It will not be possible to call `onlyOwner` functions anymore. Can only be called by the current owner.     * NOTE: Renouncing ownership will leave the contract without an owner, thereby removing any functionality that is only available to the owner."
      },
      "setArea(uint256)": {
        "params": {
          "_area": "the area of the parcel     "
        }
      },
      "setExtAddressId(string)": {
        "params": {
          "_addrId": "the external address ID"
        }
      },
      "setLabel(string)": {
        "params": {
          "_lbl": "the parcel label"
        }
      },
      "setParcelType(string)": {
        "params": {
          "_parcelType": "the Parcel Type of the parcel     "
        }
      },
      "setWkbHash(bytes32)": {
        "details": "update the Well Known Binary Hash of the feature"
      },
      "transferOwnership(address)": {
        "details": "Transfers ownership of the contract to a new account (`newOwner`). Can only be called by the current owner."
      }
    }
  },
  "userdoc": {
    "methods": {
      "constructor": "constuctor",
      "setArea(uint256)": {
        "notice": "set area state variable"
      },
      "setExtAddressId(string)": {
        "notice": "set extAddressId state variable"
      },
      "setLabel(string)": {
        "notice": "set label state variable"
      },
      "setParcelType(string)": {
        "notice": "set setParcelType state variable"
      }
    }
  }
}