{
  "contractName": "LAParcel",
  "abi": [
    {
      "constant": false,
      "inputs": [],
      "name": "getGeometryType",
      "outputs": [
        {
          "name": "",
          "type": "uint8"
        }
      ],
      "payable": false,
      "stateMutability": "nonpayable",
      "type": "function"
    },
    {
      "constant": true,
      "inputs": [],
      "name": "area",
      "outputs": [
        {
          "name": "",
          "type": "uint256"
        }
      ],
      "payable": false,
      "stateMutability": "view",
      "type": "function"
    },
    {
      "constant": true,
      "inputs": [],
      "name": "h3Resolution",
      "outputs": [
        {
          "name": "",
          "type": "uint256"
        }
      ],
      "payable": false,
      "stateMutability": "view",
      "type": "function"
    },
    {
      "constant": true,
      "inputs": [],
      "name": "extAddressId",
      "outputs": [
        {
          "name": "",
          "type": "string"
        }
      ],
      "payable": false,
      "stateMutability": "view",
      "type": "function"
    },
    {
      "constant": true,
      "inputs": [],
      "name": "owner",
      "outputs": [
        {
          "name": "",
          "type": "address"
        }
      ],
      "payable": false,
      "stateMutability": "view",
      "type": "function"
    },
    {
      "constant": true,
      "inputs": [],
      "name": "label",
      "outputs": [
        {
          "name": "",
          "type": "string"
        }
      ],
      "payable": false,
      "stateMutability": "view",
      "type": "function"
    },
    {
      "constant": true,
      "inputs": [],
      "name": "csc",
      "outputs": [
        {
          "name": "",
          "type": "bytes32"
        }
      ],
      "payable": false,
      "stateMutability": "view",
      "type": "function"
    },
    {
      "constant": true,
      "inputs": [],
      "name": "dggsIndex",
      "outputs": [
        {
          "name": "",
          "type": "bytes15"
        }
      ],
      "payable": false,
      "stateMutability": "view",
      "type": "function"
    },
    {
      "constant": true,
      "inputs": [],
      "name": "wkbHash",
      "outputs": [
        {
          "name": "",
          "type": "bytes32"
        }
      ],
      "payable": false,
      "stateMutability": "view",
      "type": "function"
    },
    {
      "inputs": [
        {
          "name": "_dggsIndex",
          "type": "bytes15"
        },
        {
          "name": "_wkbHash",
          "type": "bytes32"
        },
        {
          "name": "_owner",
          "type": "address"
        },
        {
          "name": "_h3Resolution",
          "type": "uint256"
        }
      ],
      "payable": false,
      "stateMutability": "nonpayable",
      "type": "constructor"
    },
    {
      "payable": false,
      "stateMutability": "nonpayable",
      "type": "fallback"
    },
    {
      "constant": false,
      "inputs": [
        {
          "name": "_addrId",
          "type": "string"
        }
      ],
      "name": "setExtAddressId",
      "outputs": [],
      "payable": false,
      "stateMutability": "nonpayable",
      "type": "function"
    },
    {
      "constant": false,
      "inputs": [
        {
          "name": "_lbl",
          "type": "string"
        }
      ],
      "name": "setLabel",
      "outputs": [],
      "payable": false,
      "stateMutability": "nonpayable",
      "type": "function"
    },
    {
      "constant": false,
      "inputs": [
        {
          "name": "_area",
          "type": "uint256"
        }
      ],
      "name": "setArea",
      "outputs": [],
      "payable": false,
      "stateMutability": "nonpayable",
      "type": "function"
    }
  ],
  "bytecode": "0x608060405234801561001057600080fd5b50604051608080610b978339810180604052608081101561003057600080fd5b81019080805190602001909291908051906020019092919080519060200190929190805190602001909291905050508383838383838383600081101580156100785750601081105b6100cd576040517f08c379a000000000000000000000000000000000000000000000000000000000815260040180806020018281038252603c815260200180610b5b603c913960400191505060405180910390fd5b6000600360009054906101000a905050600f60ff161415610156576040517f08c379a000000000000000000000000000000000000000000000000000000000815260040180806020018281038252600f8152602001807f456d7074792064676773496e646578000000000000000000000000000000000081525060200191505060405180910390fd5b6000602060ff1614156101d1576040517f08c379a000000000000000000000000000000000000000000000000000000000815260040180806020018281038252600d8152602001807f456d70747920776b62486173680000000000000000000000000000000000000081525060200191505060405180910390fd5b6000829050806000806101000a81548173ffffffffffffffffffffffffffffffffffffffff021916908373ffffffffffffffffffffffffffffffffffffffff1602179055508360028190555084600360006101000a8154816effffffffffffffffffffffffffffff021916908360881c02179055506000600560006101000a81548160ff0219169083600281111561026557fe5b02179055508160048190555073__CSGeometryLib_________________________637834a61282876040518363ffffffff1660e01b8152600401808373ffffffffffffffffffffffffffffffffffffffff1673ffffffffffffffffffffffffffffffffffffffff1681526020018270ffffffffffffffffffffffffffffffffff191670ffffffffffffffffffffffffffffffffff191681526020019250505060206040518083038186803b15801561031c57600080fd5b505af4158015610330573d6000803e3d6000fd5b505050506040513d602081101561034657600080fd5b810190808051906020019092919050505060018190555050505050506002600560006101000a81548160ff0219169083600281111561038157fe5b021790555050505050505050506107be8061039d6000396000f3fe608060405234801561001057600080fd5b50600436106100b45760003560e01c8063bf53096911610071578063bf530969146102f5578063cb4774c4146103b0578063cf50e60314610433578063d55c3ca314610461578063df1ed5e81461047f578063ecd9fa4a146104c5576100b4565b806317e178091461010557806325f1ceaf146101315780634d41892f146101ec5780637e9c00fc1461020a5780638cde46de146102285780638da5cb5b146102ab575b6040517f08c379a000000000000000000000000000000000000000000000000000000000815260040180806020018281038252602981526020018061076a6029913960400191505060405180910390fd5b61010d6104e3565b6040518082600281111561011d57fe5b60ff16815260200191505060405180910390f35b6101ea6004803603602081101561014757600080fd5b810190808035906020019064010000000081111561016457600080fd5b82018360208201111561017657600080fd5b8035906020019184600183028401116401000000008311171561019857600080fd5b91908080601f016020809104026020016040519081016040528093929190818152602001838380828437600081840152601f19601f8201169050808301925050505050505091929192905050506104fa565b005b6101f4610514565b6040518082815260200191505060405180910390f35b61021261051a565b6040518082815260200191505060405180910390f35b610230610520565b6040518080602001828103825283818151815260200191508051906020019080838360005b83811015610270578082015181840152602081019050610255565b50505050905090810190601f16801561029d5780820380516001836020036101000a031916815260200191505b509250505060405180910390f35b6102b36105be565b604051808273ffffffffffffffffffffffffffffffffffffffff1673ffffffffffffffffffffffffffffffffffffffff16815260200191505060405180910390f35b6103ae6004803603602081101561030b57600080fd5b810190808035906020019064010000000081111561032857600080fd5b82018360208201111561033a57600080fd5b8035906020019184600183028401116401000000008311171561035c57600080fd5b91908080601f016020809104026020016040519081016040528093929190818152602001838380828437600081840152601f19601f8201169050808301925050505050505091929192905050506105e3565b005b6103b86105fd565b6040518080602001828103825283818151815260200191508051906020019080838360005b838110156103f85780820151818401526020810190506103dd565b50505050905090810190601f1680156104255780820380516001836020036101000a031916815260200191505b509250505060405180910390f35b61045f6004803603602081101561044957600080fd5b810190808035906020019092919050505061069b565b005b6104696106a5565b6040518082815260200191505060405180910390f35b6104876106ab565b604051808270ffffffffffffffffffffffffffffffffff191670ffffffffffffffffffffffffffffffffff1916815260200191505060405180910390f35b6104cd6106be565b6040518082815260200191505060405180910390f35b6000600560009054906101000a900460ff16905090565b80600690805190602001906105109291906106c4565b5050565b60085481565b60045481565b60068054600181600116156101000203166002900480601f0160208091040260200160405190810160405280929190818152602001828054600181600116156101000203166002900480156105b65780601f1061058b576101008083540402835291602001916105b6565b820191906000526020600020905b81548152906001019060200180831161059957829003601f168201915b505050505081565b6000809054906101000a900473ffffffffffffffffffffffffffffffffffffffff1681565b80600790805190602001906105f99291906106c4565b5050565b60078054600181600116156101000203166002900480601f0160208091040260200160405190810160405280929190818152602001828054600181600116156101000203166002900480156106935780601f1061066857610100808354040283529160200191610693565b820191906000526020600020905b81548152906001019060200180831161067657829003601f168201915b505050505081565b8060088190555050565b60015481565b600360009054906101000a900460881b81565b60025481565b828054600181600116156101000203166002900490600052602060002090601f016020900481019282601f1061070557805160ff1916838001178555610733565b82800160010185558215610733579182015b82811115610732578251825591602001919060010190610717565b5b5090506107409190610744565b5090565b61076691905b8082111561076257600081600090555060010161074a565b5090565b9056fe7468697320636f6e74726163742073686f756c64206e65766572206861766520612062616c616e6365a165627a7a72305820dccb0adfd494a17f3cea5164fcd53b7edebf871a8da8e92db4626212f2960eaa00294833205265736f6c7574696f6e206d757374206265205f68335265736f6c7574696f6e203e3d30202626205f68335265736f6c7574696f6e203c3136",
  "source": "/**\n * @title Land Administration Parcel\n * @author BENAHMED DAHO Ali\n * @notice a Crypto-Spatial Features registry for land parcels\n * on the etherurm blockchain\n *\n * @dev LA_SPATIAL_UNIT (ISO 19152)\n *\n*/\n\npragma solidity ^0.5.0;\n\nimport './geospatial/CSSurface.sol';\n\ncontract LAParcel is CSSurface {\n\n    //\n    // State variables\n    //\n\n    string public extAddressId;\n    string public label;\n    uint public area;\n\n    //TODO add  parcelType :  Building, Agriculture, Industrial, ...\n\n    //\n    // Functions\n    //\n\n    /**\n    * @notice constuctor\n    * @dev initialize state variables\n    *\n    */\n    constructor (bytes15 _dggsIndex, bytes32 _wkbHash, address _owner, uint _h3Resolution) public\n    CSSurface(_dggsIndex, _wkbHash, _owner, _h3Resolution){\n        //  geomteryType = CSGeometryLib.CSGeometryType.GM_CURVE;\n    }\n\n    /**\n     * @notice set extAddressId state variable\n     * @param _addrId the external address ID\n     *\n     */\n     function setExtAddressId(string memory _addrId) public {\n         extAddressId = _addrId;\n     }\n\n     /**\n     * @notice set label state variable\n     * @param _lbl the parcel label\n     *\n     */function setLabel(string memory _lbl) public {\n         label = _lbl;\n     }\n\n     /**\n     * @notice set area state variable\n     * @param _area the area of the parcel\n     *\n     */function setArea(uint _area) public {\n         area = _area;\n     }\n}\n",
  "sourcePath": "/home/ali/EthProjects/onchain-land-administration/solidity/contracts/LAParcel.sol",
  "compiler": {
    "name": "solc",
    "version": "0.5.8+commit.23d335f2.Emscripten.clang"
  },
  "schemaVersion": "3.0.16",
  "updatedAt": "2019-11-05T19:40:12.970Z",
  "devdoc": {
    "methods": {
      "constructor": {
        "details": "initialize state variables    "
      },
      "getGeometryType()": {
        "details": "getGeometryType"
      },
      "setArea(uint256)": {
        "params": {
          "_area": "the area of the parcel     "
        }
      },
      "setExtAddressId(string)": {
        "params": {
          "_addrId": "the external address ID     "
        }
      },
      "setLabel(string)": {
        "params": {
          "_lbl": "the parcel label     "
        }
      }
    }
  },
  "userdoc": {
    "methods": {
      "constructor": "constuctor",
      "setArea(uint256)": {
        "notice": "set area state variable"
      },
      "setExtAddressId(string)": {
        "notice": "set extAddressId state variable"
      },
      "setLabel(string)": {
        "notice": "set label state variable"
      }
    }
  }
}