{
  "contractName": "LAParcelRegistry",
  "abi": [
    {
      "constant": true,
      "inputs": [],
      "name": "srs",
      "outputs": [
        {
          "name": "",
          "type": "string"
        }
      ],
      "payable": false,
      "stateMutability": "view",
      "type": "function"
    },
    {
      "constant": true,
      "inputs": [],
      "name": "name",
      "outputs": [
        {
          "name": "",
          "type": "string"
        }
      ],
      "payable": false,
      "stateMutability": "view",
      "type": "function"
    },
    {
      "constant": false,
      "inputs": [
        {
          "name": "csc",
          "type": "bytes32"
        }
      ],
      "name": "removeFeature",
      "outputs": [],
      "payable": false,
      "stateMutability": "nonpayable",
      "type": "function"
    },
    {
      "constant": false,
      "inputs": [],
      "name": "unpause",
      "outputs": [],
      "payable": false,
      "stateMutability": "nonpayable",
      "type": "function"
    },
    {
      "constant": true,
      "inputs": [
        {
          "name": "account",
          "type": "address"
        }
      ],
      "name": "isPauser",
      "outputs": [
        {
          "name": "",
          "type": "bool"
        }
      ],
      "payable": false,
      "stateMutability": "view",
      "type": "function"
    },
    {
      "constant": true,
      "inputs": [],
      "name": "paused",
      "outputs": [
        {
          "name": "",
          "type": "bool"
        }
      ],
      "payable": false,
      "stateMutability": "view",
      "type": "function"
    },
    {
      "constant": true,
      "inputs": [],
      "name": "getFeatureCount",
      "outputs": [
        {
          "name": "",
          "type": "uint256"
        }
      ],
      "payable": false,
      "stateMutability": "view",
      "type": "function"
    },
    {
      "constant": true,
      "inputs": [
        {
          "name": "_dggsIndex",
          "type": "bytes15"
        }
      ],
      "name": "dggsIndexExist",
      "outputs": [
        {
          "name": "",
          "type": "bool"
        }
      ],
      "payable": false,
      "stateMutability": "view",
      "type": "function"
    },
    {
      "constant": false,
      "inputs": [],
      "name": "renouncePauser",
      "outputs": [],
      "payable": false,
      "stateMutability": "nonpayable",
      "type": "function"
    },
    {
      "constant": false,
      "inputs": [],
      "name": "renounceOwnership",
      "outputs": [],
      "payable": false,
      "stateMutability": "nonpayable",
      "type": "function"
    },
    {
      "constant": true,
      "inputs": [],
      "name": "h3Resolution",
      "outputs": [
        {
          "name": "",
          "type": "uint256"
        }
      ],
      "payable": false,
      "stateMutability": "view",
      "type": "function"
    },
    {
      "constant": false,
      "inputs": [
        {
          "name": "account",
          "type": "address"
        }
      ],
      "name": "addPauser",
      "outputs": [],
      "payable": false,
      "stateMutability": "nonpayable",
      "type": "function"
    },
    {
      "constant": false,
      "inputs": [],
      "name": "pause",
      "outputs": [],
      "payable": false,
      "stateMutability": "nonpayable",
      "type": "function"
    },
    {
      "constant": true,
      "inputs": [
        {
          "name": "csc",
          "type": "bytes32"
        }
      ],
      "name": "getFeature",
      "outputs": [
        {
          "name": "",
          "type": "address"
        }
      ],
      "payable": false,
      "stateMutability": "view",
      "type": "function"
    },
    {
      "constant": true,
      "inputs": [],
      "name": "owner",
      "outputs": [
        {
          "name": "",
          "type": "address"
        }
      ],
      "payable": false,
      "stateMutability": "view",
      "type": "function"
    },
    {
      "constant": true,
      "inputs": [],
      "name": "isOwner",
      "outputs": [
        {
          "name": "",
          "type": "bool"
        }
      ],
      "payable": false,
      "stateMutability": "view",
      "type": "function"
    },
    {
      "constant": true,
      "inputs": [
        {
          "name": "_dggsIndex",
          "type": "bytes15"
        }
      ],
      "name": "dggsIndexOwner",
      "outputs": [
        {
          "name": "",
          "type": "address"
        }
      ],
      "payable": false,
      "stateMutability": "view",
      "type": "function"
    },
    {
      "constant": false,
      "inputs": [
        {
          "name": "newOwner",
          "type": "address"
        }
      ],
      "name": "transferOwnership",
      "outputs": [],
      "payable": false,
      "stateMutability": "nonpayable",
      "type": "function"
    },
    {
      "inputs": [
        {
          "name": "_name",
          "type": "string"
        },
        {
          "name": "_h3Resolution",
          "type": "uint256"
        },
        {
          "name": "_srs",
          "type": "string"
        }
      ],
      "payable": false,
      "stateMutability": "nonpayable",
      "type": "constructor"
    },
    {
      "payable": false,
      "stateMutability": "nonpayable",
      "type": "fallback"
    },
    {
      "anonymous": false,
      "inputs": [
        {
          "indexed": true,
          "name": "csc",
          "type": "bytes32"
        },
        {
          "indexed": true,
          "name": "dggsIndex",
          "type": "bytes15"
        },
        {
          "indexed": false,
          "name": "wkbHash",
          "type": "bytes32"
        },
        {
          "indexed": false,
          "name": "addr",
          "type": "string"
        },
        {
          "indexed": false,
          "name": "lbl",
          "type": "string"
        },
        {
          "indexed": false,
          "name": "area",
          "type": "uint256"
        },
        {
          "indexed": false,
          "name": "parcelType",
          "type": "string"
        },
        {
          "indexed": false,
          "name": "owner",
          "type": "address"
        }
      ],
      "name": "LogParcelClaimed",
      "type": "event"
    },
    {
      "anonymous": false,
      "inputs": [
        {
          "indexed": false,
          "name": "name",
          "type": "string"
        },
        {
          "indexed": true,
          "name": "csc",
          "type": "bytes32"
        },
        {
          "indexed": true,
          "name": "dggsIndex",
          "type": "bytes15"
        },
        {
          "indexed": false,
          "name": "wkbHash",
          "type": "bytes32"
        },
        {
          "indexed": false,
          "name": "owner",
          "type": "address"
        }
      ],
      "name": "LogNewFeatureAdded",
      "type": "event"
    },
    {
      "anonymous": false,
      "inputs": [
        {
          "indexed": false,
          "name": "name",
          "type": "string"
        },
        {
          "indexed": true,
          "name": "csc",
          "type": "bytes32"
        },
        {
          "indexed": true,
          "name": "dggsIndex",
          "type": "bytes15"
        },
        {
          "indexed": false,
          "name": "killer",
          "type": "address"
        }
      ],
      "name": "LogFeatureRemoved",
      "type": "event"
    },
    {
      "anonymous": false,
      "inputs": [
        {
          "indexed": true,
          "name": "previousOwner",
          "type": "address"
        },
        {
          "indexed": true,
          "name": "newOwner",
          "type": "address"
        }
      ],
      "name": "OwnershipTransferred",
      "type": "event"
    },
    {
      "anonymous": false,
      "inputs": [
        {
          "indexed": false,
          "name": "account",
          "type": "address"
        }
      ],
      "name": "Paused",
      "type": "event"
    },
    {
      "anonymous": false,
      "inputs": [
        {
          "indexed": false,
          "name": "account",
          "type": "address"
        }
      ],
      "name": "Unpaused",
      "type": "event"
    },
    {
      "anonymous": false,
      "inputs": [
        {
          "indexed": true,
          "name": "account",
          "type": "address"
        }
      ],
      "name": "PauserAdded",
      "type": "event"
    },
    {
      "anonymous": false,
      "inputs": [
        {
          "indexed": true,
          "name": "account",
          "type": "address"
        }
      ],
      "name": "PauserRemoved",
      "type": "event"
    },
    {
      "constant": false,
      "inputs": [
        {
          "name": "dggsIndex",
          "type": "bytes15"
        },
        {
          "name": "wkbHash",
          "type": "bytes32"
        },
        {
          "name": "extAddr",
          "type": "string"
        },
        {
          "name": "label",
          "type": "string"
        },
        {
          "name": "area",
          "type": "uint256"
        },
        {
          "name": "landUseCode",
          "type": "string"
        },
        {
          "name": "cadastralType",
          "type": "uint8"
        }
      ],
      "name": "claimParcel",
      "outputs": [
        {
          "name": "",
          "type": "bytes32"
        }
      ],
      "payable": false,
      "stateMutability": "nonpayable",
      "type": "function"
    }
  ],
  "bytecode": "0x608060405260006005553480156200001657600080fd5b506040516200508438038062005084833981018060405260608110156200003c57600080fd5b8101908080516401000000008111156200005557600080fd5b828101905060208101848111156200006c57600080fd5b81518560018202830111640100000000821117156200008a57600080fd5b5050929190602001805190602001909291908051640100000000811115620000b157600080fd5b82810190506020810184811115620000c857600080fd5b8151856001820283011164010000000082111715620000e657600080fd5b50509291905050508282826200011162000105620003b060201b60201c565b620003b860201b60201c565b6000600160006101000a81548160ff0219169083151502179055506200013c620003b060201b60201c565b6001806101000a81548173ffffffffffffffffffffffffffffffffffffffff021916908373ffffffffffffffffffffffffffffffffffffffff1602179055506001809054906101000a900473ffffffffffffffffffffffffffffffffffffffff1673ffffffffffffffffffffffffffffffffffffffff16600073ffffffffffffffffffffffffffffffffffffffff167f8be0079c531659141344cd1fd0a4f28419497f9722a3daafe3b4186f6b6457e060405160405180910390a360008210158015620002095750601082105b62000260576040517f08c379a000000000000000000000000000000000000000000000000000000000815260040180806020018281038252603c81526020018062005026603c913960400191505060405180910390fd5b600060f81b836000815181106200027357fe5b602001015160f81c60f81b7effffffffffffffffffffffffffffffffffffffffffffffffffffffffffffff1916141562000315576040517f08c379a000000000000000000000000000000000000000000000000000000000815260040180806020018281038252600a8152602001807f456d707479206e616d650000000000000000000000000000000000000000000081525060200191505060405180910390fd5b81600281905550826003908051906020019062000334929190620005dd565b5080600490805190602001906200034d929190620005dd565b5060006005819055505050506040518060400160405280600f81526020017f50617263656c205265676973747279000000000000000000000000000000000081525060039080519060200190620003a6929190620005dd565b505050506200068c565b600033905090565b620003d38160006200041960201b620026551790919060201c565b8073ffffffffffffffffffffffffffffffffffffffff167f6719d08c1888103bea251a4ed56406bd0c3e69723c8a1686e017e7bbe159b6f860405160405180910390a250565b6200042b8282620004fd60201b60201c565b156200049f576040517f08c379a000000000000000000000000000000000000000000000000000000000815260040180806020018281038252601f8152602001807f526f6c65733a206163636f756e7420616c72656164792068617320726f6c650081525060200191505060405180910390fd5b60018260000160008373ffffffffffffffffffffffffffffffffffffffff1673ffffffffffffffffffffffffffffffffffffffff16815260200190815260200160002060006101000a81548160ff0219169083151502179055505050565b60008073ffffffffffffffffffffffffffffffffffffffff168273ffffffffffffffffffffffffffffffffffffffff16141562000586576040517f08c379a0000000000000000000000000000000000000000000000000000000008152600401808060200182810382526022815260200180620050626022913960400191505060405180910390fd5b8260000160008373ffffffffffffffffffffffffffffffffffffffff1673ffffffffffffffffffffffffffffffffffffffff16815260200190815260200160002060009054906101000a900460ff16905092915050565b828054600181600116156101000203166002900490600052602060002090601f016020900481019282601f106200062057805160ff191683800117855562000651565b8280016001018555821562000651579182015b828111156200065057825182559160200191906001019062000633565b5b50905062000660919062000664565b5090565b6200068991905b80821115620006855760008160009055506001016200066b565b5090565b90565b61498a806200069c6000396000f3fe60806040523480156200001157600080fd5b50600436106200013c5760003560e01c8063715018a611620000bd5780638c4ee9a4116200007b5780638c4ee9a414620004d75780638da5cb5b146200071f5780638f32d59b146200076b578063abafb898146200078f578063f2fde38b1462000814576200013c565b8063715018a614620003e75780637e9c00fc14620003f357806382dc1ec414620004135780638456cb59146200045a5780638b12dbaa1462000466576200013c565b806346fbf68e116200010b57806346fbf68e14620002db5780635c975abb146200033a5780636106f192146200035e5780636dde6a4f146200037e5780636ef8d66d14620003db576200013c565b806303229556146200018e57806306fdde0314620002165780633d399576146200029e5780633f4ba83a14620002cf575b6040517f08c379a0000000000000000000000000000000000000000000000000000000008152600401808060200182810382526029815260200180620048ca6029913960400191505060405180910390fd5b620001986200085b565b6040518080602001828103825283818151815260200191508051906020019080838360005b83811015620001da578082015181840152602081019050620001bd565b50505050905090810190601f168015620002085780820380516001836020036101000a031916815260200191505b509250505060405180910390f35b62000220620008fd565b6040518080602001828103825283818151815260200191508051906020019080838360005b838110156200026257808201518184015260208101905062000245565b50505050905090810190601f168015620002905780820380516001836020036101000a031916815260200191505b509250505060405180910390f35b620002cd60048036036020811015620002b657600080fd5b81019080803590602001909291905050506200099f565b005b620002d962000edf565b005b6200032060048036036020811015620002f357600080fd5b81019080803573ffffffffffffffffffffffffffffffffffffffff16906020019092919050505062001056565b604051808215151515815260200191505060405180910390f35b6200034462001075565b604051808215151515815260200191505060405180910390f35b620003686200108c565b6040518082815260200191505060405180910390f35b620003c1600480360360208110156200039657600080fd5b81019080803570ffffffffffffffffffffffffffffffffff1916906020019092919050505062001096565b604051808215151515815260200191505060405180910390f35b620003e5620010ef565b005b620003f162001105565b005b620003fd62001241565b6040518082815260200191505060405180910390f35b62000458600480360360208110156200042b57600080fd5b81019080803573ffffffffffffffffffffffffffffffffffffffff16906020019092919050505062001247565b005b62000464620012c0565b005b62000495600480360360208110156200047e57600080fd5b810190808035906020019092919050505062001437565b604051808273ffffffffffffffffffffffffffffffffffffffff1673ffffffffffffffffffffffffffffffffffffffff16815260200191505060405180910390f35b62000709600480360360e0811015620004ef57600080fd5b81019080803570ffffffffffffffffffffffffffffffffff1916906020019092919080359060200190929190803590602001906401000000008111156200053557600080fd5b8201836020820111156200054857600080fd5b803590602001918460018302840111640100000000831117156200056b57600080fd5b91908080601f016020809104026020016040519081016040528093929190818152602001838380828437600081840152601f19601f82011690508083019250505050505050919291929080359060200190640100000000811115620005cf57600080fd5b820183602082011115620005e257600080fd5b803590602001918460018302840111640100000000831117156200060557600080fd5b91908080601f016020809104026020016040519081016040528093929190818152602001838380828437600081840152601f19601f82011690508083019250505050505050919291929080359060200190929190803590602001906401000000008111156200067357600080fd5b8201836020820111156200068657600080fd5b80359060200191846001830284011164010000000083111715620006a957600080fd5b91908080601f016020809104026020016040519081016040528093929190818152602001838380828437600081840152601f19601f820116905080830192505050505050509192919290803560ff16906020019092919050505062001531565b6040518082815260200191505060405180910390f35b6200072962001f9c565b604051808273ffffffffffffffffffffffffffffffffffffffff1673ffffffffffffffffffffffffffffffffffffffff16815260200191505060405180910390f35b6200077562001fc5565b604051808215151515815260200191505060405180910390f35b620007d260048036036020811015620007a757600080fd5b81019080803570ffffffffffffffffffffffffffffffffff1916906020019092919050505062002025565b604051808273ffffffffffffffffffffffffffffffffffffffff1673ffffffffffffffffffffffffffffffffffffffff16815260200191505060405180910390f35b62000859600480360360208110156200082c57600080fd5b81019080803573ffffffffffffffffffffffffffffffffffffffff1690602001909291905050506200208a565b005b60048054600181600116156101000203166002900480601f016020809104026020016040519081016040528092919081815260200182805460018160011615610100020316600290048015620008f55780601f10620008c957610100808354040283529160200191620008f5565b820191906000526020600020905b815481529060010190602001808311620008d757829003601f168201915b505050505081565b60038054600181600116156101000203166002900480601f016020809104026020016040519081016040528092919081815260200182805460018160011615610100020316600290048015620009975780601f106200096b5761010080835404028352916020019162000997565b820191906000526020600020905b8154815290600101906020018083116200097957829003601f168201915b505050505081565b80600073ffffffffffffffffffffffffffffffffffffffff166006600083815260200190815260200160002060009054906101000a900473ffffffffffffffffffffffffffffffffffffffff1673ffffffffffffffffffffffffffffffffffffffff16141562000a5b576040517f08c379a0000000000000000000000000000000000000000000000000000000008152600401808060200182810382526026815260200180620048a46026913960400191505060405180910390fd5b62000a6562001075565b1562000ad9576040517f08c379a00000000000000000000000000000000000000000000000000000000081526004018080602001828103825260128152602001807f436f6e747261637420697320706175736564000000000000000000000000000081525060200191505060405180910390fd5b600062000ae68362001437565b90508073ffffffffffffffffffffffffffffffffffffffff166324d7806c336040518263ffffffff1660e01b8152600401808273ffffffffffffffffffffffffffffffffffffffff1673ffffffffffffffffffffffffffffffffffffffff16815260200191505060206040518083038186803b15801562000b6657600080fd5b505afa15801562000b7b573d6000803e3d6000fd5b505050506040513d602081101562000b9257600080fd5b810190808051906020019092919050505062000bfa576040517f08c379a0000000000000000000000000000000000000000000000000000000008152600401808060200182810382526029815260200180620049146029913960400191505060405180910390fd5b60008173ffffffffffffffffffffffffffffffffffffffff1663572982f56040518163ffffffff1660e01b815260040160206040518083038186803b15801562000c4357600080fd5b505afa15801562000c58573d6000803e3d6000fd5b505050506040513d602081101562000c6f57600080fd5b810190808051906020019092919050505090506000600760008370ffffffffffffffffffffffffffffffffff191670ffffffffffffffffffffffffffffffffff1916815260200190815260200160002060006101000a81548160ff0219169083151502179055506000600860008370ffffffffffffffffffffffffffffffffff191670ffffffffffffffffffffffffffffffffff1916815260200190815260200160002060006101000a81548173ffffffffffffffffffffffffffffffffffffffff021916908373ffffffffffffffffffffffffffffffffffffffff16021790555062000d6960016005546200211590919063ffffffff16565b6005819055508070ffffffffffffffffffffffffffffffffff1916847f9cb70ff2a2081c021be0a9904a5fd42d4bf1e0102e76dec7d2ece79cd0e30b1560033360405180806020018373ffffffffffffffffffffffffffffffffffffffff1673ffffffffffffffffffffffffffffffffffffffff16815260200182810382528481815460018160011615610100020316600290048152602001915080546001816001161561010002031660029004801562000e685780601f1062000e3c5761010080835404028352916020019162000e68565b820191906000526020600020905b81548152906001019060200180831162000e4a57829003601f168201915b5050935050505060405180910390a38173ffffffffffffffffffffffffffffffffffffffff166341c0e1b56040518163ffffffff1660e01b8152600401600060405180830381600087803b15801562000ec057600080fd5b505af115801562000ed5573d6000803e3d6000fd5b5050505050505050565b62000ef362000eed62002161565b62001056565b62000f4a576040517f08c379a00000000000000000000000000000000000000000000000000000000081526004018080602001828103825260308152602001806200484e6030913960400191505060405180910390fd5b600160009054906101000a900460ff1662000fcd576040517f08c379a00000000000000000000000000000000000000000000000000000000081526004018080602001828103825260148152602001807f5061757361626c653a206e6f742070617573656400000000000000000000000081525060200191505060405180910390fd5b6000600160006101000a81548160ff0219169083151502179055507f5db9ee0a495bf2e6ff9c91a7834c1ba4fdd244a5e8aa4e537bd38aeae4b073aa6200101362002161565b604051808273ffffffffffffffffffffffffffffffffffffffff1673ffffffffffffffffffffffffffffffffffffffff16815260200191505060405180910390a1565b60006200106e8260006200216990919063ffffffff16565b9050919050565b6000600160009054906101000a900460ff16905090565b6000600554905090565b600060011515600760008470ffffffffffffffffffffffffffffffffff191670ffffffffffffffffffffffffffffffffff1916815260200190815260200160002060009054906101000a900460ff161515149050919050565b62001103620010fd62002161565b62002249565b565b6200110f62001fc5565b62001182576040517f08c379a00000000000000000000000000000000000000000000000000000000081526004018080602001828103825260208152602001807f4f776e61626c653a2063616c6c6572206973206e6f7420746865206f776e657281525060200191505060405180910390fd5b600073ffffffffffffffffffffffffffffffffffffffff166001809054906101000a900473ffffffffffffffffffffffffffffffffffffffff1673ffffffffffffffffffffffffffffffffffffffff167f8be0079c531659141344cd1fd0a4f28419497f9722a3daafe3b4186f6b6457e060405160405180910390a360006001806101000a81548173ffffffffffffffffffffffffffffffffffffffff021916908373ffffffffffffffffffffffffffffffffffffffff160217905550565b60025481565b6200125b6200125562002161565b62001056565b620012b2576040517f08c379a00000000000000000000000000000000000000000000000000000000081526004018080602001828103825260308152602001806200484e6030913960400191505060405180910390fd5b620012bd81620022a5565b50565b620012d4620012ce62002161565b62001056565b6200132b576040517f08c379a00000000000000000000000000000000000000000000000000000000081526004018080602001828103825260308152602001806200484e6030913960400191505060405180910390fd5b600160009054906101000a900460ff1615620013af576040517f08c379a00000000000000000000000000000000000000000000000000000000081526004018080602001828103825260108152602001807f5061757361626c653a207061757365640000000000000000000000000000000081525060200191505060405180910390fd5b60018060006101000a81548160ff0219169083151502179055507f62e78cea01bee320cd4e420270b5ea74000d11b0c9f74754ebdbfc544b05a258620013f462002161565b604051808273ffffffffffffffffffffffffffffffffffffffff1673ffffffffffffffffffffffffffffffffffffffff16815260200191505060405180910390a1565b600081600073ffffffffffffffffffffffffffffffffffffffff166006600083815260200190815260200160002060009054906101000a900473ffffffffffffffffffffffffffffffffffffffff1673ffffffffffffffffffffffffffffffffffffffff161415620014f5576040517f08c379a0000000000000000000000000000000000000000000000000000000008152600401808060200182810382526026815260200180620048a46026913960400191505060405180910390fd5b6006600084815260200190815260200160002060009054906101000a900473ffffffffffffffffffffffffffffffffffffffff16915050919050565b60008787336200154062001075565b15620015b4576040517f08c379a00000000000000000000000000000000000000000000000000000000081526004018080602001828103825260128152602001807f436f6e747261637420697320706175736564000000000000000000000000000081525060200191505060405180910390fd5b6000600f60ff16141562001630576040517f08c379a000000000000000000000000000000000000000000000000000000000815260040180806020018281038252600f8152602001807f456d7074792064676773496e646578000000000000000000000000000000000081525060200191505060405180910390fd5b60001515600760008570ffffffffffffffffffffffffffffffffff191670ffffffffffffffffffffffffffffffffff1916815260200190815260200160002060009054906101000a900460ff16151514620016f3576040517f08c379a00000000000000000000000000000000000000000000000000000000081526004018080602001828103825260188152602001807f4447475320496e64657820616c7265616479206578697374000000000000000081525060200191505060405180910390fd5b6000602060ff1614156200176f576040517f08c379a000000000000000000000000000000000000000000000000000000000815260040180806020018281038252600d8152602001807f456d70747920776b62486173680000000000000000000000000000000000000081525060200191505060405180910390fd5b60008b8b33600254604051620017859062002733565b808570ffffffffffffffffffffffffffffffffff191670ffffffffffffffffffffffffffffffffff191681526020018481526020018373ffffffffffffffffffffffffffffffffffffffff1673ffffffffffffffffffffffffffffffffffffffff168152602001828152602001945050505050604051809103906000f08015801562001815573d6000803e3d6000fd5b50905060008173ffffffffffffffffffffffffffffffffffffffff1663b85a0edd6040518163ffffffff1660e01b815260040160206040518083038186803b1580156200186157600080fd5b505afa15801562001876573d6000803e3d6000fd5b505050506040513d60208110156200188d57600080fd5b81019080805190602001909291905050509050816006600083815260200190815260200160002060006101000a81548173ffffffffffffffffffffffffffffffffffffffff021916908373ffffffffffffffffffffffffffffffffffffffff1602179055508173ffffffffffffffffffffffffffffffffffffffff166303d29d908b8d8b8d8c6040518663ffffffff1660e01b8152600401808060200180602001806020018681526020018560018111156200194557fe5b60ff168152602001848103845289818151815260200191508051906020019080838360005b83811015620019875780820151818401526020810190506200196a565b50505050905090810190601f168015620019b55780820380516001836020036101000a031916815260200191505b50848103835288818151815260200191508051906020019080838360005b83811015620019f0578082015181840152602081019050620019d3565b50505050905090810190601f16801562001a1e5780820380516001836020036101000a031916815260200191505b50848103825287818151815260200191508051906020019080838360005b8381101562001a5957808201518184015260208101905062001a3c565b50505050905090810190601f16801562001a875780820380516001836020036101000a031916815260200191505b5098505050505050505050600060405180830381600087803b15801562001aad57600080fd5b505af115801562001ac2573d6000803e3d6000fd5b505050508c70ffffffffffffffffffffffffffffffffff1916817f48df97763084cc6911df6558a5951632c71de0a9d885f5dd98525083918f6c448e8e8e8e8e33604051808781526020018060200180602001868152602001806020018573ffffffffffffffffffffffffffffffffffffffff1673ffffffffffffffffffffffffffffffffffffffff168152602001848103845289818151815260200191508051906020019080838360005b8381101562001b8b57808201518184015260208101905062001b6e565b50505050905090810190601f16801562001bb95780820380516001836020036101000a031916815260200191505b50848103835288818151815260200191508051906020019080838360005b8381101562001bf457808201518184015260208101905062001bd7565b50505050905090810190601f16801562001c225780820380516001836020036101000a031916815260200191505b50848103825286818151815260200191508051906020019080838360005b8381101562001c5d57808201518184015260208101905062001c40565b50505050905090810190601f16801562001c8b5780820380516001836020036101000a031916815260200191505b50995050505050505050505060405180910390a380955050506001600760008570ffffffffffffffffffffffffffffffffff191670ffffffffffffffffffffffffffffffffff1916815260200190815260200160002060006101000a81548160ff02191690831515021790555080600860008570ffffffffffffffffffffffffffffffffff191670ffffffffffffffffffffffffffffffffff1916815260200190815260200160002060006101000a81548173ffffffffffffffffffffffffffffffffffffffff021916908373ffffffffffffffffffffffffffffffffffffffff160217905550600073__CSGeometryLib_________________________637834a61283866040518363ffffffff1660e01b8152600401808373ffffffffffffffffffffffffffffffffffffffff1673ffffffffffffffffffffffffffffffffffffffff1681526020018270ffffffffffffffffffffffffffffffffff191670ffffffffffffffffffffffffffffffffff191681526020019250505060206040518083038186803b15801562001e2057600080fd5b505af415801562001e35573d6000803e3d6000fd5b505050506040513d602081101562001e4c57600080fd5b810190808051906020019092919050505090508370ffffffffffffffffffffffffffffffffff1916817f6025eef7c116bf3ac54c6c1b14f3dc851d6931e5d65aa525cd2bfe9078b28f3d6003868660405180806020018481526020018373ffffffffffffffffffffffffffffffffffffffff1673ffffffffffffffffffffffffffffffffffffffff16815260200182810382528581815460018160011615610100020316600290048152602001915080546001816001161561010002031660029004801562001f5f5780601f1062001f335761010080835404028352916020019162001f5f565b820191906000526020600020905b81548152906001019060200180831162001f4157829003601f168201915b505094505050505060405180910390a362001f8760016005546200230190919063ffffffff16565b60058190555050505050979650505050505050565b60006001809054906101000a900473ffffffffffffffffffffffffffffffffffffffff16905090565b60006001809054906101000a900473ffffffffffffffffffffffffffffffffffffffff1673ffffffffffffffffffffffffffffffffffffffff166200200962002161565b73ffffffffffffffffffffffffffffffffffffffff1614905090565b6000600860008370ffffffffffffffffffffffffffffffffff191670ffffffffffffffffffffffffffffffffff1916815260200190815260200160002060009054906101000a900473ffffffffffffffffffffffffffffffffffffffff169050919050565b6200209462001fc5565b62002107576040517f08c379a00000000000000000000000000000000000000000000000000000000081526004018080602001828103825260208152602001807f4f776e61626c653a2063616c6c6572206973206e6f7420746865206f776e657281525060200191505060405180910390fd5b62002112816200238a565b50565b60006200215983836040518060400160405280601e81526020017f536166654d6174683a207375627472616374696f6e206f766572666c6f770000815250620024d0565b905092915050565b600033905090565b60008073ffffffffffffffffffffffffffffffffffffffff168273ffffffffffffffffffffffffffffffffffffffff161415620021f2576040517f08c379a00000000000000000000000000000000000000000000000000000000081526004018080602001828103825260228152602001806200493d6022913960400191505060405180910390fd5b8260000160008373ffffffffffffffffffffffffffffffffffffffff1673ffffffffffffffffffffffffffffffffffffffff16815260200190815260200160002060009054906101000a900460ff16905092915050565b6200225f8160006200259490919063ffffffff16565b8073ffffffffffffffffffffffffffffffffffffffff167fcd265ebaf09df2871cc7bd4133404a235ba12eff2041bb89d9c714a2621c7c7e60405160405180910390a250565b620022bb8160006200265590919063ffffffff16565b8073ffffffffffffffffffffffffffffffffffffffff167f6719d08c1888103bea251a4ed56406bd0c3e69723c8a1686e017e7bbe159b6f860405160405180910390a250565b60008082840190508381101562002380576040517f08c379a000000000000000000000000000000000000000000000000000000000815260040180806020018281038252601b8152602001807f536166654d6174683a206164646974696f6e206f766572666c6f77000000000081525060200191505060405180910390fd5b8091505092915050565b600073ffffffffffffffffffffffffffffffffffffffff168173ffffffffffffffffffffffffffffffffffffffff16141562002412576040517f08c379a00000000000000000000000000000000000000000000000000000000081526004018080602001828103825260268152602001806200487e6026913960400191505060405180910390fd5b8073ffffffffffffffffffffffffffffffffffffffff166001809054906101000a900473ffffffffffffffffffffffffffffffffffffffff1673ffffffffffffffffffffffffffffffffffffffff167f8be0079c531659141344cd1fd0a4f28419497f9722a3daafe3b4186f6b6457e060405160405180910390a3806001806101000a81548173ffffffffffffffffffffffffffffffffffffffff021916908373ffffffffffffffffffffffffffffffffffffffff16021790555050565b600083831115829062002581576040517f08c379a00000000000000000000000000000000000000000000000000000000081526004018080602001828103825283818151815260200191508051906020019080838360005b838110156200254557808201518184015260208101905062002528565b50505050905090810190601f168015620025735780820380516001836020036101000a031916815260200191505b509250505060405180910390fd5b5060008385039050809150509392505050565b620025a0828262002169565b620025f7576040517f08c379a0000000000000000000000000000000000000000000000000000000008152600401808060200182810382526021815260200180620048f36021913960400191505060405180910390fd5b60008260000160008373ffffffffffffffffffffffffffffffffffffffff1673ffffffffffffffffffffffffffffffffffffffff16815260200190815260200160002060006101000a81548160ff0219169083151502179055505050565b62002661828262002169565b15620026d5576040517f08c379a000000000000000000000000000000000000000000000000000000000815260040180806020018281038252601f8152602001807f526f6c65733a206163636f756e7420616c72656164792068617320726f6c650081525060200191505060405180910390fd5b60018260000160008373ffffffffffffffffffffffffffffffffffffffff1673ffffffffffffffffffffffffffffffffffffffff16815260200190815260200160002060006101000a81548160ff0219169083151502179055505050565b61210c80620027428339019056fe60806040523480156200001157600080fd5b506040516080806200210c833981018060405260808110156200003357600080fd5b810190808051906020019092919080519060200190929190805190602001909291908051906020019092919050505083838383838383836200007a6200054960201b60201c565b6000806101000a81548173ffffffffffffffffffffffffffffffffffffffff021916908373ffffffffffffffffffffffffffffffffffffffff1602179055506000809054906101000a900473ffffffffffffffffffffffffffffffffffffffff1673ffffffffffffffffffffffffffffffffffffffff16600073ffffffffffffffffffffffffffffffffffffffff167f8be0079c531659141344cd1fd0a4f28419497f9722a3daafe3b4186f6b6457e060405160405180910390a360008110158015620001475750601081105b6200019e576040517f08c379a000000000000000000000000000000000000000000000000000000000815260040180806020018281038252603c815260200180620020ae603c913960400191505060405180910390fd5b600060f81b846000600f8110620001b157fe5b1a60f81b7effffffffffffffffffffffffffffffffffffffffffffffffffffffffffffff191614156200024c576040517f08c379a000000000000000000000000000000000000000000000000000000000815260040180806020018281038252600f8152602001807f456d7074792064676773496e646578000000000000000000000000000000000081525060200191505060405180910390fd5b600060f81b836000602081106200025f57fe5b1a60f81b7effffffffffffffffffffffffffffffffffffffffffffffffffffffffffffff19161415620002fa576040517f08c379a000000000000000000000000000000000000000000000000000000000815260040180806020018281038252600d8152602001807f456d70747920776b62486173680000000000000000000000000000000000000081525060200191505060405180910390fd5b6200030b826200055160201b60201c565b62000326826006620005e860201b620015541790919060201c565b62000341336006620005e860201b620015541790919060201c565b8260028190555083600360006101000a8154816effffffffffffffffffffffffffffff021916908360881c02179055506000600560006101000a81548160ff021916908360028111156200039157fe5b02179055508060048190555073__CSGeometryLib_________________________637834a61283866040518363ffffffff1660e01b8152600401808373ffffffffffffffffffffffffffffffffffffffff1673ffffffffffffffffffffffffffffffffffffffff1681526020018270ffffffffffffffffffffffffffffffffff191670ffffffffffffffffffffffffffffffffff191681526020019250505060206040518083038186803b1580156200044957600080fd5b505af41580156200045e573d6000803e3d6000fd5b505050506040513d60208110156200047557600080fd5b81019080805190602001909291905050506001819055506200049c620006cc60201b60201c565b73ffffffffffffffffffffffffffffffffffffffff16600360009054906101000a900460881b70ffffffffffffffffffffffffffffffffff19166001547f025eef9175b0635cefa846add44300456401183653e2b56e06ff204282d087d96002546040518082815260200191505060405180910390a4505050506002600560006101000a81548160ff021916908360028111156200053657fe5b0217905550505050505050505062000981565b600033905090565b62000561620006f560201b60201c565b620005d4576040517f08c379a00000000000000000000000000000000000000000000000000000000081526004018080602001828103825260208152602001807f4f776e61626c653a2063616c6c6572206973206e6f7420746865206f776e657281525060200191505060405180910390fd5b620005e5816200075b60201b60201c565b50565b620005fa8282620008a160201b60201c565b156200066e576040517f08c379a000000000000000000000000000000000000000000000000000000000815260040180806020018281038252601f8152602001807f526f6c65733a206163636f756e7420616c72656164792068617320726f6c650081525060200191505060405180910390fd5b60018260000160008373ffffffffffffffffffffffffffffffffffffffff1673ffffffffffffffffffffffffffffffffffffffff16815260200190815260200160002060006101000a81548160ff0219169083151502179055505050565b60008060009054906101000a900473ffffffffffffffffffffffffffffffffffffffff16905090565b60008060009054906101000a900473ffffffffffffffffffffffffffffffffffffffff1673ffffffffffffffffffffffffffffffffffffffff166200073f6200054960201b60201c565b73ffffffffffffffffffffffffffffffffffffffff1614905090565b600073ffffffffffffffffffffffffffffffffffffffff168173ffffffffffffffffffffffffffffffffffffffff161415620007e3576040517f08c379a0000000000000000000000000000000000000000000000000000000008152600401808060200182810382526026815260200180620020886026913960400191505060405180910390fd5b8073ffffffffffffffffffffffffffffffffffffffff166000809054906101000a900473ffffffffffffffffffffffffffffffffffffffff1673ffffffffffffffffffffffffffffffffffffffff167f8be0079c531659141344cd1fd0a4f28419497f9722a3daafe3b4186f6b6457e060405160405180910390a3806000806101000a81548173ffffffffffffffffffffffffffffffffffffffff021916908373ffffffffffffffffffffffffffffffffffffffff16021790555050565b60008073ffffffffffffffffffffffffffffffffffffffff168273ffffffffffffffffffffffffffffffffffffffff1614156200092a576040517f08c379a0000000000000000000000000000000000000000000000000000000008152600401808060200182810382526022815260200180620020ea6022913960400191505060405180910390fd5b8260000160008373ffffffffffffffffffffffffffffffffffffffff1673ffffffffffffffffffffffffffffffffffffffff16815260200190815260200160002060009054906101000a900460ff16905092915050565b6116f780620009916000396000f3fe608060405234801561001057600080fd5b50600436106101165760003560e01c8063572982f5116100a2578063b85a0edd11610071578063b85a0edd146106fc578063bf5309691461071a578063cf50e60314610793578063f2fde38b146107c1578063f8697beb1461080557610116565b8063572982f514610640578063715018a6146106865780638da5cb5b146106905780638f32d59b146106da57610116565b806317e17809116100e957806317e178091461053b57806324d7806c146105675780632befd03c146105c357806341c0e1b514610605578063526b8a731461060f57610116565b806303d29d901461016757806303d35400146102a157806306ab28bf1461031a5780631383e2ad14610498575b6040517f08c379a00000000000000000000000000000000000000000000000000000000081526004018080602001828103825260298152602001806116816029913960400191505060405180910390fd5b61029f600480360360a081101561017d57600080fd5b810190808035906020019064010000000081111561019a57600080fd5b8201836020820111156101ac57600080fd5b803590602001918460018302840111640100000000831117156101ce57600080fd5b9091929391929390803590602001906401000000008111156101ef57600080fd5b82018360208201111561020157600080fd5b8035906020019184600183028401116401000000008311171561022357600080fd5b90919293919293908035906020019064010000000081111561024457600080fd5b82018360208201111561025657600080fd5b8035906020019184600183028401116401000000008311171561027857600080fd5b909192939192939080359060200190929190803560ff16906020019092919050505061087e565b005b610318600480360360208110156102b757600080fd5b81019080803590602001906401000000008111156102d457600080fd5b8201836020820111156102e657600080fd5b8035906020019184600183028401116401000000008311171561030857600080fd5b9091929391929390505050610953565b005b6103226109d4565b6040518087815260200180602001806020018060200186815260200185600181111561034a57fe5b60ff168152602001848103845289818151815260200191508051906020019080838360005b8381101561038a57808201518184015260208101905061036f565b50505050905090810190601f1680156103b75780820380516001836020036101000a031916815260200191505b50848103835288818151815260200191508051906020019080838360005b838110156103f05780820151818401526020810190506103d5565b50505050905090810190601f16801561041d5780820380516001836020036101000a031916815260200191505b50848103825287818151815260200191508051906020019080838360005b8381101561045657808201518184015260208101905061043b565b50505050905090810190601f1680156104835780820380516001836020036101000a031916815260200191505b50995050505050505050505060405180910390f35b6104a0610be2565b604051808781526020018670ffffffffffffffffffffffffffffffffff191670ffffffffffffffffffffffffffffffffff191681526020018581526020018473ffffffffffffffffffffffffffffffffffffffff1673ffffffffffffffffffffffffffffffffffffffff16815260200183815260200182600281111561052257fe5b60ff168152602001965050505050505060405180910390f35b610543610c30565b6040518082600281111561055357fe5b60ff16815260200191505060405180910390f35b6105a96004803603602081101561057d57600080fd5b81019080803573ffffffffffffffffffffffffffffffffffffffff169060200190929190505050610c47565b604051808215151515815260200191505060405180910390f35b6105ef600480360360208110156105d957600080fd5b8101908080359060200190929190505050610c64565b6040518082815260200191505060405180910390f35b61060d610d8c565b005b61063e6004803603602081101561062557600080fd5b81019080803560ff169060200190929190505050610e16565b005b610648610ea7565b604051808270ffffffffffffffffffffffffffffffffff191670ffffffffffffffffffffffffffffffffff1916815260200191505060405180910390f35b61068e610ebe565b005b610698610ff7565b604051808273ffffffffffffffffffffffffffffffffffffffff1673ffffffffffffffffffffffffffffffffffffffff16815260200191505060405180910390f35b6106e2611020565b604051808215151515815260200191505060405180910390f35b61070461107e565b6040518082815260200191505060405180910390f35b6107916004803603602081101561073057600080fd5b810190808035906020019064010000000081111561074d57600080fd5b82018360208201111561075f57600080fd5b8035906020019184600183028401116401000000008311171561078157600080fd5b9091929391929390505050611088565b005b6107bf600480360360208110156107a957600080fd5b8101908080359060200190929190505050611109565b005b610803600480360360208110156107d757600080fd5b81019080803573ffffffffffffffffffffffffffffffffffffffff16906020019092919050505061117e565b005b61087c6004803603602081101561081b57600080fd5b810190808035906020019064010000000081111561083857600080fd5b82018360208201111561084a57600080fd5b8035906020019184600183028401116401000000008311171561086c57600080fd5b9091929391929390505050611204565b005b3361089381600661128590919063ffffffff16565b6108e8576040517f08c379a000000000000000000000000000000000000000000000000000000000815260040180806020018281038252602b815260200180611656602b913960400191505060405180910390fd5b8888600791906108f99291906114af565b5086866008919061090b9291906114af565b5084846009919061091d9291906114af565b5082600a8190555081600b60006101000a81548160ff0219169083600181111561094357fe5b0217905550505050505050505050565b3361096881600661128590919063ffffffff16565b6109bd576040517f08c379a000000000000000000000000000000000000000000000000000000000815260040180806020018281038252602b815260200180611656602b913960400191505060405180910390fd5b8282600991906109ce9291906114af565b50505050565b60006060806060600080600154600760086009600a54600b60009054906101000a900460ff16848054600181600116156101000203166002900480601f016020809104026020016040519081016040528092919081815260200182805460018160011615610100020316600290048015610a8f5780601f10610a6457610100808354040283529160200191610a8f565b820191906000526020600020905b815481529060010190602001808311610a7257829003601f168201915b50505050509450838054600181600116156101000203166002900480601f016020809104026020016040519081016040528092919081815260200182805460018160011615610100020316600290048015610b2b5780601f10610b0057610100808354040283529160200191610b2b565b820191906000526020600020905b815481529060010190602001808311610b0e57829003601f168201915b50505050509350828054600181600116156101000203166002900480601f016020809104026020016040519081016040528092919081815260200182805460018160011615610100020316600290048015610bc75780601f10610b9c57610100808354040283529160200191610bc7565b820191906000526020600020905b815481529060010190602001808311610baa57829003601f168201915b50505050509250955095509550955095509550909192939495565b600080600080600080600154600360009054906101000a900460881b600254610c09610ff7565b600454600560009054906101000a900460ff16955095509550955095509550909192939495565b6000600560009054906101000a900460ff16905090565b6000610c5d82600661128590919063ffffffff16565b9050919050565b600033610c7b81600661128590919063ffffffff16565b610cd0576040517f08c379a000000000000000000000000000000000000000000000000000000000815260040180806020018281038252602b815260200180611656602b913960400191505060405180910390fd5b600060f81b83600060208110610ce257fe5b1a60f81b7effffffffffffffffffffffffffffffffffffffffffffffffffffffffffffff19161415610d7c576040517f08c379a000000000000000000000000000000000000000000000000000000000815260040180806020018281038252600d8152602001807f456d70747920776b62486173680000000000000000000000000000000000000081525060200191505060405180910390fd5b8260028190555082915050919050565b33610da181600661128590919063ffffffff16565b610df6576040517f08c379a000000000000000000000000000000000000000000000000000000000815260040180806020018281038252602b815260200180611656602b913960400191505060405180910390fd5b610dfe610ff7565b73ffffffffffffffffffffffffffffffffffffffff16ff5b33610e2b81600661128590919063ffffffff16565b610e80576040517f08c379a000000000000000000000000000000000000000000000000000000000815260040180806020018281038252602b815260200180611656602b913960400191505060405180910390fd5b81600b60006101000a81548160ff02191690836001811115610e9e57fe5b02179055505050565b6000600360009054906101000a900460881b905090565b610ec6611020565b610f38576040517f08c379a00000000000000000000000000000000000000000000000000000000081526004018080602001828103825260208152602001807f4f776e61626c653a2063616c6c6572206973206e6f7420746865206f776e657281525060200191505060405180910390fd5b600073ffffffffffffffffffffffffffffffffffffffff166000809054906101000a900473ffffffffffffffffffffffffffffffffffffffff1673ffffffffffffffffffffffffffffffffffffffff167f8be0079c531659141344cd1fd0a4f28419497f9722a3daafe3b4186f6b6457e060405160405180910390a360008060006101000a81548173ffffffffffffffffffffffffffffffffffffffff021916908373ffffffffffffffffffffffffffffffffffffffff160217905550565b60008060009054906101000a900473ffffffffffffffffffffffffffffffffffffffff16905090565b60008060009054906101000a900473ffffffffffffffffffffffffffffffffffffffff1673ffffffffffffffffffffffffffffffffffffffff16611062611363565b73ffffffffffffffffffffffffffffffffffffffff1614905090565b6000600154905090565b3361109d81600661128590919063ffffffff16565b6110f2576040517f08c379a000000000000000000000000000000000000000000000000000000000815260040180806020018281038252602b815260200180611656602b913960400191505060405180910390fd5b8282600791906111039291906114af565b50505050565b3361111e81600661128590919063ffffffff16565b611173576040517f08c379a000000000000000000000000000000000000000000000000000000000815260040180806020018281038252602b815260200180611656602b913960400191505060405180910390fd5b81600a819055505050565b611186611020565b6111f8576040517f08c379a00000000000000000000000000000000000000000000000000000000081526004018080602001828103825260208152602001807f4f776e61626c653a2063616c6c6572206973206e6f7420746865206f776e657281525060200191505060405180910390fd5b6112018161136b565b50565b3361121981600661128590919063ffffffff16565b61126e576040517f08c379a000000000000000000000000000000000000000000000000000000000815260040180806020018281038252602b815260200180611656602b913960400191505060405180910390fd5b82826008919061127f9291906114af565b50505050565b60008073ffffffffffffffffffffffffffffffffffffffff168273ffffffffffffffffffffffffffffffffffffffff16141561130c576040517f08c379a00000000000000000000000000000000000000000000000000000000081526004018080602001828103825260228152602001806116aa6022913960400191505060405180910390fd5b8260000160008373ffffffffffffffffffffffffffffffffffffffff1673ffffffffffffffffffffffffffffffffffffffff16815260200190815260200160002060009054906101000a900460ff16905092915050565b600033905090565b600073ffffffffffffffffffffffffffffffffffffffff168173ffffffffffffffffffffffffffffffffffffffff1614156113f1576040517f08c379a00000000000000000000000000000000000000000000000000000000081526004018080602001828103825260268152602001806116306026913960400191505060405180910390fd5b8073ffffffffffffffffffffffffffffffffffffffff166000809054906101000a900473ffffffffffffffffffffffffffffffffffffffff1673ffffffffffffffffffffffffffffffffffffffff167f8be0079c531659141344cd1fd0a4f28419497f9722a3daafe3b4186f6b6457e060405160405180910390a3806000806101000a81548173ffffffffffffffffffffffffffffffffffffffff021916908373ffffffffffffffffffffffffffffffffffffffff16021790555050565b828054600181600116156101000203166002900490600052602060002090601f016020900481019282601f106114f057803560ff191683800117855561151e565b8280016001018555821561151e579182015b8281111561151d578235825591602001919060010190611502565b5b50905061152b919061152f565b5090565b61155191905b8082111561154d576000816000905550600101611535565b5090565b90565b61155e8282611285565b156115d1576040517f08c379a000000000000000000000000000000000000000000000000000000000815260040180806020018281038252601f8152602001807f526f6c65733a206163636f756e7420616c72656164792068617320726f6c650081525060200191505060405180910390fd5b60018260000160008373ffffffffffffffffffffffffffffffffffffffff1673ffffffffffffffffffffffffffffffffffffffff16815260200190815260200160002060006101000a81548160ff021916908315150217905550505056fe4f776e61626c653a206e6577206f776e657220697320746865207a65726f206164647265737343616c6c657220686176656e27742061646d696e7320726967687473206f6e2074686520666561747572657468697320636f6e74726163742073686f756c64206e65766572206861766520612062616c616e6365526f6c65733a206163636f756e7420697320746865207a65726f2061646472657373a165627a7a723058208e191921dd7f1148a7ea464e0d1423ee4d0f662e3775e40b087bb01f22befa9200294f776e61626c653a206e6577206f776e657220697320746865207a65726f20616464726573734833205265736f6c7574696f6e206d757374206265205f68335265736f6c7574696f6e203e3d30202626205f68335265736f6c7574696f6e203c3136526f6c65733a206163636f756e7420697320746865207a65726f2061646472657373506175736572526f6c653a2063616c6c657220646f6573206e6f742068617665207468652050617573657220726f6c654f776e61626c653a206e6577206f776e657220697320746865207a65726f20616464726573734665617475726520646f6573206e6f7420657869737420696e207468652072656769737472797468697320636f6e74726163742073686f756c64206e65766572206861766520612062616c616e6365526f6c65733a206163636f756e7420646f6573206e6f74206861766520726f6c6553656e646572206e6f7420616c6c6f77656420746f2072656d6f766520746869732066656174757265526f6c65733a206163636f756e7420697320746865207a65726f2061646472657373a165627a7a723058202ccf0914ebc3142049373d3db84523a44fdbbced09f67cd721930fbd3476469400294833205265736f6c7574696f6e206d757374206265205f68335265736f6c7574696f6e203e3d30202626205f68335265736f6c7574696f6e203c3136526f6c65733a206163636f756e7420697320746865207a65726f2061646472657373",
  "source": "/**\n * @title Crypto-Spatial Parcels Registry\n * @author BENAHMED DAHO Ali\n * @notice an abstract contract that implement a Parcels Registry\n * @dev ...\n *\n*/\n\npragma solidity ^0.5.0;\n\nimport './LAParcel.sol';\nimport './geospatial/CSFeatureRegistry.sol';\n\ncontract LAParcelRegistry is CSFeatureRegistry {\n  //\n  // State variables\n  //\n\n  // mapping(bytes32 => LAParcel) parcels; // Mapping CSC => Parcels\n\n  //\n  // Events - publicize actions to external listeners\n  //\n\n  event LogParcelClaimed(bytes32 indexed csc, bytes15 indexed dggsIndex, bytes32 wkbHash,\n                          string addr, string lbl, uint area, string parcelType, address owner);\n\n  //\n  // Functions\n  //\n\n  /// @notice constuctor\n  constructor (string memory _name, uint _h3Resolution, string memory _srs) public\n  CSFeatureRegistry(_name,_h3Resolution,_srs) {\n    name = \"Parcel Registry\";\n  }\n\n  /**\n  * @notice addFeature modifier\n  * @param dggsIndex dggsIndex of the feature\n  * @param wkbHash Well Known Binary Hash\n  * @param extAddr External Address\n  * @param label Parcel label\n  * @param area Parcel Area\n  * @param landUseCode land use code\n  * @param cadastralType cadastral type (parcel / building)\n  * @return the Crypto-Spatial Coordinate (CSC) of the feature\n  */\n  function claimParcel(bytes15 dggsIndex,\n                       bytes32 wkbHash,\n                       string memory extAddr,\n                       string memory label,\n                       uint area,\n                       string memory landUseCode,\n                       LAParcel.CadastralTypeCode cadastralType)\n      public addFeature( dggsIndex, wkbHash, msg.sender)\n      returns (bytes32) {\n\n    // TODO check inputs\n\n    LAParcel parcel = new LAParcel(dggsIndex,wkbHash, msg.sender, h3Resolution);\n    bytes32 csc = parcel.getFeatureCSC();\n    features[csc] = address(parcel);\n    parcel.setParcelValues(label, extAddr, landUseCode, area, cadastralType);\n    emit LogParcelClaimed(csc, dggsIndex, wkbHash, extAddr, label, area, landUseCode, msg.sender);\n    return csc;\n  }\n}\n",
  "sourcePath": "/home/ali/EthProjects/onchain-land-administration/solidity/contracts/LAParcelRegistry.sol",
  "compiler": {
    "name": "solc",
    "version": "0.5.8+commit.23d335f2.Emscripten.clang"
  },
  "schemaVersion": "3.0.16",
  "updatedAt": "2019-12-17T18:52:03.412Z",
  "devdoc": {
    "methods": {
      "claimParcel(bytes15,bytes32,string,string,uint256,string,uint8)": {
        "params": {
          "area": "Parcel Area",
          "cadastralType": "cadastral type (parcel / building)",
          "dggsIndex": "dggsIndex of the feature",
          "extAddr": "External Address",
          "label": "Parcel label",
          "landUseCode": "land use code",
          "wkbHash": "Well Known Binary Hash"
        },
        "return": "the Crypto-Spatial Coordinate (CSC) of the feature"
      },
      "dggsIndexExist(bytes15)": {
        "details": "dggsIndexExist : check if dggs allready exit in the registry",
        "params": {
          "_dggsIndex": "the index to check"
        }
      },
      "dggsIndexOwner(bytes15)": {
        "details": "dggsIndexOwner : return the address of the dggsIndex Owner",
        "params": {
          "_dggsIndex": "the index to fetch"
        }
      },
      "getFeature(bytes32)": {
        "params": {
          "csc": "the feature CSC"
        },
        "return": "the address of the feature deployed contract"
      },
      "getFeatureCount()": {
        "return": "the count of the features added to the registry"
      },
      "isOwner()": {
        "details": "Returns true if the caller is the current owner."
      },
      "owner()": {
        "details": "Returns the address of the current owner."
      },
      "pause()": {
        "details": "Called by a pauser to pause, triggers stopped state."
      },
      "paused()": {
        "details": "Returns true if the contract is paused, and false otherwise."
      },
      "removeFeature(bytes32)": {
        "details": "remove permanently the feature from the registry"
      },
      "renounceOwnership()": {
        "details": "Leaves the contract without owner. It will not be possible to call `onlyOwner` functions anymore. Can only be called by the current owner.     * NOTE: Renouncing ownership will leave the contract without an owner, thereby removing any functionality that is only available to the owner."
      },
      "transferOwnership(address)": {
        "details": "Transfers ownership of the contract to a new account (`newOwner`). Can only be called by the current owner."
      },
      "unpause()": {
        "details": "Called by a pauser to unpause, returns to normal state."
      }
    }
  },
  "userdoc": {
    "methods": {
      "claimParcel(bytes15,bytes32,string,string,uint256,string,uint8)": {
        "notice": "addFeature modifier"
      },
      "constructor": "constuctor",
      "getFeature(bytes32)": {
        "notice": "getFeature"
      },
      "getFeatureCount()": {
        "notice": "getFeatureCount"
      }
    }
  }
}