{
  "contractName": "LAParcel",
  "abi": [
    {
      "constant": true,
      "inputs": [],
      "name": "fetchFeature",
      "outputs": [
        {
          "name": "_csc",
          "type": "bytes32"
        },
        {
          "name": "_dggsIndex",
          "type": "bytes15"
        },
        {
          "name": "_wkbHash",
          "type": "bytes32"
        },
        {
          "name": "__owner",
          "type": "address"
        },
        {
          "name": "_h3Resolution",
          "type": "uint256"
        },
        {
          "name": "_geomteryType",
          "type": "uint8"
        }
      ],
      "payable": false,
      "stateMutability": "view",
      "type": "function"
    },
    {
      "constant": false,
      "inputs": [],
      "name": "getGeometryType",
      "outputs": [
        {
          "name": "",
          "type": "uint8"
        }
      ],
      "payable": false,
      "stateMutability": "nonpayable",
      "type": "function"
    },
    {
      "constant": true,
      "inputs": [
        {
          "name": "_address",
          "type": "address"
        }
      ],
      "name": "isAdmin",
      "outputs": [
        {
          "name": "",
          "type": "bool"
        }
      ],
      "payable": false,
      "stateMutability": "view",
      "type": "function"
    },
    {
      "constant": false,
      "inputs": [
        {
          "name": "_wkbHash",
          "type": "bytes32"
        }
      ],
      "name": "setWkbHash",
      "outputs": [
        {
          "name": "_wkbHashValue",
          "type": "bytes32"
        }
      ],
      "payable": false,
      "stateMutability": "nonpayable",
      "type": "function"
    },
    {
      "constant": false,
      "inputs": [],
      "name": "kill",
      "outputs": [],
      "payable": false,
      "stateMutability": "nonpayable",
      "type": "function"
    },
    {
      "constant": true,
      "inputs": [],
      "name": "getFeatureDGGSIndex",
      "outputs": [
        {
          "name": "",
          "type": "bytes15"
        }
      ],
      "payable": false,
      "stateMutability": "view",
      "type": "function"
    },
    {
      "constant": false,
      "inputs": [],
      "name": "renounceOwnership",
      "outputs": [],
      "payable": false,
      "stateMutability": "nonpayable",
      "type": "function"
    },
    {
      "constant": true,
      "inputs": [],
      "name": "owner",
      "outputs": [
        {
          "name": "",
          "type": "address"
        }
      ],
      "payable": false,
      "stateMutability": "view",
      "type": "function"
    },
    {
      "constant": true,
      "inputs": [],
      "name": "isOwner",
      "outputs": [
        {
          "name": "",
          "type": "bool"
        }
      ],
      "payable": false,
      "stateMutability": "view",
      "type": "function"
    },
    {
      "constant": true,
      "inputs": [],
      "name": "getFeatureCSC",
      "outputs": [
        {
          "name": "",
          "type": "bytes32"
        }
      ],
      "payable": false,
      "stateMutability": "view",
      "type": "function"
    },
    {
      "constant": false,
      "inputs": [
        {
          "name": "newOwner",
          "type": "address"
        }
      ],
      "name": "transferOwnership",
      "outputs": [],
      "payable": false,
      "stateMutability": "nonpayable",
      "type": "function"
    },
    {
      "inputs": [
        {
          "name": "_dggsIndex",
          "type": "bytes15"
        },
        {
          "name": "_wkbHash",
          "type": "bytes32"
        },
        {
          "name": "_owner",
          "type": "address"
        },
        {
          "name": "_h3Resolution",
          "type": "uint256"
        }
      ],
      "payable": false,
      "stateMutability": "nonpayable",
      "type": "constructor"
    },
    {
      "payable": false,
      "stateMutability": "nonpayable",
      "type": "fallback"
    },
    {
      "anonymous": false,
      "inputs": [
        {
          "indexed": true,
          "name": "csc",
          "type": "bytes32"
        },
        {
          "indexed": true,
          "name": "dggsIndex",
          "type": "bytes15"
        },
        {
          "indexed": false,
          "name": "wkbHash",
          "type": "bytes32"
        },
        {
          "indexed": true,
          "name": "owner",
          "type": "address"
        }
      ],
      "name": "LogFeatureCreated",
      "type": "event"
    },
    {
      "anonymous": false,
      "inputs": [
        {
          "indexed": true,
          "name": "csc",
          "type": "bytes32"
        },
        {
          "indexed": true,
          "name": "dggsIndex",
          "type": "bytes15"
        },
        {
          "indexed": false,
          "name": "wkbHash",
          "type": "bytes32"
        },
        {
          "indexed": true,
          "name": "owner",
          "type": "address"
        }
      ],
      "name": "LogFeatureKilled",
      "type": "event"
    },
    {
      "anonymous": false,
      "inputs": [
        {
          "indexed": true,
          "name": "previousOwner",
          "type": "address"
        },
        {
          "indexed": true,
          "name": "newOwner",
          "type": "address"
        }
      ],
      "name": "OwnershipTransferred",
      "type": "event"
    },
    {
      "constant": false,
      "inputs": [
        {
          "name": "_label",
          "type": "string"
        },
        {
          "name": "_extAddr",
          "type": "string"
        },
        {
          "name": "_landUseCode",
          "type": "string"
        },
        {
          "name": "_area",
          "type": "uint256"
        }
      ],
      "name": "setParcelValues",
      "outputs": [],
      "payable": false,
      "stateMutability": "nonpayable",
      "type": "function"
    },
    {
      "constant": false,
      "inputs": [
        {
          "name": "_extAddr",
          "type": "string"
        }
      ],
      "name": "setExtAddress",
      "outputs": [],
      "payable": false,
      "stateMutability": "nonpayable",
      "type": "function"
    },
    {
      "constant": false,
      "inputs": [
        {
          "name": "_label",
          "type": "string"
        }
      ],
      "name": "setLabel",
      "outputs": [],
      "payable": false,
      "stateMutability": "nonpayable",
      "type": "function"
    },
    {
      "constant": false,
      "inputs": [
        {
          "name": "_area",
          "type": "uint256"
        }
      ],
      "name": "setArea",
      "outputs": [],
      "payable": false,
      "stateMutability": "nonpayable",
      "type": "function"
    },
    {
      "constant": false,
      "inputs": [
        {
          "name": "_landUseCode",
          "type": "string"
        }
      ],
      "name": "setLandUseCode",
      "outputs": [],
      "payable": false,
      "stateMutability": "nonpayable",
      "type": "function"
    },
    {
      "constant": true,
      "inputs": [],
      "name": "fetchParcel",
      "outputs": [
        {
          "name": "",
          "type": "bytes32"
        },
        {
          "name": "",
          "type": "string"
        },
        {
          "name": "",
          "type": "string"
        },
        {
          "name": "",
          "type": "string"
        },
        {
          "name": "",
          "type": "uint256"
        }
      ],
      "payable": false,
      "stateMutability": "view",
      "type": "function"
    }
  ],
  "bytecode": "0x60806040523480156200001157600080fd5b5060405160808062001fe5833981018060405260808110156200003357600080fd5b810190808051906020019092919080519060200190929190805190602001909291908051906020019092919050505083838383838383836200007a6200054960201b60201c565b6000806101000a81548173ffffffffffffffffffffffffffffffffffffffff021916908373ffffffffffffffffffffffffffffffffffffffff1602179055506000809054906101000a900473ffffffffffffffffffffffffffffffffffffffff1673ffffffffffffffffffffffffffffffffffffffff16600073ffffffffffffffffffffffffffffffffffffffff167f8be0079c531659141344cd1fd0a4f28419497f9722a3daafe3b4186f6b6457e060405160405180910390a360008110158015620001475750601081105b6200019e576040517f08c379a000000000000000000000000000000000000000000000000000000000815260040180806020018281038252603c81526020018062001f87603c913960400191505060405180910390fd5b600060f81b846000600f8110620001b157fe5b1a60f81b7effffffffffffffffffffffffffffffffffffffffffffffffffffffffffffff191614156200024c576040517f08c379a000000000000000000000000000000000000000000000000000000000815260040180806020018281038252600f8152602001807f456d7074792064676773496e646578000000000000000000000000000000000081525060200191505060405180910390fd5b600060f81b836000602081106200025f57fe5b1a60f81b7effffffffffffffffffffffffffffffffffffffffffffffffffffffffffffff19161415620002fa576040517f08c379a000000000000000000000000000000000000000000000000000000000815260040180806020018281038252600d8152602001807f456d70747920776b62486173680000000000000000000000000000000000000081525060200191505060405180910390fd5b6200030b826200055160201b60201c565b62000326826006620005e860201b6200142d1790919060201c565b62000341336006620005e860201b6200142d1790919060201c565b8260028190555083600360006101000a8154816effffffffffffffffffffffffffffff021916908360881c02179055506000600560006101000a81548160ff021916908360028111156200039157fe5b02179055508060048190555073__CSGeometryLib_________________________637834a61283866040518363ffffffff1660e01b8152600401808373ffffffffffffffffffffffffffffffffffffffff1673ffffffffffffffffffffffffffffffffffffffff1681526020018270ffffffffffffffffffffffffffffffffff191670ffffffffffffffffffffffffffffffffff191681526020019250505060206040518083038186803b1580156200044957600080fd5b505af41580156200045e573d6000803e3d6000fd5b505050506040513d60208110156200047557600080fd5b81019080805190602001909291905050506001819055506200049c620006cc60201b60201c565b73ffffffffffffffffffffffffffffffffffffffff16600360009054906101000a900460881b70ffffffffffffffffffffffffffffffffff19166001547f025eef9175b0635cefa846add44300456401183653e2b56e06ff204282d087d96002546040518082815260200191505060405180910390a4505050506002600560006101000a81548160ff021916908360028111156200053657fe5b0217905550505050505050505062000981565b600033905090565b62000561620006f560201b60201c565b620005d4576040517f08c379a00000000000000000000000000000000000000000000000000000000081526004018080602001828103825260208152602001807f4f776e61626c653a2063616c6c6572206973206e6f7420746865206f776e657281525060200191505060405180910390fd5b620005e5816200075b60201b60201c565b50565b620005fa8282620008a160201b60201c565b156200066e576040517f08c379a000000000000000000000000000000000000000000000000000000000815260040180806020018281038252601f8152602001807f526f6c65733a206163636f756e7420616c72656164792068617320726f6c650081525060200191505060405180910390fd5b60018260000160008373ffffffffffffffffffffffffffffffffffffffff1673ffffffffffffffffffffffffffffffffffffffff16815260200190815260200160002060006101000a81548160ff0219169083151502179055505050565b60008060009054906101000a900473ffffffffffffffffffffffffffffffffffffffff16905090565b60008060009054906101000a900473ffffffffffffffffffffffffffffffffffffffff1673ffffffffffffffffffffffffffffffffffffffff166200073f6200054960201b60201c565b73ffffffffffffffffffffffffffffffffffffffff1614905090565b600073ffffffffffffffffffffffffffffffffffffffff168173ffffffffffffffffffffffffffffffffffffffff161415620007e3576040517f08c379a000000000000000000000000000000000000000000000000000000000815260040180806020018281038252602681526020018062001f616026913960400191505060405180910390fd5b8073ffffffffffffffffffffffffffffffffffffffff166000809054906101000a900473ffffffffffffffffffffffffffffffffffffffff1673ffffffffffffffffffffffffffffffffffffffff167f8be0079c531659141344cd1fd0a4f28419497f9722a3daafe3b4186f6b6457e060405160405180910390a3806000806101000a81548173ffffffffffffffffffffffffffffffffffffffff021916908373ffffffffffffffffffffffffffffffffffffffff16021790555050565b60008073ffffffffffffffffffffffffffffffffffffffff168273ffffffffffffffffffffffffffffffffffffffff1614156200092a576040517f08c379a000000000000000000000000000000000000000000000000000000000815260040180806020018281038252602281526020018062001fc36022913960400191505060405180910390fd5b8260000160008373ffffffffffffffffffffffffffffffffffffffff1673ffffffffffffffffffffffffffffffffffffffff16815260200190815260200160002060009054906101000a900460ff16905092915050565b6115d080620009916000396000f3fe608060405234801561001057600080fd5b506004361061010b5760003560e01c806364a0e8a2116100a2578063b85a0edd11610071578063b85a0edd1461069e578063bf530969146106bc578063cf50e60314610735578063f2fde38b14610763578063f8697beb146107a75761010b565b806364a0e8a2146104fb578063715018a6146106285780638da5cb5b146106325780638f32d59b1461067c5761010b565b806324d7806c116100de57806324d7806c1461040d5780632befd03c1461046957806341c0e1b5146104ab578063572982f5146104b55761010b565b806303d354001461015c57806306ab28bf146101d55780631383e2ad1461033e57806317e17809146103e1575b6040517f08c379a000000000000000000000000000000000000000000000000000000000815260040180806020018281038252602981526020018061155a6029913960400191505060405180910390fd5b6101d36004803603602081101561017257600080fd5b810190808035906020019064010000000081111561018f57600080fd5b8201836020820111156101a157600080fd5b803590602001918460018302840111640100000000831117156101c357600080fd5b9091929391929390505050610820565b005b6101dd6108a1565b60405180868152602001806020018060200180602001858152602001848103845288818151815260200191508051906020019080838360005b83811015610231578082015181840152602081019050610216565b50505050905090810190601f16801561025e5780820380516001836020036101000a031916815260200191505b50848103835287818151815260200191508051906020019080838360005b8381101561029757808201518184015260208101905061027c565b50505050905090810190601f1680156102c45780820380516001836020036101000a031916815260200191505b50848103825286818151815260200191508051906020019080838360005b838110156102fd5780820151818401526020810190506102e2565b50505050905090810190601f16801561032a5780820380516001836020036101000a031916815260200191505b509850505050505050505060405180910390f35b610346610a9b565b604051808781526020018670ffffffffffffffffffffffffffffffffff191670ffffffffffffffffffffffffffffffffff191681526020018581526020018473ffffffffffffffffffffffffffffffffffffffff1673ffffffffffffffffffffffffffffffffffffffff1681526020018381526020018260028111156103c857fe5b60ff168152602001965050505050505060405180910390f35b6103e9610ae9565b604051808260028111156103f957fe5b60ff16815260200191505060405180910390f35b61044f6004803603602081101561042357600080fd5b81019080803573ffffffffffffffffffffffffffffffffffffffff169060200190929190505050610b00565b604051808215151515815260200191505060405180910390f35b6104956004803603602081101561047f57600080fd5b8101908080359060200190929190505050610b1d565b6040518082815260200191505060405180910390f35b6104b3610c45565b005b6104bd610ccf565b604051808270ffffffffffffffffffffffffffffffffff191670ffffffffffffffffffffffffffffffffff1916815260200191505060405180910390f35b6106266004803603608081101561051157600080fd5b810190808035906020019064010000000081111561052e57600080fd5b82018360208201111561054057600080fd5b8035906020019184600183028401116401000000008311171561056257600080fd5b90919293919293908035906020019064010000000081111561058357600080fd5b82018360208201111561059557600080fd5b803590602001918460018302840111640100000000831117156105b757600080fd5b9091929391929390803590602001906401000000008111156105d857600080fd5b8201836020820111156105ea57600080fd5b8035906020019184600183028401116401000000008311171561060c57600080fd5b909192939192939080359060200190929190505050610ce6565b005b610630610d97565b005b61063a610ed0565b604051808273ffffffffffffffffffffffffffffffffffffffff1673ffffffffffffffffffffffffffffffffffffffff16815260200191505060405180910390f35b610684610ef9565b604051808215151515815260200191505060405180910390f35b6106a6610f57565b6040518082815260200191505060405180910390f35b610733600480360360208110156106d257600080fd5b81019080803590602001906401000000008111156106ef57600080fd5b82018360208201111561070157600080fd5b8035906020019184600183028401116401000000008311171561072357600080fd5b9091929391929390505050610f61565b005b6107616004803603602081101561074b57600080fd5b8101908080359060200190929190505050610fe2565b005b6107a56004803603602081101561077957600080fd5b81019080803573ffffffffffffffffffffffffffffffffffffffff169060200190929190505050611057565b005b61081e600480360360208110156107bd57600080fd5b81019080803590602001906401000000008111156107da57600080fd5b8201836020820111156107ec57600080fd5b8035906020019184600183028401116401000000008311171561080e57600080fd5b90919293919293905050506110dd565b005b3361083581600661115e90919063ffffffff16565b61088a576040517f08c379a000000000000000000000000000000000000000000000000000000000815260040180806020018281038252602b81526020018061152f602b913960400191505060405180910390fd5b82826009919061089b929190611388565b50505050565b600060608060606000600154600760086009600a54838054600181600116156101000203166002900480601f01602080910402602001604051908101604052809291908181526020018280546001816001161561010002031660029004801561094b5780601f106109205761010080835404028352916020019161094b565b820191906000526020600020905b81548152906001019060200180831161092e57829003601f168201915b50505050509350828054600181600116156101000203166002900480601f0160208091040260200160405190810160405280929190818152602001828054600181600116156101000203166002900480156109e75780601f106109bc576101008083540402835291602001916109e7565b820191906000526020600020905b8154815290600101906020018083116109ca57829003601f168201915b50505050509250818054600181600116156101000203166002900480601f016020809104026020016040519081016040528092919081815260200182805460018160011615610100020316600290048015610a835780601f10610a5857610100808354040283529160200191610a83565b820191906000526020600020905b815481529060010190602001808311610a6657829003601f168201915b50505050509150945094509450945094509091929394565b600080600080600080600154600360009054906101000a900460881b600254610ac2610ed0565b600454600560009054906101000a900460ff16955095509550955095509550909192939495565b6000600560009054906101000a900460ff16905090565b6000610b1682600661115e90919063ffffffff16565b9050919050565b600033610b3481600661115e90919063ffffffff16565b610b89576040517f08c379a000000000000000000000000000000000000000000000000000000000815260040180806020018281038252602b81526020018061152f602b913960400191505060405180910390fd5b600060f81b83600060208110610b9b57fe5b1a60f81b7effffffffffffffffffffffffffffffffffffffffffffffffffffffffffffff19161415610c35576040517f08c379a000000000000000000000000000000000000000000000000000000000815260040180806020018281038252600d8152602001807f456d70747920776b62486173680000000000000000000000000000000000000081525060200191505060405180910390fd5b8260028190555082915050919050565b33610c5a81600661115e90919063ffffffff16565b610caf576040517f08c379a000000000000000000000000000000000000000000000000000000000815260040180806020018281038252602b81526020018061152f602b913960400191505060405180910390fd5b610cb7610ed0565b73ffffffffffffffffffffffffffffffffffffffff16ff5b6000600360009054906101000a900460881b905090565b33610cfb81600661115e90919063ffffffff16565b610d50576040517f08c379a000000000000000000000000000000000000000000000000000000000815260040180806020018281038252602b81526020018061152f602b913960400191505060405180910390fd5b878760079190610d61929190611388565b50858560089190610d73929190611388565b50838360099190610d85929190611388565b5081600a819055505050505050505050565b610d9f610ef9565b610e11576040517f08c379a00000000000000000000000000000000000000000000000000000000081526004018080602001828103825260208152602001807f4f776e61626c653a2063616c6c6572206973206e6f7420746865206f776e657281525060200191505060405180910390fd5b600073ffffffffffffffffffffffffffffffffffffffff166000809054906101000a900473ffffffffffffffffffffffffffffffffffffffff1673ffffffffffffffffffffffffffffffffffffffff167f8be0079c531659141344cd1fd0a4f28419497f9722a3daafe3b4186f6b6457e060405160405180910390a360008060006101000a81548173ffffffffffffffffffffffffffffffffffffffff021916908373ffffffffffffffffffffffffffffffffffffffff160217905550565b60008060009054906101000a900473ffffffffffffffffffffffffffffffffffffffff16905090565b60008060009054906101000a900473ffffffffffffffffffffffffffffffffffffffff1673ffffffffffffffffffffffffffffffffffffffff16610f3b61123c565b73ffffffffffffffffffffffffffffffffffffffff1614905090565b6000600154905090565b33610f7681600661115e90919063ffffffff16565b610fcb576040517f08c379a000000000000000000000000000000000000000000000000000000000815260040180806020018281038252602b81526020018061152f602b913960400191505060405180910390fd5b828260079190610fdc929190611388565b50505050565b33610ff781600661115e90919063ffffffff16565b61104c576040517f08c379a000000000000000000000000000000000000000000000000000000000815260040180806020018281038252602b81526020018061152f602b913960400191505060405180910390fd5b81600a819055505050565b61105f610ef9565b6110d1576040517f08c379a00000000000000000000000000000000000000000000000000000000081526004018080602001828103825260208152602001807f4f776e61626c653a2063616c6c6572206973206e6f7420746865206f776e657281525060200191505060405180910390fd5b6110da81611244565b50565b336110f281600661115e90919063ffffffff16565b611147576040517f08c379a000000000000000000000000000000000000000000000000000000000815260040180806020018281038252602b81526020018061152f602b913960400191505060405180910390fd5b828260089190611158929190611388565b50505050565b60008073ffffffffffffffffffffffffffffffffffffffff168273ffffffffffffffffffffffffffffffffffffffff1614156111e5576040517f08c379a00000000000000000000000000000000000000000000000000000000081526004018080602001828103825260228152602001806115836022913960400191505060405180910390fd5b8260000160008373ffffffffffffffffffffffffffffffffffffffff1673ffffffffffffffffffffffffffffffffffffffff16815260200190815260200160002060009054906101000a900460ff16905092915050565b600033905090565b600073ffffffffffffffffffffffffffffffffffffffff168173ffffffffffffffffffffffffffffffffffffffff1614156112ca576040517f08c379a00000000000000000000000000000000000000000000000000000000081526004018080602001828103825260268152602001806115096026913960400191505060405180910390fd5b8073ffffffffffffffffffffffffffffffffffffffff166000809054906101000a900473ffffffffffffffffffffffffffffffffffffffff1673ffffffffffffffffffffffffffffffffffffffff167f8be0079c531659141344cd1fd0a4f28419497f9722a3daafe3b4186f6b6457e060405160405180910390a3806000806101000a81548173ffffffffffffffffffffffffffffffffffffffff021916908373ffffffffffffffffffffffffffffffffffffffff16021790555050565b828054600181600116156101000203166002900490600052602060002090601f016020900481019282601f106113c957803560ff19168380011785556113f7565b828001600101855582156113f7579182015b828111156113f65782358255916020019190600101906113db565b5b5090506114049190611408565b5090565b61142a91905b8082111561142657600081600090555060010161140e565b5090565b90565b611437828261115e565b156114aa576040517f08c379a000000000000000000000000000000000000000000000000000000000815260040180806020018281038252601f8152602001807f526f6c65733a206163636f756e7420616c72656164792068617320726f6c650081525060200191505060405180910390fd5b60018260000160008373ffffffffffffffffffffffffffffffffffffffff1673ffffffffffffffffffffffffffffffffffffffff16815260200190815260200160002060006101000a81548160ff021916908315150217905550505056fe4f776e61626c653a206e6577206f776e657220697320746865207a65726f206164647265737343616c6c657220686176656e27742061646d696e7320726967687473206f6e2074686520666561747572657468697320636f6e74726163742073686f756c64206e65766572206861766520612062616c616e6365526f6c65733a206163636f756e7420697320746865207a65726f2061646472657373a165627a7a72305820f9f5525403615bbf7ff7e5ba51d01351f2ba2b3df94d97594ead80adb1a5addf00294f776e61626c653a206e6577206f776e657220697320746865207a65726f20616464726573734833205265736f6c7574696f6e206d757374206265205f68335265736f6c7574696f6e203e3d30202626205f68335265736f6c7574696f6e203c3136526f6c65733a206163636f756e7420697320746865207a65726f2061646472657373",
  "source": "/**\n * @title Land Administration Parcel\n * @author BENAHMED DAHO Ali\n * @notice a Crypto-Spatial Features registry for land parcels\n * on the etherurm blockchain\n *\n * @dev LA_SPATIAL_UNIT (ISO 19152)\n *\n*/\n\npragma solidity ^0.5.0;\n\nimport './geospatial/CSSurface.sol';\n\ncontract LAParcel is CSSurface {\n\n    //\n    // State variables\n    //\n\n    string internal label;        // Parcel label\n    string internal extAddress;   // Parcel external real world address\n    string internal landUseCode;   // may be : Building, Agriculture, Industrial, ...\n    uint internal area;           // Cadastral area of the parcel\n\n    //\n    // Functions\n    //\n\n    /**\n    * @notice constuctor\n    * @dev initialize state variables\n    */\n\n    constructor (bytes15 _dggsIndex, bytes32 _wkbHash, address _owner, uint _h3Resolution) public\n    CSSurface(_dggsIndex, _wkbHash, _owner, _h3Resolution){\n    }\n\n    /**\n     * @notice set extAddress state variable\n     * @param _extAddr the external address\n     * @param _label the label\n     * @param _area the area in meter square\n     * @param _landUseCode the land use code : Argricultural / Industrial /...\n     */\n\n     function setParcelValues(string calldata _label,\n                              string calldata _extAddr,\n                              string calldata _landUseCode,\n                              uint _area) external onlyAdmins(msg.sender) {\n        // TODO Check inputs\n         label = _label;\n         extAddress = _extAddr;\n         landUseCode = _landUseCode;\n         area = _area;\n     }\n\n    /**\n     * @notice set extAddress state variable\n     * @param _extAddr the external address\n     */\n\n     function setExtAddress(string calldata _extAddr) external onlyAdmins(msg.sender) {\n         extAddress = _extAddr;\n     }\n\n     /**\n     * @notice set label state variable\n     * @param _label the parcel label\n     */\n     \n     function setLabel(string calldata _label) external onlyAdmins(msg.sender) {\n         label = _label;\n     }\n\n     /**\n     * @notice set area state variable\n     * @param _area the area of the parcel\n     *\n     */\n     function setArea(uint _area) external onlyAdmins(msg.sender) {\n         area = _area;\n     }\n\n    /**\n     * @notice set setlandUseCode state variable\n     * @param _landUseCode the Parcel Type of the parcel\n     *\n     */\n     function setLandUseCode(string calldata _landUseCode) external onlyAdmins(msg.sender) {\n         landUseCode = _landUseCode;\n     }\n\n     /**\n      * @dev returns all the state values of the Parcel\n      */\n     function fetchParcel() public view\n     returns (bytes32, string memory, string memory, string memory, uint) {\n         return (csc, label, extAddress, landUseCode, area);\n     }\n\n}\n",
  "sourcePath": "/home/ali/EthProjects/onchain-land-administration/solidity/contracts/LAParcel.sol",
  "compiler": {
    "name": "solc",
    "version": "0.5.8+commit.23d335f2.Emscripten.clang"
  },
  "schemaVersion": "3.0.16",
  "updatedAt": "2019-12-02T19:25:24.852Z",
  "devdoc": {
    "methods": {
      "constructor": {
        "details": "initialize state variables"
      },
      "fetchFeature()": {
        "details": "returns all the values of the feature"
      },
      "fetchParcel()": {
        "details": "returns all the state values of the Parcel"
      },
      "getGeometryType()": {
        "details": "getGeometryType"
      },
      "isAdmin(address)": {
        "details": "isAdmin : check if the addres is an admin of this feature   "
      },
      "isOwner()": {
        "details": "Returns true if the caller is the current owner."
      },
      "kill()": {
        "details": "remove permanently the feature from the blockchain TODO cross check with Registry removeFeature"
      },
      "owner()": {
        "details": "Returns the address of the current owner."
      },
      "renounceOwnership()": {
        "details": "Leaves the contract without owner. It will not be possible to call `onlyOwner` functions anymore. Can only be called by the current owner.     * NOTE: Renouncing ownership will leave the contract without an owner, thereby removing any functionality that is only available to the owner."
      },
      "setArea(uint256)": {
        "params": {
          "_area": "the area of the parcel     "
        }
      },
      "setExtAddress(string)": {
        "params": {
          "_extAddr": "the external address"
        }
      },
      "setLabel(string)": {
        "params": {
          "_label": "the parcel label"
        }
      },
      "setLandUseCode(string)": {
        "params": {
          "_landUseCode": "the Parcel Type of the parcel     "
        }
      },
      "setParcelValues(string,string,string,uint256)": {
        "params": {
          "_area": "the area in meter square",
          "_extAddr": "the external address",
          "_label": "the label",
          "_landUseCode": "the land use code : Argricultural / Industrial /..."
        }
      },
      "setWkbHash(bytes32)": {
        "details": "update the Well Known Binary Hash of the feature"
      },
      "transferOwnership(address)": {
        "details": "Transfers ownership of the contract to a new account (`newOwner`). Can only be called by the current owner."
      }
    }
  },
  "userdoc": {
    "methods": {
      "constructor": "constuctor",
      "setArea(uint256)": {
        "notice": "set area state variable"
      },
      "setExtAddress(string)": {
        "notice": "set extAddress state variable"
      },
      "setLabel(string)": {
        "notice": "set label state variable"
      },
      "setLandUseCode(string)": {
        "notice": "set setlandUseCode state variable"
      },
      "setParcelValues(string,string,string,uint256)": {
        "notice": "set extAddress state variable"
      }
    }
  }
}