{
  "contractName": "LAParcelRegistry",
  "abi": [
    {
      "constant": true,
      "inputs": [],
      "name": "srs",
      "outputs": [
        {
          "name": "",
          "type": "string"
        }
      ],
      "payable": false,
      "stateMutability": "view",
      "type": "function"
    },
    {
      "constant": true,
      "inputs": [],
      "name": "name",
      "outputs": [
        {
          "name": "",
          "type": "string"
        }
      ],
      "payable": false,
      "stateMutability": "view",
      "type": "function"
    },
    {
      "constant": true,
      "inputs": [],
      "name": "h3Resolution",
      "outputs": [
        {
          "name": "",
          "type": "uint256"
        }
      ],
      "payable": false,
      "stateMutability": "view",
      "type": "function"
    },
    {
      "inputs": [
        {
          "name": "_h3Resolution",
          "type": "uint256"
        },
        {
          "name": "_name",
          "type": "string"
        },
        {
          "name": "_srs",
          "type": "string"
        }
      ],
      "payable": false,
      "stateMutability": "nonpayable",
      "type": "constructor"
    },
    {
      "payable": false,
      "stateMutability": "nonpayable",
      "type": "fallback"
    },
    {
      "anonymous": false,
      "inputs": [
        {
          "indexed": false,
          "name": "name",
          "type": "string"
        },
        {
          "indexed": false,
          "name": "dggsIndex",
          "type": "bytes15"
        },
        {
          "indexed": false,
          "name": "csc",
          "type": "bytes32"
        },
        {
          "indexed": false,
          "name": "owner",
          "type": "address"
        }
      ],
      "name": "LogNewFeatureAdded",
      "type": "event"
    },
    {
      "constant": false,
      "inputs": [
        {
          "name": "dggsIndex",
          "type": "bytes15"
        },
        {
          "name": "wkbHash",
          "type": "bytes32"
        },
        {
          "name": "_addr",
          "type": "string"
        },
        {
          "name": "_lbl",
          "type": "string"
        },
        {
          "name": "_area",
          "type": "uint256"
        }
      ],
      "name": "claimParcel",
      "outputs": [
        {
          "name": "csc",
          "type": "bytes32"
        }
      ],
      "payable": false,
      "stateMutability": "nonpayable",
      "type": "function"
    },
    {
      "constant": true,
      "inputs": [
        {
          "name": "csc",
          "type": "bytes32"
        }
      ],
      "name": "getFeature",
      "outputs": [
        {
          "name": "",
          "type": "address"
        }
      ],
      "payable": false,
      "stateMutability": "view",
      "type": "function"
    }
  ],
  "bytecode": "0x60806040523480156200001157600080fd5b50604051620019f1380380620019f1833981018060405260608110156200003757600080fd5b810190808051906020019092919080516401000000008111156200005a57600080fd5b828101905060208101848111156200007157600080fd5b81518560018202830111640100000000821117156200008f57600080fd5b50509291906020018051640100000000811115620000ac57600080fd5b82810190506020810184811115620000c357600080fd5b8151856001820283011164010000000082111715620000e157600080fd5b505092919050505082828260008310158015620000fe5750601083105b62000155576040517f08c379a000000000000000000000000000000000000000000000000000000000815260040180806020018281038252603c815260200180620019b5603c913960400191505060405180910390fd5b600060f81b826000815181106200016857fe5b602001015160f81c60f81b7effffffffffffffffffffffffffffffffffffffffffffffffffffffffffffff191614156200020a576040517f08c379a000000000000000000000000000000000000000000000000000000000815260040180806020018281038252600a8152602001807f456d707479206e616d650000000000000000000000000000000000000000000081525060200191505060405180910390fd5b826000819055508160019080519060200190620002299291906200029d565b508060029080519060200190620002429291906200029d565b505050506040518060400160405280600f81526020017f50617263656c205265676973747279000000000000000000000000000000000081525060019080519060200190620002939291906200029d565b505050506200034c565b828054600181600116156101000203166002900490600052602060002090601f016020900481019282601f10620002e057805160ff191683800117855562000311565b8280016001018555821562000311579182015b8281111562000310578251825591602001919060010190620002f3565b5b50905062000320919062000324565b5090565b6200034991905b80821115620003455760008160009055506001016200032b565b5090565b90565b611659806200035c6000396000f3fe608060405234801561001057600080fd5b50600436106100575760003560e01c806303229556146100a857806306fdde031461012b5780637e9c00fc146101ae5780638b12dbaa146101cc578063c6b3d85d1461023a575b6040517f08c379a00000000000000000000000000000000000000000000000000000000081526004018080602001828103825260298152602001806116056029913960400191505060405180910390fd5b6100b06103d2565b6040518080602001828103825283818151815260200191508051906020019080838360005b838110156100f05780820151818401526020810190506100d5565b50505050905090810190601f16801561011d5780820380516001836020036101000a031916815260200191505b509250505060405180910390f35b610133610470565b6040518080602001828103825283818151815260200191508051906020019080838360005b83811015610173578082015181840152602081019050610158565b50505050905090810190601f1680156101a05780820380516001836020036101000a031916815260200191505b509250505060405180910390f35b6101b661050e565b6040518082815260200191505060405180910390f35b6101f8600480360360208110156101e257600080fd5b8101908080359060200190929190505050610514565b604051808273ffffffffffffffffffffffffffffffffffffffff1673ffffffffffffffffffffffffffffffffffffffff16815260200191505060405180910390f35b6103bc600480360360a081101561025057600080fd5b81019080803570ffffffffffffffffffffffffffffffffff19169060200190929190803590602001909291908035906020019064010000000081111561029557600080fd5b8201836020820111156102a757600080fd5b803590602001918460018302840111640100000000831117156102c957600080fd5b91908080601f016020809104026020016040519081016040528093929190818152602001838380828437600081840152601f19601f8201169050808301925050505050505091929192908035906020019064010000000081111561032c57600080fd5b82018360208201111561033e57600080fd5b8035906020019184600183028401116401000000008311171561036057600080fd5b91908080601f016020809104026020016040519081016040528093929190818152602001838380828437600081840152601f19601f82011690508083019250505050505050919291929080359060200190929190505050610551565b6040518082815260200191505060405180910390f35b60028054600181600116156101000203166002900480601f0160208091040260200160405190810160405280929190818152602001828054600181600116156101000203166002900480156104685780601f1061043d57610100808354040283529160200191610468565b820191906000526020600020905b81548152906001019060200180831161044b57829003601f168201915b505050505081565b60018054600181600116156101000203166002900480601f0160208091040260200160405190810160405280929190818152602001828054600181600116156101000203166002900480156105065780601f106104db57610100808354040283529160200191610506565b820191906000526020600020905b8154815290600101906020018083116104e957829003601f168201915b505050505081565b60005481565b60006003600083815260200190815260200160002060009054906101000a900473ffffffffffffffffffffffffffffffffffffffff169050919050565b600085856000600f60ff1614156105d0576040517f08c379a000000000000000000000000000000000000000000000000000000000815260040180806020018281038252600f8152602001807f456d7074792064676773496e646578000000000000000000000000000000000081525060200191505060405180910390fd5b6000602060ff16141561064b576040517f08c379a000000000000000000000000000000000000000000000000000000000815260040180806020018281038252600d8152602001807f456d70747920776b62486173680000000000000000000000000000000000000081525060200191505060405180910390fd5b600073__CSGeometryLib_________________________637834a61233856040518363ffffffff1660e01b8152600401808373ffffffffffffffffffffffffffffffffffffffff1673ffffffffffffffffffffffffffffffffffffffff1681526020018270ffffffffffffffffffffffffffffffffff191670ffffffffffffffffffffffffffffffffff191681526020019250505060206040518083038186803b1580156106f857600080fd5b505af415801561070c573d6000803e3d6000fd5b505050506040513d602081101561072257600080fd5b810190808051906020019092919050505090506000898960005460405161074890610b37565b808470ffffffffffffffffffffffffffffffffff191670ffffffffffffffffffffffffffffffffff191681526020018381526020018281526020019350505050604051809103906000f0801580156107a4573d6000803e3d6000fd5b5090508073ffffffffffffffffffffffffffffffffffffffff166325f1ceaf896040518263ffffffff1660e01b81526004018080602001828103825283818151815260200191508051906020019080838360005b838110156108135780820151818401526020810190506107f8565b50505050905090810190601f1680156108405780820380516001836020036101000a031916815260200191505b5092505050600060405180830381600087803b15801561085f57600080fd5b505af1158015610873573d6000803e3d6000fd5b505050508073ffffffffffffffffffffffffffffffffffffffff1663bf530969886040518263ffffffff1660e01b81526004018080602001828103825283818151815260200191508051906020019080838360005b838110156108e35780820151818401526020810190506108c8565b50505050905090810190601f1680156109105780820380516001836020036101000a031916815260200191505b5092505050600060405180830381600087803b15801561092f57600080fd5b505af1158015610943573d6000803e3d6000fd5b505050508073ffffffffffffffffffffffffffffffffffffffff1663cf50e603876040518263ffffffff1660e01b815260040180828152602001915050600060405180830381600087803b15801561099a57600080fd5b505af11580156109ae573d6000803e3d6000fd5b50505050806003600087815260200190815260200160002060006101000a81548173ffffffffffffffffffffffffffffffffffffffff021916908373ffffffffffffffffffffffffffffffffffffffff160217905550507fa5cf6dbd2290a757b4596c73c307c2c5c84e2098e1d8d6e089b7c0a3144d3b8b600184833360405180806020018570ffffffffffffffffffffffffffffffffff191670ffffffffffffffffffffffffffffffffff191681526020018481526020018373ffffffffffffffffffffffffffffffffffffffff1673ffffffffffffffffffffffffffffffffffffffff168152602001828103825286818154600181600116156101000203166002900481526020019150805460018160011615610100020316600290048015610b1a5780601f10610aef57610100808354040283529160200191610b1a565b820191906000526020600020905b815481529060010190602001808311610afd57829003601f168201915b50509550505050505060405180910390a150505095945050505050565b610ac080610b458339019056fe608060405234801561001057600080fd5b50604051606080610ac08339810180604052606081101561003057600080fd5b810190808051906020019092919080519060200190929190805190602001909291905050508282828282826000811015801561006c5750601081105b6100c1576040517f08c379a000000000000000000000000000000000000000000000000000000000815260040180806020018281038252603c815260200180610a84603c913960400191505060405180910390fd5b6000600360009054906101000a905050600f60ff16141561014a576040517f08c379a000000000000000000000000000000000000000000000000000000000815260040180806020018281038252600f8152602001807f456d7074792064676773496e646578000000000000000000000000000000000081525060200191505060405180910390fd5b6000602060ff1614156101c5576040517f08c379a000000000000000000000000000000000000000000000000000000000815260040180806020018281038252600d8152602001807f456d70747920776b62486173680000000000000000000000000000000000000081525060200191505060405180910390fd5b6000339050806000806101000a81548173ffffffffffffffffffffffffffffffffffffffff021916908373ffffffffffffffffffffffffffffffffffffffff1602179055508260028190555083600360006101000a8154816effffffffffffffffffffffffffffff021916908360881c02179055506000600560006101000a81548160ff0219169083600281111561025957fe5b02179055508160048190555073__CSGeometryLib_________________________637834a61282866040518363ffffffff1660e01b8152600401808373ffffffffffffffffffffffffffffffffffffffff1673ffffffffffffffffffffffffffffffffffffffff1681526020018270ffffffffffffffffffffffffffffffffff191670ffffffffffffffffffffffffffffffffff191681526020019250505060206040518083038186803b15801561031057600080fd5b505af4158015610324573d6000803e3d6000fd5b505050506040513d602081101561033a57600080fd5b8101908080519060200190929190505050600181905550505050506002600560006101000a81548160ff0219169083600281111561037457fe5b02179055505050505050506106f68061038e6000396000f3fe608060405234801561001057600080fd5b506004361061009e5760003560e01c8063cb4774c411610066578063cb4774c414610324578063cf50e603146103a7578063d55c3ca3146103d5578063df1ed5e8146103f3578063ecd9fa4a146104395761009e565b806325f1ceaf146100ef5780634d41892f146101aa5780637e9c00fc146101c85780638cde46de146101e6578063bf53096914610269575b6040517f08c379a00000000000000000000000000000000000000000000000000000000081526004018080602001828103825260298152602001806106a26029913960400191505060405180910390fd5b6101a86004803603602081101561010557600080fd5b810190808035906020019064010000000081111561012257600080fd5b82018360208201111561013457600080fd5b8035906020019184600183028401116401000000008311171561015657600080fd5b91908080601f016020809104026020016040519081016040528093929190818152602001838380828437600081840152601f19601f820116905080830192505050505050509192919290505050610457565b005b6101b2610471565b6040518082815260200191505060405180910390f35b6101d0610477565b6040518082815260200191505060405180910390f35b6101ee61047d565b6040518080602001828103825283818151815260200191508051906020019080838360005b8381101561022e578082015181840152602081019050610213565b50505050905090810190601f16801561025b5780820380516001836020036101000a031916815260200191505b509250505060405180910390f35b6103226004803603602081101561027f57600080fd5b810190808035906020019064010000000081111561029c57600080fd5b8201836020820111156102ae57600080fd5b803590602001918460018302840111640100000000831117156102d057600080fd5b91908080601f016020809104026020016040519081016040528093929190818152602001838380828437600081840152601f19601f82011690508083019250505050505050919291929050505061051b565b005b61032c610535565b6040518080602001828103825283818151815260200191508051906020019080838360005b8381101561036c578082015181840152602081019050610351565b50505050905090810190601f1680156103995780820380516001836020036101000a031916815260200191505b509250505060405180910390f35b6103d3600480360360208110156103bd57600080fd5b81019080803590602001909291905050506105d3565b005b6103dd6105dd565b6040518082815260200191505060405180910390f35b6103fb6105e3565b604051808270ffffffffffffffffffffffffffffffffff191670ffffffffffffffffffffffffffffffffff1916815260200191505060405180910390f35b6104416105f6565b6040518082815260200191505060405180910390f35b806006908051906020019061046d9291906105fc565b5050565b60085481565b60045481565b60068054600181600116156101000203166002900480601f0160208091040260200160405190810160405280929190818152602001828054600181600116156101000203166002900480156105135780601f106104e857610100808354040283529160200191610513565b820191906000526020600020905b8154815290600101906020018083116104f657829003601f168201915b505050505081565b80600690805190602001906105319291906105fc565b5050565b60078054600181600116156101000203166002900480601f0160208091040260200160405190810160405280929190818152602001828054600181600116156101000203166002900480156105cb5780601f106105a0576101008083540402835291602001916105cb565b820191906000526020600020905b8154815290600101906020018083116105ae57829003601f168201915b505050505081565b8060088190555050565b60015481565b600360009054906101000a900460881b81565b60025481565b828054600181600116156101000203166002900490600052602060002090601f016020900481019282601f1061063d57805160ff191683800117855561066b565b8280016001018555821561066b579182015b8281111561066a57825182559160200191906001019061064f565b5b509050610678919061067c565b5090565b61069e91905b8082111561069a576000816000905550600101610682565b5090565b9056fe7468697320636f6e74726163742073686f756c64206e65766572206861766520612062616c616e6365a165627a7a7230582039649b7819e6b0f5f0d6b2962e1b4c2226d0a37762e218bd71ef5838a9bb7eed00294833205265736f6c7574696f6e206d757374206265205f68335265736f6c7574696f6e203e3d30202626205f68335265736f6c7574696f6e203c31367468697320636f6e74726163742073686f756c64206e65766572206861766520612062616c616e6365a165627a7a723058203715b98e5a7636840404e8cdb9e202b1fbcd0741476e6e76036f8933685015ed00294833205265736f6c7574696f6e206d757374206265205f68335265736f6c7574696f6e203e3d30202626205f68335265736f6c7574696f6e203c3136",
  "source": "/**\n * @title Crypto-Spatial Parcels Registry\n * @author BENAHMED DAHO Ali\n * @notice an abstract contract that implement a Parcels Registry\n * @dev ...\n *\n*/\n\npragma solidity ^0.5.0;\n\nimport './LAParcel.sol';\nimport './geospatial/CSFeatureRegistry.sol';\n\ncontract LAParcelRegistry is CSFeatureRegistry {\n  //\n  // State variables\n  //\n\n  mapping(bytes32 => LAParcel) parcels; // Mapping CSC => Parcels\n\n  //\n  // Events - publicize actions to external listeners\n  //\n\n  //\n  // Functions\n  //\n\n  /// @notice constuctor\n  constructor (uint _h3Resolution, string memory _name, string memory _srs) public\n  CSFeatureRegistry(_h3Resolution,_name,_srs) {\n    name = \"Parcel Registry\";\n  }\n\n  /**\n  * @notice addFeature\n  * @param dggsIndex dggsIndex of the feature\n  * @param wkbHash Well Known Binary Hash\n  * @param _addr External Address ID\n  * @param _lbl Parcel label\n  * @param _area Parcel Area\n  * @return the Crypto-Spatial Coordinate (CSC) of the feature\n  */\n  function claimParcel(bytes15 dggsIndex,bytes32 wkbHash, string memory _addr, string memory _lbl, uint _area)\n  public addFeature( dggsIndex, wkbHash)\n  returns (bytes32 csc) {\n    LAParcel parcel = new LAParcel(dggsIndex,wkbHash, h3Resolution);\n    parcel.setExtAddressId(_addr);\n    parcel.setLabel(_lbl);\n    parcel.setArea(_area);\n    parcels[csc] = parcel;\n    // return csc;\n  }\n\n  /**\n  * @notice getFeature\n  */\n  function getFeature(bytes32 csc) public view returns (LAParcel){\n    return parcels[csc];\n  }\n\n\n}\n",
  "sourcePath": "/home/ali/EthProjects/onchain-land-administration/solidity/contracts/LAParcelRegistry.sol",
  "compiler": {
    "name": "solc",
    "version": "0.5.8+commit.23d335f2.Emscripten.clang"
  },
  "schemaVersion": "3.0.16",
  "updatedAt": "2019-10-27T23:26:12.324Z",
  "devdoc": {
    "methods": {
      "claimParcel(bytes15,bytes32,string,string,uint256)": {
        "params": {
          "_addr": "External Address ID",
          "_area": "Parcel Area",
          "_lbl": "Parcel label",
          "dggsIndex": "dggsIndex of the feature",
          "wkbHash": "Well Known Binary Hash"
        },
        "return": "the Crypto-Spatial Coordinate (CSC) of the feature"
      }
    }
  },
  "userdoc": {
    "methods": {
      "claimParcel(bytes15,bytes32,string,string,uint256)": {
        "notice": "addFeature"
      },
      "constructor": "constuctor",
      "getFeature(bytes32)": {
        "notice": "getFeature"
      }
    }
  }
}