{
  "contractName": "LAParcel",
  "abi": [
    {
      "constant": true,
      "inputs": [],
      "name": "fetchFeature",
      "outputs": [
        {
          "name": "_csc",
          "type": "bytes32"
        },
        {
          "name": "_dggsIndex",
          "type": "bytes15"
        },
        {
          "name": "_wkbHash",
          "type": "bytes32"
        },
        {
          "name": "__owner",
          "type": "address"
        },
        {
          "name": "_h3Resolution",
          "type": "uint256"
        },
        {
          "name": "_geomteryType",
          "type": "uint8"
        }
      ],
      "payable": false,
      "stateMutability": "view",
      "type": "function"
    },
    {
      "constant": false,
      "inputs": [],
      "name": "getGeometryType",
      "outputs": [
        {
          "name": "",
          "type": "uint8"
        }
      ],
      "payable": false,
      "stateMutability": "nonpayable",
      "type": "function"
    },
    {
      "constant": true,
      "inputs": [
        {
          "name": "_address",
          "type": "address"
        }
      ],
      "name": "isAdmin",
      "outputs": [
        {
          "name": "",
          "type": "bool"
        }
      ],
      "payable": false,
      "stateMutability": "view",
      "type": "function"
    },
    {
      "constant": false,
      "inputs": [
        {
          "name": "_wkbHash",
          "type": "bytes32"
        }
      ],
      "name": "setWkbHash",
      "outputs": [
        {
          "name": "_wkbHashValue",
          "type": "bytes32"
        }
      ],
      "payable": false,
      "stateMutability": "nonpayable",
      "type": "function"
    },
    {
      "constant": false,
      "inputs": [],
      "name": "kill",
      "outputs": [],
      "payable": false,
      "stateMutability": "nonpayable",
      "type": "function"
    },
    {
      "constant": true,
      "inputs": [],
      "name": "getFeatureDGGSIndex",
      "outputs": [
        {
          "name": "",
          "type": "bytes15"
        }
      ],
      "payable": false,
      "stateMutability": "view",
      "type": "function"
    },
    {
      "constant": false,
      "inputs": [],
      "name": "renounceOwnership",
      "outputs": [],
      "payable": false,
      "stateMutability": "nonpayable",
      "type": "function"
    },
    {
      "constant": true,
      "inputs": [],
      "name": "owner",
      "outputs": [
        {
          "name": "",
          "type": "address"
        }
      ],
      "payable": false,
      "stateMutability": "view",
      "type": "function"
    },
    {
      "constant": true,
      "inputs": [],
      "name": "isOwner",
      "outputs": [
        {
          "name": "",
          "type": "bool"
        }
      ],
      "payable": false,
      "stateMutability": "view",
      "type": "function"
    },
    {
      "constant": true,
      "inputs": [],
      "name": "getFeatureCSC",
      "outputs": [
        {
          "name": "",
          "type": "bytes32"
        }
      ],
      "payable": false,
      "stateMutability": "view",
      "type": "function"
    },
    {
      "constant": false,
      "inputs": [
        {
          "name": "newOwner",
          "type": "address"
        }
      ],
      "name": "transferOwnership",
      "outputs": [],
      "payable": false,
      "stateMutability": "nonpayable",
      "type": "function"
    },
    {
      "inputs": [
        {
          "name": "_dggsIndex",
          "type": "bytes15"
        },
        {
          "name": "_wkbHash",
          "type": "bytes32"
        },
        {
          "name": "_owner",
          "type": "address"
        },
        {
          "name": "_h3Resolution",
          "type": "uint256"
        }
      ],
      "payable": false,
      "stateMutability": "nonpayable",
      "type": "constructor"
    },
    {
      "payable": false,
      "stateMutability": "nonpayable",
      "type": "fallback"
    },
    {
      "anonymous": false,
      "inputs": [
        {
          "indexed": true,
          "name": "csc",
          "type": "bytes32"
        },
        {
          "indexed": true,
          "name": "dggsIndex",
          "type": "bytes15"
        },
        {
          "indexed": false,
          "name": "wkbHash",
          "type": "bytes32"
        },
        {
          "indexed": true,
          "name": "owner",
          "type": "address"
        }
      ],
      "name": "LogFeatureCreated",
      "type": "event"
    },
    {
      "anonymous": false,
      "inputs": [
        {
          "indexed": true,
          "name": "csc",
          "type": "bytes32"
        },
        {
          "indexed": true,
          "name": "dggsIndex",
          "type": "bytes15"
        },
        {
          "indexed": false,
          "name": "wkbHash",
          "type": "bytes32"
        },
        {
          "indexed": true,
          "name": "owner",
          "type": "address"
        }
      ],
      "name": "LogFeatureKilled",
      "type": "event"
    },
    {
      "anonymous": false,
      "inputs": [
        {
          "indexed": true,
          "name": "previousOwner",
          "type": "address"
        },
        {
          "indexed": true,
          "name": "newOwner",
          "type": "address"
        }
      ],
      "name": "OwnershipTransferred",
      "type": "event"
    },
    {
      "constant": false,
      "inputs": [
        {
          "name": "_addrId",
          "type": "string"
        }
      ],
      "name": "setExtAddressId",
      "outputs": [],
      "payable": false,
      "stateMutability": "nonpayable",
      "type": "function"
    },
    {
      "constant": false,
      "inputs": [
        {
          "name": "_lbl",
          "type": "string"
        }
      ],
      "name": "setLabel",
      "outputs": [],
      "payable": false,
      "stateMutability": "nonpayable",
      "type": "function"
    },
    {
      "constant": false,
      "inputs": [
        {
          "name": "_area",
          "type": "uint256"
        }
      ],
      "name": "setArea",
      "outputs": [],
      "payable": false,
      "stateMutability": "nonpayable",
      "type": "function"
    },
    {
      "constant": false,
      "inputs": [
        {
          "name": "_parcelType",
          "type": "string"
        }
      ],
      "name": "setParcelType",
      "outputs": [],
      "payable": false,
      "stateMutability": "nonpayable",
      "type": "function"
    },
    {
      "constant": true,
      "inputs": [],
      "name": "fetchParcel",
      "outputs": [
        {
          "name": "",
          "type": "bytes32"
        },
        {
          "name": "",
          "type": "string"
        },
        {
          "name": "",
          "type": "string"
        },
        {
          "name": "",
          "type": "uint256"
        },
        {
          "name": "",
          "type": "string"
        }
      ],
      "payable": false,
      "stateMutability": "view",
      "type": "function"
    }
  ],
  "bytecode": "0x60806040523480156200001157600080fd5b5060405160808062001dfc833981018060405260808110156200003357600080fd5b810190808051906020019092919080519060200190929190805190602001909291908051906020019092919050505083838383838383836200007a6200054960201b60201c565b6000806101000a81548173ffffffffffffffffffffffffffffffffffffffff021916908373ffffffffffffffffffffffffffffffffffffffff1602179055506000809054906101000a900473ffffffffffffffffffffffffffffffffffffffff1673ffffffffffffffffffffffffffffffffffffffff16600073ffffffffffffffffffffffffffffffffffffffff167f8be0079c531659141344cd1fd0a4f28419497f9722a3daafe3b4186f6b6457e060405160405180910390a360008110158015620001475750601081105b6200019e576040517f08c379a000000000000000000000000000000000000000000000000000000000815260040180806020018281038252603c81526020018062001d9e603c913960400191505060405180910390fd5b600060f81b846000600f8110620001b157fe5b1a60f81b7effffffffffffffffffffffffffffffffffffffffffffffffffffffffffffff191614156200024c576040517f08c379a000000000000000000000000000000000000000000000000000000000815260040180806020018281038252600f8152602001807f456d7074792064676773496e646578000000000000000000000000000000000081525060200191505060405180910390fd5b600060f81b836000602081106200025f57fe5b1a60f81b7effffffffffffffffffffffffffffffffffffffffffffffffffffffffffffff19161415620002fa576040517f08c379a000000000000000000000000000000000000000000000000000000000815260040180806020018281038252600d8152602001807f456d70747920776b62486173680000000000000000000000000000000000000081525060200191505060405180910390fd5b6200030b826200055160201b60201c565b62000326826006620005e860201b620012441790919060201c565b62000341336006620005e860201b620012441790919060201c565b8260028190555083600360006101000a8154816effffffffffffffffffffffffffffff021916908360881c02179055506000600560006101000a81548160ff021916908360028111156200039157fe5b02179055508060048190555073__CSGeometryLib_________________________637834a61283866040518363ffffffff1660e01b8152600401808373ffffffffffffffffffffffffffffffffffffffff1673ffffffffffffffffffffffffffffffffffffffff1681526020018270ffffffffffffffffffffffffffffffffff191670ffffffffffffffffffffffffffffffffff191681526020019250505060206040518083038186803b1580156200044957600080fd5b505af41580156200045e573d6000803e3d6000fd5b505050506040513d60208110156200047557600080fd5b81019080805190602001909291905050506001819055506200049c620006cc60201b60201c565b73ffffffffffffffffffffffffffffffffffffffff16600360009054906101000a900460881b70ffffffffffffffffffffffffffffffffff19166001547f025eef9175b0635cefa846add44300456401183653e2b56e06ff204282d087d96002546040518082815260200191505060405180910390a4505050506002600560006101000a81548160ff021916908360028111156200053657fe5b0217905550505050505050505062000981565b600033905090565b62000561620006f560201b60201c565b620005d4576040517f08c379a00000000000000000000000000000000000000000000000000000000081526004018080602001828103825260208152602001807f4f776e61626c653a2063616c6c6572206973206e6f7420746865206f776e657281525060200191505060405180910390fd5b620005e5816200075b60201b60201c565b50565b620005fa8282620008a160201b60201c565b156200066e576040517f08c379a000000000000000000000000000000000000000000000000000000000815260040180806020018281038252601f8152602001807f526f6c65733a206163636f756e7420616c72656164792068617320726f6c650081525060200191505060405180910390fd5b60018260000160008373ffffffffffffffffffffffffffffffffffffffff1673ffffffffffffffffffffffffffffffffffffffff16815260200190815260200160002060006101000a81548160ff0219169083151502179055505050565b60008060009054906101000a900473ffffffffffffffffffffffffffffffffffffffff16905090565b60008060009054906101000a900473ffffffffffffffffffffffffffffffffffffffff1673ffffffffffffffffffffffffffffffffffffffff166200073f6200054960201b60201c565b73ffffffffffffffffffffffffffffffffffffffff1614905090565b600073ffffffffffffffffffffffffffffffffffffffff168173ffffffffffffffffffffffffffffffffffffffff161415620007e3576040517f08c379a000000000000000000000000000000000000000000000000000000000815260040180806020018281038252602681526020018062001d786026913960400191505060405180910390fd5b8073ffffffffffffffffffffffffffffffffffffffff166000809054906101000a900473ffffffffffffffffffffffffffffffffffffffff1673ffffffffffffffffffffffffffffffffffffffff167f8be0079c531659141344cd1fd0a4f28419497f9722a3daafe3b4186f6b6457e060405160405180910390a3806000806101000a81548173ffffffffffffffffffffffffffffffffffffffff021916908373ffffffffffffffffffffffffffffffffffffffff16021790555050565b60008073ffffffffffffffffffffffffffffffffffffffff168273ffffffffffffffffffffffffffffffffffffffff1614156200092a576040517f08c379a000000000000000000000000000000000000000000000000000000000815260040180806020018281038252602281526020018062001dda6022913960400191505060405180910390fd5b8260000160008373ffffffffffffffffffffffffffffffffffffffff1673ffffffffffffffffffffffffffffffffffffffff16815260200190815260200160002060009054906101000a900460ff16905092915050565b6113e780620009916000396000f3fe608060405234801561001057600080fd5b50600436106101005760003560e01c8063572982f511610097578063b85a0edd11610066578063b85a0edd146105df578063bf530969146105fd578063cf50e60314610676578063f2fde38b146106a457610100565b8063572982f514610523578063715018a6146105695780638da5cb5b146105735780638f32d59b146105bd57610100565b806325f1ceaf116100d357806325f1ceaf146103e55780632befd03c1461045e57806341c0e1b5146104a0578063487a178c146104aa57610100565b806306ab28bf146101515780631383e2ad146102ba57806317e178091461035d57806324d7806c14610389575b6040517f08c379a00000000000000000000000000000000000000000000000000000000081526004018080602001828103825260298152602001806113716029913960400191505060405180910390fd5b6101596106e8565b60405180868152602001806020018060200185815260200180602001848103845288818151815260200191508051906020019080838360005b838110156101ad578082015181840152602081019050610192565b50505050905090810190601f1680156101da5780820380516001836020036101000a031916815260200191505b50848103835287818151815260200191508051906020019080838360005b838110156102135780820151818401526020810190506101f8565b50505050905090810190601f1680156102405780820380516001836020036101000a031916815260200191505b50848103825285818151815260200191508051906020019080838360005b8381101561027957808201518184015260208101905061025e565b50505050905090810190601f1680156102a65780820380516001836020036101000a031916815260200191505b509850505050505050505060405180910390f35b6102c26108e2565b604051808781526020018670ffffffffffffffffffffffffffffffffff191670ffffffffffffffffffffffffffffffffff191681526020018581526020018473ffffffffffffffffffffffffffffffffffffffff1673ffffffffffffffffffffffffffffffffffffffff16815260200183815260200182600281111561034457fe5b60ff168152602001965050505050505060405180910390f35b610365610930565b6040518082600281111561037557fe5b60ff16815260200191505060405180910390f35b6103cb6004803603602081101561039f57600080fd5b81019080803573ffffffffffffffffffffffffffffffffffffffff169060200190929190505050610947565b604051808215151515815260200191505060405180910390f35b61045c600480360360208110156103fb57600080fd5b810190808035906020019064010000000081111561041857600080fd5b82018360208201111561042a57600080fd5b8035906020019184600183028401116401000000008311171561044c57600080fd5b9091929391929390505050610964565b005b61048a6004803603602081101561047457600080fd5b81019080803590602001909291905050506109e5565b6040518082815260200191505060405180910390f35b6104a8610b0d565b005b610521600480360360208110156104c057600080fd5b81019080803590602001906401000000008111156104dd57600080fd5b8201836020820111156104ef57600080fd5b8035906020019184600183028401116401000000008311171561051157600080fd5b9091929391929390505050610b97565b005b61052b610c18565b604051808270ffffffffffffffffffffffffffffffffff191670ffffffffffffffffffffffffffffffffff1916815260200191505060405180910390f35b610571610c2f565b005b61057b610d68565b604051808273ffffffffffffffffffffffffffffffffffffffff1673ffffffffffffffffffffffffffffffffffffffff16815260200191505060405180910390f35b6105c5610d91565b604051808215151515815260200191505060405180910390f35b6105e7610def565b6040518082815260200191505060405180910390f35b6106746004803603602081101561061357600080fd5b810190808035906020019064010000000081111561063057600080fd5b82018360208201111561064257600080fd5b8035906020019184600183028401116401000000008311171561066457600080fd5b9091929391929390505050610df9565b005b6106a26004803603602081101561068c57600080fd5b8101908080359060200190929190505050610e7a565b005b6106e6600480360360208110156106ba57600080fd5b81019080803573ffffffffffffffffffffffffffffffffffffffff169060200190929190505050610eef565b005b60006060806000606060015460076008600954600a838054600181600116156101000203166002900480601f0160208091040260200160405190810160405280929190818152602001828054600181600116156101000203166002900480156107925780601f1061076757610100808354040283529160200191610792565b820191906000526020600020905b81548152906001019060200180831161077557829003601f168201915b50505050509350828054600181600116156101000203166002900480601f01602080910402602001604051908101604052809291908181526020018280546001816001161561010002031660029004801561082e5780601f106108035761010080835404028352916020019161082e565b820191906000526020600020905b81548152906001019060200180831161081157829003601f168201915b50505050509250808054600181600116156101000203166002900480601f0160208091040260200160405190810160405280929190818152602001828054600181600116156101000203166002900480156108ca5780601f1061089f576101008083540402835291602001916108ca565b820191906000526020600020905b8154815290600101906020018083116108ad57829003601f168201915b50505050509050945094509450945094509091929394565b600080600080600080600154600360009054906101000a900460881b600254610909610d68565b600454600560009054906101000a900460ff16955095509550955095509550909192939495565b6000600560009054906101000a900460ff16905090565b600061095d826006610f7590919063ffffffff16565b9050919050565b33610979816006610f7590919063ffffffff16565b6109ce576040517f08c379a000000000000000000000000000000000000000000000000000000000815260040180806020018281038252602b815260200180611346602b913960400191505060405180910390fd5b8282600791906109df92919061119f565b50505050565b6000336109fc816006610f7590919063ffffffff16565b610a51576040517f08c379a000000000000000000000000000000000000000000000000000000000815260040180806020018281038252602b815260200180611346602b913960400191505060405180910390fd5b600060f81b83600060208110610a6357fe5b1a60f81b7effffffffffffffffffffffffffffffffffffffffffffffffffffffffffffff19161415610afd576040517f08c379a000000000000000000000000000000000000000000000000000000000815260040180806020018281038252600d8152602001807f456d70747920776b62486173680000000000000000000000000000000000000081525060200191505060405180910390fd5b8260028190555082915050919050565b33610b22816006610f7590919063ffffffff16565b610b77576040517f08c379a000000000000000000000000000000000000000000000000000000000815260040180806020018281038252602b815260200180611346602b913960400191505060405180910390fd5b610b7f610d68565b73ffffffffffffffffffffffffffffffffffffffff16ff5b33610bac816006610f7590919063ffffffff16565b610c01576040517f08c379a000000000000000000000000000000000000000000000000000000000815260040180806020018281038252602b815260200180611346602b913960400191505060405180910390fd5b8282600a9190610c1292919061119f565b50505050565b6000600360009054906101000a900460881b905090565b610c37610d91565b610ca9576040517f08c379a00000000000000000000000000000000000000000000000000000000081526004018080602001828103825260208152602001807f4f776e61626c653a2063616c6c6572206973206e6f7420746865206f776e657281525060200191505060405180910390fd5b600073ffffffffffffffffffffffffffffffffffffffff166000809054906101000a900473ffffffffffffffffffffffffffffffffffffffff1673ffffffffffffffffffffffffffffffffffffffff167f8be0079c531659141344cd1fd0a4f28419497f9722a3daafe3b4186f6b6457e060405160405180910390a360008060006101000a81548173ffffffffffffffffffffffffffffffffffffffff021916908373ffffffffffffffffffffffffffffffffffffffff160217905550565b60008060009054906101000a900473ffffffffffffffffffffffffffffffffffffffff16905090565b60008060009054906101000a900473ffffffffffffffffffffffffffffffffffffffff1673ffffffffffffffffffffffffffffffffffffffff16610dd3611053565b73ffffffffffffffffffffffffffffffffffffffff1614905090565b6000600154905090565b33610e0e816006610f7590919063ffffffff16565b610e63576040517f08c379a000000000000000000000000000000000000000000000000000000000815260040180806020018281038252602b815260200180611346602b913960400191505060405180910390fd5b828260089190610e7492919061119f565b50505050565b33610e8f816006610f7590919063ffffffff16565b610ee4576040517f08c379a000000000000000000000000000000000000000000000000000000000815260040180806020018281038252602b815260200180611346602b913960400191505060405180910390fd5b816009819055505050565b610ef7610d91565b610f69576040517f08c379a00000000000000000000000000000000000000000000000000000000081526004018080602001828103825260208152602001807f4f776e61626c653a2063616c6c6572206973206e6f7420746865206f776e657281525060200191505060405180910390fd5b610f728161105b565b50565b60008073ffffffffffffffffffffffffffffffffffffffff168273ffffffffffffffffffffffffffffffffffffffff161415610ffc576040517f08c379a000000000000000000000000000000000000000000000000000000000815260040180806020018281038252602281526020018061139a6022913960400191505060405180910390fd5b8260000160008373ffffffffffffffffffffffffffffffffffffffff1673ffffffffffffffffffffffffffffffffffffffff16815260200190815260200160002060009054906101000a900460ff16905092915050565b600033905090565b600073ffffffffffffffffffffffffffffffffffffffff168173ffffffffffffffffffffffffffffffffffffffff1614156110e1576040517f08c379a00000000000000000000000000000000000000000000000000000000081526004018080602001828103825260268152602001806113206026913960400191505060405180910390fd5b8073ffffffffffffffffffffffffffffffffffffffff166000809054906101000a900473ffffffffffffffffffffffffffffffffffffffff1673ffffffffffffffffffffffffffffffffffffffff167f8be0079c531659141344cd1fd0a4f28419497f9722a3daafe3b4186f6b6457e060405160405180910390a3806000806101000a81548173ffffffffffffffffffffffffffffffffffffffff021916908373ffffffffffffffffffffffffffffffffffffffff16021790555050565b828054600181600116156101000203166002900490600052602060002090601f016020900481019282601f106111e057803560ff191683800117855561120e565b8280016001018555821561120e579182015b8281111561120d5782358255916020019190600101906111f2565b5b50905061121b919061121f565b5090565b61124191905b8082111561123d576000816000905550600101611225565b5090565b90565b61124e8282610f75565b156112c1576040517f08c379a000000000000000000000000000000000000000000000000000000000815260040180806020018281038252601f8152602001807f526f6c65733a206163636f756e7420616c72656164792068617320726f6c650081525060200191505060405180910390fd5b60018260000160008373ffffffffffffffffffffffffffffffffffffffff1673ffffffffffffffffffffffffffffffffffffffff16815260200190815260200160002060006101000a81548160ff021916908315150217905550505056fe4f776e61626c653a206e6577206f776e657220697320746865207a65726f206164647265737343616c6c657220686176656e27742061646d696e7320726967687473206f6e2074686520666561747572657468697320636f6e74726163742073686f756c64206e65766572206861766520612062616c616e6365526f6c65733a206163636f756e7420697320746865207a65726f2061646472657373a165627a7a72305820693ed7d9147351d2744d4c789736d1e9ff1d2f428405a666594ddd7f7b47517f00294f776e61626c653a206e6577206f776e657220697320746865207a65726f20616464726573734833205265736f6c7574696f6e206d757374206265205f68335265736f6c7574696f6e203e3d30202626205f68335265736f6c7574696f6e203c3136526f6c65733a206163636f756e7420697320746865207a65726f2061646472657373",
  "source": "/**\n * @title Land Administration Parcel\n * @author BENAHMED DAHO Ali\n * @notice a Crypto-Spatial Features registry for land parcels\n * on the etherurm blockchain\n *\n * @dev LA_SPATIAL_UNIT (ISO 19152)\n *\n*/\n\npragma solidity ^0.5.0;\n\nimport './geospatial/CSSurface.sol';\n\ncontract LAParcel is CSSurface {\n\n    //\n    // State variables\n    //\n\n    string internal extAddressId; // Parcel external real world address ID\n    string internal label;        // Parcel label\n    uint internal area;           // Cadastral area of the parcel\n    string internal parcelType;   // may be : Building, Agriculture, Industrial, ...\n\n    //\n    // Functions\n    //\n\n    /**\n    * @notice constuctor\n    * @dev initialize state variables\n    */\n\n    constructor (bytes15 _dggsIndex, bytes32 _wkbHash, address _owner, uint _h3Resolution) public\n    CSSurface(_dggsIndex, _wkbHash, _owner, _h3Resolution){\n    }\n\n    /**\n     * @notice set extAddressId state variable\n     * @param _addrId the external address ID\n     */\n\n     function setExtAddressId(string calldata _addrId) external onlyAdmins(msg.sender) {\n         extAddressId = _addrId;\n     }\n\n     /**\n     * @notice set label state variable\n     * @param _lbl the parcel label\n     */\n     \n     function setLabel(string calldata _lbl) external onlyAdmins(msg.sender) {\n         label = _lbl;\n     }\n\n     /**\n     * @notice set area state variable\n     * @param _area the area of the parcel\n     *\n     */\n     function setArea(uint _area) external onlyAdmins(msg.sender) {\n         area = _area;\n     }\n\n    /**\n     * @notice set setParcelType state variable\n     * @param _parcelType the Parcel Type of the parcel\n     *\n     */\n     function setParcelType(string calldata _parcelType) external onlyAdmins(msg.sender) {\n         parcelType = _parcelType;\n     }\n\n     /**\n      * @dev returns all the state values of the Parcel\n      */\n     function fetchParcel() public view\n     returns (bytes32, string memory, string memory, uint, string memory ) {\n         return (csc, extAddressId, label, area, parcelType);\n\n     }\n\n\n}\n",
  "sourcePath": "/home/ali/EthProjects/onchain-land-administration/solidity/contracts/LAParcel.sol",
  "compiler": {
    "name": "solc",
    "version": "0.5.8+commit.23d335f2.Emscripten.clang"
  },
  "schemaVersion": "3.0.16",
  "updatedAt": "2019-11-29T20:33:43.107Z",
  "devdoc": {
    "methods": {
      "constructor": {
        "details": "initialize state variables"
      },
      "fetchFeature()": {
        "details": "returns all the values of the feature"
      },
      "fetchParcel()": {
        "details": "returns all the state values of the Parcel"
      },
      "getGeometryType()": {
        "details": "getGeometryType"
      },
      "isAdmin(address)": {
        "details": "isAdmin : check if the addres is an admin of this feature   "
      },
      "isOwner()": {
        "details": "Returns true if the caller is the current owner."
      },
      "kill()": {
        "details": "remove permanently the feature from the blockchain TODO cross check with Registry removeFeature"
      },
      "owner()": {
        "details": "Returns the address of the current owner."
      },
      "renounceOwnership()": {
        "details": "Leaves the contract without owner. It will not be possible to call `onlyOwner` functions anymore. Can only be called by the current owner.     * NOTE: Renouncing ownership will leave the contract without an owner, thereby removing any functionality that is only available to the owner."
      },
      "setArea(uint256)": {
        "params": {
          "_area": "the area of the parcel     "
        }
      },
      "setExtAddressId(string)": {
        "params": {
          "_addrId": "the external address ID"
        }
      },
      "setLabel(string)": {
        "params": {
          "_lbl": "the parcel label"
        }
      },
      "setParcelType(string)": {
        "params": {
          "_parcelType": "the Parcel Type of the parcel     "
        }
      },
      "setWkbHash(bytes32)": {
        "details": "update the Well Known Binary Hash of the feature"
      },
      "transferOwnership(address)": {
        "details": "Transfers ownership of the contract to a new account (`newOwner`). Can only be called by the current owner."
      }
    }
  },
  "userdoc": {
    "methods": {
      "constructor": "constuctor",
      "setArea(uint256)": {
        "notice": "set area state variable"
      },
      "setExtAddressId(string)": {
        "notice": "set extAddressId state variable"
      },
      "setLabel(string)": {
        "notice": "set label state variable"
      },
      "setParcelType(string)": {
        "notice": "set setParcelType state variable"
      }
    }
  }
}