{
  "contractName": "LAParcelRegistry",
  "abi": [
    {
      "constant": true,
      "inputs": [],
      "name": "srs",
      "outputs": [
        {
          "name": "",
          "type": "string"
        }
      ],
      "payable": false,
      "stateMutability": "view",
      "type": "function"
    },
    {
      "constant": true,
      "inputs": [],
      "name": "name",
      "outputs": [
        {
          "name": "",
          "type": "string"
        }
      ],
      "payable": false,
      "stateMutability": "view",
      "type": "function"
    },
    {
      "constant": false,
      "inputs": [],
      "name": "unpause",
      "outputs": [],
      "payable": false,
      "stateMutability": "nonpayable",
      "type": "function"
    },
    {
      "constant": true,
      "inputs": [
        {
          "name": "account",
          "type": "address"
        }
      ],
      "name": "isPauser",
      "outputs": [
        {
          "name": "",
          "type": "bool"
        }
      ],
      "payable": false,
      "stateMutability": "view",
      "type": "function"
    },
    {
      "constant": true,
      "inputs": [],
      "name": "paused",
      "outputs": [
        {
          "name": "",
          "type": "bool"
        }
      ],
      "payable": false,
      "stateMutability": "view",
      "type": "function"
    },
    {
      "constant": true,
      "inputs": [],
      "name": "getFeatureCount",
      "outputs": [
        {
          "name": "",
          "type": "uint256"
        }
      ],
      "payable": false,
      "stateMutability": "view",
      "type": "function"
    },
    {
      "constant": false,
      "inputs": [],
      "name": "renouncePauser",
      "outputs": [],
      "payable": false,
      "stateMutability": "nonpayable",
      "type": "function"
    },
    {
      "constant": true,
      "inputs": [],
      "name": "h3Resolution",
      "outputs": [
        {
          "name": "",
          "type": "uint256"
        }
      ],
      "payable": false,
      "stateMutability": "view",
      "type": "function"
    },
    {
      "constant": false,
      "inputs": [
        {
          "name": "account",
          "type": "address"
        }
      ],
      "name": "addPauser",
      "outputs": [],
      "payable": false,
      "stateMutability": "nonpayable",
      "type": "function"
    },
    {
      "constant": false,
      "inputs": [],
      "name": "pause",
      "outputs": [],
      "payable": false,
      "stateMutability": "nonpayable",
      "type": "function"
    },
    {
      "constant": true,
      "inputs": [
        {
          "name": "csc",
          "type": "bytes32"
        }
      ],
      "name": "getFeature",
      "outputs": [
        {
          "name": "",
          "type": "address"
        }
      ],
      "payable": false,
      "stateMutability": "view",
      "type": "function"
    },
    {
      "inputs": [
        {
          "name": "_name",
          "type": "string"
        },
        {
          "name": "_h3Resolution",
          "type": "uint256"
        },
        {
          "name": "_srs",
          "type": "string"
        }
      ],
      "payable": false,
      "stateMutability": "nonpayable",
      "type": "constructor"
    },
    {
      "payable": false,
      "stateMutability": "nonpayable",
      "type": "fallback"
    },
    {
      "anonymous": false,
      "inputs": [
        {
          "indexed": false,
          "name": "csc",
          "type": "bytes32"
        },
        {
          "indexed": false,
          "name": "dggsIndex",
          "type": "bytes15"
        },
        {
          "indexed": false,
          "name": "wkbHash",
          "type": "bytes32"
        },
        {
          "indexed": false,
          "name": "addr",
          "type": "string"
        },
        {
          "indexed": false,
          "name": "lbl",
          "type": "string"
        },
        {
          "indexed": false,
          "name": "area",
          "type": "uint256"
        },
        {
          "indexed": false,
          "name": "parcelType",
          "type": "string"
        }
      ],
      "name": "LogParcelClaimed",
      "type": "event"
    },
    {
      "anonymous": false,
      "inputs": [
        {
          "indexed": false,
          "name": "name",
          "type": "string"
        },
        {
          "indexed": false,
          "name": "csc",
          "type": "bytes32"
        },
        {
          "indexed": false,
          "name": "dggsIndex",
          "type": "bytes15"
        },
        {
          "indexed": false,
          "name": "wkbHash",
          "type": "bytes32"
        },
        {
          "indexed": false,
          "name": "owner",
          "type": "address"
        }
      ],
      "name": "LogNewFeatureAdded",
      "type": "event"
    },
    {
      "anonymous": false,
      "inputs": [
        {
          "indexed": false,
          "name": "account",
          "type": "address"
        }
      ],
      "name": "Paused",
      "type": "event"
    },
    {
      "anonymous": false,
      "inputs": [
        {
          "indexed": false,
          "name": "account",
          "type": "address"
        }
      ],
      "name": "Unpaused",
      "type": "event"
    },
    {
      "anonymous": false,
      "inputs": [
        {
          "indexed": true,
          "name": "account",
          "type": "address"
        }
      ],
      "name": "PauserAdded",
      "type": "event"
    },
    {
      "anonymous": false,
      "inputs": [
        {
          "indexed": true,
          "name": "account",
          "type": "address"
        }
      ],
      "name": "PauserRemoved",
      "type": "event"
    },
    {
      "constant": false,
      "inputs": [
        {
          "name": "dggsIndex",
          "type": "bytes15"
        },
        {
          "name": "wkbHash",
          "type": "bytes32"
        },
        {
          "name": "addr",
          "type": "string"
        },
        {
          "name": "lbl",
          "type": "string"
        },
        {
          "name": "area",
          "type": "uint256"
        },
        {
          "name": "parcelType",
          "type": "string"
        }
      ],
      "name": "claimParcel",
      "outputs": [
        {
          "name": "",
          "type": "bytes32"
        }
      ],
      "payable": false,
      "stateMutability": "nonpayable",
      "type": "function"
    }
  ],
  "bytecode": "0x608060405260006005553480156200001657600080fd5b506040516200364f3803806200364f833981018060405260608110156200003c57600080fd5b8101908080516401000000008111156200005557600080fd5b828101905060208101848111156200006c57600080fd5b81518560018202830111640100000000821117156200008a57600080fd5b5050929190602001805190602001909291908051640100000000811115620000b157600080fd5b82810190506020810184811115620000c857600080fd5b8151856001820283011164010000000082111715620000e657600080fd5b50509291905050508282826200011162000105620002e560201b60201c565b620002ed60201b60201c565b6000600160006101000a81548160ff021916908315150217905550600082101580156200013e5750601082105b62000195576040517f08c379a000000000000000000000000000000000000000000000000000000000815260040180806020018281038252603c815260200180620035f1603c913960400191505060405180910390fd5b600060f81b83600081518110620001a857fe5b602001015160f81c60f81b7effffffffffffffffffffffffffffffffffffffffffffffffffffffffffffff191614156200024a576040517f08c379a000000000000000000000000000000000000000000000000000000000815260040180806020018281038252600a8152602001807f456d707479206e616d650000000000000000000000000000000000000000000081525060200191505060405180910390fd5b8160028190555082600390805190602001906200026992919062000512565b5080600490805190602001906200028292919062000512565b5060006005819055505050506040518060400160405280600f81526020017f50617263656c205265676973747279000000000000000000000000000000000081525060039080519060200190620002db92919062000512565b50505050620005c1565b600033905090565b620003088160006200034e60201b620018e91790919060201c565b8073ffffffffffffffffffffffffffffffffffffffff167f6719d08c1888103bea251a4ed56406bd0c3e69723c8a1686e017e7bbe159b6f860405160405180910390a250565b6200036082826200043260201b60201c565b15620003d4576040517f08c379a000000000000000000000000000000000000000000000000000000000815260040180806020018281038252601f8152602001807f526f6c65733a206163636f756e7420616c72656164792068617320726f6c650081525060200191505060405180910390fd5b60018260000160008373ffffffffffffffffffffffffffffffffffffffff1673ffffffffffffffffffffffffffffffffffffffff16815260200190815260200160002060006101000a81548160ff0219169083151502179055505050565b60008073ffffffffffffffffffffffffffffffffffffffff168273ffffffffffffffffffffffffffffffffffffffff161415620004bb576040517f08c379a00000000000000000000000000000000000000000000000000000000081526004018080602001828103825260228152602001806200362d6022913960400191505060405180910390fd5b8260000160008373ffffffffffffffffffffffffffffffffffffffff1673ffffffffffffffffffffffffffffffffffffffff16815260200190815260200160002060009054906101000a900460ff16905092915050565b828054600181600116156101000203166002900490600052602060002090601f016020900481019282601f106200055557805160ff191683800117855562000586565b8280016001018555821562000586579182015b828111156200058557825182559160200191906001019062000568565b5b50905062000595919062000599565b5090565b620005be91905b80821115620005ba576000816000905550600101620005a0565b5090565b90565b61302080620005d16000396000f3fe60806040523480156200001157600080fd5b5060043610620000c45760003560e01c80636106f192116200007b5780636106f19214620004f05780636ef8d66d14620005105780637e9c00fc146200051c57806382dc1ec4146200053c5780638456cb5914620005835780638b12dbaa146200058f57620000c4565b806303229556146200011657806306fdde03146200019e5780633f4ba83a146200022657806346fbf68e14620002325780634772874f14620002915780635c975abb14620004cc575b6040517f08c379a000000000000000000000000000000000000000000000000000000000815260040180806020018281038252602981526020018062002f896029913960400191505060405180910390fd5b6200012062000600565b6040518080602001828103825283818151815260200191508051906020019080838360005b838110156200016257808201518184015260208101905062000145565b50505050905090810190601f168015620001905780820380516001836020036101000a031916815260200191505b509250505060405180910390f35b620001a8620006a2565b6040518080602001828103825283818151815260200191508051906020019080838360005b83811015620001ea578082015181840152602081019050620001cd565b50505050905090810190601f168015620002185780820380516001836020036101000a031916815260200191505b509250505060405180910390f35b6200023062000744565b005b62000277600480360360208110156200024a57600080fd5b81019080803573ffffffffffffffffffffffffffffffffffffffff169060200190929190505050620008bb565b604051808215151515815260200191505060405180910390f35b620004b6600480360360c0811015620002a957600080fd5b81019080803570ffffffffffffffffffffffffffffffffff191690602001909291908035906020019092919080359060200190640100000000811115620002ef57600080fd5b8201836020820111156200030257600080fd5b803590602001918460018302840111640100000000831117156200032557600080fd5b91908080601f016020809104026020016040519081016040528093929190818152602001838380828437600081840152601f19601f820116905080830192505050505050509192919290803590602001906401000000008111156200038957600080fd5b8201836020820111156200039c57600080fd5b80359060200191846001830284011164010000000083111715620003bf57600080fd5b91908080601f016020809104026020016040519081016040528093929190818152602001838380828437600081840152601f19601f82011690508083019250505050505050919291929080359060200190929190803590602001906401000000008111156200042d57600080fd5b8201836020820111156200044057600080fd5b803590602001918460018302840111640100000000831117156200046357600080fd5b91908080601f016020809104026020016040519081016040528093929190818152602001838380828437600081840152601f19601f820116905080830192505050505050509192919290505050620008da565b6040518082815260200191505060405180910390f35b620004d6620012db565b604051808215151515815260200191505060405180910390f35b620004fa620012f2565b6040518082815260200191505060405180910390f35b6200051a620012fc565b005b6200052662001312565b6040518082815260200191505060405180910390f35b62000581600480360360208110156200055457600080fd5b81019080803573ffffffffffffffffffffffffffffffffffffffff16906020019092919050505062001318565b005b6200058d62001391565b005b620005be60048036036020811015620005a757600080fd5b810190808035906020019092919050505062001508565b604051808273ffffffffffffffffffffffffffffffffffffffff1673ffffffffffffffffffffffffffffffffffffffff16815260200191505060405180910390f35b60048054600181600116156101000203166002900480601f0160208091040260200160405190810160405280929190818152602001828054600181600116156101000203166002900480156200069a5780601f106200066e576101008083540402835291602001916200069a565b820191906000526020600020905b8154815290600101906020018083116200067c57829003601f168201915b505050505081565b60038054600181600116156101000203166002900480601f0160208091040260200160405190810160405280929190818152602001828054600181600116156101000203166002900480156200073c5780601f1062000710576101008083540402835291602001916200073c565b820191906000526020600020905b8154815290600101906020018083116200071e57829003601f168201915b505050505081565b6200075862000752620015ff565b620008bb565b620007af576040517f08c379a000000000000000000000000000000000000000000000000000000000815260040180806020018281038252603081526020018062002f336030913960400191505060405180910390fd5b600160009054906101000a900460ff1662000832576040517f08c379a00000000000000000000000000000000000000000000000000000000081526004018080602001828103825260148152602001807f5061757361626c653a206e6f742070617573656400000000000000000000000081525060200191505060405180910390fd5b6000600160006101000a81548160ff0219169083151502179055507f5db9ee0a495bf2e6ff9c91a7834c1ba4fdd244a5e8aa4e537bd38aeae4b073aa62000878620015ff565b604051808273ffffffffffffffffffffffffffffffffffffffff1673ffffffffffffffffffffffffffffffffffffffff16815260200191505060405180910390a1565b6000620008d38260006200160790919063ffffffff16565b9050919050565b6000868633620008e9620012db565b156200095d576040517f08c379a00000000000000000000000000000000000000000000000000000000081526004018080602001828103825260128152602001807f436f6e747261637420697320706175736564000000000000000000000000000081525060200191505060405180910390fd5b6000600f60ff161415620009d9576040517f08c379a000000000000000000000000000000000000000000000000000000000815260040180806020018281038252600f8152602001807f456d7074792064676773496e646578000000000000000000000000000000000081525060200191505060405180910390fd5b6000602060ff16141562000a55576040517f08c379a000000000000000000000000000000000000000000000000000000000815260040180806020018281038252600d8152602001807f456d70747920776b62486173680000000000000000000000000000000000000081525060200191505060405180910390fd5b60008a8a3360025460405162000a6b90620019c7565b808570ffffffffffffffffffffffffffffffffff191670ffffffffffffffffffffffffffffffffff191681526020018481526020018373ffffffffffffffffffffffffffffffffffffffff1673ffffffffffffffffffffffffffffffffffffffff168152602001828152602001945050505050604051809103906000f08015801562000afb573d6000803e3d6000fd5b50905060008173ffffffffffffffffffffffffffffffffffffffff1663b85a0edd6040518163ffffffff1660e01b815260040160206040518083038186803b15801562000b4757600080fd5b505afa15801562000b5c573d6000803e3d6000fd5b505050506040513d602081101562000b7357600080fd5b810190808051906020019092919050505090508173ffffffffffffffffffffffffffffffffffffffff166325f1ceaf8b6040518263ffffffff1660e01b81526004018080602001828103825283818151815260200191508051906020019080838360005b8381101562000bf457808201518184015260208101905062000bd7565b50505050905090810190601f16801562000c225780820380516001836020036101000a031916815260200191505b5092505050600060405180830381600087803b15801562000c4257600080fd5b505af115801562000c57573d6000803e3d6000fd5b505050508173ffffffffffffffffffffffffffffffffffffffff1663bf5309698a6040518263ffffffff1660e01b81526004018080602001828103825283818151815260200191508051906020019080838360005b8381101562000cc957808201518184015260208101905062000cac565b50505050905090810190601f16801562000cf75780820380516001836020036101000a031916815260200191505b5092505050600060405180830381600087803b15801562000d1757600080fd5b505af115801562000d2c573d6000803e3d6000fd5b505050508173ffffffffffffffffffffffffffffffffffffffff1663cf50e603896040518263ffffffff1660e01b815260040180828152602001915050600060405180830381600087803b15801562000d8457600080fd5b505af115801562000d99573d6000803e3d6000fd5b505050508173ffffffffffffffffffffffffffffffffffffffff1663487a178c886040518263ffffffff1660e01b81526004018080602001828103825283818151815260200191508051906020019080838360005b8381101562000e0b57808201518184015260208101905062000dee565b50505050905090810190601f16801562000e395780820380516001836020036101000a031916815260200191505b5092505050600060405180830381600087803b15801562000e5957600080fd5b505af115801562000e6e573d6000803e3d6000fd5b50505050816006600083815260200190815260200160002060006101000a81548173ffffffffffffffffffffffffffffffffffffffff021916908373ffffffffffffffffffffffffffffffffffffffff1602179055507fb31cbfa5ae8fae71189d6ee9cf873185373cf8143beac0aab2234736c3a2dca9818d8d8d8d8d8d604051808881526020018770ffffffffffffffffffffffffffffffffff191670ffffffffffffffffffffffffffffffffff19168152602001868152602001806020018060200185815260200180602001848103845288818151815260200191508051906020019080838360005b8381101562000f7657808201518184015260208101905062000f59565b50505050905090810190601f16801562000fa45780820380516001836020036101000a031916815260200191505b50848103835287818151815260200191508051906020019080838360005b8381101562000fdf57808201518184015260208101905062000fc2565b50505050905090810190601f1680156200100d5780820380516001836020036101000a031916815260200191505b50848103825285818151815260200191508051906020019080838360005b83811015620010485780820151818401526020810190506200102b565b50505050905090810190601f168015620010765780820380516001836020036101000a031916815260200191505b509a505050505050505050505060405180910390a18095505050600073__CSGeometryLib_________________________637834a61283866040518363ffffffff1660e01b8152600401808373ffffffffffffffffffffffffffffffffffffffff1673ffffffffffffffffffffffffffffffffffffffff1681526020018270ffffffffffffffffffffffffffffffffff191670ffffffffffffffffffffffffffffffffff191681526020019250505060206040518083038186803b1580156200113e57600080fd5b505af415801562001153573d6000803e3d6000fd5b505050506040513d60208110156200116a57600080fd5b810190808051906020019092919050505090507f6025eef7c116bf3ac54c6c1b14f3dc851d6931e5d65aa525cd2bfe9078b28f3d60038286868660405180806020018681526020018570ffffffffffffffffffffffffffffffffff191670ffffffffffffffffffffffffffffffffff191681526020018481526020018373ffffffffffffffffffffffffffffffffffffffff1673ffffffffffffffffffffffffffffffffffffffff1681526020018281038252878181546001816001161561010002031660029004815260200191508054600181600116156101000203166002900480156200129d5780601f1062001271576101008083540402835291602001916200129d565b820191906000526020600020905b8154815290600101906020018083116200127f57829003601f168201915b5050965050505050505060405180910390a1620012c76001600554620016e790919063ffffffff16565b600581905550505050509695505050505050565b6000600160009054906101000a900460ff16905090565b6000600554905090565b620013106200130a620015ff565b62001770565b565b60025481565b6200132c62001326620015ff565b620008bb565b62001383576040517f08c379a000000000000000000000000000000000000000000000000000000000815260040180806020018281038252603081526020018062002f336030913960400191505060405180910390fd5b6200138e81620017cc565b50565b620013a56200139f620015ff565b620008bb565b620013fc576040517f08c379a000000000000000000000000000000000000000000000000000000000815260040180806020018281038252603081526020018062002f336030913960400191505060405180910390fd5b600160009054906101000a900460ff161562001480576040517f08c379a00000000000000000000000000000000000000000000000000000000081526004018080602001828103825260108152602001807f5061757361626c653a207061757365640000000000000000000000000000000081525060200191505060405180910390fd5b60018060006101000a81548160ff0219169083151502179055507f62e78cea01bee320cd4e420270b5ea74000d11b0c9f74754ebdbfc544b05a258620014c5620015ff565b604051808273ffffffffffffffffffffffffffffffffffffffff1673ffffffffffffffffffffffffffffffffffffffff16815260200191505060405180910390a1565b60008073ffffffffffffffffffffffffffffffffffffffff166006600084815260200190815260200160002060009054906101000a900473ffffffffffffffffffffffffffffffffffffffff1673ffffffffffffffffffffffffffffffffffffffff161415620015c4576040517f08c379a000000000000000000000000000000000000000000000000000000000815260040180806020018281038252602681526020018062002f636026913960400191505060405180910390fd5b6006600083815260200190815260200160002060009054906101000a900473ffffffffffffffffffffffffffffffffffffffff169050919050565b600033905090565b60008073ffffffffffffffffffffffffffffffffffffffff168273ffffffffffffffffffffffffffffffffffffffff16141562001690576040517f08c379a000000000000000000000000000000000000000000000000000000000815260040180806020018281038252602281526020018062002fd36022913960400191505060405180910390fd5b8260000160008373ffffffffffffffffffffffffffffffffffffffff1673ffffffffffffffffffffffffffffffffffffffff16815260200190815260200160002060009054906101000a900460ff16905092915050565b60008082840190508381101562001766576040517f08c379a000000000000000000000000000000000000000000000000000000000815260040180806020018281038252601b8152602001807f536166654d6174683a206164646974696f6e206f766572666c6f77000000000081525060200191505060405180910390fd5b8091505092915050565b620017868160006200182890919063ffffffff16565b8073ffffffffffffffffffffffffffffffffffffffff167fcd265ebaf09df2871cc7bd4133404a235ba12eff2041bb89d9c714a2621c7c7e60405160405180910390a250565b620017e2816000620018e990919063ffffffff16565b8073ffffffffffffffffffffffffffffffffffffffff167f6719d08c1888103bea251a4ed56406bd0c3e69723c8a1686e017e7bbe159b6f860405160405180910390a250565b62001834828262001607565b6200188b576040517f08c379a000000000000000000000000000000000000000000000000000000000815260040180806020018281038252602181526020018062002fb26021913960400191505060405180910390fd5b60008260000160008373ffffffffffffffffffffffffffffffffffffffff1673ffffffffffffffffffffffffffffffffffffffff16815260200190815260200160002060006101000a81548160ff0219169083151502179055505050565b620018f5828262001607565b1562001969576040517f08c379a000000000000000000000000000000000000000000000000000000000815260040180806020018281038252601f8152602001807f526f6c65733a206163636f756e7420616c72656164792068617320726f6c650081525060200191505060405180910390fd5b60018260000160008373ffffffffffffffffffffffffffffffffffffffff1673ffffffffffffffffffffffffffffffffffffffff16815260200190815260200160002060006101000a81548160ff0219169083151502179055505050565b61155d80620019d68339019056fe60806040523480156200001157600080fd5b506040516080806200155d833981018060405260808110156200003357600080fd5b810190808051906020019092919080519060200190929190805190602001909291908051906020019092919050505083838383838383836200007a6200043760201b60201c565b6000806101000a81548173ffffffffffffffffffffffffffffffffffffffff021916908373ffffffffffffffffffffffffffffffffffffffff1602179055506000809054906101000a900473ffffffffffffffffffffffffffffffffffffffff1673ffffffffffffffffffffffffffffffffffffffff16600073ffffffffffffffffffffffffffffffffffffffff167f8be0079c531659141344cd1fd0a4f28419497f9722a3daafe3b4186f6b6457e060405160405180910390a360008110158015620001475750601081105b6200019e576040517f08c379a000000000000000000000000000000000000000000000000000000000815260040180806020018281038252603c81526020018062001521603c913960400191505060405180910390fd5b6000600360009054906101000a905050600f60ff16141562000228576040517f08c379a000000000000000000000000000000000000000000000000000000000815260040180806020018281038252600f8152602001807f456d7074792064676773496e646578000000000000000000000000000000000081525060200191505060405180910390fd5b6000602060ff161415620002a4576040517f08c379a000000000000000000000000000000000000000000000000000000000815260040180806020018281038252600d8152602001807f456d70747920776b62486173680000000000000000000000000000000000000081525060200191505060405180910390fd5b620002b5826200043f60201b60201c565b8260028190555083600360006101000a8154816effffffffffffffffffffffffffffff021916908360881c02179055506000600560006101000a81548160ff021916908360028111156200030557fe5b02179055508060048190555073__CSGeometryLib_________________________637834a61283866040518363ffffffff1660e01b8152600401808373ffffffffffffffffffffffffffffffffffffffff1673ffffffffffffffffffffffffffffffffffffffff1681526020018270ffffffffffffffffffffffffffffffffff191670ffffffffffffffffffffffffffffffffff191681526020019250505060206040518083038186803b158015620003bd57600080fd5b505af4158015620003d2573d6000803e3d6000fd5b505050506040513d6020811015620003e957600080fd5b8101908080519060200190929190505050600181905550505050506002600560006101000a81548160ff021916908360028111156200042457fe5b0217905550505050505050505062000682565b600033905090565b6200044f620004d660201b60201c565b620004c2576040517f08c379a00000000000000000000000000000000000000000000000000000000081526004018080602001828103825260208152602001807f4f776e61626c653a2063616c6c6572206973206e6f7420746865206f776e657281525060200191505060405180910390fd5b620004d3816200053c60201b60201c565b50565b60008060009054906101000a900473ffffffffffffffffffffffffffffffffffffffff1673ffffffffffffffffffffffffffffffffffffffff16620005206200043760201b60201c565b73ffffffffffffffffffffffffffffffffffffffff1614905090565b600073ffffffffffffffffffffffffffffffffffffffff168173ffffffffffffffffffffffffffffffffffffffff161415620005c4576040517f08c379a0000000000000000000000000000000000000000000000000000000008152600401808060200182810382526026815260200180620014fb6026913960400191505060405180910390fd5b8073ffffffffffffffffffffffffffffffffffffffff166000809054906101000a900473ffffffffffffffffffffffffffffffffffffffff1673ffffffffffffffffffffffffffffffffffffffff167f8be0079c531659141344cd1fd0a4f28419497f9722a3daafe3b4186f6b6457e060405160405180910390a3806000806101000a81548173ffffffffffffffffffffffffffffffffffffffff021916908373ffffffffffffffffffffffffffffffffffffffff16021790555050565b610e6980620006926000396000f3fe608060405234801561001057600080fd5b50600436106100cf5760003560e01c8063715018a61161008c578063b85a0edd11610066578063b85a0edd146104fb578063bf53096914610519578063cf50e60314610592578063f2fde38b146105c0576100cf565b8063715018a6146104855780638da5cb5b1461048f5780638f32d59b146104d9576100cf565b806306ab28bf146101205780631383e2ad1461028257806317e178091461032557806325f1ceaf146103515780632befd03c146103ca578063487a178c1461040c575b6040517f08c379a0000000000000000000000000000000000000000000000000000000008152600401808060200182810382526029815260200180610e156029913960400191505060405180910390fd5b610128610604565b60405180806020018060200185815260200180602001848103845288818151815260200191508051906020019080838360005b8381101561017657808201518184015260208101905061015b565b50505050905090810190601f1680156101a35780820380516001836020036101000a031916815260200191505b50848103835287818151815260200191508051906020019080838360005b838110156101dc5780820151818401526020810190506101c1565b50505050905090810190601f1680156102095780820380516001836020036101000a031916815260200191505b50848103825285818151815260200191508051906020019080838360005b83811015610242578082015181840152602081019050610227565b50505050905090810190601f16801561026f5780820380516001836020036101000a031916815260200191505b5097505050505050505060405180910390f35b61028a6107f6565b604051808781526020018670ffffffffffffffffffffffffffffffffff191670ffffffffffffffffffffffffffffffffff191681526020018581526020018473ffffffffffffffffffffffffffffffffffffffff1673ffffffffffffffffffffffffffffffffffffffff16815260200183815260200182600281111561030c57fe5b60ff168152602001965050505050505060405180910390f35b61032d610844565b6040518082600281111561033d57fe5b60ff16815260200191505060405180910390f35b6103c86004803603602081101561036757600080fd5b810190808035906020019064010000000081111561038457600080fd5b82018360208201111561039657600080fd5b803590602001918460018302840111640100000000831117156103b857600080fd5b909192939192939050505061085b565b005b6103f6600480360360208110156103e057600080fd5b8101908080359060200190929190505050610871565b6040518082815260200191505060405180910390f35b6104836004803603602081101561042257600080fd5b810190808035906020019064010000000081111561043f57600080fd5b82018360208201111561045157600080fd5b8035906020019184600183028401116401000000008311171561047357600080fd5b9091929391929390505050610977565b005b61048d61098d565b005b610497610ac6565b604051808273ffffffffffffffffffffffffffffffffffffffff1673ffffffffffffffffffffffffffffffffffffffff16815260200191505060405180910390f35b6104e1610aef565b604051808215151515815260200191505060405180910390f35b610503610b4d565b6040518082815260200191505060405180910390f35b6105906004803603602081101561052f57600080fd5b810190808035906020019064010000000081111561054c57600080fd5b82018360208201111561055e57600080fd5b8035906020019184600183028401116401000000008311171561058057600080fd5b9091929391929390505050610b57565b005b6105be600480360360208110156105a857600080fd5b8101908080359060200190929190505050610b6d565b005b610602600480360360208110156105d657600080fd5b81019080803573ffffffffffffffffffffffffffffffffffffffff169060200190929190505050610b77565b005b60608060006060600660076008546009838054600181600116156101000203166002900480601f0160208091040260200160405190810160405280929190818152602001828054600181600116156101000203166002900480156106a95780601f1061067e576101008083540402835291602001916106a9565b820191906000526020600020905b81548152906001019060200180831161068c57829003601f168201915b50505050509350828054600181600116156101000203166002900480601f0160208091040260200160405190810160405280929190818152602001828054600181600116156101000203166002900480156107455780601f1061071a57610100808354040283529160200191610745565b820191906000526020600020905b81548152906001019060200180831161072857829003601f168201915b50505050509250808054600181600116156101000203166002900480601f0160208091040260200160405190810160405280929190818152602001828054600181600116156101000203166002900480156107e15780601f106107b6576101008083540402835291602001916107e1565b820191906000526020600020905b8154815290600101906020018083116107c457829003601f168201915b50505050509050935093509350935090919293565b600080600080600080600154600360009054906101000a900460881b60025461081d610ac6565b600454600560009054906101000a900460ff16955095509550955095509550909192939495565b6000600560009054906101000a900460ff16905090565b81816006919061086c929190610d49565b505050565b600061087b610aef565b6108ed576040517f08c379a00000000000000000000000000000000000000000000000000000000081526004018080602001828103825260208152602001807f4f776e61626c653a2063616c6c6572206973206e6f7420746865206f776e657281525060200191505060405180910390fd5b6000602060ff161415610968576040517f08c379a000000000000000000000000000000000000000000000000000000000815260040180806020018281038252600d8152602001807f456d70747920776b62486173680000000000000000000000000000000000000081525060200191505060405180910390fd5b81600281905550819050919050565b818160099190610988929190610d49565b505050565b610995610aef565b610a07576040517f08c379a00000000000000000000000000000000000000000000000000000000081526004018080602001828103825260208152602001807f4f776e61626c653a2063616c6c6572206973206e6f7420746865206f776e657281525060200191505060405180910390fd5b600073ffffffffffffffffffffffffffffffffffffffff166000809054906101000a900473ffffffffffffffffffffffffffffffffffffffff1673ffffffffffffffffffffffffffffffffffffffff167f8be0079c531659141344cd1fd0a4f28419497f9722a3daafe3b4186f6b6457e060405160405180910390a360008060006101000a81548173ffffffffffffffffffffffffffffffffffffffff021916908373ffffffffffffffffffffffffffffffffffffffff160217905550565b60008060009054906101000a900473ffffffffffffffffffffffffffffffffffffffff16905090565b60008060009054906101000a900473ffffffffffffffffffffffffffffffffffffffff1673ffffffffffffffffffffffffffffffffffffffff16610b31610bfd565b73ffffffffffffffffffffffffffffffffffffffff1614905090565b6000600154905090565b818160079190610b68929190610d49565b505050565b8060088190555050565b610b7f610aef565b610bf1576040517f08c379a00000000000000000000000000000000000000000000000000000000081526004018080602001828103825260208152602001807f4f776e61626c653a2063616c6c6572206973206e6f7420746865206f776e657281525060200191505060405180910390fd5b610bfa81610c05565b50565b600033905090565b600073ffffffffffffffffffffffffffffffffffffffff168173ffffffffffffffffffffffffffffffffffffffff161415610c8b576040517f08c379a0000000000000000000000000000000000000000000000000000000008152600401808060200182810382526026815260200180610def6026913960400191505060405180910390fd5b8073ffffffffffffffffffffffffffffffffffffffff166000809054906101000a900473ffffffffffffffffffffffffffffffffffffffff1673ffffffffffffffffffffffffffffffffffffffff167f8be0079c531659141344cd1fd0a4f28419497f9722a3daafe3b4186f6b6457e060405160405180910390a3806000806101000a81548173ffffffffffffffffffffffffffffffffffffffff021916908373ffffffffffffffffffffffffffffffffffffffff16021790555050565b828054600181600116156101000203166002900490600052602060002090601f016020900481019282601f10610d8a57803560ff1916838001178555610db8565b82800160010185558215610db8579182015b82811115610db7578235825591602001919060010190610d9c565b5b509050610dc59190610dc9565b5090565b610deb91905b80821115610de7576000816000905550600101610dcf565b5090565b9056fe4f776e61626c653a206e6577206f776e657220697320746865207a65726f20616464726573737468697320636f6e74726163742073686f756c64206e65766572206861766520612062616c616e6365a165627a7a723058207e55bba4ed6eb9fa190600b372b2f88c6c4de084323131778676377fb5fbe21600294f776e61626c653a206e6577206f776e657220697320746865207a65726f20616464726573734833205265736f6c7574696f6e206d757374206265205f68335265736f6c7574696f6e203e3d30202626205f68335265736f6c7574696f6e203c3136506175736572526f6c653a2063616c6c657220646f6573206e6f742068617665207468652050617573657220726f6c654665617475726520646f6573206e6f7420657869737420696e207468652072656769737472797468697320636f6e74726163742073686f756c64206e65766572206861766520612062616c616e6365526f6c65733a206163636f756e7420646f6573206e6f74206861766520726f6c65526f6c65733a206163636f756e7420697320746865207a65726f2061646472657373a165627a7a723058200e06a20f29c0bf0052142dd46f8dcdcd095dcef826ba03cc7ebdaf3a2b11857d00294833205265736f6c7574696f6e206d757374206265205f68335265736f6c7574696f6e203e3d30202626205f68335265736f6c7574696f6e203c3136526f6c65733a206163636f756e7420697320746865207a65726f2061646472657373",
  "source": "/**\n * @title Crypto-Spatial Parcels Registry\n * @author BENAHMED DAHO Ali\n * @notice an abstract contract that implement a Parcels Registry\n * @dev ...\n *\n*/\n\npragma solidity ^0.5.0;\n\nimport './LAParcel.sol';\nimport './geospatial/CSFeatureRegistry.sol';\n\ncontract LAParcelRegistry is CSFeatureRegistry {\n  //\n  // State variables\n  //\n\n  // mapping(bytes32 => LAParcel) parcels; // Mapping CSC => Parcels\n\n  //\n  // Events - publicize actions to external listeners\n  //\n\n  event LogParcelClaimed(bytes32 csc, bytes15 dggsIndex, bytes32 wkbHash, string addr, string lbl, uint area, string parcelType);\n\n  //\n  // Functions\n  //\n\n  /// @notice constuctor\n  constructor (string memory _name, uint _h3Resolution, string memory _srs) public\n  CSFeatureRegistry(_name,_h3Resolution,_srs) {\n    name = \"Parcel Registry\";\n  }\n\n  /**\n  * @notice addFeature modifier\n  * @param dggsIndex dggsIndex of the feature\n  * @param wkbHash Well Known Binary Hash\n  * @param addr External Address ID\n  * @param lbl Parcel label\n  * @param area Parcel Area\n  * @return the Crypto-Spatial Coordinate (CSC) of the feature\n  */\n  function claimParcel(bytes15 dggsIndex,\n                       bytes32 wkbHash,\n                       string memory addr,\n                       string memory lbl,\n                       uint area,\n                       string memory parcelType)\n  public addFeature( dggsIndex, wkbHash, msg.sender)\n  returns (bytes32) {\n\n    // TODO check inputs\n\n    LAParcel parcel = new LAParcel(dggsIndex,wkbHash, msg.sender, h3Resolution);\n    bytes32 csc = parcel.getFeatureCSC();\n    parcel.setExtAddressId(addr);\n    parcel.setLabel(lbl);\n    parcel.setArea(area);\n    parcel.setParcelType(parcelType);\n    features[csc] = address(parcel);\n    emit LogParcelClaimed(csc, dggsIndex, wkbHash, addr, lbl, area, parcelType);\n    return csc;\n  }\n}\n",
  "sourcePath": "/home/ali/EthProjects/onchain-land-administration/solidity/contracts/LAParcelRegistry.sol",
  "compiler": {
    "name": "solc",
    "version": "0.5.8+commit.23d335f2.Emscripten.clang"
  },
  "schemaVersion": "3.0.16",
  "updatedAt": "2019-11-08T15:52:07.958Z",
  "devdoc": {
    "methods": {
      "claimParcel(bytes15,bytes32,string,string,uint256,string)": {
        "params": {
          "addr": "External Address ID",
          "area": "Parcel Area",
          "dggsIndex": "dggsIndex of the feature",
          "lbl": "Parcel label",
          "wkbHash": "Well Known Binary Hash"
        },
        "return": "the Crypto-Spatial Coordinate (CSC) of the feature"
      },
      "getFeature(bytes32)": {
        "params": {
          "csc": "the feature CSC"
        },
        "return": "the address of the feature deployed contract"
      },
      "getFeatureCount()": {
        "return": "the count of the features added to the registry"
      },
      "pause()": {
        "details": "Called by a pauser to pause, triggers stopped state."
      },
      "paused()": {
        "details": "Returns true if the contract is paused, and false otherwise."
      },
      "unpause()": {
        "details": "Called by a pauser to unpause, returns to normal state."
      }
    }
  },
  "userdoc": {
    "methods": {
      "claimParcel(bytes15,bytes32,string,string,uint256,string)": {
        "notice": "addFeature modifier"
      },
      "constructor": "constuctor",
      "getFeature(bytes32)": {
        "notice": "getFeature"
      },
      "getFeatureCount()": {
        "notice": "getFeatureCount"
      }
    }
  }
}